:020000040800F2
:10000000C01C0020F9010008A57900081B64000845
:1000100000000000000000000000000000000000E0
:10002000000000000000000000000000D98300086C
:1000300000000000000000007F010008E1890008C6
:100040000B020008000000000B0200080B02000871
:100050000B0200080B0200080B0200080B0200084C
:100060000000000055170008651700083D1700083C
:100070000B0200080B0200080B0200080000000041
:100080000592000800000000000000000B020008BC
:10009000000000000B0200080B0200080B02000821
:1000A0000B0200080B0200080B0200080B020008FC
:1000B000219F000800000000000000000000000078
:1000C00000F002F800F030F80CA030C8083824180E
:1000D0002D18A246671EAB4654465D46AC4201D180
:1000E00000F022F87E460F3E0FCCB6460126334282
:1000F00000D0FB1AA246AB463343184734BD00007C
:1001000054BD00000023002400250026103A01D32E
:1001100078C1FBD8520700D330C100D50B607047BF
:100120001FB51FBD10B510BD00F0E8FC1146FFF76C
:10013000F7FF0AF071FA00F000FD03B4FFF7F2FFD9
:1001400003BC00F031FD0000084B1968086820303E
:1001500080F30988022080F31488BFF36F8F3FBCBF
:10016000AE4608BC04BC62B618470000FC00002084
:10017000EFF3108072B6704780F310887047EFF38A
:1001800009800E4B1A6820381060F0C044464D4676
:1001900056465F46F0C008B572B60AF0F1FF62B687
:1001A0000CBC116808681030F0C8A046A946B246D9
:1001B000BB4680F309882038F0C81847FC000020AF
:1001C00070B505460C46164602E00FCC0FC5103E32
:1001D000102EFAD2082E02D303CC03C5083E042EFB
:1001E00007D301CC01C5361F03E021782970641CB8
:1001F0006D1C761EF9D270BD07488047074800473E
:10020000FEE7FEE7FEE7FEE7FEE7FEE704480549F6
:10021000054A064B7047000001920008C100000823
:10022000C0160020C01C0020C0180020C0180020EC
:10023000F8B5042A2CD3830712D00B78491C03701D
:10024000401C521E83070BD00B78491C0370401CC6
:10025000521E830704D00B78491C0370401C521EA9
:100260008B079B0F05D0C91ADF002023DE1B08C9AE
:100270000AE0FFF7A5FFF8BD1D4608C9FD401C4672
:10028000B4402C4310C0121F042AF5D2F308C91A37
:10029000521EF0D40B78491C0370401C521EEAD445
:1002A0000B78491C0370401C012AE4D409780170C2
:1002B000F8BDD2B210B513029A1813049A1800F0C0
:1002C0000EF810BD01E004C0091F0429FBD28B0702
:1002D00001D50280801CC90700D002707047002938
:1002E0000BD0C30702D00270401C491E022904D360
:1002F000830702D50280801C891EE3E70022EEE717
:100300000022DFE7002203098B422CD3030A8B4231
:1003100011D300239C464EE003460B433CD40022FD
:1003200043088B4231D303098B421CD3030A8B420F
:1003300001D394463FE0C3098B4201D3CB01C01ADD
:10034000524183098B4201D38B01C01A52414309A8
:100350008B4201D34B01C01A524103098B4201D396
:100360000B01C01A5241C3088B4201D3CB00C01A03
:10037000524183088B4201D38B00C01A524143087B
:100380008B4201D34B00C01A5241411A00D20146A0
:100390005241104670475DE0CA0F00D04942031039
:1003A00000D34042534000229C4603098B422DD388
:1003B000030A8B4212D3FC22890112BA030A8B4230
:1003C0000CD3890192118B4208D3890192118B427F
:1003D00004D389013AD0921100E08909C3098B4204
:1003E00001D3CB01C01A524183098B4201D38B0147
:1003F000C01A524143098B4201D34B01C01A5241EA
:1004000003098B4201D30B01C01A5241C3088B422E
:1004100001D3CB00C01A524183088B4201D38B0019
:10042000C01A5241D9D243088B4201D34B00C01AA3
:100430005241411A00D20146634652415B101046B8
:1004400001D34042002B00D54942704763465B1000
:1004500000D3404201B50020C046C04602BD7047EF
:10046000704770470346CA02400D10B510430A1585
:1004700004D00124E4072043002A05DB0A4CA21A19
:1004800004D4D040FF2A00DD002010BD4A00002B1C
:1004900001D0012000E00020101801225205D042B6
:1004A000F2D8C817C04310BD1E0400001F22030C61
:1004B00002D10F22000402D0030E03D004E000207A
:1004C000014670470002083A030F01D10001121FD4
:1004D000830F01D18000921E002801DB4000521ED4
:1004E000120551184205C012411810467047C10F3D
:1004F000C90700D04042012292071143D6E70121EB
:100500008907D3E7F0B58B4C0F09254689B0BD4369
:100510007BD01D092646AE43FAD00E465E402740EA
:10052000F60F3E43254071D024012142FBD0FF2429
:10053000AD19A4042D1B039501252D05DB02DB0A53
:10054000C9022B43C90A29431E010901040F130FD5
:10055000050121431701880B820391432D098C4625
:10056000A90B1E438A039543B30B9A0396433F0995
:10057000BA0B9403A74302962E467E430497B646D1
:100580004E19D7190C460196544305977E43371BE5
:100590007646BF1B3601B646BE0B36190096764628
:1005A000BC043719009C01D3641C00946400002F24
:1005B00001D001263443029E049F754366467E4364
:1005C0000496760034196E0034190094029C019E42
:1005D0001C196643751BAE46069465464519059C75
:1005E00005956C43594375460891691A0191049E1B
:1005F00001465143A41B0491611A009C0791E10636
:1006000005D061090122114302E072E06EE0610948
:10061000089D00272C0A2D066918049D7C412A0A92
:100620002D066918019D6241AC0DAD026D18544153
:10063000079A910D920255196141029A64465843F6
:100640005443069B059A5A43121A131B9A0E9B0198
:100650005B187A41010B0005C3185141220A20069C
:1006600044195A419A4200D2491C01204002814259
:1006700003D315230226F64302E014230326F64390
:100680002020C51AA9401746AF40DA400A43204649
:100690000399D8400914731819055118039A38435F
:1006A000D2075140AC4009D00122944006D3002229
:1006B000401C5141002C01D1400840001E4A934289
:1006C00012D3012203989206904207DB05204007CF
:1006D00009181A480143C012414004E003204007B2
:1006E0000818C10FC907002009B0F0BD0020F107AC
:1006F000FAE705180C464C4111486D42A04115D34C
:1007000094181A465A410E48644290410ED3012073
:100710004A004005824209D35A00824206D359401A
:10072000C90F084AC90700201143DDE70020064928
:10073000DAE700000000FF07FE070000FFFFFF7F71
:100740000000E0FF0000F07F0000F87F0121C905F4
:100750000123411842001B06D3185B0E0AD0C110BA
:100760000722D206891840075242D14201D55200D1
:1007700089187047090208D50146002A03D0C10F25
:10078000C9070020704710467047420202D000207F
:1007900002497047072109050143F4E70000F87F8B
:1007A000F0B5FF252D04C609C209FF2704462E40D7
:1007B0000137CB093E4348402A402B400746002AD8
:1007C0006BD0002B69D0AA4267D0AB4265D000281D
:1007D00000DA32460125ED0529432C4309022002A7
:1007E000090AD21A4B0C7F24E31A434C000A7C44BA
:1007F000E35C7D242404121914145B00A2188842BF
:1008000001D3521C00E0400049420C465C432411D5
:100810005C43DB016415E318040A5C43C502200D48
:100820000C4644436419250A5D432303EC0C0D4632
:10083000654300030019EB184C42A34201D35B1837
:10084000401CD4052018002B07D05B00C91804D326
:10085000401C002901D1400840003F2189048A4200
:1008600009D3002A08DC1106090F04D00321490727
:100870004018C00FC007F0BD0122410012068918C0
:100880007F2252069142F6D205214907C84201D57E
:100890009010F0BDFF20C005F0BD002F00DA3246F9
:1008A0001648AA4207D2AB4205D21902090E17D048
:1008B000F80FC007F0BDFF2563002D06AB42F9D845
:1008C0004900A942F6D8AB4201D1A942F2D0A942CF
:1008D00001D1002101E061004908D0050843F0BDC5
:1008E0001102090EFBD0FF200243D005F0BD0A46DD
:1008F0000146104654E70000D7B500000000C07F55
:1009000010B501469E240002CA15A307002A02D092
:100910001843002A04DBA21A002A0CDDD04010BDC7
:100920001206120E01D140004008A21A03D4D04092
:1009300040420028F3DDFF2248001206904201D910
:10094000002010BDC817C043584010BD1F22030C23
:1009500002D10F2200041CD0030E01D10002083A7C
:10096000030F01D10001121F830F01D18000921EDD
:10097000002801DB4000521ED20551180212511806
:100980001922904004D3491C002801D1490849008C
:1009900008467047C10FC90700D0404201229207A4
:1009A0001143D3E701218907D0E70000F8B5224CB5
:1009B0004E00069DA6420AD8A64201D1002806D1C3
:1009C0005E00A64203D8A6420AD1002A08D00D2410
:1009D000240425422CD02946002000F061F8F8BDFF
:1009E0000C461C430CD4994202D0EFF30080F8BDB2
:1009F000904202D0EFF30080F8BDEFF30080F8BD25
:100A000009242407E5008B4206D0EFF30080A043C1
:100A1000591A06D2284304E0101A05D3EFF30080D8
:100A2000A04380F30088F8BDEFF30080A043F1E716
:100A3000009500F04DF8F8BD0000E0FF10B5FF2371
:100A40001B0644009C421DD84C009C421AD8034609
:100A5000124A0B4307D4401A02D3EFF3008010BDB3
:100A6000EFF3008010BD081A06D2EFF300800121D9
:100A70009043C907084302E0EFF30080904380F3FE
:100A8000008810BD0D231B041A4204D0114600201B
:100A900000F006F810BD00F025F810BD0000009031
:100AA000C80212D54803400F002804D0C803C04331
:100AB000012188407047EFF3008000010009032105
:100AC0000907084380F30088704700207047000042
:100AD00010B500200249029A00F037F810BD00005E
:100AE0000000F87F10B5024800F02FF810BD00009C
:100AF0000000C07F004870475C1600207546FFF775
:100B0000F9FFAE46050069465346C008C000854659
:100B100018B020B5FFF77AFB60BC00274908B6463D
:100B20000026C0C5C0C5C0C5C0C5C0C5C0C5C0C5FC
:100B3000C0C5403D49008D46704710B50446C046CB
:100B4000C0462046FFF7F9FA10BD10B50C46110754
:100B5000090F092904D00A290AD008290CD104E078
:100B600011460820FFF79CFF06E0510606D501E07C
:100B7000510601D50120C007214610BDD10607D579
:100B800001010909CC084907000E0006044309E0E9
:100B9000410F20024907000A0143200E00061D22D2
:100BA000D14101430846E7E701491820ABBEFEE703
:100BB00026000200704770B58C180578401C6B0742
:100BC0005B0F01D10378401C2A1106D10278401C2A
:100BD00003E00678401C0E70491C5B1EF9D12B0700
:100BE00005D40023521E0DD40B70491CFAE703787C
:100BF000401CCB1A921C03E01D780D70491C5B1C35
:100C0000521EF9D5A142D8D3002070BD70B5414C19
:100C10000023E35E404C0025655F5A1B002A01DB80
:100C2000134600E053423B4D02242C5F3A4D02260E
:100C3000AE5FA11B002901DB0C4600E04C421C19F1
:100C4000344D0423EB5E344D0426AE5F981B002820
:100C500001DB034600E04342E318304C24681B19D3
:100C60002E4C23602C4B00229A5E002A01DB134697
:100C700000E05342284C0221615E002901DB0C4652
:100C800000E04C421C19244B0420185E002801DBB4
:100C9000034600E04342E318214C236020460068ED
:100CA00005214903884202D901201E4908701E48C7
:100CB0000088401C1C490880084600880A281EDB62
:100CC0000020088015480068184988420FD9134849
:100CD00000681749884203D90120164908600BE0D3
:100CE00001201549086000201249086004E0002036
:100CF000114908600F49086000200849086006484B
:100D00000088044908800448408848800248808858
:100D1000888070BD860000205800002090000020D0
:100D2000940000206E0000208C000020821400003F
:100D3000F8240100700000207400002070B5044603
:100D4000206806F018F900282BD0206806F0F6F885
:100D5000002807D120688168134A11401031816052
:100D600000BF00BF02F0DEFB054614E002F0DAFB34
:100D7000401B02280FD92068806804210840002801
:100D800009D0A06D10210843A065E06D0121084342
:100D9000E065012070BD20688068042108400028BB
:100DA000E4D10020F6E70000E8FFFF7F70B50546BC
:100DB000AC6AA06D50210840002831D1A06D0121FE
:100DC00049020843A065206806F0DBF8002823D01C
:100DD000A07E002820D1206800680821084008284B
:100DE0001AD1206806F0C7F800280DD120684068A5
:100DF0000C21884321684860A06DFF2101318843A0
:100E000001210843A06507E0A06D20210843A065EB
:100E1000E06D01210843E065204601F07FFC0CE015
:100E2000A06D10210840002803D0204601F0C3FC2B
:100E300003E0206D416B2846884770BD70B50546BC
:100E4000AC6AA06D40210843A065E06D0421084311
:100E5000E065204601F0AFFC70BD70B50446A56AA0
:100E6000284601F0A7FC70BD10B5282202490348AE
:100E700001F07AFE10BD0000E0070020AC02002067
:100E800070B50446206806F059F80646206806F05A
:100E90005BF8002837D0002E35D120688068052106
:100EA0000840012806D1206806F032F803202168A6
:100EB000086009E0A06D10210843A065E06D0121E4
:100EC0000843E065012070BD02F02CFB054614E0EC
:100ED00002F028FB401B02280FD920688068C00759
:100EE000C00F002809D0A06D10210843A065E06D57
:100EF00001210843E0650120E5E720688068C0071C
:100F0000C00F0028E4D10020DDE7000038B504461A
:100F100000200090206806F017F8002858D12068BB
:100F200080682C490840002809D0A06D1021084392
:100F3000A065E06D01210843E065012038BD20680F
:100F400005F0EEFF244805F0F3FF0121C905084034
:100F500000280DD0214922480068FFF7D3F9401C32
:100F6000009002E00098401E009000980028F9D1FF
:100F7000607E01282CD002F0D5FA05461FE02068DB
:100F800005F0E2FF002802D1206805F0C9FF02F059
:100F9000C9FA401B022812D920680068C007C00F98
:100FA000012148404840002809D1A06D1021084384
:100FB000A065E06D01210843E0650120BEE72068DF
:100FC0000068C007C00F0121484048400028D6D023
:100FD0000020B3E71700008008270140400D030000
:100FE0001C00002010B54048407801286BD13E48D5
:100FF0008078C007C00F002827D13C480078072818
:1010000023D139480078401C3749087008460078D9
:10101000022810DA0846807840084000401C88709A
:1010200001220221324802F076FA012211023148EF
:1010300002F071FA09E00022FF2101312D4802F08F
:101040006AFA00202849C8720873284840882A494B
:10105000884205DB244880788007C00F00281BD019
:1010600021488078022188431F498870084680788B
:101070004008400088700022FF2101311D4802F025
:101080004AFA002210210520000702F044FA00224B
:101090000221174802F03FFA13480078002821D0B7
:1010A00012484088154988421CDD01221021052084
:1010B000000702F030FA0C48007D02218843801CB2
:1010C000094908750EE00848407802280AD1012233
:1010D0000221074802F01FFA0022FF2101310548D2
:1010E00002F019FA10BD000030080020A600002010
:1010F00000140050000400508F0A00001E0D000074
:10110000014600207047000010B500F09BFFFFF77C
:101110007DFD00F0D5FF35480088401C80B2334982
:1011200008800A2843DB00200880314908703148D4
:10113000006800280CD130480068012808D12F48E9
:101140000078401C2D4908700120294908702EE0C4
:101150002848006801280CD127480068002808D1D9
:1011600026484078401C25494870012020490870D5
:101170001DE02048006801280CD11F4800680128A4
:1011800008D11E488078401C1C49887001201849ED
:1011900008700CE01A480068012808D11648006859
:1011A000002804D11548C078401C1449C870104864
:1011B0000078002806D00120124908701420124936
:1011C000088010E00F48007800280CD00E480088F6
:1011D000002805DD0C480088401E0B49088002E00D
:1011E0000020084908700748007810BDA0000020C2
:1011F000A500002070000020780000208000002062
:1012000074000020A4000020A20000204C48007BB5
:1012100001287DD14A4880794A490978884204D01A
:101220000020494908604949086045488079454996
:101230000870474880794007C00F002805D1424810
:101240000068401C404908602FE03D488079002834
:1012500014D13B48807CC007C00F002808D03B4811
:101260000068401C3949086000203A49086019E0CC
:1012700038480068401C3749086013E03048807CDB
:101280008007C00F002808D030480068401C2F4954
:10129000086000202F49086004E02E480068401CC8
:1012A0002C490860002028490860274800682A491E
:1012B000884203D827480068884206D9002022497E
:1012C0000860244908601E4908731D488079002879
:1012D0000CD11E480068214988422FD900201A49A4
:1012E00008601C4908601649087327E01748006821
:1012F0001B49884206D90020134908601549086037
:101300000F490873114800681649884204D100E06B
:101310000BE00120144908700C480068134988420A
:101320000CD101201049087008E00020074908602E
:1013300005490860074908600249087070470000C5
:101340003008002030000020280000202400002069
:10135000140900202C000020E02E00003075000051
:10136000C05D000010270000B8000020204E0000E3
:1013700010B555220021024803F032FB10BD0000D9
:101380004C07002010B52F4880794007C00F002877
:101390000FD02D48807B002805D1012240212B4809
:1013A00002F0B9F80AE000224021284802F0B3F820
:1013B00004E000224021254802F0ADF82248007BDD
:1013C00001283AD12048407C002804D0012809D0C7
:1013D000022830D10DE0002220210520000702F074
:1013E0009AF829E0012220210520000702F093F855
:1013F00022E017480078401CC0B2154908700A283E
:1014000006DA012220210520000702F084F811E00D
:101410000F4800780F2806DA002220210520000757
:1014200002F079F806E00A4800780F2802DB002075
:101430000749087000E000BF02E00020024948743C
:1014400010BD0000140900203008002000080050E2
:101450003200002010B50446114800881149488028
:101460000F484088888008F017FE0F48407B00280E
:1014700011D1002C0AD10C48007DC007C00F0028F4
:101480000DD00849488808F0CFFE08E00549488893
:1014900008F0A6FE03E00349488808F041FE10BDAD
:1014A0005C080020A60000203008002008B50120BC
:1014B0000C4B02460F210090D42004F0D7FF0028E7
:1014C0000BD1084800786C2803D101200649087424
:1014D00008BD022004490874FAE702200249087492
:1014E00000BFF5E7E80800203008002010B5634889
:1014F000407B012868D16148007B002804D0012886
:101500002AD002285ED156E05C48806A6E2822D834
:101510005A48806A64281ED901225103584801F0B4
:10152000FAFF002220210520000701F0F4FF00222D
:101530000221544801F0EFFF00224021052000075E
:1015400001F0E9FF022009F031FD00221021052001
:10155000000701F0E0FF36E04848C07A00280BD1D0
:10156000012240210520000701F0D5FF012251038F
:10157000434801F0D0FF1DE04048C07A032819D14C
:10158000012251033E4801F0C6FF3C484078012843
:1015900006D1002240210520000701F0BCFF09E030
:1015A00036484078022805D1012240210520000755
:1015B00001F0B1FF07E03148C07A002801D12F497E
:1015C000087300E000BF58E02C484078032854D04E
:1015D0002A48007B002804D001281ED002284AD1C6
:1015E00035E029480078401CC0B2274908706428BB
:1015F00012DD00200870002240210520000701F0C4
:101600008AFF002202211F4801F085FF00220121EC
:1016100049031B4801F07FFF2EE001221021052025
:10162000000701F078FF01225103154801F073FF14
:1016300001220221134801F06EFF00224021052003
:10164000000701F068FF00200F49087014E0002037
:101650000D49087001225103094801F05CFF002286
:1016600040210520000701F056FF00220221054815
:1016700001F051FF00E000BF00BF10BD30080020A6
:101680000004005000140050200000203EB52848FF
:101690004078032801D0FFF729FF2548C07A0028A9
:1016A00001D1FFF7B3FD2248007B012826D1204855
:1016B000C07A00280BD1FFF727FD40000221084027
:1016C00004461B48807C8843204319498874184885
:1016D000807C02218843801C1549887415498979CA
:1016E0004907C80FFFF70CFD134908701048406AFE
:1016F000401C0F4948620020886206E00C48806A5E
:10170000401C0B498862002048620B480078094958
:1017100089794907C90F064A127B054C009201914D
:101720000290E379227A617AA07908F01FFE3EBD2B
:101730003008002014090020B808002010B5034824
:1017400001F05AFB024801F057FB10BDF0060020E3
:101750009406002010B5024801F04EFB10BD0000B9
:101760001003002010B5024801F046FB10BD000038
:101770007804002070B50446206C80088000094978
:10178000401860642178084608381421FEF7BAFD35
:10179000054604488030A064E906C90E012088404F
:1017A000E06470BD0008024002799106890E4A1E6D
:1017B0009200064BD2180265044A403242654A1E26
:1017C00093079B0F01229A408265704700090240EF
:1017D00070B5856CC46C6C60046D002C02D0456DD6
:1017E000846D6C600C4C64681C26056C35400126C9
:1017F000AE403443084D6C60046863608468102C0C
:1018000004D10468A2600468E16003E00468A16098
:101810000468E26070BD00000000024010B504469C
:1018200082480078401CC0B2804908700A287ADAE1
:10183000230008F0DBFB0805152535764555657650
:10184000002204217A4801F066FE01222021794815
:1018500001F061FE01221021764801F05CFE61E09A
:1018600000220421724801F056FE01222021714815
:1018700001F051FE012210216E4801F04CFE51E0B2
:10188000002204216A4801F046FE00222021694816
:1018900001F041FE01221021664801F03CFE41E0CA
:1018A00000220421624801F036FE00222021614816
:1018B00001F031FE002210215E4801F02CFE31E0E3
:1018C000012204215A4801F026FE01222021594814
:1018D00001F021FE01221021564801F01CFE21E0FA
:1018E00001220421524801F016FE01222021514814
:1018F00001F011FE012210214E4801F00CFE11E012
:10190000002204214A4801F006FE00222021494815
:1019100001F001FE00221021464801F0FCFD01E02B
:1019200001E000BF81E04148007814287ADA230002
:1019300008F05CFB080515253576455565760122CE
:1019400004213B4801F0E7FD01222021394801F044
:10195000E2FD01221021374801F0DDFD61E00122A6
:101960000421334801F0D7FD01222021314801F044
:10197000D2FD012210212F4801F0CDFD51E00022BF
:1019800004212B4801F0C7FD01222021294801F044
:10199000C2FD01221021274801F0BDFD41E00022D7
:1019A0000421234801F0B7FD00222021214801F045
:1019B000B2FD012210211F4801F0ADFD31E00122EE
:1019C00004211B4801F0A7FD01222021194801F044
:1019D000A2FD01221021174801F09DFD21E0012206
:1019E0000421134801F097FD01222021114801F044
:1019F00092FD012210210F4801F08DFD11E000221F
:101A000004210B4801F087FD00222021094801F044
:101A100082FD00221021074801F07DFD01E001E078
:101A200000BF02E000200149087010BDD80000206E
:101A3000000C00500004005010B50446230008F0CC
:101A4000D5FA0805152535454647484500220421A5
:101A5000214801F060FD01222021204801F05BFDBA
:101A6000012210211D4801F056FD33E0002204211F
:101A7000194801F050FD01222021184801F04BFDCA
:101A800001221021154801F046FD23E00022042127
:101A9000114801F040FD00222021104801F03BFDDB
:101AA000012210210D4801F036FD13E0002204212F
:101AB000094801F030FD00222021084801F02BFDEB
:101AC00000221021054801F026FD03E000BF00BF01
:101AD00000BF00BF00BF10BD000C0050000400504C
:101AE00010B5044628480078401CC0B2264908704A
:101AF0000A2833DA230008F079FA08050607082EC9
:101B000009192F2E29E028E027E026E001220421F0
:101B10001E4801F000FD012220211D4801F0FBFCC0
:101B2000012210211A4801F0F6FC16E001220421DE
:101B3000164801F0F0FC01222021154801F0EBFCD1
:101B400001221021124801F0E6FC12480078401CE6
:101B50001049087001E000BF00BF06E00A480078A5
:101B6000142802DB0020084908700B48C07A0328BB
:101B700008D0084800781E2804DD002005490870B8
:101B80000549087310BD0000D9000020000C00506A
:101B900000040050DA0000203008002010B5044690
:101BA000002C04D0012C12D0022C30D11FE00022D6
:101BB0000421184801F0AFFC01222021164801F051
:101BC000AAFC01221021144801F0A5FC20E000220B
:101BD0000421104801F09FFC002220210E4801F052
:101BE0009AFC012210210C4801F095FC10E0002223
:101BF0000421084801F08FFC00222021064801F052
:101C00008AFC00221021044801F085FC00E000BF9E
:101C100000BF10BD000C00500004005010B5044679
:101C2000E078002806D001280CD0022814D0032820
:101C300037D129E00020A080A079002801D0012020
:101C4000E0702FE0A078A179884202D10220E070F4
:101C500001E00020E07025E0A079A178884210D151
:101C60000320E070A06800280DD0A188A079A268A8
:101C70009047012807D10220E070A088401CA08076
:101C800001E00020E0700DE0A079A178884207D043
:101C90000020E070E068002802D0A078E168884762
:101CA00000E000BF00BFA079A07010BD10B50021FA
:101CB000034803F079FE0821014803F075FE10BDCA
:101CC000D404002010B50021034803F0F7FE0821DA
:101CD000014803F0F3FE10BDD404002010B500222B
:101CE0000121C902044801F016FC01221103024837
:101CF00001F011FC10BD00000004005010B50022DE
:101D000001210903044801F006FC00220121C90257
:101D1000014801F000FC10BD0004005017481849AC
:101D20000860184848601848886018480068022110
:101D300008431649086000BF312015490968C86288
:101D400031211348C16000BF14201149096848635C
:101D50001E200F490968886300200D490968C8637F
:101D60000A200B4909680864084800680221884372
:101D70000649086007480249086270470AD7233BB2
:101D80001C090020A69BC43A52499D3A002C0140F0
:101D9000D40400200852000010B50021014803F0CF
:101DA00003FE10BD200500201B488079002816D1B5
:101DB0001948007A002804D0012806D002280CD146
:101DC00007E016481649086208E0164814490862F8
:101DD00004E015481249086200E000BF1AE00E480E
:101DE0008079012816D10C48C079002804D0012838
:101DF00006D002280CD107E008480949086208E02B
:101E00000A480749086204E009480549086200E0F9
:101E100000BF00BF704700003008002008520000DB
:101E20001C090020D859000084670000C05D000034
:101E30007869000070B500F09DF9FFF7B5FF2E48F6
:101E4000406A0A282CD92D49888CFEF7ABFD044640
:101E50002A49086AFEF7A6FD0546284A214605F0EC
:101E6000A3FD26498861C869FEF794FD054623480D
:101E70008169284609F0D2FD0446FEF741FD1F495D
:101E8000C8610846C0695A2802DD5A20C86118E0B6
:101E90001A48C069322814DA32201849C86110E0A3
:101EA0001548406A022809D91448C069502808DA40
:101EB0001248C069401C1149C86102E00A200F495C
:101EC000C8610F480068022108430D49086000BF3F
:101ED00064200C490968C86264210A48C16000BFD7
:101EE0000648C06907490968486305480068022137
:101EF00088430349086070BD300800201C09002099
:101F0000002000402005002072B601E001F05AFFD9
:101F1000FCE700000449496901221204024311430D
:101F2000014A5161704700000020024010B503468D
:101F3000064A5269064C22401046CA000124240475
:101F40002243921C0243014C626110BD00200240FA
:101F500007E0FFFF10B50849496901242143064CF9
:101F60006161026000BF00BF00BFBFF36F8F00BFA1
:101F700000BF00BF436010BD00200240F0B5024624
:101F8000002314460D46114E76690127BF043E43D7
:101F90000E4F7E6100BFEFF31086304672B605E04B
:101FA0002E6826602D1D241D5E1CF3B2402BF7D336
:101FB00000BF064E366901273F043E40002EF8D18F
:101FC00000BF80F3108800BFF0BD00000020024079
:101FD00070B5044601F0A6FA061901252D0405E0A6
:101FE00001F0A0FAB04201D3032070BD124800698D
:101FF00028400028F4D110480069104908400546DF
:10200000481C0D490861002D03D00D484560012092
:10201000EBE701F087FA061905E001F083FAB04218
:1020200001D30320E1E70448006901218904084045
:102030000028F2D100BFD8E700200240FA83000058
:10204000C407002010B5FFF731FA012803D105F0CD
:10205000D3FC05F023FD10BD08B5FFF727FA0128D2
:1020600029D1154B024610210090D42004F01CFA0F
:10207000012001F017F801200F4B5B1C02461121D3
:102080000090D42004F010FA012001F00BF8012098
:102090000A4B024610210090D42004F0E7F90120F9
:1020A00001F000F80120054B5B1C02461121009055
:1020B000D42004F0DBF908BD64000020E80800200B
:1020C00010B5254B00229A5E002A01DB134600E082
:1020D0005342214C0221615E002901DB0C4600E0E5
:1020E0004C421C191C4B0420185E002801DB0346DF
:1020F00000E04342E318194C24681B19174C236075
:1021000017480088401C16490880084600880A289D
:1021100021DB00200880204600681249884212D93D
:10212000012011490860204600681049884203D9FF
:1021300001200F4908600BE001200B4908600020D6
:102140000B49086004E0002007490860084908605E
:1021500000200249086010BD5E0000209C000020A5
:1021600098000020941100007C00002044420100EF
:1021700078000020F8B507490889FEF7C0F9044641
:10218000054A064BFEF7BEF90646FEF76BF9044911
:102190008884F8BD5C080020C976BE9F1A2F2140B4
:1021A0001C09002010B51020254908701320487024
:1021B000002088700C20C870D42008712148008845
:1021C0000004000E48711F48007888711D4840883F
:1021D0000004000EC8711B48807808721948808876
:1021E0000004000E4872174800798872164800886B
:1021F0000004000EC8721448007808731248408822
:102200000004000E48731048807888730E48808858
:102210000004000EC8730C480079087400221121D4
:10222000074808F051F904462012054948748C7497
:10223000642306480288064804F06AF810BD0000CE
:10224000940B0020580000205E000020F0000020C9
:1022500004060020FEB5044600200190002600BFC1
:102260005420005D012801D10220FEBD012154202F
:10227000015500BF2046FEF703FE0290206804F0DF
:102280006BFE002873D1A06DFF210131884302212C
:102290000843A0652068C068444908400090206851
:1022A000C068C94308402168C860002528E020684C
:1022B00081683F4A114012078918816000BF13E00E
:1022C0000198401C01903B49019888420CD3A06DB5
:1022D0000221884310210843A06500BF002154203B
:1022E000015500BF0120C0E720688168C90F00299F
:1022F000E6D12068B42109584906490E8E196D1C93
:10230000082DD4D329463046FDF7FCFF0646206849
:102310008168274A1140491C816000BF314620680E
:10232000B4221258D209D2010A43B4231A5000BF72
:10233000206881681E4A1140891C816000BF01F03D
:10234000F1F8074614E001F0EDF8C01B02280FD9A0
:10235000206804F001FE00280AD0A06D1021084377
:10236000A065E06D01210843E06501207DE711E0F3
:10237000206804F0F1FD0028E5D12068C0680099CC
:1023800008432168C860A06D0221884301210843E9
:10239000A06503E0A06D10210843A06500BF0021E7
:1023A0005420015500BF02985FE700000380000041
:1023B000E8FFFF7F00F20200F0B585B005460C464D
:1023C0000020039002900121C9072869884203D0A8
:1023D000091D2869884200D100E000BF00BF5420D9
:1023E000405D012802D1022005B0F0BD012154203A
:1023F000415500BF286804F0BEFD002876D1606812
:10240000022874D00121C9072869884203D0091D18
:102410002869884208D128682168826A4B035B0BCF
:102420001A43826200BFC6E02179CA06D20E0F218C
:102430009140286E884321684903490B002905D142
:102440001F22920621681140890E92E02178C90767
:10245000C90F002901D000218BE002222168114020
:10246000022901D1012184E00422216811400429BC
:1024700001D102217DE0082221681140082901D103
:10248000032176E0102221681140102901D1042196
:102490006FE0202221681140202901D1052168E048
:1024A000402221681140402901D1062161E08022AB
:1024B00021681140802901D107215AE0FF22013211
:1024C00021681140914201D1082152E001225202BB
:1024D00021681140914201D109214AE00122920272
:1024E00021681140914203D10A2142E0FAE0BAE0AA
:1024F0000122D20221681140914201D10B2138E022
:102500000122120321681140914201D10C2130E0D7
:102510000122520321681140914201D10D2128E08E
:102520000122920321681140914201D10E2120E045
:102530000122D20321681140914201D10F2118E0FC
:102540000122120421681140914201D1102110E0B2
:102550000122520421681140914201D1112108E069
:102560000122920421681140914201D1122100E020
:1025700000212279D206D20E914008432866606875
:102580008008401CE969884215D82868226861687B
:102590000192836ACF06FF0E0F22BA4093430F27A2
:1025A000BF06019A3A40920ECF06FF0EBA4013437F
:1025B000836200BF00BF286821680091A168019173
:1025C0004269009909028A4300990B024C4F019914
:1025D00039400B401A43426100BF2068C00FC0075A
:1025E000002821D0474804F0A3FC0646464920684D
:1025F00088421AD1C0023040002816D1C8023043A8
:102600000146404804F0D0FC404941480068FDF7CD
:1026100079FE401C0C214843029002E00298401EC3
:10262000029002980028F9D162E03A492068884275
:102630000AD180023040002806D18802304301468A
:10264000304804F0B1FC53E03349206888424FD150
:102650004002304000284BD148023043014629480F
:1026600004F0A2FC44E00121C9072869884203D094
:10267000091D2869884208D128682168826A4B03AD
:102680005B0B9A43826200BF00BF2068C00FC00787
:1026900000282DD01B4804F04BFC06461A49206840
:1026A000884207D1C202304690430146154804F0E3
:1026B0007BFC1DE017492068884207D18202304622
:1026C000904301460F4804F06FFC11E01249206866
:1026D00088420DD14202304690430146094804F039
:1026E00063FC05E0A86D20210843A8650120039044
:1026F00000BF00215420415500BF039874E600003C
:1027000000FFFF0708270140001000B0400D030044
:102710001C000020004000B8002000B410B50446A2
:10272000204800F087FA082200211F4807F0EEFE3B
:102730001E490880082201211B4807F0E7FE1B49BB
:10274000488008220321184807F0E0FE17498880D6
:1027500008220421144807F0D9FE1449C880082231
:102760000221114807F0D2FE1049088108220521F4
:102770000D4807F0CBFE0D494881082206210A4882
:1027800007F0C4FE094988810948007D40084000DF
:10279000401C0749087528220349024800F0E4F963
:1027A00010BD0000AC020020E00700205C08002003
:1027B0003008002070477047FEB5044600200290A4
:1027C000002500260190002C01D10120FEBD3C20F7
:1027D000005D012800D100BF2069002805D001213B
:1027E00049052069884200D100BFA06D002807D1AB
:1027F000204600F02DF90020E0650021542001550D
:10280000206804F0B1FB002817D120688168894A4C
:102810001140012212071143816000BF8649874899
:102820000068FDF76FFD401C4000019002E0019838
:10283000401E019001980028F9D1206804F094FB13
:10284000002809D1A06D10210843A065E06D012189
:102850000843E06501200290206804F08CFB0746E5
:10286000A06D1021084000287ED1002FFCD1A06D62
:102870000901884302210843A065206804F064FB35
:10288000002872D1217E8903A0680843617EC903B4
:102890000843A17E49030843216B002902D001218E
:1028A000090300E000210843E16808432169C90FDA
:1028B000C907002903D021694900490801E0012125
:1028C000490508432C21095D4900084305432020A0
:1028D000005D01280ED1A07E002803D10120000454
:1028E000054307E0A06D20210843A065E06D0121AC
:1028F0000843E065606A002806D0FF21C131606AA4
:102900000840A16A084305432068C0684C49084054
:1029100028432168C8606068800F8007E16C084325
:1029200006433C20005D01280BD16068800F8007C2
:1029300001210843216C0843616C0843A16C0843E2
:102940000643206800693F49084030432168086118
:10295000032189076068884216D04942606888422E
:1029600012D04900606801E05BE00DE088420BD0C6
:10297000354880680F21890488430F2292046168DA
:1029800011400843304988600021626B206804F0E0
:1029900012FB2E49A26B206804F00DFB2069002871
:1029A00007D12068806A0F21C943084321688862E3
:1029B00011E001214905206988420CD1207F401E89
:1029C0004007C10E0F20C0438840216E0843216894
:1029D000896A21688862216800200091009949690C
:1029E0000422024007239340194004220240D140B0
:1029F000606B814208D10020E065A06D0221884310
:102A000001210843A06512E0A06D02218843102136
:102A10000843A065E06D01210843E06501200290B4
:102A200005E0A06D10210843A065012002900298E6
:102A3000CCE60000E8FFFF7F400D03001C000020F3
:102A40000102FEFF02FCFF1F0027014004FFFF07F9
:102A500010B58CB00446142107A8FDF751FC1821CD
:102A600001A8FDF74DFC3A49206888426DD101204C
:102A7000800301900020059001A801F0EBF90028E7
:102A800001D0FFF741FA00BF324800680121090573
:102A900008433049086008460068012109050840DC
:102AA000009000BF00BF00BF2A484038406B0121A2
:102AB00008432849403948630846406BC007C00FA7
:102AC000009000BF00BF00BF0846406B02210843D2
:102AD0002049403948630846406B02210840009075
:102AE00000BF00BF832007900320089000200990BA
:102AF00007A90520000700F019FC174807900320DC
:102B000008900020099007A9144800F00FFC144811
:102B10001449086005204860002112488160C160A6
:102B20008021016149004161890081612021C161E9
:102B30000021016200F0F0F9002801D0FFF7E4F96C
:102B400000BF08482065846200BF0CB010BD0000C3
:102B5000002401404010024007040000000400501F
:102B60000800024010030020F8B504460E46174640
:102B7000206804F000FA002850D100BF5420005D06
:102B8000012801D10220F8BD01215420015500BFC8
:102B90002068C068084000280DD1206804F0D4F9EE
:102BA000002802D0206804F0B3F92068C068012131
:102BB00008432168C8602046FEF7A8F90546002DA5
:102BC0002DD1A06D17490840FF2101310843A065B0
:102BD0000020E0651448216DC8621448216D086327
:102BE0001348216D48631C202168086000BF002144
:102BF0005420015500BF2068406810210843216817
:102C000048602268114640313B463246206D00F054
:102C1000E3F90546206804F0BFF900E002252846E4
:102C2000B1E70000FEF1FFFFAD0D00085B0E0008EC
:102C30003D0E000870B5044600BF5420005D012819
:102C400001D1022070BD01215420015500BF204652
:102C5000FEF774F80546002D2DD1206D2030407907
:102C6000022809D1206D00F02DF80546002D03D073
:102C7000A06D40210843A06520684068102188436A
:102C800021684860002D04D12046FEF7F9F805467A
:102C900002E02046FEF7F4F8002D06D1A06DFF21DA
:102CA0000131884301210843A0652068C0684008BD
:102CB00040002168C86000BF00215420015500BFBA
:102CC0002846BFE70146002901D101207047252091
:102CD000405C022808D00420C86300BF00222420E2
:102CE000425400BF0120F1E7086800680E229043BB
:102CF0000A681060486C0068FF22013290434A6CF9
:102D0000106008680068400840000A6810601248B7
:102D100040681C230A6C1A400123934018430E4A52
:102D200050608A6CC86C5060086D002809D0086D2E
:102D30000068FF22013290430A6D10604A6D886D71
:102D4000506001222520425400BF0022242042541A
:102D500000BF0020BAE700000000024070B5044642
:102D600000252520005D022803D00420E063012512
:102D70003AE0206800680E218843216808602068D6
:102D800000684008400021680860606C0068FF210E
:102D900001318843616C0860144840681C22216C32
:102DA000114001228A40104310494860A16CE06C38
:102DB0004860206D002809D0206D0068FF21013196
:102DC0008843216D0860616DA06D48600121252058
:102DD000015500BF00212420015500BFA06B002831
:102DE00002D02046A16B8847284670BD00000240F3
:102DF0000146C86B7047000070B504464548056839
:102E0000206806681C20216C01400420884028406E
:102E1000002820D00420304000281CD02068006802
:102E200020210840002805D120680068042188433B
:102E300021680860374840681C22216C1140042238
:102E40008A40104333494860206B002860D02046F8
:102E5000216B88475CE01C20216C014002208840E7
:102E60002840002828D002203040002824D02068A4
:102E7000006820210840002808D1206800680A2145
:102E800088432168086001212520015521484168B7
:102E90001C22206C10400222824011431D484160D8
:102EA00000BF00212420015500BFE06A00282FD078
:102EB0002046E16A88472BE01C20216C0140082055
:102EC00088402840002823D00820304000281FD008
:102ED000206800680E218843216808600D48416819
:102EE0001C22206C1040012282401143094841609D
:102EF0000120E06301212520015500BF002124208D
:102F0000015500BF606B002802D02046616B8847E6
:102F100070BD00000000024010B50446002C01D135
:102F2000012010BD2A4A2168881A1421FDF7EAF908
:102F30008000206402212520015520680068254971
:102F4000084021680860E168A068084321690843D7
:102F500061690843A1690843E1690843216A08439C
:102F6000216809680843216808602046FEF702FCD2
:102F700001218903A068884201D100206060207986
:102F80008006800E616C0860A16CE06C486060682F
:102F900000280CD06068042809D82046FEF704FCFD
:102FA0000020216D0860616DA06D486003E0002085
:102FB00020656065A0650020E063012125200155A2
:102FC00000BF00212420015500BF0020A9E7000018
:102FD000080002400F80FFFFF8B504460D46164674
:102FE0001F460020009000BF2420005D012801D171
:102FF0000220F8BD01212420015500BF2520005DDD
:10300000012844D10221252001550020E0632068D9
:10301000006840084000216808603B463246294667
:103020002046FEF7D5FB206B002806D020680068FC
:103030000E210843216808600BE020680068042125
:10304000884321680860206800680A2108432168D5
:103050000860606C0068012109040840002805D060
:10306000606C006809120843616C0860206D0028DC
:1030700006D0206D0068FF2101310843216D0860F2
:1030800020680068012108432168086008E080206A
:10309000E06300BF00212420015500BF0120009003
:1030A0000098A6E710B50446204607F07FFF10BD44
:1030B000F8B504460F4600BF23480078012801D127
:1030C0000220F8BD01202049087000BF00204860A0
:1030D0007D20C000FEF77CFF0646002E2CD1042088
:1030E00060602068042808D16068FEF713FF7D2027
:1030F000C000FEF76DFF06461EE00020C0433860AA
:10310000A5680DE029466068FEF710FF7D20C0002D
:10311000FEF75EFF0646002E01D03D6005E06D1C07
:10312000E168A0684018A842ECD800BF0748406991
:10313000022188430549486100BF00200249087008
:1031400000BF3046BDE70000C40700200020024059
:10315000012007494969C2071143054A51611146D7
:103160004969C90FC907002900D000207047000035
:1031700000200240F0B51FB4064614461D4600BFAD
:1031800018480078012802D1022005B0F0BD0120C6
:103190001449087000BF002048607D20C000FEF781
:1031A00017FF0746002F15D1012E05D122462B46C9
:1031B0000198FEF7CFFE03E021460198FEF7DEFE00
:1031C0007D20C000FEF704FF074607484069B04372
:1031D0000549486100BF00200249087000BF384619
:1031E000D3E70000C4070020002002400020094966
:1031F0004969C90FC90700290BD00749054A9160E1
:103200000649916011464969C90FC907002900D0D4
:10321000012070470020024023016745AB89EFCDB4
:10322000F0B502460B46002073E001258540294693
:10323000194000296CD0394D8608B600AC59850775
:10324000EE0E0F25B5402C4005252D07AA4201D1D1
:1032500000250FE0324DAA4201D101250AE0314D8F
:10326000AA4201D1022505E02F4DAA4201D1032532
:1032700000E005258607F60EB540A54222D1274D70
:1032800020352D688D43254E2036356035466D68D6
:103290008D437560214D603D6D688D431F4E603ECE
:1032A000756035462D688D4335608507EE0E0F2518
:1032B000B5402C46194D8608B600AE59A64387087E
:1032C000BF00EE51156847000326BE403543156028
:1032D000C508AE0015462035AD594607F70E0F2636
:1032E000BE40B543C608B60017462037BD519568A5
:1032F00047000326BE40B5439560556801268640C9
:10330000B5435560D56847000326BE40B543D56038
:10331000401C1D46C540002D87D1F0BD60180240FD
:103320000004005000080050000C005070B5034627
:103330000A460021D7E001268E4014683440002C54
:1033400073D01579AD07AD0F012D04D01579AD07F8
:10335000AD0F022D18D198684E000325B5400646E2
:10336000AE4330464E00D568B54028439860586853
:1033700001258D400646AE4330461026556835403F
:103380002D098D40284358601579AD07AD0F032DE9
:103390000BD0D8684E000325B5400646AE433046F4
:1033A0004E009568B5402843D8601579AD07AD0F3C
:1033B000022D15D1CD08AE001D462035A8594D0768
:1033C000EE0E0F25B5400646AE4330464E07F60ECC
:1033D0001569B5402843CD08AD001E462036705112
:1033E00018684E000325B5400646AE4330461579B1
:1033F000AD07AD0F4E00B5402843186003263604D4
:1034000055683540002D6DD03A4D8E08B600A8594C
:103410008D07EE0E0F25B5400646AE433046052516
:103420002D07AB4202D1002510E05BE0324DAB42EC
:1034300001D101250AE0314DAB4201D1022505E061
:103440002F4DAB4201D1032500E005258E07F60E76
:10345000B5402843274D8E08B600A851254D603D44
:1034600028680546A5432846012636055568354097
:10347000002D02D00546254328461E4D603D28609C
:1034800068680546A54328460126760555683540F7
:10349000002D02D0054625432846164D603D686044
:1034A000144D203568680546A54328460126760454
:1034B00055683540002D02D00546254328460D4D60
:1034C0002035686028680546A5432846012636044D
:1034D00055683540002D02D0054625432846054D48
:1034E00020352860491C1568CD40002D00D022E70A
:1034F00070BD000060180240000400500008005039
:10350000000C0050024613690B40002B01D0012033
:1035100000E000207047002A01D0816100E0816254
:10352000704700000148006870470000100000204C
:1035300002464120805C20282FD100BF4020805CC3
:10354000012801D10220704701234020835400BF8D
:103550002423412083541068006840084000136809
:1035600018601068006801231B03984313681860F3
:103570001068006808431368186010680068012329
:1035800018431368186020234120835400BF002390
:103590004020835400BF0020D5E70220D3E710B5B8
:1035A00002460B464120805C20282ED100BF4020DF
:1035B000805C012801D1022010BD012440208454E8
:1035C00000BF242441208454106800684008400053
:1035D00014682060106801680F2424020846A04384
:1035E0000146180201431068016010680068012458
:1035F00020431468206020244120845400BF00240C
:103600004020845400BF0020D6E70220D4E710B544
:103610000446002C01D1012010BD24214120015578
:10362000206800684008400021680860204600F0DB
:1036300021FA002060640021412001550020206310
:103640004220015500BF4020015500BF0020E3E7A4
:1036500010B50446002C01D1012010BD4120005DB1
:10366000002805D1002140200155204600F038FAFD
:10367000242141200155206800684008400021684D
:1036800008600F2109066068884321680861206886
:1036900080680121C903884321688860E0680128A7
:1036A00006D10121C903A06808432168886005E0AC
:1036B00021218902A068084321688860E068022807
:1036C00002D180022168486020684068144908439C
:1036D000216848602068C0680121C90388432168C7
:1036E000C860616920690843A1690902084321682B
:1036F000C860216AE06908432168086020680068A2
:1037000001210843216808600020606420214120D5
:1037100001550020206300214220015500209CE734
:1037200000800002FFB583B004460C9F0E9E41202E
:10373000005D20287ED1002F02D00D98002805D1F1
:10374000012040026064012007B0F0BD00BF4020AE
:10375000005D012801D10220F6E70121402001553A
:1037600000BFFFF7DFFE054619230122D1032046E3
:10377000009503F00DF8002801D00120E4E7222194
:1037800041200155402142200155002060646762BC
:103790000D9860850020606300960195204604A97D
:1037A0000EC902F057FF002806D000BF00214020BC
:1037B000015500BF0120C7E7608DFF280CD9FF200D
:1037C000208541480090208DC2B201231B0620466F
:1037D000049902F0BFFF0BE0608D20853A4800900D
:1037E000208DC2B201235B062046049902F0B2FF8D
:1037F00000BF3346002204212046009502F0C8FF96
:10380000002801D001209FE72068406A616A0870A3
:10381000606A401C6062208D401E2085608D401EC5
:103820006085608D00282BD0208D002828D133465C
:10383000002200E045E080212046009502F0A8FF2C
:10384000002801D001207FE7608DFF280CD9FF20E0
:10385000208500200090208DC2B201231B06204647
:10386000049902F077FF0BE0608D20850020009026
:10387000208DC2B201235B062046049902F06AFF44
:10388000608D0028B5D12A463146204602F0ACFFB3
:10389000002801D0012057E720202168C861206856
:1038A00040680A49084021684860202141200155AC
:1038B00000214220015500BF4020015500BF0020DB
:1038C00042E7022040E700000024008000E800FEFC
:1038D000FFB583B004460C9F0E9E4120005D20285A
:1038E0007ED1002F02D00D98002805D10120400282
:1038F0006064012007B0F0BD00BF4020005D0128DA
:1039000001D10220F6E701214020015500BFFFF759
:1039100009FE054619230122D1032046009502F035
:1039200037FF002801D00120E4E721214120015583
:103930004021422001550020606467620D98608537
:103940000020606300960195204604A90EC902F08C
:10395000C1FE002806D000BF00214020015500BF55
:103960000120C7E7608DFF280CD9FF2020850020AB
:103970000090208DC2B201231B062046049902F05C
:10398000E9FE0BE0608D208500200090208DC2B202
:1039900001235B062046049902F0DCFE00BF2A46A4
:1039A0003146204602F04DFF002801D00120A1E75A
:1039B000606A007821688862606A401C6062608D7D
:1039C000401E6085208D401E2085608D00282BD0F4
:1039D000208D002828D1334600228021204600E097
:1039E00043E0009502F0D4FE002801D0012081E7D9
:1039F000608DFF280CD9FF20208500200090208DAD
:103A0000C2B201231B062046049902F0A3FE0BE07C
:103A1000608D208500200090208DC2B201235B06BE
:103A20002046049902F096FE608D0028B7D12A4600
:103A30003146204602F0D8FE002801D0012059E787
:103A400020202168C8612068406809490840216831
:103A5000486020214120015500214220015500BF2E
:103A60004020015500BF002044E7022042E700004B
:103A700000E800FE10B5044616492068884212D1BD
:103A80001548C06B0121490588431349C86349158E
:103A900005200007FFF7C4FB01218902052000076C
:103AA000FFF7BEFB15E00D492068884211D10A4896
:103AB000C06B0121890588430749C863C9140520E3
:103AC0000007FFF7ADFB0121090305200007FFF701
:103AD000A7FB10BD005400400010024000580040F9
:103AE00010B58CB00446142107A8FCF709FC182176
:103AF00001A8FCF705FC37492068884237D120200F
:103B000001900020039001A800F0A4F9002801D042
:103B1000FEF7FAF900BF3048406B012108432E49F7
:103B200048630846406BC007C00F009000BF00BF4D
:103B300003204002079012200890002009900A906C
:103B400006200B9007A905200007FFF7EFFB00BF39
:103B50002148C06B0121490508431F49C863084635
:103B6000C06B012149050840009000BF30E01B49AF
:103B7000206888422CD100BF1748406B01210843C0
:103B8000154948630846406BC007C00F009000BF4E
:103B900000BF0320C0020790122008900020099067
:103BA0000A9006200B9007A905200007FFF7BEFB2F
:103BB00000BF0948C06B0121890508430649C86355
:103BC0000846C06B012189050840009000BF00BF76
:103BD0000CB010BD005400400010024000580040DE
:103BE00070B50446002C01D1012070BD1848216831
:103BF000086018482168086021686068486021688A
:103C0000A0688860FFF78EFC05460CE0FFF78AFC91
:103C1000401B312807D92068C0684007400F0028A2
:103C200001D00320E1E72068C0684007400F00286A
:103C3000ECD120680169E068814203D02168E06826
:103C4000086102E00448216808600020CDE7000018
:103C5000CCCC000055550000AAAA0000014602483D
:103C60000A68106000207047AAAA00000348006894
:103C70000349097840180149086070471000002086
:103C80001800002010B5002408480068FF21013109
:103C9000084306490860032000F00AF8002801D014
:103CA000012401E000F04AF8204610BD0020024047
:103CB00070B586B00446002500260022214610205B
:103CC00000F076F8102000F061F800BF1648C06BD5
:103CD000022108431449C8630846C06B022108400A
:103CE000009000BF00BF01A902A800F0F9FA00F09F
:103CF0001BFB05460D492846FCF704FB461E0C48F5
:103D00000C4908600C490B48C16046600021016104
:103D1000816001F04DFA002804D1064801F0D8FA7C
:103D200006B070BD0120FBE70010024040420F00CA
:103D30000004004078070020E703000008B500BF3A
:103D400011480068012108430F49086008460068CF
:103D5000C007C00F009000BF00BF00BF0A48403836
:103D6000C06B8905084308494039C8630846C06BE1
:103D700009040840009000BF00BF00220321481F33
:103D800000F016F808BD000040100240014600296E
:103D900009DB00BF00BFCB06DB0E01229A40034BBC
:103DA0001A6000BF00BF00BF7047000000E100E0E4
:103DB00070B504460D4616462946204606F024F9FD
:103DC00070BD000000BF00BF00BF00BF00BFBFF359
:103DD0004F8F00BF00BF00BF06480749C86000BF43
:103DE00000BF00BFBFF34F8F00BF00BF00BF00BFC9
:103DF00000BFFDE70400FA0500ED00E070B50446E1
:103E00001148006803214902884320430E49086095
:103E10004815844216D10D490968062251430846C7
:103E20000B49FCF76FFA451C05E0002D01D06D1E13
:103E300001E0032070BD0448406901218902084067
:103E40008842F2D00020F5E7007000401C000020FE
:103E500040420F00FEB504460027002002900121D9
:103E600049042068084088427BD1002001907048B6
:103E7000C06BC902084000280ED100BF6C48C06B5F
:103E800008436B49C8630846C06B090408400090AA
:103E900000BF00BF0120019066480068FF2101318A
:103EA000084364490860FFF73DFB064606E0FFF75C
:103EB00039FB801B022801D9032706E05D48006812
:103EC000FF21013108400028F1D000BF002F4BD165
:103ED00057484030C569032109020D40002D1AD012
:103EE0006069A84217D052484030C06988430546EF
:103EF0004F484030C0690121090408434C49403112
:103F0000C8610846C0690121090488434849403115
:103F1000C8610846C561E807C00F002813D0FFF745
:103F200001FB064607E0FFF7FDFA801B4249884285
:103F300001D9032706E03E484030C069022108400D
:103F40000028F0D000BF002F0CD139484030C069A4
:103F50000321090288436169084335494031C8613A
:103F600003E00DE0029700E002970198012806D1D6
:103F70002F48C06B0121090788432D49C86300BF42
:103F80002078C007C00F002809D029484030406978
:103F9000800880006168084325494031486120213C
:103FA0002068084020280AD1214840304069032178
:103FB00009038843A16808431D4940314861012134
:103FC000890320680840884213D11948403040696D
:103FD000800080082169084315494031486109067D
:103FE0002069884205D11248C068891308431049E6
:103FF000C8600121C90220680840884215D10C48D8
:1040000040304069032189038843E1680843084937
:104010004031486101218903E068884205D10448A4
:10402000C068890008430249C8600298FEBD0000CC
:1040300000100240007000408813000070B5044674
:104040000D46002C01D1012070BD6B48006840076F
:10405000400FA84218D268480068C008C000284332
:1040600065490860FFF75EFA064607E0FFF75AFA6F
:10407000801B6249884201D90320E5E75E48006859
:104080004007400FA842F1D10221206808400228D1
:1040900015D1042120680840042807D158488068B9
:1040A00007210903884340185549886054488068AF
:1040B0000F2109028843A16808435149886020788C
:1040C000C007C00F002854D06068012808D14C48B0
:1040D000006801214904084000282ED10120B3E7DF
:1040E0006068022808D14648006801214906084056
:1040F000002822D10120A7E76068002808D14048A5
:104100000068012189020840002816D101209BE7A0
:104110006068032808D13A484030006A022108400C
:1041200000280AD101208FE735484030C0690221BC
:104130000840002801D1012086E731488068C00886
:10414000C000616808432E498860FFF7EBF9064616
:1041500007E0FFF7E7F9801B2849884201D90320CF
:1041600072E727488068382108406168C9008842A2
:10417000EFD1214800684007400FA84218D91E48D7
:104180000068C008C00028431B490860FFF7CAF94F
:10419000064607E0FFF7C6F9801B1849884201D997
:1041A000032051E7144800684007400FA842F1D1AE
:1041B000042120680840042808D11148806807219C
:1041C00009038843E16808430D49886000F0C0F89E
:1041D0000B4989680F2212021140090A8900094A15
:1041E000515CC906C90EC840074908600748006805
:1041F000FFF75EFD28E70000002002408813000062
:104200000010024058BD00081C00002014000020CF
:1042100010B5FFF787F904462C480068FF210131EB
:1042200008432A49086006E0FFF77CF9001B0228D2
:1042300001D9032010BD25480068012189020840EA
:104240000028F1D0080121494860FFF76BF90446C6
:1042500000201E49886007E0FFF764F9001B1C4935
:10426000884201D90320E5E71848806838210840D2
:104270000028F1D1FF200130144908600860FFF7E1
:1042800051F9044606E0FFF74DF9001B022801D959
:104290000320CFE70D4800680121490608400028A7
:1042A000F1D148130949C86000208861401E0862A6
:1042B00008480949086009480068FFF7F9FC002828
:1042C00001D00120B6E70020B4E700000010024052
:1042D000881300000024F4001C00002014000020BB
:1042E000072202600B4A92685207520F4260094A45
:1042F00092680F231B021A408260064A92680723C5
:104300001B031A40C260044A12685207520F0A6027
:104310007047000000100240002002400148006881
:10432000704700001C00002000B5FFF7F7FF0649AA
:104330008968072212031140090B8900034A515C66
:10434000C906C90EC84000BD0010024098BD000853
:10435000FEB5354880683821084000280DD1324824
:10436000006809020840C10A0120884000902F48D7
:104370000099FBF7C7FF044654E02B4880683821BA
:104380000840082801D12A4C4CE027488068382191
:104390000840102834D12448C0688607B60F224848
:1043A000C068702108400009401C0190022E0FD007
:1043B000032E0CD11E480199FBF7A4FF1A49C968C6
:1043C0007F2212021140090A484305460DE000BF52
:1043D00016480199FBF796FF1349C9687F2212021C
:1043E0001140090A4843054600BF00BF0E48C06897
:1043F000400F471C39462846FBF784FF044611E06E
:104400000948806838210840202801D1840209E049
:104410000548806838210840182802D17D242402EC
:1044200000E000242046FEBD001002400024F400FD
:1044300000127A00FEB50446002C01D10120FEBD19
:104440002078C007C00F00286FD0F7488768382150
:104450000F40C0688607B60F102F01D1032E01D080
:10446000082F0BD1F04800680121490408400028BA
:104470005BD06068002858D10120E0E700BF01212F
:1044800009046068884205D1E74800680843E649A6
:10449000086021E005210904606888420ED1E248E5
:1044A0000068012189040843DF4908600846006864
:1044B000012109040843DC4908600DE0DA4800687E
:1044C000012109048843D849086008460068012191
:1044D00089048843D449086000BF6068002812D06E
:1044E000FFF720F8054606E0FFF71CF8401B64289C
:1044F00001D90320A3E7CC48006801214904084002
:104500000028F1D011E0FFF70DF8054606E0FFF7AF
:1045100009F8401B642801D9032090E7C2480068CD
:104520000121490408400028F1D1022120680840F7
:10453000022873D1BC488068382108400746BA4831
:10454000C0688607B60F102F01D1022E01D0002FB0
:1045500036D1B5480068012189020840002804D0FE
:10456000E068002801D1012069E7AF4840687F2159
:1045700009028843616909020843AB494860002F7A
:1045800016D1084600680721C902884321690843FB
:10459000A5490860084600680722D2021040C20AF6
:1045A000012090400146A148FBF7ACFEA0490860FD
:1045B000A0480068FFF77CFB002849D001203EE7B7
:1045C000E06800282BD0984800680721C90288437A
:1045D0002169084394490860084600688915084322
:1045E00091490860FEF79EFF054606E0FEF79AFF38
:1045F000401B022801D9032021E78B4800680121D4
:10460000890208400028F1D0874840687F210902CC
:1046100088436169090208438349486018E0824879
:104620000068FF21013188437F490860FEF77AFF67
:10463000054606E0FEF776FF401B022801D903205D
:10464000FDE6794800680121890208400028F1D17F
:10465000082120680840082849D17348806838211B
:10466000084018280BD170484030006A02210840E9
:1046700000283CD0A069002839D10120DFE6A069DC
:1046800000281AD068484030006A01210843664972
:1046900040310862FEF746FF054606E0FEF742FF9E
:1046A000401B022801D90320C9E65F484030006A58
:1046B000022108400028F1D019E05B484030006A30
:1046C00040084000584940310862FEF72BFF05467C
:1046D00006E0FEF727FF401B022801D90320AEE6C3
:1046E00051484030006A022108400028F1D10421DD
:1046F0002068084004287CD1002001904A48806846
:104700003821084020280BD147484030C069022199
:10471000084000286ED0A06800286BD101208EE6EA
:104720004148C06B010F01208843002810D000BF12
:104730003D48C06B0121090708433B49C86308464F
:10474000C06B09040840009000BF00BF0120019029
:1047500039480068FF2101310840002816D1364849
:104760000068084334490860FEF7DCFE054606E0B1
:10477000FEF7D8FE401B022801D903205FE62E4831
:104780000068FF21013108400028F1D000BFA06877
:10479000012808D124484030C0690121084322493A
:1047A0004031C86120E0A06805280FD11E48403084
:1047B000C069042108431C494031C8610846C069EA
:1047C0000121084318494031C8610DE016484030C6
:1047D000C0694108490014484030C161C0690421E2
:1047E000884311494031C86100BFA068002816D035
:1047F00001E040E03EE0FEF795FE054607E0FEF7EB
:1048000091FE401B0D49884201D9032017E6064856
:104810004030C069022108400028F0D01EE0FEF7B9
:1048200081FE054614E00000001002400024F40060
:104830001C000020140000200070004088130000BD
:10484000FEF770FE401B6249884201D90320F6E55D
:104850006048C069022108400028F1D10198012870
:1048600008D15C484038C06B012109078843594989
:104870004039C86300BFE06900285AD05548403825
:1048800080683821084010287AD0E069022851D188
:104890005048403800680121090688434D49403995
:1048A0000860FEF73FFE054606E0FEF73BFE401BB4
:1048B000022801D90320C2E546484038006801219A
:1048C000490608400028F0D1616A206A0843A16ABD
:1048D00009020843E16A0843216B08433D49403916
:1048E000C9683D4A114008433A494039C860084602
:1048F0000068012109060843364940390860084626
:10490000C0680904084333494039C860FEF70AFE0D
:10491000054606E0FEF706FE401B022801D90320EB
:104920008DE52C48403800680121490608400028E0
:10493000F0D04AE027484038006801210906884342
:10494000244940390860FEF7EDFD054606E0FEF714
:10495000E9FD401B022801D9032070E51D484038BD
:1049600000680121490608400028F0D11948403864
:10497000C0681A49084017494039C86025E0FFE778
:10498000E069012800D15AE512484038C668B107ED
:10499000890F206A814216D170203040616A8842B6
:1049A00011D17F2000023040A16A090288420AD159
:1049B0001F2040043040E16A884204D1710F49074A
:1049C000206B814201D0012039E5002037E500004D
:1049D00088130000401002408C80C11FFCFFFEEFD6
:1049E00070B546680568AC19E31DF9338D00EB1806
:1049F0001A6070BD70B504460125002C57D02920DF
:104A0000005D002808D10021282001551120C00296
:104A10006060204600F050F802212920015500BFB7
:104A2000CA202168486253202168486200BF20469E
:104A300003F08EFA0546002D2FD1206880691D49AC
:104A40000840216888616169A0680843E1690843FA
:104A500021688969084321688861216820690861A3
:104A600020680069A189090408432168086120467B
:104A700003F096FA0546002D0FD120688069C0002A
:104A8000C00821688861216A606A0843A1690843F7
:104A90002168896908432168886100BFFF20216877
:104AA000486200BF002D02D101212920015528466E
:104AB00070BD0000BFFF8FFB10B588B00446182101
:104AC00002A8FBF71DFC14492068884222D101206E
:104AD000400402900012079002A8FFF7BBF90028DB
:104AE00001D0FDF711FA0D48C0690121C90308433F
:104AF0000A49C86100BF09484038C06B091508431E
:104B000006494039C8630846C06B09150840019042
:104B100000BF00BF08B010BD002800404010024098
:104B200070B504462068C068A02188432168C86029
:104B3000FEF7F8FC054608E0FEF7F4FC401B7D217B
:104B4000C900884201D9032070BD2068C0682021B7
:104B500008400028F0D00020F6E7704770B5044602
:104B6000002C01D1012070BD606A002808D1FF210E
:104B700005316068884200D105E00021E16102E072
:104B80000021216161610021A1625D20005D00289A
:104B900004D15C200155204600F066F802215D201A
:104BA000015520680068402188432168086007217A
:104BB0000902E068884201D9002501E001252D03A2
:104BC0000F210902E068884206D007210902E06847
:104BD000884201D00021A162FF21053160680840B0
:104BE00021229202A168114008430222216911404A
:104BF0000843217DC907C90F08431202A16911406A
:104C000008433822E169114008438022216A11409B
:104C100008439201A16A1140084321680860A06915
:104C2000000C042108401022616A11400843082248
:104C3000616B114008430F221202E16811400843E2
:104C40000121090329400843216848602068C069A0
:104C50000121C90288432168C86100202066012122
:104C60005D20015500207EE710B586B00446142172
:104C700001A8FBF745FB35492068884264D100BF95
:104C80003348C06B091408433149C8630846C06BF8
:104C9000012189030840009000BF00BF00BF2C48DD
:104CA000406B022108432A4948630846406B0221B1
:104CB0000840009000BF00BF8803019002200290CE
:104CC000002003900490059001A92248FEF72EFBD6
:104CD000FF200130019002200290002003900490F8
:104CE0000120059001A91B48FEF720FB1A481B492B
:104CF0000860132048601021184881600021C160BD
:104D000080210161002141618161C1610162FEF781
:104D100003F9002801D0FDF7F7F800BF0F486065E0
:104D2000846200BF0022FF2101310A48FEF7F3FB35
:104D3000FF20013001900120029000200390049098
:104D400001A90448FEF7F2FA06B010BD0038004091
:104D500000100240000400501C00024078040020B3
:104D6000F8B504460E4615460020009000BF5C20B2
:104D7000005D012801D10220F8BD01215C20015510
:104D800000BF5D20005D012802D0022000908CE071
:104D9000002E01D0002D02D10120009085E00321DA
:104DA0005D20015500202066A663A587E587206465
:104DB0002065E06400214420015346200153012175
:104DC000C903A06888420CD120680068402188434C
:104DD0002168086020680068012189030843216870
:104DE00008603548616D08633448616DC8623448B5
:104DF000616D48630020616D88632068406801210F
:104E0000890388432168486007210902E0688842D5
:104E10001FD8606D806901218902884219D1E08F15
:104E2000C007C00F002809D12068406809018843E5
:104E300021684860E08F4010E0870AE02068406801
:104E400001218903084321684860E08F4010401C1D
:104E5000E087E38F27683A460C32A16B606DFEF75E
:104E6000BBF8002809D0206E1021084320660120DD
:104E7000009001215D20015517E020680068402165
:104E80000840402804D02068006808432168086072
:104E900020684068202108432168486020684068F5
:104EA000022108432168486000BF00BF00215C2048
:104EB000015500BF00985FE70981000817810008CD
:104EC000E1800008704770477047704770470000E6
:104ED00010B50346002200BF3C20C05C012801D170
:104EE000022010BD01243C20C45400BF100A00025F
:104EF000CC6820430246104603242402A0438C6859
:104F00002043024610460124A402A0434C682043DB
:104F1000024610460124E402A0430C6820430246E6
:104F2000104601242403A0430C6920430246104686
:104F300001246403A0434C69204302461046012427
:104F4000A403A0430C6B2043024610460F24240404
:104F5000A0430C8B2404204302461C4C1868A0423A
:104F600006D1104601242407A043CC692043024601
:104F7000164C1868A04220D110460F242405A043E7
:104F80000C8D240520430246104601242406A0432C
:104F90000C6A20430246104601246406A0434C6A72
:104FA00020430246094C1868A04206D1104601244D
:104FB0006407A043CC6A204302461868426400BFDD
:104FC00000243C20C45400BF00208AE7002C01408C
:104FD00030B502460B4600BF3C20805C012801D161
:104FE000022030BD01253C20855400BF02253D2014
:104FF00085541068416810688468164D1068A8428E
:1050000006D10F252D050846A843014658680143DF
:1050100070250846A843014618680143106841609E
:105020000C4D1068A84203D00B4D1068A84207D160
:1050300080252046A843044698680443106884608D
:1050400001253D20855400BF00253C20855400BF2C
:105050000020C6E7002C01400004004070B5044663
:105060000D46002D02D14420005D0BE0042D02D13D
:105070004520005D06E0082D02D14620005D01E0DC
:105080004720005D012801D0012070BD002D03D113
:105090000221442001550EE0042D03D102214520B8
:1050A000015508E0082D03D102214620015502E0F8
:1050B00002214720015504222946206804F003F903
:1050C0002068406C0121C9030843216848641049E5
:1050D0002068884203D00F49206888420FD1206899
:1050E00086680D490E40062E0FD0C81F86420CD090
:1050F00020680068012108432168086005E02068F5
:10510000006801210843216808600020BDE7000015
:10511000002C0140000400400700010070B5044667
:105120000D4600222946206804F0CDF800BF206813
:10513000006A1E49084000280CD12068006A8910C6
:105140000840002806D12068406C0121C90388432B
:105150002168486400BF00BF2068006A1349084006
:1051600000280BD12068006A89100840002805D16A
:1051700020680068400840002168086000BF002DDA
:1051800003D10121442001550EE0042D03D101215A
:105190004520015508E0082D03D101214620015585
:1051A00002E0012147200155002070BD11110000CF
:1051B00010B50446002C01D1012010BD3D20005D3A
:1051C000002805D100213C200155204600F026F89A
:1051D00002213D200155211D206804F01BF801210A
:1051E0004820015500BF3E2001553F200155402079
:1051F000015541200155422001554320015500BF72
:1052000000BF442001554520015546200155472047
:10521000015500BF3D2001550020CEE708B5274AC3
:10522000016891420DD100BF25490968D21411438C
:10523000234A116011460968D2141140009100BF41
:105240003AE0204A016891420ED100BF1C4909682A
:10525000D21311431A4A1160114609680122D20380
:105260001140009100BF27E0174A016891420FD119
:1052700000BF13490968012252041143104A11600A
:1052800011460968012252041140009100BF13E049
:105290000E4A016891420FD100BF094909680122F5
:1052A00092041143064A11601146096801229204D2
:1052B0001140009100BF00BF08BD0000002C01405C
:1052C00040100240002000400044014000480140DE
:1052D00001463D20405C012801D001207047022397
:1052E0003D2043540868C068012318430B68D86008
:1052F0000F4B0868984203D00E4B086898420FD1B4
:10530000086882680C4B1A40062A0FD0D81F8242C8
:105310000CD008680068012318430B68186005E08A
:1053200008680068012318430B6818600020D5E75F
:10533000002C01400004004007000100F8B50446BD
:105340000D460020009000BF3C20005D012801D1E7
:105350000220F8BD01213C20015500BF02213D2063
:105360000155206886683A480640FF210902304608
:1053700088430646206886602868502834D00CDCB4
:10538000202851D004DC00284CD0102852D14AE00B
:1053900030284AD040284DD13AE060282ED07028DD
:1053A00007D001210903401A02D0401A42D10DE072
:1053B00043E0EB686A68A968206803F095FF2068FD
:1053C0008668772006432068866036E0EB686A6866
:1053D000A968206803F088FF20688068012189039C
:1053E00008432168886028E0EA686968206804F05A
:1053F0002FF95021206803F085FF1EE0EA686968F4
:10540000206804F03EF96021206803F07BFF14E07F
:10541000EA686968206804F01BF94021206803F0FD
:1054200071FF0AE000BF00BF00BF2968206803F0D9
:1054300069FF02E00120009000BF00BF01213D2074
:10544000015500BF00213C20015500BF009880E7B6
:1054500088FFCEFF7047000010B504462068006941
:1054600002210840400800281CD02068C06808407D
:105470004008002816D0481F2168086101202077C5
:10548000206880698007800F002803D02046FFF73E
:10549000E1FF05E0204600F091F9204600F083FA94
:1054A0000020207720680069042108408008002837
:1054B0001DD02068C06808408008002817D0C84365
:1054C0002168086102202077206880690321090291
:1054D0000840002803D02046FFF7BCFF05E0204627
:1054E00000F06CF9204600F05EFA0020207720687A
:1054F000006908210840C00800281CD02068C06846
:105500000840C008002816D0C8432168086104205C
:1055100020772068C0698007800F002803D02046CC
:10552000FFF798FF05E0204600F048F9204600F01C
:105530003AFA00202077206800691021084000090D
:1055400000281DD02068C06808400009002817D036
:10555000C84321680861082020772068C0690321BA
:1055600009020840002803D02046FFF773FF05E03A
:10557000204600F023F9204600F015FA002020779D
:1055800020680069C007C00F01214840484000283A
:105590000CD02068C068084048404840002805D02A
:1055A000C81E21680861204600F0F6FA20680069EC
:1055B00080210840C00900280BD02068C06808403E
:1055C000C009002805D0C843216808612046FFF7BC
:1055D0007CFC20680069FF2101310840000A002896
:1055E0000CD02068C06880210840C009002805D080
:1055F0001648216808612046FFF766FC20680069AC
:1056000040210840800900280BD02068C06808406D
:105610008009002805D0C84321680861204600F0B1
:10562000C7FA2068006920210840400900280BD0F3
:105630002068C06808404009002805D0C843216898
:1056400008612046FFF742FC10BD0000FFFEFFFF8F
:1056500010B586B00446142101A8FAF751FE4F494F
:105660002068884237D100BF4D48406B0121084374
:105670004B4948630846406BC007C00F009000BF0D
:1056800000BF00BF0846406B0221084344494863FD
:105690000846406B02210840009000BF00BFC801CF
:1056A00001900220029000200390049002200590B7
:1056B00001A905200007FDF739FE402001900220D6
:1056C00002900020039004900120059001A9354824
:1056D000FDF72CFE5FE03449206888421BD100BFF3
:1056E0002F48406B202108432D4948630846406BF2
:1056F00020210840009000BF00BF0120019002203F
:1057000002900020039004900220059001A92748F0
:10571000FDF70CFE3FE02649206888421BD100BF00
:105720001F48406B082108431D4948630846406BE9
:1057300008210840009000BF00BF01200190022016
:1057400002900020039004900220059001A91948BE
:10575000FDF7ECFD1FE01849206888421BD100BF0F
:105760000F48406B022108430D4948630846406BCF
:1057700002210840009000BF00BF0520C001019039
:10578000022002900020039004900220059001A9BD
:105790000448FDF7CBFD06B010BD0000002C014011
:1057A000001002400004005000200040001400508F
:1057B00000440140000C0050004801407047F8B51B
:1057C00004460D461646002700BF3C20005D012818
:1057D00001D10220F8BD01213C20015500BF0C2E53
:1057E00054D006DC002E09D0042E1ED0082E7ED107
:1057F00035E0102E64D0142EF9D179E029462068C6
:1058000003F08CFD206880690821084321688861C5
:105810002068806904218843216888612068806944
:1058200029690843216888617EE02946206803F0E1
:10583000C3FD206880690121C9020843216888618D
:105840002068806901218902884321688861206875
:1058500080692969090208432168886164E0294652
:10586000206803F0FFFD2068C06908210843216813
:10587000C8612068C069042188432168C861206824
:10588000C069296908432168C8614DE0294620683C
:1058900003F03CFE2068C0690121C9020843216869
:1058A000C8612068C0690121890288432168C861F4
:1058B0002068C0692969090208432168C86133E08A
:1058C0002946206803F05CFE2068406D08210843EB
:1058D000216848652068406D042188432168486537
:1058E0002068406D29690843216848651CE019E07B
:1058F0002946206803F078FE2068406D0121C90226
:105900000843216848652068406D01218902884369
:10591000216848652068406D2969090208432168AB
:10592000486501E0012700BF00BF00BF00213C2007
:10593000015500BF38464DE710B50446002C01D193
:10594000012010BD3D20005D002805D100213C2034
:105950000155204600F026F802213D200155211D69
:10596000206803F057FC01214820015500BF3E206C
:1059700001553F200155402001554120015542204D
:1059800001554320015500BF00BF4420015545206B
:105990000155462001554720015500BF3D200155C6
:1059A0000020CEE77047704770B504460D46002DC5
:1059B00002D13E20005D15E0042D02D13F20005DA4
:1059C00010E0082D02D14020005D0BE00C2D02D12B
:1059D0004120005D06E0102D02D14220005D01E073
:1059E0004320005D012801D0012070BD002D03D1AE
:1059F00002213E2001551AE0042D03D102213F204F
:105A0000015514E0082D03D10221402001550EE07C
:105A10000C2D03D102214120015508E0102D03D1A6
:105A200002214220015502E00221432001550122BA
:105A30002946206803F036FC1B492068884207D0BD
:105A40001A492068884203D019492068884201D148
:105A5000012000E00020002806D02068406C0121D1
:105A6000C9030843216848640F492068884203D06D
:105A70001049206888420FD1206886680E490E4080
:105A8000062E0FD0C81F86420CD020680068012166
:105A900008432168086005E0206800680121084388
:105AA000216808600020A0E7002C0140004401406C
:105AB00000480140000400400700010030B50446E2
:105AC0000D4600222946206803F0ECFB2E49206891
:105AD000884207D02D492068884203D02C4920688D
