:020000040800F2
:1028000058050020E1280008894B0008D54300083E
:1028100000000000000000000000000000000000B8
:10282000000000000000000000000000ED2800088B
:102830000000000000000000EF280008B954000864
:10284000F3280008F3280008F3280008F3280008FC
:10285000F3280008F3280008F3280008F3280008EC
:1028600000000000F3280008F3280008F3280008FF
:10287000F3280008F3280008F328000800000000EF
:10288000F3280008F328000800000000F3280008DF
:10289000F3280008F3280008F3280008F3280008AC
:1028A000F3280008F3280008F32800080D64000846
:1028B000F3280008000000000000000000000000F5
:1028C000F328000800000000F328000803488546AC
:1028D00000F01AFB00480047B176000858050020B8
:1028E0000448804704480047FEE7FEE7FEE7FEE7AE
:1028F000FEE7FEE7A9560008CD280008002800DA08
:1029000040427047F0B507460846584087B0C00FB0
:10291000049048000E46590040084908BC1A8841F6
:1029200005D2384631461E4617460B460246580029
:10293000400810434CD0300D039040055900400D25
:10294000490D0590401A0290402872DA18030121BF
:10295000000B09050843019004980092002805D057
:102960000199524200208841009201900298402132
:102970000A1A0199009800F0D5F905460C466B46F5
:1029800007CB00F0F0F9C0197141039A0E0D002336
:10299000D71756401A467A40164344D0049A002A64
:1029A0002DD0029A012A039A15DC1205C01A914112
:1029B00001263605001C7141D20F059ED2070093F7
:1029C000019202962A46234600F0EDF907B0F0BDC9
:1029D00038463146FAE71605224A0F46B218C01AA1
:1029E000B74101210905001C4F4100187F411146E4
:1029F00018187941E20F10436D19644113E0E207A2
:102A00006D0815436408C2071443039A0126120592
:102A1000C01A91413605001C7141CE074008304371
:102A20004908C01851412A46234600F0AFF9CDE7C6
:102A3000FFE7049801224000C117121A00238B41BE
:102A400004983146C417381AA141EEE730B4012486
:102A5000E407634030BC55E730B40124E40761402B
:102A600030BC4FE70000E0FFF0B51FB488B00B9911
:102A70000998002448400999C00F49004908099164
:102A8000C0070B990090490049080B9109990898D3
:102A9000A64608431CD00B990A98084318D00998F9
:102AA00001244000420D4800410D0998240500030F
:102AB000000B204309900B980003000B20430B9060
:102AC00050181C494018002201901446104605E099
:102AD000002001460DB0F0BD032801DA034600E0F6
:102AE00003239C46C11A0AAE0AE05F0008ADED5B05
:102AF0004F00F75B7D430027AA187C41491C5B1EF1
:102B00006145F2DD410004AB5A522104120C0A4324
:102B1000240C401C0828DFDB0198029000997046C5
:102B200001910090059B049A0799069800F03BF9E3
:102B3000D0E700000DFCFFFFF0B50C465C4085B00F
:102B4000E40FE40703944C000026640859009446FF
:102B5000490802460296224321D062460A431ED00B
:102B60006200570D4A000E032303550D012402464F
:102B70002C492405781B1B0B360B40182343264396
:102B8000614600901C46501AB44103D30098401C83
:102B9000009002E0921800985B41002803DA0020C0
:102BA000014605B0F0BD0020012109050746864613
:102BB00011E064461D46141BB54106D36546521B01
:102BC000B341744607430C43A646CD074008490865
:102BD000284392185B4105460D43EAD1104618433D
:102BE00013D06046194650407140084306D06046F5
:102BF000101AB34106D20122002306E0002201236D
:102C0000DB0702E00122D24353100098744601050D
:102C1000381C6141029C039D0019694100F0B6F81F
:102C2000BFE70000FD0300000EB5C217C10F504002
:102C3000CA0740180021054B0293019200910A46F1
:102C40000B4600F0B0F803B000BD000033040000F4
:102C500070B5CD0F4A0009030123090B1B05194369
:102C60000B4BED070024520D9A4201DA002070BD93
:102C7000074B34339A4203DC9A1A00F063F802E0FF
:102C80000449511888402C43F1D0404270BD0000E7
:102C9000FF030000CDFBFFFF30B50B4601460020CF
:102CA0002022012409E00D46D5409D4205D31D4652
:102CB0009540491B2546954040191546521E002D4A
:102CC000F1DC30BDF0B51FB40646002082B00546E9
:102CD0004024019100901BE0019922460F463046A6
:102CE00000F030F8049A059B801A994110D31046E1
:102CF0001946224600F016F8361A8F4101972246EF
:102D000001200021009F00F00DF838184D4100907F
:102D10002046641E0028DFDC019B009829463246CD
:102D200007B0F0BD10B5202A04DB0146203A9140DF
:102D3000002010BD914020239C1A0346E340194314
:102D4000904010BD10B5202A04DB0846203AD04040
:102D5000002110BD0B46D340D0402024A21A914040
:102D60000843194610BD10B5202A06DBCB170846CC
:102D7000203A1041C1170B4306E00B461341D040E7
:102D80002024A21A91400843194610BD10B5002B0B
:102D900008DA0024401C614192185B411A4301D1BA
:102DA0004008400010BDF0B51FB482B005460C00CD
:102DB00003D0084606F078FA02E006F075FA2030F3
:102DC0000246009021462846FFF7ACFF049B059A77
:102DD00004460F4618431143084314D018461043C5
:102DE0001BD0009840210A1A18460599FFF7AAFF40
:102DF00005460E46009A05990498FFF793FF08438D
:102E000005D0012004E02046394607B0F0BD00207F
:102E1000C11705430E432C43374300990E986305B1
:102E2000401A7905E40A00220C43FD0A0A3002D553
:102E300000200146E9E70105101969410C9C0D9D30
:102E400000196941FFF7A2FFDFE770B54B005B088F
:102E500003430BD04B005C0D002633466542B34163
:102E6000D417AD1AA34102DB0020014670BD120544
:102E70003018514170BD00004A0009030123090BBD
:102E80001B0519430A4B10B5520D9A4202DA002075
:102E9000014610BD064B34339A4203DC9A1AFFF701
:102EA00051FF10BD034BD218FFF73CFF10BD0000CF
:102EB000FF030000CDFBFFFF10B5002904DB012458
:102EC000E40740428C412146002B04DB1C460123D1
:102ED000DB075242A3418B4200D1824210BD000069
:102EE00010B5002904DB0124E40740428C4121464F
:102EF000002B04DB1C460123DB075242A34199420D
:102F000000D1904210BD0000064C0125064E05E0A0
:102F1000E36807CC2B430C3C98471034B442F7D3FA
:102F2000FFF7D8FCE0A1000800A2000880B5054822
:102F300005F036F840F2005005F032F8062004F0B3
:102F400043FC80BD0906000080B588B00220012145
:102F50000790069103F0ECFC40F20010069903F094
:102F6000E7FC0020059003F06DFB04200699049017
:102F70000846049903F032FB0520059903900846A2
:102F80000799039A03F004FC03200699029008466F
:102F90000299039A03F0FCFB07980499039A03F043
:102FA000F7FB02980399039A03F0F2FB0720410410
:102FB000069803F0C5FB0698069903F07DFB03F025
:102FC0006DFB0A20019000F0F5FB03F0EBFA01988D
:102FD00000F0F0FB03F05AFB069803F087FC08B002
:102FE00080BD80B503F044FB002003F0B1FF80BD3D
:102FF00080B58AB00020029003F0AAFF1048039029
:1030000003A8029901760F4A05920122427640F206
:103010000012049240F20042069281760422079246
:1030200042F20002089201900846019903F0BEFFA7
:10303000029803F07DFF029803F05AFF0AB080BDAA
:103040004C2401403C01002080B584B0DA4804F0F3
:10305000A7FFDA4804F0A4FF0920C00603210022DC
:10306000042303900291019204F087FA0823039845
:103070000299019A04F081FA102303980299019AA7
:1030800004F07BFA202303980299019A04F075FA60
:1030900004B080BD80B5FFF749FFFFF7D5FFFFF70C
:1030A000A7FFFFF751FF80BD80B5FFF7A1FFFFF736
:1030B0004BFF80BD81B0009003480168009A116108
:1030C0000099016001B070474C01002080B584B0C8
:1030D00043480178491C0170007865283ADBFFE716
:1030E0003F4800210170407800280BD0FFE70920FD
:1030F000C00640F20011012204F016FA38480021FF
:10310000417026E00920C0060221002203900291AE
:10311000019204F009FAAA480299019A04F004FA0B
:1031200040F200110398019A04F0FEF948F2000100
:103130000120039A00901046009A04F0F5F90098D7
:1031400000F080F9009800F089F825480099417056
:10315000FFE7FFE704B080BD80B586B02048017866
:10316000491C01700078652838DBFFE71C48002106
:1031700001704078002811D0FFE791480221012218
:1031800004F0D2F90920C00648F20001002205929D
:1031900004F0CAF91248059941701EE00920C006E2
:1031A0000221002204900391029204F0BDF98448A8
:1031B0000399029A04F0B8F940F200110498029AB7
:1031C00004F0B2F90120019000F03CF9019800F000
:1031D00045F8034801994170FFE7FFE706B080BD5D
:1031E0004A01002080B51A48007800281BD1FFE76B
:1031F00018480078032805DBFFE716480178891E88
:1032000001700FE014480178491C017000781528FE
:1032100007DBFFE71048002101700D480121017014
:10322000FFE7FFE70CE00B480178891C017000788C
:10323000502804DBFFE7064800210170FFE7FFE7A5
:10324000044802788B48012105F0EEFC80BDC046A1
:1032500029000020080000202800002080B582B04E
:10326000014601AA10701078012806D1FFE78148B5
:103270000121002205F0D8FC05E07E4801216422EE
:1032800005F0D2FCFFE702B080BDC04680B594B027
:10329000494804F085FE494804F082FE484802216E
:1032A000002201230C900B910A92099304F065F916
:1032B00003200C99089008460A99089A099B04F083
:1032C000A4F90C980999099A04F0CCF80920C006D1
:1032D000802107900B9A069111460A9A069B04F0EA
:1032E0004CF907980A99089A069B04F08EF90798FA
:1032F0000999069A04F0B6F8324804F051FE5D4888
:10330000059005F029FD0DA8049005F041FE2E481A
:10331000049908800A984880888063220F92C880A8
:103320000873059805F094FD11A8039005F0F9FCC9
:103330000998039908800A9A4A808A80CA8040F2D4
:1033400000130B8140F200234B8105980999039AE1
:1033500005F09EFA05980B99039A05F099FA6420F6
:103360000599029008460999029A05F05DFC0598B6
:103370000B99029A05F058FC6020059901900846C7
:103380000999019A05F0FEFB05980B99019A05F041
:10339000F9FB059809990A9A05F072FC05980B99B2
:1033A0000A9A05F06DFC059805F068FA059805F095
:1033B00045FD14B080BDC046110500001205000097
:1033C0000004004801070000CF02000080B51A4841
:1033D000007800281BD1FFE718480078032805DB98
:1033E000FFE716480178891E01700FE01448017844
:1033F000491C01700078152807DBFFE71048002101
:1034000001700D4801210170FFE7FFE70CE00B4858
:103410000178891C01700078502804DBFFE706481A
:1034200000210170FFE7FFE70448027811480221FC
:1034300005F0FAFB80BDC0462C0000202A000020C9
:103440002B00002080B582B0014601AA10701078D0
:10345000012806D1FFE707480221002205F0E4FB1E
:1034600005E004480221642205F0DEFBFFE702B01C
:1034700080BDC0460004004080B582B05648017847
:10348000491C01700078312801DCFFE7A1E05248B7
:10349000332101705148007863280BDCFFE7B24804
:1034A00080884F490A68101808604C480178491C08
:1034B00001708EE04A4801686422B1FBF2F10160BC
:1034C00000689F490860474800780228019014D09E
:1034D000FFE70198032804D0FFE70198052818D0DA
:1034E0002EE0974800684249884205DCFFE794488F
:1034F0000168FC390160FFE723E0914800683A4920
:10350000884205DCFFE78E480168B4390160FFE7B7
:10351000FFE73648407B00280CD0FFE7884800686A
:103520003349884205DCFFE785480168FC390160C2
:10353000FFE704E082480168B4390160FFE7FFE774
:10354000FFE77F4800682B49884204DCFFE77C489E
:103550000121017134E07A4800682749884205DC7E
:10356000FFE77748006803F04FFB28E074480068E5
:103570002249884205DCFFE77148006803F05EFBE2
:103580001CE06F4800681E49884205DCFFE76C4874
:10359000006803F075FB10E06948006840F6405190
:1035A000884205DCFFE76648006803F08BFB03E018
:1035B000634806210171FFE7FFE7FFE7FFE7FFE749
:1035C0005F4801794171054800210170044801609C
:1035D000FFE702B080BDC0462D0000202E00002075
:1035E00030000020500000209A0C00000001002054
:1035F0003F0D0000B2090000570A0000FD0A00005C
:103600009B0C000080B586B005A80021018004A8AD
:10361000017003A801704748007809280BDCFFE718
:103620005148408843490A785200434B98520878E1
:10363000401C08707CE03F480021017004A8017024
:10364000FFE704A80078082835DCFFE703A800217D
:103650000170FFE703A8007804A909780922511A2C
:10366000884222DAFFE703A80078400032490A18AE
:10367000085A5188884212DDFFE703A80178490003
:103680002D4A515A05AB19800178490053185B88BF
:10369000535205990078400080184180FFE7FFE70A
:1036A0000398401C03A90870D4E7FFE70498401C66
:1036B00004A90870C5E7204800892049884232DC07
:1036C000FFE71D480189704A4A431E4B591A92FB75
:1036D000F1F101810089FFF7A7FA00221A4B02924B
:1036E000FFF72AFA06F0D0FA184B029AFFF724FAED
:1036F000174A184BFFF706F9174A029B0190184624
:1037000000911146019A009BFFF716FA134A144BD9
:10371000FFF7F8F8134B029AFFF7A6F9FFF798FAAC
:10372000A549C88004E0A44840F27031C180FFE799
:1037300006B080BD4800002034000020D70E0000F5
:1037400090000020FF0F00000088C34000DCAE4066
:103750004AF1F109D9796B3F0000F03F6666666671
:10376000661271C0000024403C01002080B586B084
:103770000F4804F015FC4548019005F0EDFA02A849
:10378000009005F005FC4720009908800020488043
:1037900088803D4A0492C880019805F059FB0121B8
:1037A000019805F0D3FB019805F048FB06B080BDF9
:1037B0001206000080B582B0014601AA108068465A
:1037C00000220280FFE76846008801A90988884234
:1037D0000ADAFFE740F2E83000F008F8FFE7009867
:1037E000401C69460880EEE702B080BD80B588B015
:1037F000014607AA108005A80022028004AB1A80A7
:1038000003AB1A8002AA204B1380079A06AB1A80DA
:103810001E4A01901046009105F094FA0199088023
:10382000FFE71A4805F08EFA04A90880088805A960
:103830000988884225D0FFE704A8008805A90988DF
:10384000884208DDFFE704980599401A0399081893
:1038500003A9088009E002980599401A04994018C4
:103860000399081803A90880FFE7049805A90880B0
:1038700003A8008806A90988884201DBFFE701E068
:10388000FFE7CEE708B080BD1027000000480140E8
:1038900080B584B09C4800780528039000D988E062
:1038A0000398810001A251188F46C04600F00AB863
:1038B00000F021B800F044B800F07BB800F068B820
:1038C00000F073B840480178491C01700078032863
:1038D00010DBFFE73C48002101700920C00640F2E0
:1038E000004202911146029A03F01EFE374805F08D
:1038F000CBFCFFE75EE0844840893C280DDBFFE716
:1039000030481021012203F00FFE40F2F410FFF7BF
:1039100051FF002001F056FE11E07B488089F0281D
:103920000CDBFFE727481021012203F0FDFDC82032
:10393000FFF740FF002001F045FEFFE7FFE739E019
:103940007148C189491CC181F248007902280FDC05
:10395000FFE7F448C089042809DBFFE7184805F0B1
:1039600093FC00210190084601F02CFEFFE70EE0D9
:10397000EC48C089032809DBFFE7104805F084FC08
:1039800000210090084601F01DFEFFE7FFE7FFE77A
:10399000E448018A491C0182008A032804DBFFE70E
:1039A000002001F00FFEFFE704E0DE480021418126
:1039B00000E0FFE704B080BD90000020F4A0000804
:1039C0000BA10008000400486400002029A10008A1
:1039D00080B582B0002001900090294800680190D5
:1039E0000198002804D0FFE70198042806D3FFE7D8
:1039F00001200190CA481E2101811FE00198C94998
:103A000088700F48006800900098FEF777FF6328E1
:103A100004DCFFE70098C249088103E0C0481E218A
:103A20000181FFE707480068BB490876087E022845
:103A300004DBFFE7B84800210176FFE702B080BD54
:103A400004F8000808F8000880B584B0002003904E
:103A500002900190FFF7C5FAB24880780190B04813
:103A60000821405E0290AC48007E0390044801A902
:103A7000032200F05BFBFFF717FB04B080BDC046DC
:103A800000F8000880B582B0A6480021017041709E
:103A9000C17001818181C1810190FFF799FF019877
:103AA000807800F003F802B080BDC04682B00146C5
:103AB00001AA107001989B4A90709078012800909C
:103AC00008D0FFE7009802280AD0FFE700980328F3
:103AD0000CD011E093480A2181800121C18011E0BE
:103AE00090480C2181800121C1800BE08D480E217E
:103AF00081800121C18005E08A480A21818001215D
:103B0000C180FFE702B070475000002080B584B04C
:103B100003A8002101807F480079032805DBFFE727
:103B20007D480078012808D1FFE70020029001F0CD
:103B300049F9029800F050FAE9E078480188491CF8
:103B4000018077484078012800D092E07548002134
:103B500041817348C170807800280AD1FFE770481E
:103B600001218170C82000F0EDFF6F4805F08CFB4B
:103B7000FFE701F017FE03A908806848008840F2BB
:103B8000E831884208DBFFE764480021018065488E
:103B90008189491C8181FFE762480089002804D19E
:103BA000FFE7012000F018FA25E05E480189C0888F
:103BB000814204D1FFE7002000F00EFA1AE05948D4
:103BC0000189C088401C814204D1FFE7012001F037
:103BD000F9F80EE053480189C08803AA12888018BA
:103BE000401C814204D1FFE7002001F0EBF8FFE721
:103BF000FFE7FFE7FFE74B480189491C0181008986
:103C00001E2835DBFFE747480021018147490A7834
:103C1000521C0A7080780128019020D0FFE701989B
:103C2000022804D0FFE70198032811D018E03F488C
:103C30000078032807DBFFE73C4800210170394882
:103C40000221C18003E037480121C180FFE70EE077
:103C500036480021017033480221C18007E0FFE7A8
:103C60003248002101702F480121C180FFE7FFE7A2
:103C700045E02A48008840F2E83188421DDBFFE732
:103C800026480021018027484189491C4181CF48AD
:103C90008078002810D0FFE7CC48C178491CC1705B
:103CA000C0781E2807DBFFE7C84800218170C1707B
:103CB0001C488181FFE7FFE7FFE7002001F082F861
:103CC000184800890128009004D0FFE700980328D5
:103CD00004D007E0012000F07FF903E0002000F0AD
:103CE0007BF9FFE70F480189491C018100891928E8
:103CF00004DBFFE70B4800210181FFE7FFE7B34842
:103D00000078012803D1FFE701F00AF9FFE704B0CA
:103D100080BDC04690000020000100206600002009
:103D20009E0000205000002059A1000865000020DE
:103D300080B58AB040F2005004F032F902200290BF
:103D400003F006F903A8002181760E4A05920122AC
:103D500042760691142207920B4A0392017604914F
:103D600043F200010891029901900846019903F07D
:103D70001DF9029803F0CCF8029803F0B9F80AB0E4
:103D800080BDC046250100202438014080B586B0A2
:103D9000194804F005F919480021402205900491C2
:103DA000039203F05FFB8020059902900846049976
:103DB000029A03F057FB02200121059A0190104658
:103DC000019B00911946009A039B03F0D6FB0598CE
:103DD0000499009A039B03F018FC05980199009A36
:103DE000029B03F0CAFB05980499009A029B03F01A
:103DF0000CFC06B080BDC04612050000000400485F
:103E000080B582B000F03CF8FFF792FFFFF7BEFFED
:103E1000194804F0C5F83A48019005F031F9E1205D
:103E20004102019805F0C8F80421019805F00DFA47
:103E30000821019805F018FA4021019805F04AF987
:103E40008021019805F055F9019805F061F9FFE727
:103E50002B480A4905F075F9002801D1FFE7F7E77B
:103E600027480649009005F05CF90421009805F008
:103E700085F902B080BDC0460E06000004070000B0
:103E800080B51B20002103F073FC80BD80B584B099
:103E90000A46039002A8017001A8002101806B4628
:103EA00019800180FFE701A8008802A909788842EB
:103EB00023DAFFE7684600210180FFE71048114937
:103EC00005F03FF900280BD1FFE70098401C694638
:103ED000088008880C49884201DBFFE700E0EDE735
:103EE000039801A90988415C054805F0BDF8FFE782
:103EF0000198401C01A90880D5E704B080BDC046E8
:103F000000380140070700008913000080B52848E9
:103F10000188491C018000882649884201DCFFE7AE
:103F200045E02348244901803E480078002801D11B
:103F3000FFE73CE02148C0882149884220DBFFE7B9
:103F400023480178491C01700078062810DBFFE740
:103F50001E484078002804D1FFE71E4805F094F978
:103F6000FFE71A480121417019480B210170FFE752
:103F70001448002101701148C0881349086016E0F8
:103F800010480178491C01700C49C9880E4A11601B
:103F900000780A2807DBFFE70A480B2101700B486D
:103FA00000214170FFE70A4800210170FFE780BD52
:103FB0006A000020DB050000DC0500003C01002059
:103FC000B20900006C0000204C0000209E00002080
:103FD00068000020CCA1000880B582B0014601AA8B
:103FE0001070104800781278904201D1FFE712E07B
:103FF00001980C4908700878012806D1FFE700F005
:1040000013F8012003F07CF805E0022003F078F8B3
:1040100000F06CF8FFE702B080BDC0460148002107
:10402000017070476D00002080B590B02E480F9051
:104030000920C0060221002240F2002307900691C9
:104040000592049303F099FA032207980599049BBB
:1040500003F0DBFA07980699049A03F003FA08A81C
:10406000039004F095FF0F98008803990880059845
:10407000488088800F9A52880A92C88008732A4A1A
:104080001046029204F0E4FE0CA8019004F049FEF0
:10409000012001990880059A4A808A80CA800A8195
:1040A0004A81029B009018460099019A04F0F0FBA7
:1040B0000F9882880298009904F0B6FD6022029859
:1040C000009904F05FFD02980099059A04F0D8FD6C
:1040D0000298009904F043FF029804F0CFFB029885
:1040E00004F0ACFE10B080BD1C00002080B584B090
:1040F0000D4804F031FE0920C0060121002240F2E3
:104100000023039002910192009303F036FA039882
:104110000199029A009B03F078FA03980099019A9A
:1041200003F002FA04B080BD002C014010B58AB043
:1041300013460990089107A802800020069005A95F
:104140000880099A1F24E4061219920A0692049321
:104150000390029103F0AAF83420019003F012F8C2
:10416000069880020121C906401803F019F8019948
:104170000090084603F006F8039802990880FFE7CC
:1041800005A8008807A9098888420FDAFFE709987F
:1041900005A9098889004018089A515803F09AF82F
:1041A000FFE70598401C05A90880E9E7342002F0E4
:1041B000E9FF02F0EFFF0AB010BD000080B58CB03F
:1041C000664803F0EDFE664803F0EAFE00F0CAF828
:1041D0000920C0060121002248F200030B900A9139
:1041E0000992089303F0C9F90B9809990A9A089B58
:1041F00003F00BFA0B980899099A03F095F9FB481C
:1042000007900A99099A0A9B03F0B7F90798099948
:104210000A9A0A9B03F0F9F907980A990A9A03F097
:1042200083F980200B99069008460A99099A069B03
:1042300003F0A3F90B9809990A9A069B03F0E5F994
:104240000B9806990A9A03F06FF902200B990590D2
:1042500008460A99099A059B03F08FF90B9809996A
:104260000A9A059B03F0D1F90B9805990A9A03F075
:104270005BF907980A99099A059B03F07EF907985C
:1042800009990A9A059B03F0C0F9079805990A9ABB
:1042900003F04AF940F200100B99049008460A997D
:1042A000099A049B03F069F90B9809990A9A049BEF
:1042B00003F0ABF90B9804990A9A03F035F9202022
:1042C0000799039008460A99099A039B03F055F948
:1042D000079809990A9A039B03F097F9079803999D
:1042E0000A9A03F021F940F200200B990290084647
:1042F0000A99099A029B03F040F90B9809990A9AC6
:10430000029B03F082F90B980299099A03F00CF9C9
:1043100040200B99019008460599099A019B03F0EA
:104320002CF903220B980999019B03F06EF90521E2
:104330000B98019A03F096F840F200400B99009018
:1043400008460A99099A009B03F017F90B980999F6
:104350000A9A009B03F059F90CB080BD11050000CA
:104360001205000080B586B00920C00648F20001A1
:1043700000220590049203F0D7F8C648012103906B
:104380000291029A03F0D0F880210598029A03F076
:10439000CBF802200599019008460199029A03F092
:1043A000C3F803980199029A03F0BEF840F2001195
:1043B0000598029A03F0B8F820210398029A03F0B6
:1043C000B3F840F200210598049A03F0ADF806B066
:1043D00080BDC046FFE7FEE710B58AB0014609AAD6
:1043E00010707D480023438110780528089000D97B
:1043F000EEE00898810001A251188F4600F051B8F4
:1044000000F09CB800F006B800F0E1B800F0E0B8A9
:1044100000F0DDB8704800780528079033D8079879
:10442000810001A251188F4600F00AB800F02AB8A6
:1044300000F006B800F014B800F013B800F022B88D
:104440006B48007903280ADBFFE7012001F0BAF886
:1044500040F2F4110690084600F074FBFFE71FE0FD
:104460001EE08C481021012203F05EF840F2F410A7
:10447000FFF7A0F90920C00640F20041002203F036
:1044800053F80DE0FFE783481021012203F04CF8B8
:1044900040F2F410FFF78EF9002001F093F8FFE7E7
:1044A00097E04D4800780028059004D0FFE7059874
:1044B00003280BD040E00920C00640F20041012251
:1044C00003F032F8484804F0DFFE36E04D48C0788B
:1044D000002805D1FFE74B4840F2F4118180FFE747
:1044E00048488088002826D0FFE74648C178491C04
:1044F000C170C07805281DD1FFE73A4804F0C4FE1A
:1045000036490F224A7001220A70334B05241C7071
:104510000923DB0648F20004049018460391214663
:10452000029203F001F802980399087300220A61CD
:104530004A61FFE7FFE700E0FFE74AE0264800782E
:1045400001280AD0FFE724480078052830D1FFE78A
:10455000224840780F282BD0FFE71F48C07800285A
:104560000FD1FFE71C488178491C817080780328AF
:1045700006DBFFE718480121C17003218170FFE7C6
:104580000EE015488178491E81708078012806DC8C
:10459000FFE711480021C17001218170FFE7FFE7AB
:1045A0000D488078FFF782FA012000F0B9F9FFE7A3
:1045B00009480078002809D1FFE7094804F064FEA3
:1045C00002210190084600F0FDFFFFE701E000E056
:1045D000FFE70AB010BDC0465000002000010020D7
:1045E000D9A00008BCA00008E7A00008000400480B
:1045F0009000002080B503480349044B002200F0DE
:1046000007F880BD70000020A1520008D9430008BF
:1046100010B584B014460390029101A80270009373
:104620000398002802D1FFE7FFE7FEE7039801782F
:10463000F0221140891D0170019803990A788007C2
:10464000800ECF231A401018087003980021417083
:10465000039881700398C18002980399886000983C
:104660000399C8600398FEF725FD04B010BD000053
:1046700080B5064803F094FC054803F091FCEC4833
:1046800000210122082302F078FF80BD11050000FF
:10469000120500000004004880B58AB0099009980E
:1046A0008068804708A908700878099909788909FD
:1046B000884217D0FFE709988078312805DCFFE7AA
:1046C00009988178891C81700FE1089809990A7806
:1046D00080013F231A40101808700998002181704A
:1046E000FFE7FFE7099800780F21084000280790AE
:1046F00009D0FFE70798022848D0FFE70798042869
:1047000000D185E0C6E008A80078099909788906F3
:10471000890F884222D1FFE70998C188891CC1808E
:104720000998C0887249884217DBFFE70998002181
:10473000C18009980178F0221140891C0170099804
:10474000C068002808D0FFE70998C06802210690D9
:10475000084606998847FFE7FFE716E00998002119
:10476000C18009980178F0221140491C0170099814
:10477000C068002808D0FFE70998C06801210590AB
:10478000084605998847FFE7FFE7A0E008A80078FA
:10479000099909788906890F884221D1FFE709988C
:1047A000C188891CC1800998C088962817DBFFE75B
:1047B00009980021C18009980178F0221140091D53
:1047C00001700998C068002808D0FFE70998C06800
:1047D00004210490084604998847FFE7FFE716E0A4
:1047E00009980021C18009980178F0221140C91C64
:1047F00001700998C068002808D0FFE70998C068D0
:1048000003210390084603998847FFE7FFE75EE02E
:1048100008A80078099909788906890F884221D16A
:10482000FFE70998C188891CC1800998C08896282B
:1048300017DBFFE709980021C18009980178F02271
:104840001140091D01700998C068002808D0FFE7D1
:104850000998C06804210290084602998847FFE73A
:10486000FFE716E009980021C18009980178F0223D
:104870001140491D01700998C068002808D0FFE761
:104880000998C06805210190084601998847FFE70B
:10489000FFE71CE008A80078099909788906890FC4
:1048A000884213D1FFE709980178F0221140017086
:1048B0000998C068002808D0FFE70998C06800215F
:1048C0000090084600998847FFE7FFE7FFE709984F
:1048D0008088002805D0FFE709988188491E8180DB
:1048E00003E009980021C170FFE70AB080BDC0460F
:1048F000DC05000080B582B0084800680190FFE741
:104900000198002808D0FFE70198FFF7C5FEFFE7F0
:10491000019800690190F3E702B080BD4C010020CE
:1049200080B58EB001460DAA1070107801285DD1B7
:10493000FFE7E14880783D490978884201D1FFE7E7
:1049400072E0DD48807801280C9032D0FFE70C98A7
:10495000022804D0FFE70C98032815D02AE009208C
:10496000C006022100220B900A91099202F0DCFDA0
:10497000EB480A99099A02F0D7FD40F20011012292
:104980000B9802F0D1FD2CE00920C0060221002284
:1049900008900791069202F0C7FDE1480799069A30
:1049A00002F0C2FD40F200110898069A02F0BCFD28
:1049B00017E0FFE70920C0060221002205900491BC
:1049C00002F0B2FDD6480121049A03911146039AE0
:1049D00002F0AAFD40F200110598039A02F0A4FD2E
:1049E000FFE7B5488078114908701DE00F4800784E
:1049F000002801D1FFE717E00C48002101700920D1
:104A0000C0060221012202900191009202F08CFD69
:104A1000C3480199009A02F087FD40F20011029804
:104A2000009A02F081FDFFE70EB080BD84000020F7
:104A30000004004880B521480088C007002805D13F
:104A4000FFE7FFF757FF00F0ABFCFFE71B480088CC
:104A50009B4941439B4809180122D141814208D812
:104A6000FFE7FEF7CFFD00F01FFB14480021018097
:104A7000FFE7D2480078012805D0FFE7CF4800784B
:104A8000052803D1FFE7FFF741FAFFE7E448007884
:104A9000002803D1FFE7FEF7EFFCFFE708480078A6
:104AA000022803D1FFE701F00BF9FFE70348018873
:104AB000491C018084480121018080BD86000020BE
:104AC0003901002080B584B00E4803F069FA94489B
:104AD000012100221023039002910192009302F021
:104AE0004CFD03980199029A009B02F08EFD0398F9
:104AF0000099019A02F018FD224801990170418045
:104B000004B080BD1205000080B582B01D48408809
:104B100001280ADBFFE71B484188491E4180804885
:104B20001021012202F000FD09E07D481021002241
:104B3000019202F0F9FC134801990170FFE702B0FD
:104B400080BDC04680B582B0014601AA10800D48E4
:104B50000078002813D1FFE701980A494880488867
:104B600001280BDBFFE70748012101706C48102288
:104B700000911146009A02F0D7FCFFE7FFE702B070
:104B800080BDC046880000207047000080B53048D6
:104B90000078002850D1FFE78848007800280AD024
:104BA000FFE786480078012805D0FFE783480078B2
:104BB000022804D1FFE7032000F004FD46E07F480F
:104BC0000078032837D1FFE77C484078012804D1DA
:104BD000FFE7002000F07AF838E05048007A00281B
:104BE0000DD1FFE74D480079062807DCFFE70120DB
:104BF00000F06CF8174800210170FFE71AE0474801
:104C0000007A012815D1FFE7124800780B280ADB4B
:104C1000FFE711480078012804D1FFE7022000F0E7
:104C200055F8FFE704E00B480178491C0170FFE7E5
:104C3000FFE7FFE7FFE709E060480078032804D1B9
:104C4000FFE7022000F0BEFCFFE7FFE780BDC046A3
:104C5000D80000208C000020C800002080B582B061
:104C6000564800780128019004D0FFE701980528F4
:104C700003D005E0FEF74AFF03E000F089FE00E004
:104C8000FFE70E480188491C018000880C49414318
:104C90000C4809180122D141814206D8FFE700F0F3
:104CA00041F8064800210180FFE7FFF72DFF064885
:104CB0000121418002B080BD500000208E00002004
:104CC000CDCCCCCC98999919EC00002080B582B05D
:104CD000014601AA10700198104B18721078012833
:104CE00006D1FFE70E482021002202F01DFC05E05E
:104CF0000B482021012202F017FCFFE702B080BD23
:104D000080B50648FA21C180042101710021017299
:104D100003482021012202F007FC80BD9000002002
:104D20000004004880B582B024480078052801902E
:104D300040D80198810001A251188F4600F01FB899
:104D400000F008B800F00FB800F013B800F01DB87C
:104D500000F01EB81A48002101700120FFF7E0FDA5
:104D600003F01AFB27E00020FFF7DAFD03F03CFB1D
:104D700021E00020FFF7D4FD03F0D8FA1BE000206B
:104D8000FFF7CEFD03F0FAFA15E003F045FA12E062
:104D9000624840780B28009004D0FFE700980F2865
:104DA00003D005E003F0B0FC03E003F055FC00E0A5
:104DB000FFE700E0FFE702B080BDC04650000020E2
:104DC0009C00002080B582B0014601AA1070A54861
:104DD00000781278904201D1FFE714E00198A149D0
:104DE00008700878012808D1FFE79E48807A00F013
:104DF000B7F8012002F084F905E0022002F080F902
:104E000000F032F9FFE702B080BDC04681B0014634
:104E10006A4610700098934A907201B07047C0467D
:104E20009E00002080B582B08E4800210170417044
:104E30008170C170FA218180C1800221817207498D
:104E40000190084603F0ACF8964803F085FF0198FE
:104E5000807A00F085F802B080BDC0460B060000E5
:104E600080B588B005A8002101810691059104A8AC
:104E700001802A48C188491CC180C08879283FDB4D
:104E8000FFE726480021C1800421405E754A515E3B
:104E9000401AFDF733FD3C2804DBFFE705A800219D
:104EA00041710DE01D488088FA498A88801A08817E
:104EB000FEF7CAFDFEF78CFD05A801214171FFE751
:104EC00005A810210170082141700022827017236B
:104ED000C37002710623039002911946019201F0FA
:104EE000C3FF04A908804878039988710498C871A1
:104EF00008460299FEF7CAFF0848019981700AE046
:104F00000648807905A9087001200090084600999C
:104F1000FEF7BCFFFFE708B080BDC04600010020DF
:104F200080B5DC480621405E40F27111884204DC05
:104F3000FFE70220FFF76AFF10E0D6480621405E37
:104F400040F28511884204DCFFE70120FFF75EFF95
:104F500003E00020FFF75AFFFFE7FFE780BDC046F0
:104F600010B594B0014613AA10700920C0060222A1
:104F7000002340F200240B900A91114609921A4630
:104F800008932346079402F0F8FA03220B98089935
:104F9000079B02F03AFB0B980999079A02F062FA14
:104FA0000CA8069003F0F4FF089806990880488042
:104FB0008880B84A927A002A03D1FFE747200E90F2
:104FC00011E0B448807A012803D1FFE739200E9020
:104FD00008E0B048807A022803D1FFE72F200E9026
:104FE000FFE7FFE7FFE70CA80021C18001732D4A0E
:104FF00005901046059B04911946039203F028FF83
:1050000010A8029003F08DFE01200299088004226E
:105010004A80049A8A80CA800A814A81039B01904F
:1050200018460199029A03F033FC0E98401C42087E
:105030000398019903F0F8FD60220398019903F0A9
:10504000A1FD03980199049A03F01AFE03980199AF
:1050500003F085FF039803F011FC039803F0EEFEC4
:1050600014B010BD9E00002080B584B00D4803F040
:1050700073FE0920C0060121002240F200230390A4
:1050800002910192009302F078FA03980199029A32
:10509000009B02F0BAFA03980099019A02F044FAD0
:1050A00004B080BD002C014088B007A80021018019
:1050B00006A8017005A8017001A801707248007867
:1050C00009280BDCFFE7754800886F490A78520011
:1050D0006E4B98520878401C0870D2E06A48002154
:1050E000017006A80170FFE706A80078082835DCE3
:1050F000FFE705A800210170FFE705A8007806A9D1
:1051000009780922511A884222DAFFE705A80078B7
:1051100040005E490A18085A5188884212DDFFE7AC
:1051200005A801784900594A515A07AB19800178FE
:10513000490053185B885352079900784000801843
:105140004180FFE7FFE70598401C05A90870D4E7F8
:10515000FFE70698401C06A90870C5E74B48008980
:105160004B49884200DD86E003A83C21017004A879
:1051700000210170039801AA107002A8017006A80E
:105180000170FFE706A800783B2868D8FFE73F4892
:10519000008904A9097849003F4A515A88422ADB0C
:1051A000FFE704A80078002805D0FFE704A80078EE
:1051B000012801D1FFE752E03448008904A90978A9
:1051C0004900354A8918891E0988884205DCFFE7AD
:1051D0000498401E04A9087041E004A801786A46BA
:1051E0001180017802AA1278891849080170009884
:1051F00001A908702DE003A8007804A90978884265
:1052000008D0FFE703A80078401E04A90978884267
:1052100001D1FFE723E01D48008904A9097849006E
:105220001D4A89184988884205DBFFE70498401C1D
:1052300004A9087013E004A801786A461180017877
:1052400001AA1278891849080170009802A908700B
:10525000FFE7FFE70698401C06A9087092E704A83C
:10526000007805214143C8310A488180818802893C
:105270008918C18005E0074840F220318180C18053
:10528000FFE708B07047C046BE000020AA0000201B
:10529000D70E00009E00002020A000083C01002046
:1052A00080B582B00948082102F052F9002804D1E3
:1052B000FFE701A80021017003E001A801210170AE
:1052C000FFE701A8007802B080BDC0460004004896
:1052D00080B582B00920C006012102F039F900280A
:1052E00004D1FFE701A80021017003E001A801211A
:1052F0000170FFE701A8007802B080BD80B582B0E0
:105300002348022102F024F9002804D1FFE701A874
:105310000021017003E001A801210170FFE701A84D
:10532000007802B080BDC04610B582B0164802F0C9
:1053300037FE164802F034FE0920C0060021012283
:1053400001910092009B02F018F911480223019983
:10535000009A02F012F90F480099017041708170B3
:10536000019A8280C823C3800B4C8460CD4C21708D
:105370006170A170A280E380084BA360384B186075
:105380005C6002B010BDC0461105000016050000AB
:1053900000140048C8000020D1520008FD52000847
:1053A00080B584B003A800210170FFE703A800784E
:1053B000012852DCFFE703A801788900284A5158E8
:1053C000896802900192884702990A789200019BAD
:1053D0009A58507008788000185882784078824235
:1053E00028D1FFE703A8007880001D4908584178BC
:1053F000007881421ED0FFE703A801788900184A8F
:1054000051588B885B1C8B800078800010588188F5
:10541000C08881420DDDFFE703A801788900104AAA
:10542000515800238B80007880001058417801701B
:10543000FFE70CE003A801788900094A51584B782E
:105440008B7000788000105800218180FFE7FFE713
:105450000398401C03A90870A8E704B080BDC046AB
:10546000C000002080B584B002900298401E000E5B
:10547000002803D0FFE70120039013E00298401EAC
:105480000A4908600020C1430322019008461146E2
:1054900001F004F8064801990160064807220260FD
:1054A0000391FFE7039804B080BDC04614E000E01C
:1054B00018E000E010E000E081B0684600210170D3
:1054C000FFE768460078022816DCFFE768460078A8
:1054D00040003B49085A012808DBFFE7684600788E
:1054E000400037490A5A521E0A52FFE7FFE7009868
:1054F000401C69460870E4E701B0704780B582B08F
:1055000001F0A2FF29480188491C01800088284930
:105510004143284809180122D141814204D8FFE7BC
:10552000224800210180FFE72348008820494143A9
:10553000204809180122D141814203D8FFE7FEF734
:10554000A7F9FFE756480078052803D1FFE700F0E8
:10555000E5FE02E0FFF71AFBFFE701F047FA01F072
:10556000D3FB02F069FD15480078012814D1FFE74C
:105570001248407817280FD1FFE70F4800880C49E0
:1055800041430C4809180122D141814203D8FFE769
:10559000FFF766FCFFE7FFE707480188491C018029
:1055A00007486421818002B080BDC046EA00002027
:1055B000CDCCCCCC98999919E800002000010020AE
:1055C000EC00002010B588B0014607AA10700798BB
:1055D000EC4A107000201081D08110820923DB0674
:1055E00048F200040690184605912146069B049255
:1055F0001A4601F099FF0698FFF768FB0698FFF737
:10560000E1FB0698FEF7E8FC049801780429039171
:1056100042D80398810001A251188F4600F008B8C3
:1056200000F017B800F025B800F02BB800F031B842
:105630001C480078002801D1FFE702E0FEF704FAD9
:10564000FFE70920C00640F20041002201F06CFF94
:1056500023E00920C00648F20001012202900192D5
:1056600001F062FF40F200410298019A01F05CFFF4
:1056700013E00920C00640F20041012201F054FF6E
:105680000BE00920C00640F20041012201F04CFF6E
:1056900003E001F0DDFB00E0FFE708B010BDC0460D
:1056A00050000020D800002080B584B03448016844
:1056B000012211430160FFE731480068800700289C
:1056C00001D4FFE7F8E7FFE72E4801688022114385
:1056D000016000200390FFE703987F2805D8FFE7CB
:1056E000FFE70398401C0390F6E7264801689022E4
:1056F0001143016000200390FFE703987F2805D83D
:10570000FFE7FFE70398401C0390F6E7FFE71D481B
:10571000016803229143016019490A681A4B1A4033
:105720000A600168194A114001600168184A114075
:105730000160184801680F22914301601648016812
:1057400040F203129143016001680122130499435E
:1057500001600168D30799430160104801689143D3
:1057600001600F48002101600292019102F042FFA6
:105770000298C006019902F015F804B080BDC04639
:105780000010024004100240FFFFF2FE0C00FF0870
:10579000FFFFC2772C10024030100240341002404C
:1057A0000810024081B0684600210180714806213E
:1057B000405E40F27211884238DCFFE76E480168B3
:1057C000491C01606D4900220A606D490A60006849
:1057D00080087C2806D8FFE76A488088401D694613
:1057E000088022E064480068C0087C2806D8FFE7EB
:1057F000644880880A306946088015E05E48006881
:105800006149884206D8FFE75E4880880C306946C7
:10581000088008E058485D4901605A488088801C2B
:1058200069460880FFE7FFE7FFE79CE05148062153
:10583000405E40F28B11884237DCFFE74E48002182
:1058400001604F4801604D480168491C01600068D3
:1058500080087C2806D8FFE74A488088801E694671
:10586000088021E045480068C0087C2805D8FFE78B
:10587000444880886946088015E0404800684249ED
:10588000884206D8FFE73F488088801C6946088028
:1058900008E03A483D4901603A488088001F69465F
:1058A0000880FFE7FFE7FFE75CE032480621405E43
:1058B00040F29A11884238DCFFE72F48002101604E
:1058C0002E4801602E480168491C0160006880086C
:1058D0007C2806D8FFE7F7488088C01F6946088003
:1058E00022E026480068C0087C2806D8FFE7F14877
:1058F0008088801F6946088015E02048006822499A
:10590000884206D8FFE7EB488088401F6946088038
:1059100008E01A4800210160E6488088801F694637
:105920000880FFE7FFE7FFE71BE0E3480621405E52
:1059300040F2A41188420FDCFFE70F48002101600C
:105940000E4801600E480160DA4880880321B0FBF0
:10595000F1F06946088003E0684600210180FFE716
:10596000FFE7FFE7FFE70098D349C8726846008861
:1059700001B070479E000020F4000020F8000020D5
:10598000FC00002050000020871300008813000056
:1059900080B58AB007A8002101810891079106A867
:1059A0000180BA480078002801D1FFE76BE1B848D0
:1059B0000079022808DCFFE700200590FFF702FAD3
:1059C0000598FEF709FB5EE1FFF7ECFE06A90880EB
:1059D000B0480188491C0180AC484078C01E14289A
:1059E000049000D9D3E00498810001A251188F4699
:1059F00000F064B800F0CBB800F0C9B800F0C7B848
:105A000000F0C5B800F01EB800F03DB800F0BFB817
:105A100000F0BDB800F0BBB800F0B9B800F0B7B8FE
:105A200000F062B800F0B3B800F0B1B800F0AFB861
:105A300000F0ADB800F0ABB800F0A9B800F0A7B81E
:105A400000F03CB89B480189C088401C81420AD1C3
:105A5000FFE79848002141810846FEF7BDFA012082
:105A6000FFF7B0F90EE093480189C08806AA1288B2
:105A70008018401C814204D1FFE70020FFF7A2F903
:105A8000FFE7FFE7F3E08B48008900280AD1FFE732
:105A90008848002141810846FFF794F90120FEF76C
:105AA0009BFA0AE083480189C088814204D1FFE75C
:105AB0000020FEF791FAFFE7FFE7D8E07C48018875
:105AC000491C0180008840F2E83188420BDBFFE787
:105AD00077480021018008460391FFF773F9039886
:105AE000FEF77AFAFFE7C2E06848007B002808D199
:105AF000FFE700200290FEF76FFA0298FFF762F9C5
:105B0000B5E0634800686449884209DCFFE75F4804
:105B10000021017301214173644803F0B5FBA6E045
:105B20005E480188491C018000885D49884208DB85
:105B3000FFE75A480021018054480169491C01616E
:105B4000FFE7524800695749884205DCFFE706A88D
:105B5000008802F0A1FD19E04C4840695249884292
:105B600007DCFFE749480021017340F25821016139
:105B70000BE04648007E002806D1FFE7434801219C
:105B80000176FDF761FFFFE7FFE7FFE76FE04A48B7
:105B90004078012832D1FFE746480021418146483C
:105BA000C1708078002807D1FFE743480121817048
:105BB000C820FEF7C7FFFFE73648008840F2E8310B
:105BC000884204DBFFE7334800210180FFE706A895
:105BD000008802F061FD31480188491C018000887D
:105BE0002F49884209DBFFE72C480021018006A8E5
:105BF0000188324803F048FBFFE737E0254800887A
:105C000040F2E83188421BDBFFE722480021018097
:105C100028484189491C41812748807800280ED0B6
:105C2000FFE72548C178491CC170C0781E2805DBF4
:105C3000FFE7214800218170C170FFE7FFE7FFE720
:105C40000020FFF7BFF81B4800890128019004D00D
:105C5000FFE70198032804D007E00120FEF7BCF914
:105C600003E00020FEF7B8F9FFE700E0FFE7114886
:105C70000189491C01810089192804DBFFE70D48CF
:105C800000210181FFE70AB080BDC046000100206D
:105C9000900000201C010020F50B000020010020D6
:105CA000E903000057020000AF04000098A00008BC
:105CB0001E010020500000209E000020ADA0000822
:105CC00070B5A8B0002027902690259024902390AE
:105CD00022A9087021A9087020AA10801FAA10808C
:105CE0000870FFE721A80078E649097888420CDAB5
:105CF000FFE721A80078E449095C23AA1154FFE7D3
:105D00002198401C21A90870ECE7DE48017822AAFE
:105D10001170DE4900220A70027023A84078022820
:105D200007DBFFE723A8407822A90978884201D041
:105D3000FFE7E4E222A80078811E23A801F094F88E
:105D400020A90880FFE722A8007823A94018801E18
:105D5000007820A94978884216D1FFE722A8007868
:105D600023A94018401E007820A9097888420BD149
:105D7000FFE723A881780902C07808181FA90880C6
:105D8000C3480121017000E0B9E21FA80088401E4D
:105D90001A281D9000D9B1E21D98810001A2511866
:105DA0008F46C04600F034B800F0A8BA00F06BB8D7
:105DB00000F0B3B800F0A2BA00F0A0BA00F09EBAAA
:105DC00000F0E0B800F014B900F098BA00F048B95B
:105DD00000F094BA00F092BA00F090BA00F0DAB98C
:105DE00000F08CBA00F08ABA00F088BA00F086BAE7
:105DF00000F084BA00F082BA00F080BA00F02FBA46
:105E000000F07CBA00F07ABA00F087B900F051BA1D
:105E100023A8007900280ED1FFE723A840790028A5
:105E200009D1FFE79A48012101700021817099484A
:105E30000521017014E023A80079FF280FD1FFE7A6
:105E400023A84079FF280AD1FFE79148002101707B
:105E5000817090480121017039214181FFE7FFE7FE
:105E600023A81021017006211C9000F0FDFF20A93D
:105E7000088048781C9988712098C87108211C985E
:105E8000FEF704F83BE223A80079FF280DD1FFE7D5
:105E900023A84079FF2808D1FFE77D4800218170C1
:105EA00041707C480121017006E07948032141706E
:105EB000784805210170FFE723A81021017008210F
:105EC0004170002282700323C370734B06241D5F50
:105ED0000A2695FBF6F505711B5F93FBF6F56E43FD
:105EE0009B1B43711B901A912146199200F0BCFF35
:105EF00020A9088048781B9988712098C8710846A5
:105F00001A99FDF7C3FF1998FEF766F81998FEF77E
:105F100059FFFC4801210170F1E123A81021017013
:105F200008214170002282700422C270F94A12686E
:105F3000F94B5343DA17120D9A18120B1EAB1A8045
:105F40001A8840F2E834B2FBF4F202711A880A238C
:105F5000B2FBF3F26423B2FBF3F46343D21A42714F
:105F6000062218901791114600F07EFF20A90880A4
:105F70004878189988712098C87108461799FDF7D4
:105F800085FFBCE123A80079FF280CD1FFE723A8F7
:105F90004079FF2807D1FFE7DA4800214170DB484C
:105FA000012101700DE0D74808214170D748052133
:105FB000017000201690FEF70FF81698FEF702FF0A
:105FC000FFE723A8102101700A21417008221590D3
:105FD0001491114600F048FF20A9088048781599CF
:105FE00008722098487208461499FDF74FFF86E121
:105FF00023A80079FF280CD1FFE723A84079FF28C8
:1060000007D1FFE7FA4800214170C0480121017023
:106010000FE0F74801210170092141700020139021
:10602000FDF7DAFF1398FEF7CDFEB84805210170A1
:10603000FFE723A8102101700A2141700822129065
:106040001191114600F010FF20A90880487812999C
:1060500008722098487208461199FDF717FF4EE123
:1060600023A80079FF2819D1FFE723A84079FF284A
:1060700014D1FFE7DE4800214170A44801210170DE
:1060800034E0C0463A0100202501002039010020FB
:1060900000010020500000209E0000200920C006C2
:1060A0000221002210900F910E9201F03DFA9848C3
:1060B0000F990E9A01F038FA40F2001110980E9ADA
:1060C00001F032FA01200D90FDF7BCF90D98FDF7B3
:1060D000C5F848F2000110980D9A01F025FAC4485D
:1060E0000B214170894805210170FFE723A8102189
:1060F00001700821417006220C900B91114600F0AE
:10610000B3FE20A9088048780C9988712098C8713E
:1061100008460B99FDF7BAFEF1E023A800790028A4
:106120000BD1FFE723A84079012806D1FFE723A878
:10613000002101710121417111E023A8007900289B
:106140000BD1FFE723A84079022806D1FFE723A857
:10615000002101710221417100E0D0E0FFE723A896
:106160001021017008214170002282701A22C27031
:1061700006220A900991114600F076FE20A90880B7
:1061800048780A9988712098C87108460999FDF7DE
:106190007DFEB4E023A80079002830D1FFE723A8D2
:1061A000407900281AD1FFE791480F214170012161
:1061B0000170564A052313700922D20648F20003E3
:1061C0000890104607911946079A01F0ADF9079813
:1061D0000899087300220A614A610FE023A84079F8
:1061E00001280AD1FFE78248007E002804D1FFE79A
:1061F00023A8FF214171FFE7FFE7FFE714E023A891
:106200000079FF280FD1FFE723A84079FF280AD1A2
:10621000FFE77748002141703C4A01231370037364
:1062200001614161FFE7FFE723A810210170082108
:106230004170002282700F22C270062206900591E2
:10624000114600F011FE20A908804878069988714F
:106250002098C87108460599FDF718FE4FE064487C
:1062600040F2C21181801722427023A810220270CE
:1062700000220271427124480822825E0423C05E1B
:106280001018884204D1FFE723A801214171FFE7DC
:1062900023A80621049000F0E7FD20A90880487893
:1062A000049988712098C87108210498FDF7EEFDC3
:1062B00025E015481E2101811448012181704C48B8
:1062C000002101760391FDF7BFFB23A81021017087
:1062D00008214170039A82700623029001911946A9
:1062E00000F0C2FD20A908804878029988712098A2
:1062F000C87108460199FDF7C9FD00E0FFE728B025
:1063000070BDC046000100209E000020500000200B
:1063100000040048900000205613000080B582B0B1
:10632000334840780F2860D1FFE73148007B0028D0
:106330001CD0FFE72E48007E00280FD0FFE7304832
:1063400000683149884209DCFFE72948012141738F
:10635000002202730846FEF7B9FC06E0244800213B
:1063600041730220FEF7B2FCFFE73FE021480188BD
:10637000491C018000880B281ADBFFE71D4800211B
:1063800001801B484169491C41611B480078002875
:106390000DD0FFE719480178491C017000780628E4
:1063A00004DBFFE70220FFF70DF9FFE7FFE7FFE758
:1063B00013480068134988420CDBFFE70220FEF710
:1063C00085FC0B4840F2B04141610121017300217D
:1063D000417309E001200190FEF778FC044801991F
:1063E000417300220273FFE700E0FFE702B080BDC7
:1063F0000001002022010020D800002024010020FC
:10640000900000209C0C0000F40B000080B582B0CE
:106410001148124902F0E6FE00281BD0FFE70E48A3
:106420000E4902F0BFFE0220019000F05BFE142135
:10643000081A0B4A10700B48019A0270104600911E
:1064400000F046FD0198009900F03EFE019800F032
:106450004FFDFFE702B080BD003801400400040793
:106460003A0100203901002081B001466A461070CF
:10647000107840B200280DD4FFE76846007840B29B
:106480001F2102460A400121914040098000024A32
:106490008150FFE701B0704700E100E070B582B0C5
:1064A000024601AB18700091187840B2002817D44A
:1064B000FFE701A8017849B20322D2431140384BCB
:1064C000C958007840B28407E40EFF25A540A943CF
:1064D000009DAD01EDB2A54029431040C1501AE026
:1064E00001A801780F22114008390323DB4319402A
:1064F0002A4C0959007840B28507ED0EFF26AE40C0
:10650000B143009EB601F6B2AE40314310400838A8
:1065100018400151FFE702B070BDC04670B582B0AF
:10652000024601AB18700091187840B2002817D4C9
:10653000FFE701A8017849B20322D2431140184B6A
:10654000C958007840B28407E40EFF25A540A9434E
:10655000009DAD01EDB2A54029431040C1501AE0A5
:1065600001A801780F22114008390323DB431940A9
:106570000A4C0959007840B28507ED0EFF26AE405F
:10658000B143009EB601F6B2AE4031431040083828
:1065900018400151FFE702B070BDC0461CED00E09D
:1065A00000E400E0E1480168082211430160FFE7D0
:1065B000DE4800680007002801D5FFE7F8E7DB4860
:1065C0000168042211430160FFE7D84800684007D2
:1065D000002801D5FFE7F8E77047C04683B00246C0
:1065E00002AB1870019118780128009004D0FFE7E1
:1065F000009802280FD01DE0B74801680F2212054D
:1066000091430160019909050D4BC91811400268B9
:106610000A4302600FE00948016803221205914312
:10662000016001990905064BC918114002680A4327
:10663000026000E0FFE703B07047C0463824014025
:106640000000F0FF81B000900098002807D0FFE71D
:10665000E548016840F600021143016006E0E248A7
:10666000016840F6000291430160FFE701B0704706
:1066700080B582B00448019001F0B6FC019801F0A9
:10668000A1FC02B080BDC04609030000D6480168E5
:1066900040F20012114301607047C046D2480068C2
:1066A000C007002806D1FFE7CF4801680122114347
:1066B0000160FFE77047C04610B582B00A46034646
:1066C00001AC207068460170007800281BD0FFE7FD
:1066D00001A80078C007002807D0FFE7C24801687A
:1066E0000122120511430160FFE701A8007880072D
:1066F000002807D5FFE7BC48016848F200021143B3
:106700000160FFE71AE001A80078C007002807D061
:10671000FFE7B54801680122120591430160FFE7D8
:1067200001A800788007002807D5FFE7AE48016878
:1067300048F2000291430160FFE7FFE702B010BD9D
:1067400083B0024602AB18700191187801280090BE
:1067500004D0FFE7009802280BD015E0A24801689A
:106760000722520491430160019902680A430260C2
:106770000BE09D48016847F20002914301600199D6
:1067800002680A43026000E0FFE703B07047C046BA
:10679000B0B585B00B46044604AD287003A801705F
:1067A00002922878052818D8FFE74D480168019122
:1067B00004A90A7805231C4654431F22A240019CC9
:1067C0009443019403AA127809784B439A400199A3
:1067D000114301910199016040E004A800780B2861
:1067E0001AD8FFE73D480168019104A90A780523FA
:1067F0001C4654431E3C1F22A240019C944301941A
:1068000003AA127809784B431E3B9A400199114321
:1068100001910199016020E004A800780F281AD89E
:10682000FFE72D480168019104A90A7805231C4659
:1068300054433C3C1F22A240019C9443019403AA70
:10684000127809784B433C3B9A40019911430191DE
:106850000199016000E0FFE7FFE7FFE703A8007888
:10686000092817D8FFE720480168009103A90A7892
:1068700003231C4654430722A240009C94430094E7
:10688000029A09784B439A4000991143009100996C
:1068900001601FE003A80078122819D8FFE711480B
:1068A0000168009103A90A7803231C4654431E3C47
:1068B0000722A240009C94430094029A09784B431B
:1068C0001E3B9A400099114300910099016000E03D
:1068D000FFE7FFE705B0B0BD2C24014030240140A4
:1068E000342401400C2401401024014081B00146B1
:1068F0006A4610701078C007002807D0FFE73A48B2
:1069000001680122920511430160FFE768460078A3
:106910008007002807D5FFE73348016801225205A8
:1069200011430160FFE701B07047C04608240140F1
:1069300082B00A460190684601700078002827D08E
:10694000FFE701A84078C007002807D0FFE72548E7
:10695000016840F2001211430160FFE701A840788E
:106960004007002807D5FFE71E48016840F20042B3
:1069700011430160FFE701A800788007002806D5D1
:10698000FFE719480168022211430160FFE726E092
:1069900001A84078C007002807D0FFE71148016828
:1069A00040F2001291430160FFE701A840784007E0
:1069B000002807D5FFE70B48016840F200429143E9
:1069C0000160FFE701A800788007002806D5FFE7EF
:1069D00005480168022291430160FFE7FFE702B02A
:1069E0007047C046042401400824014080B584B0AB
:1069F00003A840F2C211018002A800210180804852
:106A0000007802280DD1FFE74048002101807C4832
:106A10004078012804D1FFE7794800214170FFE761
:106A200071E03A480188491C018000880E2801DC89
:106A3000FFE768E035480F2101807148007805289C
:106A4000019052D80198810001A251188F46C0468A
:106A500000F03DB800F048B800F047B800F004B8C6
:106A600000F043B800F009B803A8008800B202A9FA
:106A7000098809B200F04EF845E0F14840780F2847
:106A800016D1FFE7EE48007B002808D0FFE703A8F7
:106A900040F25821018002A81D490180FFE703A8A8
:106AA000008800B202A9098809B200F033F80DE0AD
:106AB00003A840F25821018002A9154A0A800088E3
:106AC00000B2098809B200F025F8FFE71BE00F4883
:106AD00000210180D8484078012804D1FFE7D6483A
:106AE00000214170FFE70EE0FFE703A840F25821C4
:106AF000018002A9064A0A80008800B2098809B20A
:106B000000F008F8FFE704B080BDC0464401002053
:106B10009CFF000010B584B00A46034603AC2080F9
:106B200002A80180C5480621405E218809B288423A
:106B300009DCFFE7C1480621405E02A9098809B2C5
:106B4000884228DAFFE72C480178491C0170007858
:106B50000B281FDBFFE728480A210170B648407860
:106B6000012816D0FFE7B4480178B44A0623D25E64
:106B7000244B0190184602F087FB0121019A5170C5
:106B80001178032904D0FFE70420FEF71BFDFFE77F
:106B9000FFE7FFE72DE0A9480621405E02A909882A
:106BA00009B21431884223DDFFE7A4480621405E84
:106BB00003A9098809B21439884219DAFFE70E4897
:106BC000002101700D480178491C017000780628E9
:106BD0000DDBFFE70948052101709748407801283F
:106BE00004D1FFE7944800214170FFE7FFE7FFE78A
:106BF000FFE704B010BDC046460100204701002059
:106C000050000020A0A1000881B000908B4840797E
:106C100003280AD1FFE700980749884204D8FFE714
:106C2000864802210171FFE703E0844802210171D7
:106C3000FFE701B07047C0462D0A000081B0009008
:106C40007E48407904280AD1FFE700980B49884222
:106C500004D8FFE7794803210171FFE709E00098B4
:106C60000549884204D3FFE7744803210171FFE717
:106C7000FFE701B07047C046D60A0000D30A000003
:106C800081B000906D48407905280AD1FFE700984F
:106C90000B49884204D8FFE7684804210171FFE7E7
:106CA00009E000980549884204D3FFE763480421BE
:106CB0000171FFE7FFE701B07047C046280B0000F5
:106CC000710C000081B000905C48407906280AD120
:106CD000FFE700980B49884204D8FFE75748052191
:106CE0000171FFE709E000980549884204D3FFE7F6
:106CF000524805210171FFE7FFE701B07047C04628
:106D0000C60C0000160D000080B584B04A4800781B
:106D10000128039004D0FFE70398052834D06CE0E5
:106D200046480079012815D1FFE746480178491CFB
:106D30000170007806280CDBFFE7444802F0A4FA53
:106D40003D4902224A70042102900846FEF73AFCAF
:106D5000FFE718E03B48002101703B480178491CDF
:106D6000017000780B280DDBFFE737480A2101701E
:106D700031484078022804D1FFE72F4800214170B4
:106D8000FFE7FFE7FFE754E02C48007901281AD11C
:106D9000FFE72B48007B002815D0FFE72948017842
:106DA000491C0170007806280CDBFFE7274802F039
:106DB0006BFAF24902224A70042101900846FEF75C
:106DC00001FCFFE718E01F48002101701E48017810
:106DD000491C017000780B280DDBFFE71A480A21D7
:106DE0000170E6484078022804D1FFE7E34800211B
:106DF0004170FFE7FFE7FFE71BE01048007902283A
:106E000016DBFFE710480178491C017000780B2859
:106E10000DDBFFE70C480A210170D84840780228B2
:106E200004D1FFE7D54800214170FFE7FFE7FFE706
:106E3000FFE704B080BDC046500000209000002055
:106E400000010020480100204901002070A1000835
:106E500080B500F0F9FAC820FDF774FE014802F091
:106E600013FA80BD44A1000884B00390029101A8E8
:106E70001649018000200090FFE70098029988429F
:106E80001FD2FFE701A801880A0A090251180180F0
:106E90000399009A895C019A4A4002800188CAB22B
:106EA00012095140018001880A0351400180018884
:106EB000CAB2520151400180FFE70098401C009087
:106EC000DBE701A8008804B07047C046FFFF000060
:106ED00010B581B001466A46107010781422424302
:106EE000784813580124A343135001B010BDC04685
:106EF00010B581B001466A461070107814224243E2
:106F00007048135801242343135001B010BDC046EC
:106F100010B581B001466A461070107814224243C1
:106F2000684813582024A343135001B010BDC04635
:106F300010B581B001466A461070107814224243A1
:106F40006048135820242343135001B010BDC0469D
:106F500070B581B001466A461070107814231C4643
:106F60004443584825580126B543255014781D46FA
:106F7000654300242C5010781D4645435F482C5033
:106F800010781D4645434D482C50107843434C48DB
:106F90001C50107880000F2282400348036813437E
:106FA000036001B070BDC04604000240B0B586B0B9
:106FB000024605AB18700491187802920193FFF70E
:106FC00087FF0498006801990A7814231C465443EB
:106FD0003A4AA050049880680A781C465443384ABC
:106FE000A0500498008A0A781C465443434AA05093
:106FF00008781A464243334812580392039A43F6DC
:107000000074A2430392049A5468D5682C435269D1
:107010001443039A22430392039A0C7863431A5051
:107020000498007E01280AD1FFE705A80078142102
:10703000414324480A5840231A430A5009E005A84E
:107040000078142141431F480A5840239A430A50AC
:10705000FFE70498407E01280AD1FFE705A80078E1
:107060001421414317480A5880231A430A5009E063
:1070700005A800781421414312480A5880239A43F6
:107080000A50FFE70498807E00280AD1FFE705A890
:107090000078142141430B480A5810239A430A50A0
:1070A00009E005A800781421414306480A58102336
:1070B0001A430A50FFE706B0B0BDC04610000240B8
:1070C000140002400800024082B0024601AB187072
:1070D000009168460088197814234B43074958509B
:1070E00002B0704781B001466A46107010781422D1
:1070F00042430248105801B07047C0460C0002409D
:1071000080B584B0014603AA107002A80023037062
:1071100010780028019008D0FFE7019801281CD0C2
:10712000FFE7019802281CD01CE014488078411E1B
:107130000229009004D3FFE70098032804D007E059
:1071400002A83C21017007E002A82821017003E099
:1071500002A83C210170FFE708E002A800210170AD
:1071600004E0FFE702A85A210170FFE702A80278B5
:107170000348002101F058FD04B080BD50000020FC
:107180000044014081B0009000984749086001B078
:107190007047C0466448016880221143016070470F
:1071A00080B584B003900F20000400F027F802A9F6
:1071B0000870087800281BD1FFE75B4801680222AD
:1071C0001143016003990C4B196001684023194376
:1071D00001600F21090401900846009200F00EF8AA
:1071E00002A9087001980168009A91430160FFE7C5
:1071F00002A8007804B080BD1420024080B584B09D
:10720000039002A801210170FFE700F025F802A910
:1072100008700398401E0390FFE702A80078002141
:107220000128019105D1FFE70398411E8841019093
:10723000FFE70198C0070028E7D1FFE702A8007820
:10724000012804D1FFE702A805210170FFE702A889
:10725000007804B080BD000081B068460021017054
:1072600011480068C007002804D0FFE768460121E4
:10727000017015E00C480068C006002804D5FFE73F
:107280006846042101700AE00748006840070028AA
:1072900004D5FFE7684602210170FFE7FFE7FFE73B
:1072A0006846007801B070470C2002401E48006814
:1072B0000006002806D5FFE7034804490160044999
:1072C0000160FFE77047C046042002402301674584
:1072D000AB89EFCD80B586B0059004910F200004F6
:1072E000FFF78CFF03A908700878002817D1FFE783
:1072F0000D4801680122114301600499059B196042
:107300000F210904029008460192FFF777FF03A9B5
:10731000087002980168019A91430160FFE703A891
:10732000007806B080BDC0461020024080B582B013
:107330000190009101A80178074801F095FEFFE750
:107340000548064901F0FDFE002801D1FFE7F7E7F7
:10735000019802B080BDC046003801400707000018
:1073600010B587B00A46034605AC208004A801701A
:107370002F4803900020029038482E490160FFE713
:107380002D480068012108400290FFE70398401E45
:10739000039000210028019105D0FFE70298411ECB
:1073A00088410190FFE70198C0070028E8D1FFE776
:1073B0000298002804D0FFE706A80021017033E0FE
:1073C00004A800781D49086019480390FFE71A488F
:1073D0000068022108400290FFE70398401E0390D6
:1073E00000210028009105D0FFE70298411E884146
:1073F0000090FFE70098C0070028E8D1FFE7029857
:10740000002804D0FFE706A8002101700CE005A8C1
:1074100000880B4908400B49086010480C4901607E
:1074200006A801210170FFE706A8007807B010BD8B
:10743000FFFF0F00555500000C30004004300040A5
:10744000FF0F000008300040044801490160704708
:10745000AAAA0000014802490160704700300040BC
:10746000CCCC000086B00590049103920598006A88
:1074700001900598406A009002A800210180FFE772
:1074800002A8008807281ED8FFE702A800880399F1
:10749000C140C807002810D0FFE702A80188890072
:1074A0000F228A400199914301910499008880003C
:1074B0008140019808430190FFE7FFE70298401CD4
:1074C00002A90880DCE702A808210180FFE702A8E2
:1074D00000880F2820D8FFE702A800880399C14040
:1074E000C807002812D0FFE702A8018889002039C8
:1074F0000F228A40009991430091049900888000EE
:1075000020388140009808430090FFE7FFE7029889
:10751000401C02A90880DAE70198059908620098E2
:107520000599486206B0704783B0134602900191F6
:10753000684602700078002804D0FFE7019802999D
:10754000886103E0019802998862FFE703B0704701
:1075500083B001900091019800690099084204D01D
:10756000FFE702A80121017003E002A800210170D9
:10757000FFE702A8007803B0704787B00690059136
:10758000049203930698006801900698C0680090E2
:1075900002A800210180FFE702A800880F282CD84C
:1075A000FFE702A800880399C140C80700281ED041
:1075B000FFE702A801884900032213468B40019986
:1075C00099430191059903885B009940019B0B4306
:1075D0000193018849008A400099914300910499E0
:1075E000008840008140009808430090FFE7FFE7D3
:1075F0000298401C02A90880CEE70198069908600D
:1076000000980699C86007B0704710B586B00C4660
:10761000059004A80170039202930078012806D116
:10762000FFE7029805994A6802434A6005E002981C
:1076300005994A6882434A60FFE705988068009090
:1076400001A800210180FFE701A800880F281ED8AB
:10765000FFE701A800880299C140C807002810D0A0
:10766000FFE701A80188490003228A40009991435D
:1076700000910399008840008140009808430090E1
:10768000FFE7FFE70198401C01A90880DCE70098AC
:107690000599886006B010BD80B582B040F6001034
:1076A000019000F03FFB019800F04EFB02B080BD5E
:1076B00080B584B0002003900121C90642F6000283
:1076C00001900846114600F06DF862B602A80199D3
:1076D000017000F02DFDFFF7DFFF22480421FFF7C6
:1076E0003FFE0090FFF7B6FE00F09EFFFCF73EF86D
:1076F000FCF764FDFBF7CEFCFCF7BAFFFDF7E2F9FF
:10770000FDF7FEFAFDF710FEFDF78CFBFCF786FC9B
:10771000FCF776FB01F05EF8FCF76CFFFCF7B2F9C2
:10772000FBF7B4FDFFE702A800210170FFE702A804
:107730000078022815DCFFE702A8007840000A491B
:10774000085A002807D1FFE702A8007880000749FF
:1077500008588047FFE7FFE70298401C02A908701D
:10776000E5E7E0E771020000EC00002010000020D7
:1077700010B586B00A46034605AC207004A8017017
:10778000217849B200780390084603990292019348
:107790000094FEF7C3FE0098017848B2FEF764FE3D
:1077A00006B010BD82B00190009101980099044A82
:1077B0001140084303490860BFF34F8F02B0704780
:1077C00080FFFF1F08ED00E010B582B0014601AA5E
:1077D00010705D4803684CF20004A34303605B48EB
:1077E00003685B4C2340036010780928009000D99F
:1077F000A6E00098810001A251188F4600F012B84F
:1078000000F01CB800F026B800F02EB800F03BB82D
:1078100000F046B800F056B800F061B800F071B85A
:1078200000F07CB8494801680122120491430160CC
:10783000016840F200129143016082E04348016810
:107840000122120411430160016840F200129143C9
:10785000016076E0F94801680160FB48016840F288
:107860000012114301606CE0F44801680160F648C1
:1078700001680122D20711430160016840F2001241
:10788000114301605DE0ED48016844F200021143DC
:107890000160ED48016840F200121143016050E0C0
:1078A000E648016844F2000211430160E6480168BD
:1078B0000122D20711430160016840F20012114316
:1078C00001603EE0DD48016848F2000211430160BA
:1078D000DD48016840F200121143016031E0FB48CD
:1078E000016848F2000211430160FD48016801226D
:1078F000D20711430160016840F200121143016098
:107900001FE0F24801684CF2000211430160F448A4
:10791000016840F200121143016012E0EB48016877
:107920004CF2000211430160ED4801680122D207C8
:1079300011430160016840F200121143016000E050
:10794000FFE702B010BDC0460410024030100240F4
:10795000FFFEFE7F9CB001461BAA107000201A900B
:1079600019901890179016901590149013901290EB
:10797000119010900F900E900D900C900B90AD4ABE
:107980000A92AD4A099208900790069205900492D7
:107990000390CE4800680C22104080081A901A9874
:1079A0000028029008D0FFE70298012807D0FFE7DF
:1079B0000298022806D045E0A248169045E0A1486A
:1079C000169042E0C14801680F2292041140890CD0
:1079D000109100680121C9060840C00E0F900F9851
:1079E000012804D1FFE71098113010900BE0109897
:1079F0000F2803D1FFE71020109003E01098801C9F
:107A00001090FFE7FFE7B148006801210904084032
:107A1000000C0E900E9800280ED0FFE7AF480068CB
:107A20000F210840401C0D900D988649B1FBF0F0E5
:107A300010994143169104E01098814941431691F1
:107A4000FFE702E07F481690FFE7A0480168C9B24F
:107A500009090C910C9907AA515C0B9116990B9A84
:107A6000D1401591016840F200721140090A0C9151
:107A70000C9905AA515C0B9115990B9AD140149160
:107A8000006843F600010840C00A0C900C9803A956
:107A9000085C0B9015980B99C84013901BA80078B0
:107AA0000528019000D9C1E00198810001A2511878
:107AB0008F46C04600F00AB800F00BB800F00CB8D2
:107AC00000F00DB800F00EB800F081B816981790CD
:107AD000ADE015981790AAE014981790A7E01398B6
:107AE0001790A4E07E48006840F2001108408842E8
:107AF0000FD0FFE77A480068012109040840884256
:107B000003D0FFE75248129002E050481290FFE77E
:107B10005AE06E48006880B2800B19907048006887
:107B2000C00F18901998032800904BD80098810036
:107B300001A251188F46C04600F006B800F013B8F5
:107B400000F020B800F02FB81898002804D1FFE703
:107B500013984008129005E015980321B0FBF1F04E
:107B60001290FFE72FE01898002804D1FFE7139840
:107B70008008129005E015980521B0FBF1F01290F5
:107B8000FFE720E01898002806D1FFE713980621A8
:107B9000B0FBF1F0129005E015980721B0FBF1F071
:107BA0001290FFE70FE01898002804D1FFE7139820
:107BB000C008129005E015980921B0FBF1F0129071
:107BC000FFE700E0FFE7FFE7129817902FE0444837
:107BD00000688007002803D1FFE71398119022E086
:107BE0003F48006803210840012803D1FFE71698A9
:107BF000119017E03A48006803210840022804D198
:107C0000FFE748F2000011900BE0354800680321BF
:107C10000840032803D1FFE70A48119000E0FFE77E
:107C2000FFE7FFE7FFE71198179000E0FFE71798DD
:107C30001CB0704706070809010203040410024043
:107C400000093D0000127A0030100240003FAB01F5
:107C5000809FD500ED480168012211430160FFE7D4
:107C6000EA4800688007002801D4FFE7F8E7F148F8
:107C70000168032291430160E4490A68144B1A40E9
:107C80000A600168134A114001600168124A1140FC
:107C90000160124801680F22914301601048016899
:107CA00040F20312914301600168012213049943D9
:107CB00001600168D307994301600A480168914354
:107CC00001600948002101607047C046041002406D
:107CD000FFFFF2FE0C00FF08FFFFC2772C100240EE
:107CE00030100240341002400810024082B00146B9
:107CF0006A46108010888009C44BC05812881F2320
:107D00001A40D040C007002804D0FFE701A8012195
:107D1000017003E001A800210170FFE701A80078CD
:107D200002B0704710B581B001466A4610801088D5
:107D30001F220346134001229A408009B34BC458C6
:107D40001443C45001B010BD80B58CB001460BAADD
:107D5000108000200A9009AB187008AB18701088CA
:107D6000002807906AD0FFE70798102816D0FFE791
:107D70000798182800D1DAE040F600000799814200
:107D800034D0FFE740F600100799814200D1A6E009
:107D900040F600500799814279D0F0E0FFE708A84B
:107DA000007800210028069107D1FFE70A987B4957
:107DB000401A411E88410690FFE70698C007002838
:107DC00009D0FFE71120FFF791FF08A908700A9872
:107DD000401C0A90E3E71120FFF788FF002804D039
:107DE000FFE709A801210170FFE7C9E0FFE708A844
:107DF000007800210028059107D1FFE70A9865491E
:107E0000401A411E88410590FFE70598C0070028E9
:107E100009D0FFE76048FFF769FF08A908700A98D2
:107E2000401C0A90E3E75C48FFF760FF002804D09D
:107E3000FFE709A801210170FFE7A1E0FFE708A81B
:107E4000007800210028049108D1FFE70A9840F249
:107E50000051401A411E88410490FFE70498C00772
:107E6000002809D0FFE70120FFF740FF08A90870AC
:107E70000A98401C0A90E2E70120FFF737FF00282C
:107E800004D0FFE709A801210170FFE778E0FFE7D0
:107E900008A8007800210028039107D1FFE70A987D
:107EA0003949401A411E88410390FFE70398C007F3
:107EB000002809D0FFE73648FFF718FF08A9087027
:107EC0000A98401C0A90E3E73148FFF70FFF0028AB
:107ED00004D0FFE709A801210170FFE750E0FFE7A8
:107EE00008A8007800210028029107D1FFE70A982E
:107EF0002549401A411E88410290FFE70298C007B9
:107F0000002809D0FFE72148FFF7F0FE08A9087014
:107F10000A98401C0A90E3E71C48FFF7E7FE002898
:107F200004D0FFE709A801210170FFE728E0FFE77F
:107F300008A8007800210028019107D1FFE70A98DE
:107F40001149401A411E88410190FFE70198C0077E
:107F5000002809D0FFE71920FFF7C8FE08A908701C
:107F60000A98401C0A90E3E71920FFF7BFFE00289B
:107F700004D0FFE709A801210170FFE700E0FFE757
:107F800009A800780CB080BDFFFF0F0001090000B8
:107F9000010D0000FFFFFF0301080000FFFF0000CC
:107FA00010B581B001466A46108010881F22034632
:107FB000134001229A408009924BC4581443C45084
:107FC00001B010BD10B581B001466A46108010881E
:107FD0001F220346134001229A408009894BC4584E
:107FE0009443C45001B010BD10B581B001466A463B
:107FF000108010881F220346134001229A408009F6
:10800000804BC4581443C45001B010BD001002404E
:1080100082B00190002000907C4801680091009996
:108020000322914300910199009A1143016002B02B
:108030007047C0460410024080B582B0B74800784F
:108040000028019012D0FFE70198022804D0FFE732
:108050000198032814D01DE0B0484078032804D1CB
:10806000FFE7AE4800214170FFE756E0AB4840789B
:10807000032804D1FFE7A94800214170FFE74CE045
:10808000A6484078032804D1FFE7A44800214170A6
:10809000FFE742E022480621405E40F2C2118842DA
:1080A00021DBFFE71F480178491C01700078062892
:1080B00018DBFFE71B480521017098480078042869
:1080C0000FD0FFE795480321417015480621415E16
:1080D000164801F0D9F8042100900846FDF772FA1D
:1080E000FFE7FFE718E00F48002101700E48017814
:1080F000491C017000780B280DDBFFE70A480A21B4
:10810000017086484078032804D1FFE783480021A6
:108110004170FFE7FFE7FFE7FFE702B080BDC04621
:108120009E000020500100205101002084A1000881
:1081300080B584B0002003900290FFF769FFFFF73D
:1081400089FD30480168012211430160FFE703986F
:10815000401C03902B480068022108400290FFE772
:10816000029800210028019108D1FFE7039840F20E
:108170000051401A411E88410190FFE70198C00755
:108180000028E4D1FFE71F4800688007002802D4D8
:10819000FFE7FFE7FEE71C480168022211430522C2
:1081A000914301601948016801600168016001683C
:1081B00001600168164A114001600168154A1143C7
:1081C0000160104801680122120611430160FFE7B7
:1081D0000C4800688001002801D4FFE7F8E70B484D
:1081E000016803229143016001680222114301608A
:1081F000FFE7064800680007002801D4FFE7F8E71A
:1082000004B080BD00100240002002400410024073
:10821000FFFFC2F70000040880B58CB03F484078EB
:1082200001280B901FD0FFE70B98022830D0FFE702
:108230000B98032841D1FFE70920C0060221002244
:108240000A900991FFF770F935480121099A0891C0
:108250001146089AFFF768F940F200110A98089A47
:10826000FFF762F92AE00920C006022101220790E7
:1082700006910592FFF758F9294800220699FFF761
:1082800053F940F200110798059AFFF74DF915E0F0
:108290000920C00602210122049003910292FFF7F7
:1082A00043F91F480399029AFFF73EF940F2001183
:1082B00000220498FFF738F900E0FFE71948017839
:1082C000491C017000788F4941438F4808180221EA
:1082D000C8418E4988421FD8FFE71348007800281C
