:020000040800F2
:1028000058050020E1280008894B0008D54300083E
:1028100000000000000000000000000000000000B8
:10282000000000000000000000000000ED2800088B
:102830000000000000000000EF280008B954000864
:10284000F3280008F3280008F3280008F3280008FC
:10285000F3280008F3280008F3280008F3280008EC
:1028600000000000F3280008F3280008F3280008FF
:10287000F3280008F3280008F328000800000000EF
:10288000F3280008F328000800000000F3280008DF
:10289000F3280008F3280008F3280008F3280008AC
:1028A000F3280008F3280008F328000889640008CA
:1028B000F3280008000000000000000000000000F5
:1028C000F328000800000000F328000803488546AC
:1028D00000F01AFB004800472D770008580500203B
:1028E0000448804704480047FEE7FEE7FEE7FEE7AE
:1028F000FEE7FEE7CD560008CD280008002800DAE4
:1029000040427047F0B507460846584087B0C00FB0
:10291000049048000E46590040084908BC1A8841F6
:1029200005D2384631461E4617460B460246580029
:10293000400810434CD0300D039040055900400D25
:10294000490D0590401A0290402872DA18030121BF
:10295000000B09050843019004980092002805D057
:102960000199524200208841009201900298402132
:102970000A1A0199009800F0D5F905460C466B46F5
:1029800007CB00F0F0F9C0197141039A0E0D002336
:10299000D71756401A467A40164344D0049A002A64
:1029A0002DD0029A012A039A15DC1205C01A914112
:1029B00001263605001C7141D20F059ED2070093F7
:1029C000019202962A46234600F0EDF907B0F0BDC9
:1029D00038463146FAE71605224A0F46B218C01AA1
:1029E000B74101210905001C4F4100187F411146E4
:1029F00018187941E20F10436D19644113E0E207A2
:102A00006D0815436408C2071443039A0126120592
:102A1000C01A91413605001C7141CE074008304371
:102A20004908C01851412A46234600F0AFF9CDE7C6
:102A3000FFE7049801224000C117121A00238B41BE
:102A400004983146C417381AA141EEE730B4012486
:102A5000E407634030BC55E730B40124E40761402B
:102A600030BC4FE70000E0FFF0B51FB488B00B9911
:102A70000998002448400999C00F49004908099164
:102A8000C0070B990090490049080B9109990898D3
:102A9000A64608431CD00B990A98084318D00998F9
:102AA00001244000420D4800410D0998240500030F
:102AB000000B204309900B980003000B20430B9060
:102AC00050181C494018002201901446104605E099
:102AD000002001460DB0F0BD032801DA034600E0F6
:102AE00003239C46C11A0AAE0AE05F0008ADED5B05
:102AF0004F00F75B7D430027AA187C41491C5B1EF1
:102B00006145F2DD410004AB5A522104120C0A4324
:102B1000240C401C0828DFDB0198029000997046C5
:102B200001910090059B049A0799069800F03BF9E3
:102B3000D0E700000DFCFFFFF0B50C465C4085B00F
:102B4000E40FE40703944C000026640859009446FF
:102B5000490802460296224321D062460A431ED00B
:102B60006200570D4A000E032303550D012402464F
:102B70002C492405781B1B0B360B40182343264396
:102B8000614600901C46501AB44103D30098401C83
:102B9000009002E0921800985B41002803DA0020C0
:102BA000014605B0F0BD0020012109050746864613
:102BB00011E064461D46141BB54106D36546521B01
:102BC000B341744607430C43A646CD074008490865
:102BD000284392185B4105460D43EAD1104618433D
:102BE00013D06046194650407140084306D06046F5
:102BF000101AB34106D20122002306E0002201236D
:102C0000DB0702E00122D24353100098744601050D
:102C1000381C6141029C039D0019694100F0B6F81F
:102C2000BFE70000FD0300000EB5C217C10F504002
:102C3000CA0740180021054B0293019200910A46F1
:102C40000B4600F0B0F803B000BD000033040000F4
:102C500070B5CD0F4A0009030123090B1B05194369
:102C60000B4BED070024520D9A4201DA002070BD93
:102C7000074B34339A4203DC9A1A00F063F802E0FF
:102C80000449511888402C43F1D0404270BD0000E7
:102C9000FF030000CDFBFFFF30B50B4601460020CF
:102CA0002022012409E00D46D5409D4205D31D4652
:102CB0009540491B2546954040191546521E002D4A
:102CC000F1DC30BDF0B51FB40646002082B00546E9
:102CD0004024019100901BE0019922460F463046A6
:102CE00000F030F8049A059B801A994110D31046E1
:102CF0001946224600F016F8361A8F4101972246EF
:102D000001200021009F00F00DF838184D4100907F
:102D10002046641E0028DFDC019B009829463246CD
:102D200007B0F0BD10B5202A04DB0146203A9140DF
:102D3000002010BD914020239C1A0346E340194314
:102D4000904010BD10B5202A04DB0846203AD04040
:102D5000002110BD0B46D340D0402024A21A914040
:102D60000843194610BD10B5202A06DBCB170846CC
:102D7000203A1041C1170B4306E00B461341D040E7
:102D80002024A21A91400843194610BD10B5002B0B
:102D900008DA0024401C614192185B411A4301D1BA
:102DA0004008400010BDF0B51FB482B005460C00CD
:102DB00003D0084606F0B6FA02E006F0B3FA203077
:102DC0000246009021462846FFF7ACFF049B059A77
:102DD00004460F4618431143084314D018461043C5
:102DE0001BD0009840210A1A18460599FFF7AAFF40
:102DF00005460E46009A05990498FFF793FF08438D
:102E000005D0012004E02046394607B0F0BD00207F
:102E1000C11705430E432C43374300990E986305B1
:102E2000401A7905E40A00220C43FD0A0A3002D553
:102E300000200146E9E70105101969410C9C0D9D30
:102E400000196941FFF7A2FFDFE770B54B005B088F
:102E500003430BD04B005C0D002633466542B34163
:102E6000D417AD1AA34102DB0020014670BD120544
:102E70003018514170BD00004A0009030123090BBD
:102E80001B0519430A4B10B5520D9A4202DA002075
:102E9000014610BD064B34339A4203DC9A1AFFF701
:102EA00051FF10BD034BD218FFF73CFF10BD0000CF
:102EB000FF030000CDFBFFFF10B5002904DB012458
:102EC000E40740428C412146002B04DB1C460123D1
:102ED000DB075242A3418B4200D1824210BD000069
:102EE00010B5002904DB0124E40740428C4121464F
:102EF000002B04DB1C460123DB075242A34199420D
:102F000000D1904210BD0000064C0125064E05E0A0
:102F1000E36807CC2B430C3C98471034B442F7D3FA
:102F2000FFF7D8FCA0A20008C0A2000880B50548A1
:102F300005F074F840F2005005F070F8062004F037
:102F400081FC80BD0906000080B588B00220012107
:102F50000790069103F02AFD40F20010069903F055
:102F600025FD0020059003F0ABFB0420069904909A
:102F70000846049903F070FB052005990390084664
:102F80000799039A03F042FC032006990290084631
:102F90000299039A03F03AFC07980499039A03F004
:102FA00035FC02980399039A03F030FC0720410492
:102FB000069803F003FC0698069903F0BBFB03F0A8
:102FC000ABFB0A20019000F0F5FB03F029FB019810
:102FD00000F0F0FB03F098FB069803F0C5FC08B086
:102FE00080BD80B503F082FB002003F0EFFF80BDC1
:102FF00080B58AB00020029003F0E8FF10480390EB
:1030000003A8029901760F4A05920122427640F206
:103010000012049240F20042069281760422079246
:1030200042F20002089201900846019903F0FCFF69
:10303000029803F0BBFF029803F098FF0AB080BD2E
:103040004C2401403C01002080B584B0DA4804F0F3
:10305000E5FFDA4804F0E2FF0920C0060321002260
:10306000042303900291019204F0C5FA0823039807
:103070000299019A04F0BFFA102303980299019A69
:1030800004F0B9FA202303980299019A04F0B3FAE4
:1030900004B080BD80B5FFF749FFFFF7D5FFFFF70C
:1030A000A7FFFFF751FF80BD80B5FFF7A1FFFFF736
:1030B0004BFF80BD81B0009003480168009A116108
:1030C0000099016001B070474C01002080B584B0C8
:1030D00043480178491C0170007865283ADBFFE716
:1030E0003F4800210170407800280BD0FFE70920FD
:1030F000C00640F20011012204F054FA38480021C1
:10310000417026E00920C0060221002203900291AE
:10311000019204F047FAAA480299019A04F042FA8F
:1031200040F200110398019A04F03CFA48F20001C1
:103130000120039A00901046009A04F033FA009898
:1031400000F080F9009800F089F825480099417056
:10315000FFE7FFE704B080BD80B586B02048017866
:10316000491C01700078652838DBFFE71C48002106
:1031700001704078002811D0FFE791480221012218
:1031800004F010FA0920C00648F20001002205925E
:1031900004F008FA1248059941701EE00920C006A3
:1031A0000221002204900391029204F0FBF984486A
:1031B0000399029A04F0F6F940F200110498029A79
:1031C00004F0F0F90120019000F03CF9019800F0C2
:1031D00045F8034801994170FFE7FFE706B080BD5D
:1031E0004A01002080B51A48007800281BD1FFE76B
:1031F00018480078032805DBFFE716480178891E88
:1032000001700FE014480178491C017000781528FE
:1032100007DBFFE71048002101700D480121017014
:10322000FFE7FFE70CE00B480178891C017000788C
:10323000502804DBFFE7064800210170FFE7FFE7A5
:10324000044802788B48012105F02CFD80BDC04662
:1032500029000020080000202800002080B582B04E
:10326000014601AA10701078012806D1FFE78148B5
:103270000121002205F016FD05E07E4801216422AF
:1032800005F010FDFFE702B080BDC04680B594B0E8
:10329000494804F0C3FE494804F0C0FE48480221F2
:1032A000002201230C900B910A92099304F0A3F9D8
:1032B00003200C99089008460A99089A099B04F083
:1032C000E2F90C980999099A04F00AF90920C00654
:1032D000802107900B9A069111460A9A069B04F0EA
:1032E0008AF907980A99089A069B04F0CCF907987E
:1032F0000999069A04F0F4F8324804F08FFE5D480C
:10330000059005F067FD0DA8049005F07FFE2E489E
:10331000049908800A984880888063220F92C880A8
:103320000873059805F0D2FD11A8039005F037FD4C
:103330000998039908800A9A4A808A80CA8040F2D4
:1033400000130B8140F200234B8105980999039AE1
:1033500005F0DCFA05980B99039A05F0D7FA64207A
:103360000599029008460999029A05F09BFC059878
:103370000B99029A05F096FC602005990190084689
:103380000999019A05F03CFC05980B99019A05F002
:1033900037FC059809990A9A05F0B0FC05980B9935
:1033A0000A9A05F0ABFC059805F0A6FA059805F019
:1033B00083FD14B080BDC046110500001205000059
:1033C0000004004801070000CF02000080B51A4841
:1033D000007800281BD1FFE718480078032805DB98
:1033E000FFE716480178891E01700FE01448017844
:1033F000491C01700078152807DBFFE71048002101
:1034000001700D4801210170FFE7FFE70CE00B4858
:103410000178891C01700078502804DBFFE706481A
:1034200000210170FFE7FFE70448027811480221FC
:1034300005F038FC80BDC0462C0000202A0000208A
:103440002B00002080B582B0014601AA10701078D0
:10345000012806D1FFE707480221002205F022FCDF
:1034600005E004480221642205F01CFCFFE702B0DD
:1034700080BDC0460004004080B582B05648017847
:10348000491C01700078312801DCFFE7A1E05248B7
:10349000332101705148007863280BDCFFE7B24804
:1034A00080884F490A68101808604C480178491C08
:1034B00001708EE04A4801686422B1FBF2F10160BC
:1034C00000689F490860474800780228019014D09E
:1034D000FFE70198032804D0FFE70198052818D0DA
:1034E0002EE0974800684249884205DCFFE794488F
:1034F0000168FC390160FFE723E0914800683A4920
:10350000884205DCFFE78E480168B4390160FFE7B7
:10351000FFE73648407B00280CD0FFE7884800686A
:103520003349884205DCFFE785480168FC390160C2
:10353000FFE704E082480168B4390160FFE7FFE774
:10354000FFE77F4800682B49884204DCFFE77C489E
:103550000121017134E07A4800682749884205DC7E
:10356000FFE77748006803F08DFB28E074480068A7
:103570002249884205DCFFE77148006803F09CFBA4
:103580001CE06F4800681E49884205DCFFE76C4874
:10359000006803F0B3FB10E06948006840F6405152
:1035A000884205DCFFE76648006803F0C9FB03E0DA
:1035B000634806210171FFE7FFE7FFE7FFE7FFE749
:1035C0005F4801794171054800210170044801609C
:1035D000FFE702B080BDC0462D0000202E00002075
:1035E00030000020500000209A0C00000001002054
:1035F0003F0D0000B2090000570A0000FD0A00005C
:103600009B0C000080B586B005A80021018004A8AD
:10361000017003A801704748007809280BDCFFE718
:103620005148408843490A785200434B98520878E1
:10363000401C08707CE03F480021017004A8017024
:10364000FFE704A80078082835DCFFE703A800217D
:103650000170FFE703A8007804A909780922511A2C
:10366000884222DAFFE703A80078400032490A18AE
:10367000085A5188884212DDFFE703A80178490003
:103680002D4A515A05AB19800178490053185B88BF
:10369000535205990078400080184180FFE7FFE70A
:1036A0000398401C03A90870D4E7FFE70498401C66
:1036B00004A90870C5E7204800892049884232DC07
:1036C000FFE71D480189704A4A431E4B591A92FB75
:1036D000F1F101810089FFF7A7FA00221A4B02924B
:1036E000FFF72AFA06F00EFB184B029AFFF724FAAE
:1036F000174A184BFFF706F9174A029B0190184624
:1037000000911146019A009BFFF716FA134A144BD9
:10371000FFF7F8F8134B029AFFF7A6F9FFF798FAAC
:10372000A549C88004E0A44840F27031C180FFE799
:1037300006B080BD4800002034000020D70E0000F5
:1037400090000020FF0F00000088C34000DCAE4066
:103750004AF1F109D9796B3F0000F03F6666666671
:10376000661271C0000024403C01002080B586B084
:103770000F4804F053FC4548019005F02BFB02A8CC
:10378000009005F043FC4720009908800020488005
:1037900088803D4A0492C880019805F097FB01217A
:1037A000019805F011FC019805F086FB06B080BD7C
:1037B0001206000080B582B0014601AA108068465A
:1037C00000220280FFE76846008801A90988884234
:1037D0000ADAFFE740F2E83000F008F8FFE7009867
:1037E000401C69460880EEE702B080BD80B588B015
:1037F000014607AA108005A80022028004AB1A80A7
:1038000003AB1A8002AA204B1380079A06AB1A80DA
:103810001E4A01901046009105F0D2FA01990880E5
:10382000FFE71A4805F0CCFA04A90880088805A922
:103830000988884225D0FFE704A8008805A90988DF
:10384000884208DDFFE704980599401A0399081893
:1038500003A9088009E002980599401A04994018C4
:103860000399081803A90880FFE7049805A90880B0
:1038700003A8008806A90988884201DBFFE701E068
:10388000FFE7CEE708B080BD1027000000480140E8
:1038900080B584B09C4800780528039000D988E062
:1038A0000398810001A251188F46C04600F00AB863
:1038B00000F021B800F044B800F07BB800F068B820
:1038C00000F073B840480178491C01700078032863
:1038D00010DBFFE73C48002101700920C00640F2E0
:1038E000004202911146029A03F05CFE374805F04F
:1038F00009FDFFE75EE0844840893C280DDBFFE7D7
:1039000030481021012203F04DFE40F2F410FFF781
:1039100051FF002001F068FE11E07B488089F0280B
:103920000CDBFFE727481021012203F03BFEC820F3
:10393000FFF740FF002001F057FEFFE7FFE739E007
:103940007148C189491CC181F248007902280FDC05
:10395000FFE7F448C089042809DBFFE7184805F0B1
:10396000D1FC00210190084601F03EFEFFE70EE089
:10397000EC48C089032809DBFFE7104805F0C2FCCA
:1039800000210090084601F02FFEFFE7FFE7FFE768
:10399000E448018A491C0182008A032804DBFFE70E
:1039A000002001F021FEFFE704E0DE480021418114
:1039B00000E0FFE704B080BD90000020B2A1000845
:1039C000C9A100080004004864000020E7A1000825
:1039D00080B582B0002001900090294800680190D5
:1039E0000198002804D0FFE70198042806D3FFE7D8
:1039F00001200190CA481E2101811FE00198C94998
:103A000088700F48006800900098FEF777FF6328E1
:103A100004DCFFE70098C249088103E0C0481E218A
:103A20000181FFE707480068BB490876087E022845
:103A300004DBFFE7B84800210176FFE702B080BD54
:103A400004F8000808F8000880B584B0002003904E
:103A500002900190FFF7C5FAB24880780190B04813
:103A60000821405E0290AC48007E0390044801A902
:103A7000032200F05BFBFFF717FB04B080BDC046DC
:103A800000F8000880B582B0A6480021017041709E
:103A9000C17001818181C1810190FFF799FF019877
:103AA000807800F003F802B080BDC04682B00146C5
:103AB00001AA107001989B4A90709078012800909C
:103AC00008D0FFE7009802280AD0FFE700980328F3
:103AD0000CD011E093480A2181800121C18011E0BE
:103AE00090480C2181800121C1800BE08D480E217E
:103AF00081800121C18005E08A480A21818001215D
:103B0000C180FFE702B070475000002080B584B04C
:103B100003A8002101807F480079032805DBFFE727
:103B20007D480078012808D1FFE70020029001F0CD
:103B300049F9029800F050FAE9E078480188491CF8
:103B4000018077484078012800D092E07548002134
:103B500041817348C170807800280AD1FFE770481E
:103B600001218170C82000F0EDFF6F4805F0CAFB0D
:103B7000FFE701F029FE03A908806848008840F2A9
:103B8000E831884208DBFFE764480021018065488E
:103B90008189491C8181FFE762480089002804D19E
:103BA000FFE7012000F018FA25E05E480189C0888F
:103BB000814204D1FFE7002000F00EFA1AE05948D4
:103BC0000189C088401C814204D1FFE7012001F037
:103BD000F9F80EE053480189C08803AA12888018BA
:103BE000401C814204D1FFE7002001F0EBF8FFE721
:103BF000FFE7FFE7FFE74B480189491C0181008986
:103C00001E2835DBFFE747480021018147490A7834
:103C1000521C0A7080780128019020D0FFE701989B
:103C2000022804D0FFE70198032811D018E03F488C
:103C30000078032807DBFFE73C4800210170394882
:103C40000221C18003E037480121C180FFE70EE077
:103C500036480021017033480221C18007E0FFE7A8
:103C60003248002101702F480121C180FFE7FFE7A2
:103C700045E02A48008840F2E83188421DDBFFE732
:103C800026480021018027484189491C4181CF48AD
:103C90008078002810D0FFE7CC48C178491CC1705B
:103CA000C0781E2807DBFFE7C84800218170C1707B
:103CB0001C488181FFE7FFE7FFE7002001F082F861
:103CC000184800890128009004D0FFE700980328D5
:103CD00004D007E0012000F07FF903E0002000F0AD
:103CE0007BF9FFE70F480189491C018100891928E8
:103CF00004DBFFE70B4800210181FFE7FFE7B34842
:103D00000078012803D1FFE701F00AF9FFE704B0CA
:103D100080BDC04690000020000100206600002009
:103D20009E0000205000002017A20008650000201F
:103D300080B58AB040F2005004F070F90220029081
:103D400003F044F903A8002181760E4A059201226E
:103D500042760691142207920B4A0392017604914F
:103D600043F200010891029901900846019903F07D
:103D70005BF9029803F00AF9029803F0F7F80AB029
:103D800080BDC046250100202438014080B586B0A2
:103D9000194804F043F91948002140220590049184
:103DA000039203F09DFB8020059902900846049938
:103DB000029A03F095FB02200121059A019010461A
:103DC000019B00911946009A039B03F014FC05988F
:103DD0000499009A039B03F056FC05980199009AF8
:103DE000029B03F008FC05980499009A029B03F0DB
:103DF0004AFC06B080BDC046120500000004004821
:103E000080B582B000F03CF8FFF792FFFFF7BEFFED
:103E1000194804F003F93A48019005F06FF9E120E0
:103E20004102019805F006F90421019805F04BFACA
:103E30000821019805F056FA4021019805F088F90B
:103E40008021019805F093F9019805F09FF9FFE7AB
:103E50002B480A4905F0B3F9002801D1FFE7F7E73D
:103E600027480649009005F09AF90421009805F0CA
:103E7000C3F902B080BDC0460E0600000407000072
:103E800080B51B20002103F0B1FC80BD80B584B05B
:103E90000A46039002A8017001A8002101806B4628
:103EA00019800180FFE701A8008802A909788842EB
:103EB00023DAFFE7684600210180FFE71048114937
:103EC00005F07DF900280BD1FFE70098401C6946FA
:103ED000088008880C49884201DBFFE700E0EDE735
:103EE000039801A90988415C054805F0FBF8FFE744
:103EF0000198401C01A90880D5E704B080BDC046E8
:103F000000380140070700008913000080B52848E9
:103F10000188491C018000882649884201DCFFE7AE
:103F200045E02348244901803E480078002801D11B
:103F3000FFE73CE02148C0882149884220DBFFE7B9
:103F400023480178491C01700078062810DBFFE740
:103F50001E484078002804D1FFE71E4805F0D2F93A
:103F6000FFE71A480121417019480B210170FFE752
:103F70001448002101701148C0881349086016E0F8
:103F800010480178491C01700C49C9880E4A11601B
:103F900000780A2807DBFFE70A480B2101700B486D
:103FA00000214170FFE70A4800210170FFE780BD52
:103FB0006A000020DB050000DC0500003C01002059
:103FC000B20900006C0000204C0000209E00002080
:103FD000680000208AA2000880B582B0014601AACC
:103FE0001070104800781278904201D1FFE712E07B
:103FF00001980C4908700878012806D1FFE700F005
:1040000013F8012003F0BAF805E0022003F0B6F837
:1040100000F06CF8FFE702B080BDC0460148002107
:10402000017070476D00002080B590B02E480F9051
:104030000920C0060221002240F2002307900691C9
:104040000592049303F0D7FA032207980599049B7D
:1040500003F019FB07980699049A03F041FA08A89F
:10406000039004F0D3FF0F98008803990880059807
:10407000488088800F9A52880A92C88008732A4A1A
:104080001046029204F022FF0CA8019004F087FE73
:10409000012001990880059A4A808A80CA800A8195
:1040A0004A81029B009018460099019A04F02EFC68
:1040B0000F9882880298009904F0F4FD602202981B
:1040C000009904F09DFD02980099059A04F016FEEF
:1040D0000298009904F081FF029804F00DFC029808
:1040E00004F0EAFE10B080BD1C00002080B584B052
:1040F0000D4804F06FFE0920C0060121002240F2A5
:104100000023039002910192009303F074FA039844
:104110000199029A009B03F0B6FA03980099019A5C
:1041200003F040FA04B080BD002C014010B58AB005
:1041300013460990089107A802800020069005A95F
:104140000880099A1F24E4061219920A0692049321
:104150000390029103F0E8F83420019003F050F846
:10416000069880020121C906401803F057F801990A
:104170000090084603F044F8039802990880FFE78E
:1041800005A8008807A9098888420FDAFFE709987F
:1041900005A9098889004018089A515803F0D8F8F1
:1041A000FFE70598401C05A90880E9E7342003F0E3
:1041B00027F803F02DF80AB010BD000080B58CB0D0
:1041C000664803F02BFF664803F028FF00F0CAF8AA
:1041D0000920C0060121002248F200030B900A9139
:1041E0000992089303F007FA0B9809990A9A089B19
:1041F00003F049FA0B980899099A03F0D3F9FB48A0
:1042000007900A99099A0A9B03F0F5F9079809990A
:104210000A9A0A9B03F037FA07980A990A9A03F058
:10422000C1F980200B99069008460A99099A069BC5
:1042300003F0E1F90B9809990A9A069B03F023FA17
:104240000B9806990A9A03F0ADF902200B99059094
:1042500008460A99099A059B03F0CDF90B9809992C
:104260000A9A059B03F00FFA0B9805990A9A03F036
:1042700099F907980A99099A059B03F0BCF90798E0
:1042800009990A9A059B03F0FEF9079805990A9A7D
:1042900003F088F940F200100B99049008460A993F
:1042A000099A049B03F0A7F90B9809990A9A049BB1
:1042B00003F0E9F90B9804990A9A03F073F92020A6
:1042C0000799039008460A99099A039B03F093F90A
:1042D000079809990A9A039B03F0D5F9079803995F
:1042E0000A9A03F05FF940F200200B990290084609
:1042F0000A99099A029B03F07EF90B9809990A9A88
:10430000029B03F0C0F90B980299099A03F04AF94D
:1043100040200B99019008460599099A019B03F0EA
:104320006AF903220B980999019B03F0ACF9052166
:104330000B98019A03F0D4F840F200400B990090DA
:1043400008460A99099A009B03F055F90B980999B8
:104350000A9A009B03F097F90CB080BD110500008C
:104360001205000080B586B00920C00648F20001A1
:1043700000220590049203F015F9C648012103902C
:104380000291029A03F00EF980210598029A03F037
:1043900009F902200599019008460199029A03F053
:1043A00001F903980199029A03F0FCF840F2001118
:1043B0000598029A03F0F6F820210398029A03F078
:1043C000F1F840F200210598049A03F0EBF806B0EA
:1043D00080BDC046FFE7FEE710B58AB0014609AAD6
:1043E00010707D480023438110780528089000D97B
:1043F000EEE00898810001A251188F4600F051B8F4
:1044000000F09CB800F006B800F0E1B800F0E0B8A9
:1044100000F0DDB8704800780528079033D8079879
:10442000810001A251188F4600F00AB800F02AB8A6
:1044300000F006B800F014B800F013B800F022B88D
:104440006B48007903280ADBFFE7012001F0CCF874
:1044500040F2F4110690084600F074FBFFE71FE0FD
:104460001EE08C481021012203F09CF840F2F41069
:10447000FFF7A0F90920C00640F20041002203F036
:1044800091F80DE0FFE783481021012203F08AF83C
:1044900040F2F410FFF78EF9002001F0A5F8FFE7D5
:1044A00097E04D4800780028059004D0FFE7059874
:1044B00003280BD040E00920C00640F20041012251
:1044C00003F070F8484804F01DFF36E04D48C0780E
:1044D000002805D1FFE74B4840F2F4118180FFE747
:1044E00048488088002826D0FFE74648C178491C04
:1044F000C170C07805281DD1FFE73A4804F002FFDB
:1045000036490F224A7001220A70334B05241C7071
:104510000923DB0648F20004049018460391214663
:10452000029203F03FF802980399087300220A618F
:104530004A61FFE7FFE700E0FFE74AE0264800782E
:1045400001280AD0FFE724480078052830D1FFE78A
:10455000224840780F282BD0FFE71F48C07800285A
:104560000FD1FFE71C488178491C817080780328AF
:1045700006DBFFE718480121C17003218170FFE7C6
:104580000EE015488178491E81708078012806DC8C
:10459000FFE711480021C17001218170FFE7FFE7AB
:1045A0000D488078FFF782FA012000F0B9F9FFE7A3
:1045B00009480078002809D1FFE7094804F0A2FE65
:1045C00002210190084601F00FF8FFE701E000E04A
:1045D000FFE70AB010BDC0465000002000010020D7
:1045E00097A100087AA10008A5A1000800040048CE
:1045F0009000002080B503480349044B002200F0DE
:1046000007F880BD70000020A1520008D9430008BF
:1046100010B584B014460390029101A80270009373
:104620000398002802D1FFE7FFE7FEE7039801782F
:10463000F0221140891D0170019803990A788007C2
:10464000800ECF231A401018087003980021417083
:10465000039881700398C18002980399886000983C
:104660000399C8600398FEF725FD04B010BD000053
:1046700080B5064803F0D2FC054803F0CFFCEC48B7
:1046800000210122082302F0B6FF80BD11050000C1
:10469000120500000004004880B58AB0099009980E
:1046A0008068804708A908700878099909788909FD
:1046B000884217D0FFE709988078312805DCFFE7AA
:1046C00009988178891C81700FE1089809990A7806
:1046D00080013F231A40101808700998002181704A
:1046E000FFE7FFE7099800780F21084000280790AE
:1046F00009D0FFE70798022848D0FFE70798042869
:1047000000D185E0C6E008A80078099909788906F3
:10471000890F884222D1FFE70998C188891CC1808E
:104720000998C0887249884217DBFFE70998002181
:10473000C18009980178F0221140891C0170099804
:10474000C068002808D0FFE70998C06802210690D9
:10475000084606998847FFE7FFE716E00998002119
:10476000C18009980178F0221140491C0170099814
:10477000C068002808D0FFE70998C06801210590AB
:10478000084605998847FFE7FFE7A0E008A80078FA
:10479000099909788906890F884221D1FFE709988C
:1047A000C188891CC1800998C088962817DBFFE75B
:1047B00009980021C18009980178F0221140091D53
:1047C00001700998C068002808D0FFE70998C06800
:1047D00004210490084604998847FFE7FFE716E0A4
:1047E00009980021C18009980178F0221140C91C64
:1047F00001700998C068002808D0FFE70998C068D0
:1048000003210390084603998847FFE7FFE75EE02E
:1048100008A80078099909788906890F884221D16A
:10482000FFE70998C188891CC1800998C08896282B
:1048300017DBFFE709980021C18009980178F02271
:104840001140091D01700998C068002808D0FFE7D1
:104850000998C06804210290084602998847FFE73A
:10486000FFE716E009980021C18009980178F0223D
:104870001140491D01700998C068002808D0FFE761
:104880000998C06805210190084601998847FFE70B
:10489000FFE71CE008A80078099909788906890FC4
:1048A000884213D1FFE709980178F0221140017086
:1048B0000998C068002808D0FFE70998C06800215F
:1048C0000090084600998847FFE7FFE7FFE709984F
:1048D0008088002805D0FFE709988188491E8180DB
:1048E00003E009980021C170FFE70AB080BDC0460F
:1048F000DC05000080B582B0084800680190FFE741
:104900000198002808D0FFE70198FFF7C5FEFFE7F0
:10491000019800690190F3E702B080BD4C010020CE
:1049200080B58EB001460DAA1070107801285DD1B7
:10493000FFE7E14880783D490978884201D1FFE7E7
:1049400072E0DD48807801280C9032D0FFE70C98A7
:10495000022804D0FFE70C98032815D02AE009208C
:10496000C006022100220B900A91099202F01AFE61
:10497000EB480A99099A02F015FE40F20011012253
:104980000B9802F00FFE2CE00920C0060221002245
:1049900008900791069202F005FEE1480799069AF1
:1049A00002F000FE40F200110898069A02F0FAFDAB
:1049B00017E0FFE70920C0060221002205900491BC
:1049C00002F0F0FDD6480121049A03911146039AA2
:1049D00002F0E8FD40F200110598039A02F0E2FDB2
:1049E000FFE7B5488078114908701DE00F4800784E
:1049F000002801D1FFE717E00C48002101700920D1
:104A0000C0060221012202900191009202F0CAFD2B
:104A1000C3480199009A02F0C5FD40F200110298C6
:104A2000009A02F0BFFDFFE70EB080BD84000020B9
:104A30000004004880B521480088C007002805D13F
:104A4000FFE7FFF757FF00F0ABFCFFE71B480088CC
:104A50009B4941439B4809180122D141814208D812
:104A6000FFE7FEF7CFFD00F01FFB14480021018097
:104A7000FFE7D2480078012805D0FFE7CF4800784B
:104A8000052803D1FFE7FFF741FAFFE7E448007884
:104A9000002803D1FFE7FEF7EFFCFFE708480078A6
:104AA000022803D1FFE701F043F9FFE7034801883B
:104AB000491C018084480121018080BD86000020BE
:104AC0003901002080B584B00E4803F0A7FA94485D
:104AD000012100221023039002910192009302F021
:104AE0008AFD03980199029A009B02F0CCFD03987D
:104AF0000099019A02F056FD224801990170418007
:104B000004B080BD1205000080B582B01D48408809
:104B100001280ADBFFE71B484188491E4180804885
:104B20001021012202F03EFD09E07D481021002203
:104B3000019202F037FD134801990170FFE702B0BE
:104B400080BDC04680B582B0014601AA10800D48E4
:104B50000078002813D1FFE701980A494880488867
:104B600001280BDBFFE70748012101706C48102288
:104B700000911146009A02F015FDFFE7FFE702B031
:104B800080BDC046880000207047000080B53048D6
:104B90000078002850D1FFE78848007800280AD024
:104BA000FFE786480078012805D0FFE783480078B2
:104BB000022804D1FFE7032000F016FD46E07F48FD
:104BC0000078032837D1FFE77C484078012804D1DA
:104BD000FFE7002000F07AF838E05048007A00281B
:104BE0000DD1FFE74D480079062807DCFFE70120DB
:104BF00000F06CF8174800210170FFE71AE0474801
:104C0000007A012815D1FFE7124800780B280ADB4B
:104C1000FFE711480078012804D1FFE7022000F0E7
:104C200055F8FFE704E00B480178491C0170FFE7E5
:104C3000FFE7FFE7FFE709E060480078032804D1B9
:104C4000FFE7022000F0D0FCFFE7FFE780BDC04691
:104C5000D80000208C000020C800002080B582B061
:104C6000564800780128019004D0FFE701980528F4
:104C700003D005E0FEF74AFF03E000F09BFE00E0F2
:104C8000FFE70E480188491C018000880C49414318
:104C90000C4809180122D141814206D8FFE700F0F3
:104CA00041F8064800210180FFE7FFF72DFF064885
:104CB0000121418002B080BD500000208E00002004
:104CC000CDCCCCCC98999919EC00002080B582B05D
:104CD000014601AA10700198104B18721078012833
:104CE00006D1FFE70E482021002202F05BFC05E020
:104CF0000B482021012202F055FCFFE702B080BDE5
:104D000080B50648FA21C180042101710021017299
:104D100003482021012202F045FC80BD90000020C4
:104D20000004004880B582B024480078052801902E
:104D300040D80198810001A251188F4600F01FB899
:104D400000F008B800F00FB800F013B800F01DB87C
:104D500000F01EB81A48002101700120FFF7E0FDA5
:104D600003F058FB27E00020FFF7DAFD03F07AFBA1
:104D700021E00020FFF7D4FD03F016FB1BE000202C
:104D8000FFF7CEFD03F038FB15E003F083FA12E0E5
:104D9000624840780B28009004D0FFE700980F2865
:104DA00003D005E003F0EEFC03E003F093FC00E029
:104DB000FFE700E0FFE702B080BDC04650000020E2
:104DC0009C00002080B582B0014601AA1070A54861
:104DD00000781278904201D1FFE714E00198A149D0
:104DE00008700878012808D1FFE79E48807A00F013
:104DF000B7F8012002F0C2F905E0022002F0BEF986
:104E000000F032F9FFE702B080BDC04681B0014634
:104E10006A4610700098934A907201B07047C0467D
:104E20009E00002080B582B08E4800210170417044
:104E30008170C170FA218180C1800221817207498D
:104E40000190084603F0EAF8964803F0C3FF019882
:104E5000807A00F085F802B080BDC0460B060000E5
:104E600080B588B005A8002101810691059104A8AC
:104E700001802A48C188491CC180C08879283FDB4D
:104E8000FFE726480021C1800421405E754A515E3B
:104E9000401AFDF733FD3C2804DBFFE705A800219D
:104EA00041710DE01D488088FA498A88801A08817E
:104EB000FEF7CAFDFEF78CFD05A801214171FFE751
:104EC00005A810210170082141700022827017236B
:104ED000C37002710623039002911946019202F0F9
:104EE00001F804A908804878039988710498C8716A
:104EF00008460299FEF7CAFF0848019981700AE046
:104F00000648807905A9087001200090084600999C
:104F1000FEF7BCFFFFE708B080BDC04600010020DF
:104F200080B5DC480621405E40F27111884204DC05
:104F3000FFE70220FFF76AFF10E0D6480621405E37
:104F400040F28511884204DCFFE70120FFF75EFF95
:104F500003E00020FFF75AFFFFE7FFE780BDC046F0
:104F600010B594B0014613AA10700920C0060222A1
:104F7000002340F200240B900A91114609921A4630
:104F800008932346079402F036FB03220B980899F6
:104F9000079B02F078FB0B980999079A02F0A0FA98
:104FA0000CA8069004F032F808980699088048800A
:104FB0008880B84A927A002A03D1FFE747200E90F2
:104FC00011E0B448807A012803D1FFE739200E9020
:104FD00008E0B048807A022803D1FFE72F200E9026
:104FE000FFE7FFE7FFE70CA80021C18001732D4A0E
:104FF00005901046059B04911946039203F066FF45
:1050000010A8029003F0CBFE012002990880042230
:105010004A80049A8A80CA800A814A81039B01904F
:1050200018460199029A03F071FC0E98401C420840
:105030000398019903F036FE60220398019903F06A
:10504000DFFD03980199049A03F058FE0398019933
:1050500003F0C3FF039803F04FFC039803F02CFF09
:1050600014B010BD9E00002080B584B00D4803F040
:10507000B1FE0920C0060121002240F20023039066
:1050800002910192009302F0B6FA03980199029AF4
:10509000009B02F0F8FA03980099019A02F082FA54
:1050A00004B080BD002C014088B007A80021018019
:1050B00006A8017005A8017001A801707248007867
:1050C00009280BDCFFE7754800886F490A78520011
:1050D0006E4B98520878401C0870D2E06A48002154
:1050E000017006A80170FFE706A80078082835DCE3
:1050F000FFE705A800210170FFE705A8007806A9D1
:1051000009780922511A884222DAFFE705A80078B7
:1051100040005E490A18085A5188884212DDFFE7AC
:1051200005A801784900594A515A07AB19800178FE
:10513000490053185B885352079900784000801843
:105140004180FFE7FFE70598401C05A90870D4E7F8
:10515000FFE70698401C06A90870C5E74B48008980
:105160004B49884200DD86E003A83C21017004A879
:1051700000210170039801AA107002A8017006A80E
:105180000170FFE706A800783B2868D8FFE73F4892
:10519000008904A9097849003F4A515A88422ADB0C
:1051A000FFE704A80078002805D0FFE704A80078EE
:1051B000012801D1FFE752E03448008904A90978A9
:1051C0004900354A8918891E0988884205DCFFE7AD
:1051D0000498401E04A9087041E004A801786A46BA
:1051E0001180017802AA1278891849080170009884
:1051F00001A908702DE003A8007804A90978884265
:1052000008D0FFE703A80078401E04A90978884267
:1052100001D1FFE723E01D48008904A9097849006E
:105220001D4A89184988884205DBFFE70498401C1D
:1052300004A9087013E004A801786A461180017877
:1052400001AA1278891849080170009802A908700B
:10525000FFE7FFE70698401C06A9087092E704A83C
:10526000007805214143C8310A488180818802893C
:105270008918C18005E0074840F220318180C18053
:10528000FFE708B07047C046BE000020AA0000201B
:10529000D70E00009E00002098A000083C010020CE
:1052A00080B582B00948082102F090F9002804D1A5
:1052B000FFE701A80021017003E001A801210170AE
:1052C000FFE701A8007802B080BDC0460004004896
:1052D00080B582B00920C006012102F077F90028CC
:1052E00004D1FFE701A80021017003E001A801211A
:1052F0000170FFE701A8007802B080BD80B582B0E0
:105300002348022102F062F9002804D1FFE701A836
:105310000021017003E001A801210170FFE701A84D
:10532000007802B080BDC04610B582B0164802F0C9
:1053300075FE164802F072FE0920C0060021012207
:1053400001910092009B02F056F911480223019945
:10535000009A02F050F90F48009901704170817075
:10536000019A8280C823C3800B4C8460D64C217084
:105370006170A170A280E380084BA360384B186075
:105380005C6002B010BDC0461105000016050000AB
:1053900000140048C8000020D1520008FD52000847
:1053A00080B584B003A800210170FFE703A800784E
:1053B000012852DCFFE703A801788900284A5158E8
:1053C000896802900192884702990A789200019BAD
:1053D0009A58507008788000185882784078824235
:1053E00028D1FFE703A8007880001D4908584178BC
:1053F000007881421ED0FFE703A801788900184A8F
:1054000051588B885B1C8B800078800010588188F5
:10541000C08881420DDDFFE703A801788900104AAA
:10542000515800238B80007880001058417801701B
:10543000FFE70CE003A801788900094A51584B782E
:105440008B7000788000105800218180FFE7FFE713
:105450000398401C03A90870A8E704B080BDC046AB
:10546000C000002080B584B002900298401E000E5B
:10547000002803D0FFE70120039013E00298401EAC
:105480000A4908600020C1430322019008461146E2
:1054900001F042F8064801990160064807220260BF
:1054A0000391FFE7039804B080BDC04614E000E01C
:1054B00018E000E010E000E081B0684600210170D3
:1054C000FFE768460078022816DCFFE768460078A8
:1054D00040004449085A012808DBFFE76846007885
:1054E000400040490A5A521E0A52FFE7FFE700985F
:1054F000401C69460870E4E701B0704780B582B08F
:1055000001F0E0FF2F480188491C018000882E49E6
:1055100041432E4809180122D141814211D8FFE7A9
:105520002B48017B02692B4803F0ECFE2A490968ED
:105530002A4A0090104603F0E5FE224900220A8024
:10554000FFE72748008820494143204809180122E5
:10555000D141814203D8FFE7FEF79AF9FFE75948A6
:105560000078052803D1FFE700F016FF02E0FFF7FF
:105570000DFBFFE701F078FA01F004FC02F09AFD60
:1055800013480078012814D1FFE7114880781728C4
:105590000FD1FFE7124800880B4941430B48091817
:1055A0000122D141814203D8FFE7FFF759FCFFE711
:1055B000FFE70B480188491C01800A48642181806B
:1055C00002B080BDEA000020CDCCCCCC98999919CE
:1055D0000001002026A100089000002010A1000872
:1055E000E8000020EC00002010B588B0014607AAB2
:1055F00010700798EC4A107000201081D081108242
:105600000923DB0648F2000406901846059121465E
:10561000069B04921A4601F0C5FF0698FFF756FB59
:105620000698FFF7CFFB0698FEF7D6FC04980178A2
:105630000429039142D80398810001A251188F4692
:1056400000F008B800F017B800F025B800F02BB84B
:1056500000F031B81C480078002801D1FFE702E0D3
:10566000FEF7F2F9FFE70920C00640F200410022F0
:1056700001F098FF23E00920C00648F20001012252
:105680000290019201F08EFF40F200410298019ACF
:1056900001F088FF13E00920C00640F2004101221A
:1056A00001F080FF0BE00920C00640F2004101221A
:1056B00001F078FF03E001F009FC00E0FFE708B02B
:1056C00010BDC04650000020D800002080B584B036
:1056D00034480168012211430160FFE73148006846
:1056E0008007002801D4FFE7F8E7FFE72E480168AC
:1056F00080221143016000200390FFE703987F2878
:1057000005D8FFE7FFE70398401C0390F6E726481B
:10571000016890221143016000200390FFE7039885
:105720007F2805D8FFE7FFE70398401C0390F6E7C2
:10573000FFE71D48016803229143016019490A6887
:105740001A4B1A400A600168194A11400160016849
:10575000184A11400160184801680F229143016006
:105760001648016840F2031291430160016801226A
:105770001304994301600168D307994301601048FD
:105780000168914301600F4800210160029201917C
:1057900002F06EFF0298C006019902F041F804B0D1
:1057A00080BDC0460010024004100240FFFFF2FE20
:1057B0000C00FF08FFFFC2772C100240301002409F
:1057C000341002400810024081B068460021018078
:1057D00071480621405E40F27211884238DCFFE7D2
:1057E0006E480168491C01606D4900220A606D49DC
:1057F0000A60006880087C2806D8FFE76A4880882D
:10580000401D6946088022E064480068C0087C2882
:1058100006D8FFE7644880880A306946088015E0AA
:105820005E4800686149884206D8FFE75E48808884
:105830000C306946088008E058485D4901605A48C4
:105840008088801C69460880FFE7FFE7FFE79CE04F
:1058500051480621405E40F28B11884237DCFFE759
:105860004E48002101604F4801604D480168491CC5
:105870000160006880087C2806D8FFE74A488088D5
:10588000801E6946088021E045480068C0087C28E1
:1058900005D8FFE7444880886946088015E04048FD
:1058A00000684249884206D8FFE73F488088801C4C
:1058B0006946088008E03A483D4901603A488088D6
:1058C000001F69460880FFE7FFE7FFE75CE032481A
:1058D0000621405E40F29A11884238DCFFE72F48EB
:1058E000002101602E4801602E480168491C0160BA
:1058F000006880087C2806D8FFE72B488088C01FF6
:105900006946088022E026480068C0087C2806D83E
:10591000FFE725488088801F6946088015E02048F9
:1059200000682249884206D8FFE7FF488088401F68
:105930006946088008E01A4800210160FA4880881A
:10594000801F69460880FFE7FFE7FFE71BE0F54897
:105950000621405E40F2A41188420FDCFFE70F48A9
:10596000002101600E4801600E480160EE48808809
:105970000321B0FBF1F06946088003E0684600218E
:105980000180FFE7FFE7FFE7FFE70098E549C872FE
:105990006846008801B070479E000020F400002097
:1059A000F8000020FC0000205000002087130000B9
:1059B0008813000070B58CB009A8002101810A91FC
:1059C000099107A80180CD480078002801D1FFE7A0
:1059D00091E1CB480079022808DCFFE7002006901F
:1059E000FFF7F0F90698FEF7F7FA84E1FFF7ECFE0F
:1059F00007A90880C3480188491C0180BF48407836
:105A0000C01E1428059000D9F9E00598810001A274
:105A100051188F4600F064B800F0F1B800F0EFB80C
:105A200000F0EDB800F0EBB800F01EB800F03DB8A3
:105A300000F0E5B800F0E3B800F0E1B800F0DFB83E
:105A400000F0DDB800F088B800F0D9B800F0D7B8A1
:105A500000F0D5B800F0D3B800F0D1B800F0CFB85E
:105A600000F0CDB800F03CB8AF480189C088401CB8
:105A700081420AD1FFE7AC48002141810846FEF788
:105A8000ABFA0120FFF79EF90EE0A7480189C08814
:105A900007AA12888018401C814204D1FFE7002029
:105AA000FFF790F9FFE7FFE719E19F480089002819
:105AB0000AD1FFE79C48002141810846FFF782F99F
:105AC0000120FEF789FA0AE097480189C0888142DF
:105AD00004D1FFE70020FEF77FFAFFE7FFE7FEE0D3
:105AE0008F480188491C0180008840F2E8318842D3
:105AF00031DBFFE78A480021018008460491FFF767
:105B000061F90498FEF768FA09A8102101700821CC
:105B10004170049A82700323C370824B06241D5F78
:105B20000A2695FBF6F505711B5F93FBF6F56E43B0
:105B30009B1B437103900291214601F0D3F908A900
:105B400008804878039988710898C87108460299B6
:105B5000FEF79CF9FFE7C2E06848007B002808D107
:105B6000FFE700200190FEF737FA0198FFF72AF9C6
:105B7000B5E0634800686449884209DCFFE75F4894
:105B80000021017301214173644803F0BBFBA6E0CF
:105B90005E480188491C018000885D49884208DB15
:105BA000FFE75A480021018054480169491C0161FE
:105BB000FFE7524800695749884205DCFFE707A81C
:105BC000008802F0A7FD19E04C484069524988421C
:105BD00007DCFFE749480021017340F258210161C9
:105BE0000BE04648007E002806D1FFE7434801212C
:105BF0000176FDF729FFFFE7FFE7FFE76FE0494880
:105C00004078012832D1FFE74748002141814548CB
:105C1000C1708078002807D1FFE7424801218170D8
:105C2000C820FEF78FFFFFE73648008840F2E831D2
:105C3000884204DBFFE7334800210180FFE707A823
:105C4000008802F067FD31480188491C0180008806
:105C50002F49884209DBFFE72C480021018007A873
:105C60000188324803F04EFBFFE737E02548008803
:105C700040F2E83188421BDBFFE722480021018027
:105C800029484189491C41812648807800280ED046
:105C9000FFE72448C178491CC170C0781E2805DB85
:105CA000FFE7204800218170C170FFE7FFE7FFE7B1
:105CB0000020FFF787F81C4800890128009004D0D5
:105CC000FFE70098032804D007E00120FEF784F9DD
:105CD00003E00020FEF780F9FFE700E0FFE712484D
:105CE0000189491C01810089192804DBFFE70E485E
:105CF00000210181FFE70CB070BDC046000100200B
:105D0000900000201C010020F50B00002001002065
:105D1000E903000057020000AF04000056A100088C
:105D20001E0100209E000020500000206BA10008F2
:105D300070B5AAB000202990289027902690259031
:105D400024A9087023A9087022AA108021AA108013
:105D50000870FFE723A80078E649097888420CDA42
:105D6000FFE723A80078E449095C25AA1154FFE75E
:105D70002398401C23A90870ECE7DE48017824AA88
:105D80001170DE4900220A70027025A840780228AE
:105D900007DBFFE725A8407824A90978884201D0CD
:105DA000FFE7EBE224A80078811E25A801F09AF80D
:105DB00022A90880FFE724A8007825A94018801EA2
:105DC000007822A94978884216D1FFE724A80078F4
:105DD00025A94018401E007822A9097888420BD1D5
:105DE000FFE725A881780902C078081821A9088052
:105DF000C3480121017000E0C0E221A80088401ED4
:105E00001A281F9000D9B8E21F98810001A25118EA
:105E10008F46C04600F034B800F0AFBA00F06BB85F
:105E200000F0B3B800F0A9BA00F0A7BA00F0A5BA24
:105E300000F0E0B800F014B900F09FBA00F048B9E3
:105E400000F09BBA00F099BA00F097BA00F0DAB906
:105E500000F093BA00F091BA00F08FBA00F08DBA5A
:105E600000F08BBA00F089BA00F087BA00F02FBAC0
:105E700000F083BA00F081BA00F087B900F058BA98
:105E800025A8007900280ED1FFE725A84079002831
:105E900009D1FFE79A4801210170002181709948DA
:105EA0000521017014E025A80079FF280FD1FFE734
:105EB00025A84079FF280AD1FFE791480021017009
:105EC000817090480121017039214181FFE7FFE78E
:105ED00025A81021017006211E9001F003F822A9C7
:105EE000088048781E9988712298C87108211E98E8
:105EF000FDF7CCFF42E225A80079FF280DD1FFE78E
:105F000025A84079FF2808D1FFE77D48002181704E
:105F100041707C480121017006E0794803214170FD
:105F2000784805210170FFE725A81021017008219C
:105F30004170002282700323C370734B06241D5FDF
:105F40000A2695FBF6F505711B5F93FBF6F56E438C
:105F50009B1B43711D901C9121461B9200F0C2FFB8
:105F600022A9088048781D9988712298C87108462E
:105F70001C99FDF78BFF1B98FEF72EF81B98FEF778
:105F800021FF5F4801210170F8E125A8102101706F
:105F900008214170002282700422C270FC4A1268FB
:105FA000FC4B5343DA17120D9A18120B20AB1A80D0
:105FB0001A8840F2E834B2FBF4F202711A880A231C
:105FC000B2FBF3F26423B2FBF3F46343D21A4271DF
:105FD00006221A901991114600F084FF22A9088028
:105FE00048781A9988712298C87108461999FDF75E
:105FF0004DFFC3E125A80079FF280CD1FFE725A8B4
:106000004079FF2807D1FFE7DD4800214170DE48D5
:10601000012101700DE0DA4808214170DA480521BC
:10602000017000201890FDF7D7FF1898FEF7CAFE00
:10603000FFE725A8102101700A214170082217905E
:106040001691114600F04EFF22A908804878179952
:1060500008722298487208461699FDF717FF8DE1DD
:1060600025A80079FF280CD1FFE725A84079FF2853
:1060700007D1FFE7FD4800214170C34801210170AD
:106080000FE0FA48012101700921417000201590AC
:10609000FDF7A2FF1598FEF795FEBB48052101709C
:1060A000FFE725A8102101700A21417008221490F1
:1060B0001391114600F016FF22A908804878149920
:1060C00008722298487208461399FDF7DFFE55E1E1
:1060D00025A80079FF2819D1FFE725A84079FF28D6
:1060E00014D1FFE7E14800214170A7480121017068
:1060F00034E0C0463A01002025010020390100208B
:1061000000010020500000209E0000200920C00651
:106110000221002212901191109201F043FA9B4843
:106120001199109A01F03EFA40F200111298109A5B
:1061300001F038FA01200F90FDF784F90F98FDF770
:106140008DF848F2000112980F9A01F02BFAC74817
:106150000B2141708C4805210170FFE725A8102113
:1061600001700821417006220E900D91114600F039
:10617000B9FE22A9088048780E9988712298C871C2
:1061800008460D99FDF782FEF8E025A80079002861
:106190000BD1FFE725A84079012806D1FFE725A804
:1061A000002101710121417111E025A80079002829
:1061B0000BD1FFE725A84079022806D1FFE725A8E3
:1061C000002101710221417100E0D7E0FFE725A81D
:1061D0001021017008214170002282701A22C270C1
:1061E00006220C900B91114600F07CFE22A908803B
:1061F00048780C9988712298C87108460B99FDF768
:1062000045FEBBE025A80079002830D1FFE725A88E
:10621000407900281AD1FFE794480F2141700121ED
:106220000170594A052313700922D20648F200036F
:106230000A90104609911946099A01F0B3F9099894
:106240000A99087300220A614A610FE025A8407983
:1062500001280AD1FFE78548007E002804D1FFE726
:1062600025A8FF214171FFE7FFE7FFE714E025A81C
:106270000079FF280FD1FFE725A84079FF280AD130
:10628000FFE77A48002141703F4A012313700373EE
:1062900001614161FFE7FFE725A810210170082196
:1062A0004170002282700F22C2700622089007916E
:1062B000114600F017FE22A90880487808998871D5
:1062C0002298C87108460799FDF7E0FD56E02D4871
:1062D000818840F2C212511A018106900592FDF7A1
:1062E000B3FBFDF775FB25A810210170002101719A
:1062F000417108200699085E04228A5E8018059A7A
:10630000904204D1FFE725A801214171FFE725A8AC
:106310000621049000F0E6FD22A90880487804993F
:1063200088712298C87108210498FDF7AFFD25E017
:1063300014481E2101811448012181704B4800211D
:1063400001760391FDF780FB25A81021017008213B
:106350004170039A8270062302900191194600F061
:10636000C1FD22A908804878029988712298C871D5
:1063700008460199FDF78AFD00E0FFE72AB070BDED
:10638000000100209E000020500000200004004872
:10639000900000205613000080B582B0334840784A
:1063A0000F2860D1FFE73148007B00281CD0FFE7B1
:1063B0002E48007E00280FD0FFE7304800683149A2
:1063C000884209DCFFE7294801214173002202735A
:1063D0000846FEF77BFC06E02448002141730220BA
:1063E000FEF774FCFFE73FE021480188491C01806B
:1063F00000880B281ADBFFE71D48002101801B489D
:106400004169491C41611B48007800280DD0FFE715
:1064100019480178491C01700078062804DBFFE761
:106420000220FFF7E1F8FFE7FFE7FFE71348006806
:10643000134988420CDBFFE70220FEF747FC0B48BC
:1064400040F2B0414161012101730021417309E033
:1064500001200190FEF73AFC0448019941730022A3
:106460000273FFE700E0FFE702B080BD00010020FB
:1064700022010020D80000202401002090000020EC
:106480009C0C0000F40B000080B582B0114812494A
:1064900002F0E6FE00281BD0FFE70E480E4902F08E
:1064A000BFFE0220019000F05BFE1421081A0B4A87
:1064B00010700B48019A02701046009100F046FDE2
:1064C0000198009900F03EFE019800F04FFDFFE7B3
:1064D00002B080BD00380140040004073A010020EA
:1064E0003901002081B001466A461070107840B230
:1064F00000280DD4FFE76846007840B21F2102460D
:106500000A400121914040098000024A8150FFE782
:1065100001B0704700E100E070B582B0024601AB07
:1065200018700091187840B2002817D4FFE701A82E
:10653000017849B20322D2431140384BC958007840
:1065400040B28407E40EFF25A540A943009DAD019C
:10655000EDB2A54029431040C1501AE001A80178CE
:106560000F22114008390323DB4319402A4C0959F3
:10657000007840B28507ED0EFF26AE40B143009E85
:10658000B601F6B2AE403143104008381840015110
:10659000FFE702B070BDC04670B582B0024601ABE5
:1065A00018700091187840B2002817D4FFE701A8AE
:1065B000017849B20322D2431140184BC9580078E0
:1065C00040B28407E40EFF25A540A943009DAD011C
:1065D000EDB2A54029431040C1501AE001A801784E
:1065E0000F22114008390323DB4319400A4C095993
:1065F000007840B28507ED0EFF26AE40B143009E05
:10660000B601F6B2AE40314310400838184001518F
:10661000FFE702B070BDC0461CED00E000E400E002
:10662000E1480168082211430160FFE7DE48006885
:106630000007002801D5FFE7F8E7DB4801680422DE
:1066400011430160FFE7D84800684007002801D5E2
:10665000FFE7F8E77047C04683B0024602AB187008
:10666000019118780128009004D0FFE700980228D3
:106670000FD01DE0B74801680F2212059143016059
:10668000019909050D4BC918114002680A430260BF
:106690000FE0094801680322120591430160019946
:1066A0000905064BC918114002680A43026000E060
:1066B000FFE703B07047C046382401400000F0FFF8
:1066C00081B000900098002807D0FFE7E5480168F6
:1066D00040F600021143016006E0E248016840F61E
:1066E000000291430160FFE701B0704780B582B0BE
:1066F0000448019001F0B6FC019801F0A1FC02B041
:1067000080BDC04609030000D648016840F200126F
:10671000114301607047C046D2480068C007002896
:1067200006D1FFE7CF480168012211430160FFE76E
:106730007047C04610B582B00A46034601AC2070CF
:1067400068460170007800281BD0FFE701A8007898
:10675000C007002807D0FFE7C248016801221205E0
:1067600011430160FFE701A800788007002807D5E2
:10677000FFE7BC48016848F2000211430160FFE7EF
:106780001AE001A80078C007002807D0FFE7B54845
:1067900001680122120591430160FFE701A800781A
:1067A0008007002807D5FFE7AE48016848F20002DD
:1067B00091430160FFE7FFE702B010BD83B00246DE
:1067C00002AB1870019118780128009004D0FFE7FF
:1067D000009802280BD015E0A24801680722520455
:1067E00091430160019902680A4302600BE09D48F1
:1067F000016847F2000291430160019902680A436F
:10680000026000E0FFE703B07047C046B0B585B056
:106810000B46044604AD287003A801700292287844
:10682000052818D8FFE74D480168019104A90A78A6
:1068300005231C4654431F22A240019C944301940B
:1068400003AA127809784B439A40019911430191A8
:106850000199016040E004A800780B281AD8FFE7EE
:106860003D480168019104A90A7805231C46544358
:106870001E3C1F22A240019C9443019403AA12785B
:1068800009784B431E3B9A400199114301910199AC
:10689000016020E004A800780F281AD8FFE72D48EF
:1068A0000168019104A90A7805231C4654433C3C25
:1068B0001F22A240019C9443019403AA12780978F4
:1068C0004B433C3B9A40019911430191019901606E
:1068D00000E0FFE7FFE7FFE703A80078092817D8E3
:1068E000FFE720480168009103A90A7803231C46AA
:1068F00054430722A240009C94430094029A0978D2
:106900004B439A40009911430091009901601FE0A8
:1069100003A80078122819D8FFE7114801680091F0
:1069200003A90A7803231C4654431E3C0722A240B5
:10693000009C94430094029A09784B431E3B9A4072
:106940000099114300910099016000E0FFE7FFE723
:1069500005B0B0BD2C240140302401403424014056
:106960000C2401401024014081B001466A46107099
:106970001078C007002807D0FFE73A4801680122D5
:10698000920511430160FFE7684600788007002800
:1069900007D5FFE733480168012252051143016022
:1069A000FFE701B07047C0460824014082B00A46A4
:1069B0000190684601700078002827D0FFE701A801
:1069C0004078C007002807D0FFE72548016840F25B
:1069D000001211430160FFE701A84078400700283A
:1069E00007D5FFE71E48016840F2004211430160ED
:1069F000FFE701A800788007002806D5FFE71948BF
:106A00000168022211430160FFE726E001A84078F7
:106A1000C007002807D0FFE71148016840F20012C4
:106A200091430160FFE701A840784007002807D59F
:106A3000FFE70B48016840F2004291430160FFE725
:106A400001A800788007002806D5FFE705480168FF
:106A5000022291430160FFE7FFE702B07047C046A2
:106A6000042401400824014080B584B003A840F20A
:106A7000C211018002A8002101808048007802280C
:106A80000DD1FFE74048002101807C484078012873
:106A900004D1FFE7794800214170FFE771E03A48EF
:106AA0000188491C018000880E2801DCFFE768E0AE
:106AB00035480F210180714800780528019052D88F
:106AC0000198810001A251188F46C04600F03DB8E0
:106AD00000F048B800F047B800F004B800F043B840
:106AE00000F009B803A8008800B202A9098809B219
:106AF00000F04EF845E0F14840780F2816D1FFE746
:106B0000EE48007B002808D0FFE703A840F2582198
:106B1000018002A81D490180FFE703A8008800B298
:106B200002A9098809B200F033F80DE003A840F289
:106B30005821018002A9154A0A80008800B20988FC
:106B400009B200F025F8FFE71BE00F4800210180A3
:106B5000D8484078012804D1FFE7D6480021417089
:106B6000FFE70EE0FFE703A840F25821018002A9E9
:106B7000064A0A80008800B2098809B200F008F8C5
:106B8000FFE704B080BDC046440100209CFF000028
:106B900010B584B00A46034603AC208002A80180E9
:106BA000C5480621405E218809B2884209DCFFE71A
:106BB000C1480621405E02A9098809B2884228DA44
:106BC000FFE72C480178491C017000780B281FDB77
:106BD000FFE728480A210170B6484078012816D0FE
:106BE000FFE7B4480178B44A0623D25E244B0190F3
:106BF000184602F087FB0121019A51701178032990
:106C000004D0FFE70420FEF7EFFCFFE7FFE7FFE714
:106C10002DE0A9480621405E02A9098809B2143175
:106C2000884223DDFFE7A4480621405E03A90988C6
:106C300009B21439884219DAFFE70E4800210170C1
:106C40000D480178491C0170007806280DDBFFE72C
:106C500009480521017097484078012804D1FFE7D1
:106C6000944800214170FFE7FFE7FFE7FFE704B02A
:106C700010BDC04646010020470100205000002002
:106C80005EA2000881B000908B48407903280AD1A9
:106C9000FFE700980749884204D8FFE786480221A9
:106CA0000171FFE703E0844802210171FFE701B0B1
:106CB0007047C0462D0A000081B000907E484079A0
:106CC00004280AD1FFE700980B49884204D8FFE75F
:106CD000794803210171FFE709E0009805498842DE
:106CE00004D3FFE7744803210171FFE7FFE701B018
:106CF0007047C046D60A0000D30A000081B0009059
:106D00006D48407905280AD1FFE700980B49884271
:106D100004D8FFE7684804210171FFE709E0009803
:106D20000549884204D3FFE7634804210171FFE766
:106D3000FFE701B07047C046280B0000710C00004F
:106D400081B000905C48407906280AD1FFE700989E
:106D50000B49884204D8FFE7574805210171FFE736
:106D600009E000980549884204D3FFE7524805210D
:106D70000171FFE7FFE701B07047C046C60C000095
:106D8000160D000080B584B04A48007801280390B1
:106D900004D0FFE70398052834D06CE0464800791A
:106DA000012815D1FFE746480178491C0170007899
:106DB00006280CDBFFE7444802F0A4FA3D49022212
:106DC0004A70042102900846FEF70EFCFFE718E027
:106DD0003B48002101703B480178491C0170007854
:106DE0000B280DDBFFE737480A2101703148407856
:106DF000022804D1FFE72F4800214170FFE7FFE799
:106E0000FFE754E02C48007901281AD1FFE72B480E
:106E1000007B002815D0FFE729480178491C017044
:106E2000007806280CDBFFE7274802F06BFAF249EE
:106E300002224A70042101900846FEF7D5FBFFE7C5
:106E400018E01F48002101701E480178491C01709C
:106E500000780B280DDBFFE71A480A210170E6488D
:106E60004078022804D1FFE7E34800214170FFE7A2
:106E7000FFE7FFE71BE010480079022816DBFFE779
:106E800010480178491C017000780B280DDBFFE7E2
:106E90000C480A210170D8484078022804D1FFE745
:106EA000D54800214170FFE7FFE7FFE7FFE704B0A7
:106EB00080BDC0465000002090000020000100204E
:106EC00048010020490100202EA2000880B500F0F2
:106ED000F9FAC820FDF736FE014802F013FA80BD2A
:106EE00002A2000884B00390029101A81649018013
:106EF00000200090FFE70098029988421FD2FFE728
:106F000001A801880A0A0902511801800399009A10
:106F1000895C019A4A4002800188CAB21209514034
:106F2000018001880A03514001800188CAB25201E0
:106F300051400180FFE70098401C0090DBE701A86A
:106F4000008804B07047C046FFFF000010B581B054
:106F500001466A461070107814224243784813584C
:106F60000124A343135001B010BDC04610B581B039
:106F700001466A4610701078142242437048135834
:106F800001242343135001B010BDC04610B581B099
:106F900001466A461070107814224243684813581C
:106FA0002024A343135001B010BDC04610B581B0DA
:106FB00001466A4610701078142242436048135804
:106FC00020242343135001B010BDC04670B581B0DA
:106FD00001466A461070107814231C4644435848F2
:106FE00025580126B543255014781D4665430024D5
:106FF0002C5010781D4645435F482C5010781D4694
:1070000045434D482C50107843434C481C50107851
:1070100080000F228240034803681343036001B0DD
:1070200070BDC04604000240B0B586B0024605AB54
:1070300018700491187802920193FFF787FF049863
:10704000006801990A7814231C4654433A4AA05018
:10705000049880680A781C465443384AA050049823
:10706000008A0A781C465443434AA05008781A46BE
:107070004243334812580392039A43F60074A243E2
:107080000392049A5468D5682C4352691443039AB6
:1070900022430392039A0C7863431A500498007EAB
:1070A00001280AD1FFE705A80078142141432448AC
:1070B0000A5840231A430A5009E005A80078142111
:1070C00041431F480A5840239A430A50FFE7049857
:1070D000407E01280AD1FFE705A80078142141432A
:1070E00017480A5880231A430A5009E005A8007877
:1070F0001421414312480A5880239A430A50FFE75B
:107100000498807E00280AD1FFE705A800781421A2
:1071100041430B480A5810239A430A5009E005A836
:1071200000781421414306480A5810231A430A5094
:10713000FFE706B0B0BDC046100002401400024098
:107140000800024082B0024601AB18700091684608
:107150000088197814234B430749585002B07047F0
:1071600081B001466A4610701078142242430248EA
:10717000105801B07047C0460C00024080B584B082
:10718000014603AA107002A800230370107800289B
:10719000019008D0FFE7019801281CD0FFE7019873
:1071A00002281CD01CE014488078411E022900905F
:1071B00004D3FFE70098032804D007E002A83C218D
:1071C000017007E002A82821017003E002A83C2119
:1071D0000170FFE708E002A80021017004E0FFE76A
:1071E00002A85A210170FFE702A802780348002193
:1071F00001F058FD04B080BD500000200044014063
:1072000081B0009000984749086001B07047C046BF
:1072100064480168802211430160704780B584B0E2
:1072200003900F20000400F027F802A908700878E6
:1072300000281BD1FFE75B4801680222114301606F
:1072400003990C4B196001684023194301600F2119
:10725000090401900846009200F00EF802A9087097
:1072600001980168009A91430160FFE702A8007845
:1072700004B080BD1420024080B584B0039002A801
:1072800001210170FFE700F025F802A908700398BA
:10729000401E0390FFE702A8007800210128019119
:1072A00005D1FFE70398411E88410190FFE701984F
:1072B000C0070028E7D1FFE702A80078012804D121
:1072C000FFE702A805210170FFE702A8007804B0DB
:1072D00080BD000081B0684600210170114800683F
:1072E000C007002804D0FFE768460121017015E0BF
:1072F0000C480068C006002804D5FFE76846042152
:1073000001700AE0074800684007002804D5FFE73D
:10731000684602210170FFE7FFE7FFE76846007853
:1073200001B070470C2002401E480068000600288B
:1073300006D5FFE703480449016004490160FFE7FF
:107340007047C0460420024023016745AB89EFCD5A
:1073500080B586B0059004910F200004FFF78CFFE4
:1073600003A908700878002817D1FFE70D480168C5
:107370000122114301600499059B19600F21090442
:10738000029008460192FFF777FF03A90870029860
:107390000168019A91430160FFE703A8007806B0F5
:1073A00080BDC0461020024080B582B0019000919F
:1073B00001A80178074801F095FEFFE70548064956
:1073C00001F0FDFE002801D1FFE7F7E7019802B0C8
:1073D00080BDC046003801400707000010B587B0E7
:1073E0000A46034605AC208004A801702F4803908C
:1073F0000020029038482E490160FFE72D480068C0
:10740000012108400290FFE70398401E03900021ED
:107410000028019105D0FFE70298411E88410190A4
:10742000FFE70198C0070028E8D1FFE7029800288D
:1074300004D0FFE706A80021017033E004A800781B
:107440001D49086019480390FFE71A4800680221A7
:1074500008400290FFE70398401E03900021002897
:10746000009105D0FFE70298411E88410090FFE798
:107470000098C0070028E8D1FFE70298002804D050
:10748000FFE706A8002101700CE005A800880B4961
:1074900008400B49086010480C49016006A801210A
:1074A0000170FFE706A8007807B010BDFFFF0F00CE
:1074B000555500000C30004004300040FF0F000024
:1074C000083000400448014901607047AAAA000042
:1074D000014802490160704700300040CCCC0000F8
:1074E00086B00590049103920598006A0190059872
:1074F000406A009002A800210180FFE702A80088EE
:1075000007281ED8FFE702A800880399C140C807D2
:10751000002810D0FFE702A8018889000F228A40C6
:10752000019991430191049900888000814001985C
:1075300008430190FFE7FFE70298401C02A908807A
:10754000DCE702A808210180FFE702A800880F28D5
:1075500020D8FFE702A800880399C140C807002887
:1075600012D0FFE702A80188890020390F228A4043
:10757000009991430091049900888000203881404F
:10758000009808430090FFE7FFE70298401C02A91B
:107590000880DAE701980599086200980599486221
:1075A00006B0704783B0134602900191684602709E
:1075B0000078002804D0FFE701980299886103E071
:1075C000019802998862FFE703B0704783B0019089
:1075D0000091019800690099084204D0FFE702A8D1
:1075E0000121017003E002A800210170FFE702A859
:1075F000007803B0704787B006900591049203931A
:107600000698006801900698C068009002A80021C2
:107610000180FFE702A800880F282CD8FFE702A806
:1076200000880399C140C80700281ED0FFE702A8C0
:1076300001884900032213468B4001999943019127
:10764000059903885B009940019B0B4301930188D6
:1076500049008A40009991430091049900884000B4
:107660008140009808430090FFE7FFE70298401C24
:1076700002A90880CEE7019806990860009806994B
:10768000C86007B0704710B586B00C46059004A8D6
:107690000170039202930078012806D1FFE7029857
:1076A00005994A6802434A6005E0029805994A68CC
:1076B00082434A60FFE705988068009001A8002196
:1076C0000180FFE701A800880F281ED8FFE701A866
:1076D00000880299C140C807002810D0FFE701A820
:1076E0000188490003228A4000999143009103993F
:1076F000008840008140009808430090FFE7FFE7C2
:107700000198401C01A90880DCE700980599886071
:1077100006B010BD80B582B040F60010019000F0B8
:107720003FFB019800F04EFB02B080BD80B584B0F5
:10773000002003900121C90642F60002019008468C
:10774000114600F06DF862B602A80199017000F0D0
:107750002DFDFFF7DFFF22480421FFF73FFE0090D9
:10776000FFF7B6FE00F09EFFFCF700F8FCF726FDE1
:10777000FBF790FCFCF77CFFFDF7A4F9FDF7C0FADE
:10778000FDF7D2FDFDF74EFBFCF748FCFCF738FB9C
:1077900001F05EF8FCF72EFFFCF774F9FBF776FDBD
:1077A000FFE702A800210170FFE702A80078022885
:1077B00015DCFFE702A8007840000A49085A0028B3
:1077C00007D1FFE702A800788000074908588047E2
:1077D000FFE7FFE70298401C02A90870E5E7E0E731
:1077E00071020000EC0000201000002010B586B0EF
:1077F0000A46034605AC207004A80170217849B2FE
:107800000078039008460399029201930094FEF7D2
:10781000C3FE0098017848B2FEF764FE06B010BDC2
:1078200082B00190009101980099044A11400843E8
:1078300003490860BFF34F8F02B0704780FFFF1FFE
:1078400008ED00E010B582B0014601AA10705D4855
:1078500003684CF20004A34303605B4803685B4C7D
:107860002340036010780928009000D9A6E0009812
:10787000810001A251188F4600F012B800F01CB828
:1078800000F026B800F02EB800F03BB800F046B883
:1078900000F056B800F061B800F071B800F07CB8A4
:1078A000494801680122120491430160016840F2D5
:1078B00000129143016082E04348016801221204F2
:1078C00011430160016840F200129143016076E0CB
:1078D000F94801680160FB48016840F20012114359
:1078E00001606CE0F44801680160F648016801221B
:1078F000D20711430160016840F200121143016098
:107900005DE0ED48016844F2000211430160ED487A
:10791000016840F200121143016050E0E64801683E
:1079200044F2000211430160E64801680122D207D7
:1079300011430160016840F20012114301603EE012
:10794000DD48016848F2000211430160DD4801682A
:1079500040F200121143016031E0FB48016848F237
:10796000000211430160FD4801680122D207114362
:107970000160016840F20012114301601FE0F2480B
:1079800001684CF2000211430160F448016840F2C2
:1079900000121143016012E0EB4801684CF2000252
:1079A00011430160ED4801680122D20711430160D3
:1079B000016840F200121143016000E0FFE702B0ED
:1079C00010BDC0460410024030100240FFFEFE7F92
:1079D0009CB001461BAA107000201A9019901890B4
:1079E000179016901590149013901290119010907B
:1079F0000F900E900D900C900B90AD4A0A92AD4AEC
:107A00000992089007900692059004920390CE4840
:107A100000680C22104080081A901A9800280290E2
:107A200008D0FFE70298012807D0FFE70298022854
:107A300006D045E0A248169045E0A148169042E0E5
:107A4000C14801680F2292041140890C109100680E
:107A50000121C9060840C00E0F900F98012804D1DB
:107A6000FFE71098113010900BE010980F2803D109
:107A7000FFE71020109003E01098801C1090FFE7A3
:107A8000FFE7B1480068012109040840000C0E908E
:107A90000E9800280ED0FFE7AF4800680F2108407D
:107AA000401C0D900D988649B1FBF0F010994143B0
:107AB000169104E01098814941431691FFE702E0D6
:107AC0007F481690FFE7A0480168C9B209090C91E8
:107AD0000C9907AA515C0B9116990B9AD1401591FC
:107AE000016840F200721140090A0C910C9905AA34
:107AF000515C0B9115990B9AD1401491006843F693
:107B000000010840C00A0C900C9803A9085C0B9077
:107B100015980B99C84013901BA800780528019070
:107B200000D9C1E00198810001A251188F46C046DA
:107B300000F00AB800F00BB800F00CB800F00DB877
:107B400000F00EB800F081B816981790ADE01598C7
:107B50001790AAE014981790A7E013981790A4E044
:107B60007E48006840F20011084088420FD0FFE7CD
:107B70007A480068012109040840884203D0FFE7E1
:107B80005248129002E050481290FFE75AE06E48C7
:107B9000006880B2800B199070480068C00F189080
:107BA0001998032800904BD80098810001A2511821
:107BB0008F46C04600F006B800F013B800F020B8B9
:107BC00000F02FB81898002804D1FFE71398400858
:107BD000129005E015980321B0FBF1F01290FFE739
:107BE0002FE01898002804D1FFE71398800812901E
:107BF00005E015980521B0FBF1F01290FFE720E0B9
:107C00001898002806D1FFE713980621B0FBF1F081
:107C1000129005E015980721B0FBF1F01290FFE7F4
:107C20000FE01898002804D1FFE71398C0081290BD
:107C300005E015980921B0FBF1F01290FFE700E094
:107C4000FFE7FFE7129817902FE04448006880078D
:107C5000002803D1FFE71398119022E03F48006805
:107C600003210840012803D1FFE71698119017E07F
:107C70003A48006803210840022804D1FFE748F28F
:107C8000000011900BE035480068032108400328EC
:107C900003D1FFE70A48119000E0FFE7FFE7FFE7A5
:107CA000FFE71198179000E0FFE717981CB07047A6
:107CB00006070809010203040410024000093D0000
:107CC00000127A0030100240003FAB01809FD500C7
:107CD000ED480168012211430160FFE7EA480068AE
:107CE0008007002801D4FFE7F8E7F1480168032284
:107CF00091430160E4490A68144B1A400A60016824
:107D0000134A114001600168124A11400160124893
:107D100001680F22914301601048016840F203128C
:107D200091430160016801221304994301600168D5
:107D3000D307994301600A480168914301600948EB
:107D4000002101607047C04604100240FFFFF2FEB0
:107D50000C00FF08FFFFC2772C10024030100240D9
:107D6000341002400810024082B001466A4610807A
:107D700010888009C44BC05812881F231A40D04075
:107D8000C007002804D0FFE701A80121017003E02B
:107D900001A800210170FFE701A8007802B0704738
:107DA00010B581B001466A46108010881F22034634
:107DB000134001229A408009B34BC4581443C45065
:107DC00001B010BD80B58CB001460BAA1080002018
:107DD0000A9009AB187008AB18701088002807903B
:107DE0006AD0FFE70798102816D0FFE707981828F1
:107DF00000D1DAE040F600000799814234D0FFE775
:107E000040F600100799814200D1A6E040F60050EC
:107E10000799814279D0F0E0FFE708A800780021B7
:107E20000028069107D1FFE70A987B49401A411EB6
:107E300088410690FFE70698C007002809D0FFE7B1
:107E40001120FFF791FF08A908700A98401C0A90BA
:107E5000E3E71120FFF788FF002804D0FFE709A817
:107E600001210170FFE7C9E0FFE708A800780021C1
:107E70000028059107D1FFE70A986549401A411E7D
:107E800088410590FFE70598C007002809D0FFE763
:107E90006048FFF769FF08A908700A98401C0A901B
:107EA000E3E75C48FFF760FF002804D0FFE709A87C
:107EB00001210170FFE7A1E0FFE708A80078002199
:107EC0000028049108D1FFE70A9840F20051401AB7
:107ED000411E88410490FFE70498C007002809D09C
:107EE000FFE70120FFF740FF08A908700A98401C2F
:107EF0000A90E2E70120FFF737FF002804D0FFE7F0
:107F000009A801210170FFE778E0FFE708A80078E1
:107F100000210028039107D1FFE70A983949401A48
:107F2000411E88410390FFE70398C007002809D04D
:107F3000FFE73648FFF718FF08A908700A98401CA9
:107F40000A90E3E73148FFF70FFF002804D0FFE76E
:107F500009A801210170FFE750E0FFE708A80078B9
:107F600000210028029107D1FFE70A982549401A0D
:107F7000411E88410290FFE70298C007002809D0FF
:107F8000FFE72148FFF7F0FE08A908700A98401C97
:107F90000A90E3E71C48FFF7E7FE002804D0FFE75C
:107FA00009A801210170FFE728E0FFE708A8007891
:107FB00000210028019107D1FFE70A981149401AD2
:107FC000411E88410190FFE70198C007002809D0B1
:107FD000FFE71920FFF7C8FE08A908700A98401C9F
:107FE0000A90E3E71920FFF7BFFE002804D0FFE75F
:107FF00009A801210170FFE700E0FFE709A8007868
:108000000CB080BDFFFF0F0001090000010D000052
:10801000FFFFFF0301080000FFFF000010B581B063
:1080200001466A46108010881F2203461340012231
:108030009A408009924BC4581443C45001B010BDFB
:1080400010B581B001466A46108010881F22034691
:10805000134001229A408009894BC4589443C4506C
:1080600001B010BD10B581B001466A46108010887D
:108070001F220346134001229A408009804BC458B6
:108080001443C45001B010BD0010024082B00190F2
:10809000002000907C4801680091009903229143E0
:1080A00000910199009A1143016002B07047C046E7
:1080B0000410024080B582B0B748007800280190D3
:1080C00012D0FFE70198022804D0FFE701980328A7
:1080D00014D01DE0B0484078032804D1FFE7AE4833
:1080E00000214170FFE756E0AB484078032804D1F7
:1080F000FFE7A94800214170FFE74CE0A64840781F
:10810000032804D1FFE7A44800214170FFE742E0C3
:1081100022480621405E40F2C211884221DBFFE77F
:108120001F480178491C01700078062818DBFFE71A
:108130001B48052101709848007804280FD0FFE7FC
:1081400095480321417015480621415E164801F00B
:10815000D9F8042100900846FDF746FAFFE7FFE74B
:1081600018E00F48002101700E480178491C017089
:1081700000780B280DDBFFE70A480A2101708648CA
:108180004078032804D1FFE7834800214170FFE7CE
:10819000FFE7FFE7FFE702B080BDC0469E0000207A
:1081A000500100205101002042A2000880B584B097
:1081B000002003900290FFF769FFFFF789FD304828
:1081C0000168012211430160FFE70398401C0390FE
:1081D0002B480068022108400290FFE70298002126
:1081E0000028019108D1FFE7039840F20051401A9E
:1081F000411E88410190FFE70198C0070028E4D1A3
:10820000FFE71F4800688007002802D4FFE7FFE768
:10821000FEE71C48016802221143052291430160D8
:108220001948016801600168016001680160016826
:10823000164A114001600168154A11430160104857
:1082400001680122120611430160FFE70C48006833
:108250008001002801D4FFE7F8E70B4801680322FA
:10826000914301600168022211430160FFE7064863
:1082700000680007002801D4FFE7F8E704B080BDDC
:10828000001002400020024004100240FFFFC2F72D
:108290000000040880B58CB03F48407801280B905E
:1082A0001FD0FFE70B98022830D0FFE70B98032878
:1082B00041D1FFE70920C006022100220A9009915E
:1082C000FFF770F935480121099A08911146089A7B
:1082D000FFF768F940F200110A98089AFFF762F96F
