:020000040800F2
:1028000040050020E1280008094800081D41000893
:1028100000000000000000000000000000000000B8
:10282000000000000000000000000000ED2800088B
:102830000000000000000000EF280008E55000083C
:10284000F3280008F3280008F3280008F3280008FC
:10285000F3280008F3280008F3280008F3280008EC
:1028600000000000F3280008F3280008F3280008FF
:10287000F3280008F3280008F328000800000000EF
:10288000F3280008F328000800000000F3280008DF
:10289000F3280008F3280008F3280008F3280008AC
:1028A000F3280008F3280008F3280008E55F000873
:1028B000F3280008000000000000000000000000F5
:1028C000F328000800000000F328000803488546AC
:1028D00000F01AFB00480047FD6E0008400500208C
:1028E0000448804704480047FEE7FEE7FEE7FEE7AE
:1028F000FEE7FEE745540008CD280008002800DA6E
:1029000040427047F0B507460846584087B0C00FB0
:10291000049048000E46590040084908BC1A8841F6
:1029200005D2384631461E4617460B460246580029
:10293000400810434CD0300D039040055900400D25
:10294000490D0590401A0290402872DA18030121BF
:10295000000B09050843019004980092002805D057
:102960000199524200208841009201900298402132
:102970000A1A0199009800F0D5F905460C466B46F5
:1029800007CB00F0F0F9C0197141039A0E0D002336
:10299000D71756401A467A40164344D0049A002A64
:1029A0002DD0029A012A039A15DC1205C01A914112
:1029B00001263605001C7141D20F059ED2070093F7
:1029C000019202962A46234600F0EDF907B0F0BDC9
:1029D00038463146FAE71605224A0F46B218C01AA1
:1029E000B74101210905001C4F4100187F411146E4
:1029F00018187941E20F10436D19644113E0E207A2
:102A00006D0815436408C2071443039A0126120592
:102A1000C01A91413605001C7141CE074008304371
:102A20004908C01851412A46234600F0AFF9CDE7C6
:102A3000FFE7049801224000C117121A00238B41BE
:102A400004983146C417381AA141EEE730B4012486
:102A5000E407634030BC55E730B40124E40761402B
:102A600030BC4FE70000E0FFF0B51FB488B00B9911
:102A70000998002448400999C00F49004908099164
:102A8000C0070B990090490049080B9109990898D3
:102A9000A64608431CD00B990A98084318D00998F9
:102AA00001244000420D4800410D0998240500030F
:102AB000000B204309900B980003000B20430B9060
:102AC00050181C494018002201901446104605E099
:102AD000002001460DB0F0BD032801DA034600E0F6
:102AE00003239C46C11A0AAE0AE05F0008ADED5B05
:102AF0004F00F75B7D430027AA187C41491C5B1EF1
:102B00006145F2DD410004AB5A522104120C0A4324
:102B1000240C401C0828DFDB0198029000997046C5
:102B200001910090059B049A0799069800F03BF9E3
:102B3000D0E700000DFCFFFFF0B50C465C4085B00F
:102B4000E40FE40703944C000026640859009446FF
:102B5000490802460296224321D062460A431ED00B
:102B60006200570D4A000E032303550D012402464F
:102B70002C492405781B1B0B360B40182343264396
:102B8000614600901C46501AB44103D30098401C83
:102B9000009002E0921800985B41002803DA0020C0
:102BA000014605B0F0BD0020012109050746864613
:102BB00011E064461D46141BB54106D36546521B01
:102BC000B341744607430C43A646CD074008490865
:102BD000284392185B4105460D43EAD1104618433D
:102BE00013D06046194650407140084306D06046F5
:102BF000101AB34106D20122002306E0002201236D
:102C0000DB0702E00122D24353100098744601050D
:102C1000381C6141029C039D0019694100F0B6F81F
:102C2000BFE70000FD0300000EB5C217C10F504002
:102C3000CA0740180021054B0293019200910A46F1
:102C40000B4600F0B0F803B000BD000033040000F4
:102C500070B5CD0F4A0009030123090B1B05194369
:102C60000B4BED070024520D9A4201DA002070BD93
:102C7000074B34339A4203DC9A1A00F063F802E0FF
:102C80000449511888402C43F1D0404270BD0000E7
:102C9000FF030000CDFBFFFF30B50B4601460020CF
:102CA0002022012409E00D46D5409D4205D31D4652
:102CB0009540491B2546954040191546521E002D4A
:102CC000F1DC30BDF0B51FB40646002082B00546E9
:102CD0004024019100901BE0019922460F463046A6
:102CE00000F030F8049A059B801A994110D31046E1
:102CF0001946224600F016F8361A8F4101972246EF
:102D000001200021009F00F00DF838184D4100907F
:102D10002046641E0028DFDC019B009829463246CD
:102D200007B0F0BD10B5202A04DB0146203A9140DF
:102D3000002010BD914020239C1A0346E340194314
:102D4000904010BD10B5202A04DB0846203AD04040
:102D5000002110BD0B46D340D0402024A21A914040
:102D60000843194610BD10B5202A06DBCB170846CC
:102D7000203A1041C1170B4306E00B461341D040E7
:102D80002024A21A91400843194610BD10B5002B0B
:102D900008DA0024401C614192185B411A4301D1BA
:102DA0004008400010BDF0B51FB482B005460C00CD
:102DB00003D0084605F082FE02E005F07FFE2030D9
:102DC0000246009021462846FFF7ACFF049B059A77
:102DD00004460F4618431143084314D018461043C5
:102DE0001BD0009840210A1A18460599FFF7AAFF40
:102DF00005460E46009A05990498FFF793FF08438D
:102E000005D0012004E02046394607B0F0BD00207F
:102E1000C11705430E432C43374300990E986305B1
:102E2000401A7905E40A00220C43FD0A0A3002D553
:102E300000200146E9E70105101969410C9C0D9D30
:102E400000196941FFF7A2FFDFE770B54B005B088F
:102E500003430BD04B005C0D002633466542B34163
:102E6000D417AD1AA34102DB0020014670BD120544
:102E70003018514170BD00004A0009030123090BBD
:102E80001B0519430A4B10B5520D9A4202DA002075
:102E9000014610BD064B34339A4203DC9A1AFFF701
:102EA00051FF10BD034BD218FFF73CFF10BD0000CF
:102EB000FF030000CDFBFFFF10B5002904DB012458
:102EC000E40740428C412146002B04DB1C460123D1
:102ED000DB075242A3418B4200D1824210BD000069
:102EE00010B5002904DB0124E40740428C4121464F
:102EF000002B04DB1C460123DB075242A34199420D
:102F000000D1904210BD0000064C0125064E05E0A0
:102F1000E36807CC2B430C3C98471034B442F7D3FA
:102F2000FFF7D8FC449B0008649B000880B5054867
:102F300004F05CFC40F2005004F058FC062004F061
:102F400069F880BD0906000080B588B00220012123
:102F50000790069103F0CAFA40F20010069903F0B8
:102F6000C5FA0020059003F059F904200699049051
:102F70000846049903F01EF90520059903900846B8
:102F80000799039A03F0E2F9032006990290084694
:102F90000299039A03F0DAF907980499039A03F067
:102FA000D5F902980399039A03F0D0F90720410458
:102FB000069803F0A3F90698069903F05BF903F06D
:102FC0004BF90A20019000F049FB03F0D7F8019873
:102FD00000F044FB03F038F9069803F065FA08B0F6
:102FE00080BD000080B58AB00020029003F0D6FBBF
:102FF0001048039003A8029901760F4A0592012216
:10300000427640F20012049240F20042069281762B
:103010000422079242F200020892019008460199A8
:1030200003F0EAFB029803F0A9FB029803F086FB89
:103030000AB080BD4C2401402C01002080B584B032
:10304000894804F0D3FB894804F0D0FB0920C0066E
:1030500003210022042303900291019203F0B3FEA6
:10306000082303980299019A03F0ADFE10230398F8
:103070000299019A03F0A7FE202303980299019A6E
:1030800003F0A1FE04B080BD80B5FFF74FFFFFF74E
:10309000D5FFFFF7A7FFFFF757FF80BD81B0009076
:1030A00003480168009A11610099016001B07047FE
:1030B0003401002080B51348007800280DD1FFE7C7
:1030C00011480178491C01700078642804DBFFE78F
:1030D0000C4801210170FFE70CE00B480178491E04
:1030E00001700078002804DCFFE706480021017029
:1030F000FFE7FFE7044802788248012105F09EF9C6
:1031000080BDC046290000202800002080B582B084
:10311000014601AA10701078012806D1FFE779480E
:103120000121002205F08AF905E076480121642298
:1031300005F084F9FFE702B080BDC04680B594B0C9
:10314000494804F053FB494804F050FB4848022129
:10315000002201230C900B910A92099303F033FE95
:1031600003200C99089008460A99089A099B03F0D5
:1031700072FE0C980999099A03F09AFD0920C0067D
:10318000802107900B9A069111460A9A069B03F03C
:103190001AFE07980A99089A069B03F05CFE0798A6
:1031A0000999069A03F084FD324804F01FFB554844
:1031B000059005F0DBF90DA8049005F0F3FA2E4810
:1031C000049908800A984880888063220F92C880FA
:1031D0000873059805F046FA11A8039005F0ABF9BD
:1031E0000998039908800A9A4A808A80CA8040F226
:1031F00000130B8140F200234B8105980999039A33
:1032000004F050FF05980B99039A04F04BFF6420DB
:103210000599029008460999029A05F00FF9059858
:103220000B99029A05F00AF9602005990190084669
:103230000999019A05F0B0F805980B99019A05F0E3
:10324000ABF8059809990A9A05F024F905980B99A5
:103250000A9A05F01FF9059804F01AFF059805F081
:10326000F7F914B080BDC04611050000120500003A
:103270000004004801070000CF02000080B5134899
:10328000007800280DD1FFE711480178491C017032
:103290000078642804DBFFE70C4801210170FFE798
:1032A0000CE00B480178491E01700078002804DC0E
:1032B000FFE7064800210170FFE7FFE704480278B6
:1032C0001048022105F0BAF880BDC0462B0000204E
:1032D0002A00002080B582B0014601AA1070107843
:1032E000012806D1FFE707480221002205F0A6F8D1
:1032F00005E004480221642205F0A0F8FFE702B0CF
:1033000080BDC0460004004080B530480078632886
:103310000BDCFFE78B4880882D490A68101808608D
:103320002A480178491C01704EE02948016864224E
:10333000B1FBF2F101600168B34A116000682549F0
:10334000884204D8FFE7B0480121017133E02048EA
:1033500000682149884204D8FFE7AB480121017188
:1033600028E01B4800681D49884205D8FFE7184837
:10337000006803F019F91CE01548006818498842F4
:1033800005D8FFE71248006803F03AF910E010484A
:10339000006840F64051884205D8FFE70C480068B5
:1033A00003F05AF903E0984806210171FFE7FFE7AF
:1033B000FFE7FFE7FFE794480179417103480021E7
:1033C000017003480160FFE780BDC0462C0000206B
:1033D00030000020B2090000570A0000FD0A00007A
:1033E0009B0C000080B586B005A80021018004A8D0
:1033F000017003A801704748007809280BDCFFE73B
:103400005048408843490A785200434B9852087804
:10341000401C08707CE03F480021017004A8017046
:10342000FFE704A80078082835DCFFE703A800219F
:103430000170FFE703A8007804A909780922511A4E
:10344000884222DAFFE703A80078400032490A18D0
:10345000085A5188884212DDFFE703A80178490025
:103460002D4A515A05AB19800178490053185B88E1
:10347000535205990078400080184180FFE7FFE72C
:103480000398401C03A90870D4E7FFE70498401C88
:1034900004A90870C5E7204800892049884232DC29
:1034A000FFE71D480189A24A4A431D4B591A92FB66
:1034B000F1F101810089FFF7B7FB0022194B02925D
:1034C000FFF73AFB05F0EAFF174B029AFFF734FBD0
:1034D000164A174BFFF716FA164A029B0190184638
:1034E00000911146019A009BFFF726FB124A134BED
:1034F000FFF708FA124B029AFFF7B6FAFFF7A8FB9C
:10350000D549C88004E0D44840F27031C180FFE75B
:1035100006B080BD4800002034000020D70E000017
:10352000FF0F00000088C34000DCAE404AF1F10903
:10353000D9796B3F0000F03F66666666661271C01F
:10354000000024402C01002080B52E48007800287F
:103550004CD1FFE7E548007800280AD0FFE7F6489D
:103560000078012805D0FFE7F3480078022804D14D
:10357000FFE7032001F0FEFE42E0EF480078032859
:1035800033D1FFE7B448007A002812D1FFE7B248F0
:10359000007902280CDBFFE7AF480079062807DC3A
:1035A000FFE7012001F068F9184800210170FFE7EA
:1035B0001AE0A948007A012815D1FFE713480078DE
:1035C0000B280ADBFFE712480078012804D1FFE747
:1035D000022001F051F9FFE704E00C480178491C92
:1035E0000170FFE7FFE7FFE7FFE709E0EA4800783F
:1035F000032804D1FFE7022001F0BCFEFFE7FFE74C
:1036000080BDC046D000002084000020490000207A
:10361000C000002080B586B00F4804F0E7F84548A8
:10362000019004F0A3FF02A8009005F0BBF847202A
:10363000009908800020488088803D4A0492C88014
:10364000019805F00FF80121019805F089F801981B
:1036500004F0FEFF06B080BD1206000080B582B007
:10366000014601AA1080684600220280FFE76846F2
:10367000008801A9098888420ADAFFE740F2E830A9
:1036800000F008F8FFE70098401C69460880EEE764
:1036900002B080BD80B588B0014607AA108005A899
:1036A0000022028004AB1A8003AB1A8002AA204BCE
:1036B0001380079A06AB1A801E4A019010460091AB
:1036C00004F04AFF01990880FFE71A4804F044FF1C
:1036D00004A90880088805A90988884225D0FFE741
:1036E00004A8008805A90988884208DDFFE7049836
:1036F0000599401A0399081803A9088009E002985F
:103700000599401A049940180399081803A90880DC
:10371000FFE7049805A9088003A8008806A909887E
:10372000884201DBFFE701E0FFE7CEE708B080BD9C
:10373000102700000048014080B584B0964800780A
:103740000528039000D983E00398810001A2511855
:103750008F46C04600F00AB800F019B800F03FB834
:1037600000F076B800F063B800F06EB83D4801781C
:10377000491C01700078032808DBFFE70920C00618
:1037800040F20041002203F0F5FAFFE761E0EC4867
:103790004189491C418140893C280DDBFFE75B489A
:1037A0001021012203F0E6FA40F2F410FFF756FF71
:1037B000002001F0DFFD11E0E1488089F0280CDBFA
:1037C000FFE752481021012203F0D4FAC820FFF786
:1037D00045FF002001F0CEFDFFE7FFE739E0D848C4
:1037E000C189491CC181D248007902280FDCFFE75A
:1037F000D348C089042809DBFFE7194805F04EF9D2
:1038000000210290084601F0B5FDFFE70EE0CC482C
:10381000C089032809DBFFE7104805F03FF90021C4
:103820000190084601F0A6FDFFE7FFE7FFE7C44867
:10383000018A491C0182008A032804DBFFE700207B
:1038400001F098FDFFE704E0BD480021418100E060
:10385000FFE704B080BDC046840000200C9B000838
:10386000239B00085E00002080B582B000200190FC
:1038700000901F48006801900198002804D0FFE7DD
:103880000198042806D3FFE701200190AB481E21D0
:10389000018113E00198AA498870094800680090E6
:1038A0000098FFF72BF8632804DCFFE70098A34992
:1038B000088103E0A14800210181FFE702B080BD3B
:1038C00004F8000880B582B00020019000909C4868
:1038D0008078009099480821405E0190044869462C
:1038E000022200F0C7FA02B080BDC0464A000020A4
:1038F00000F8000880B503F0CDF9C5481021012279
:1039000003F038FAC820FFF7A9FE80BD0004004884
:1039100080B582B08A48002101704170C170018178
:103920008181C1810190FFF79FFF0198807800F0AD
:1039300005F802B080BDC0464A00002082B00146B2
:1039400001AA107001987E4A90709078012800902A
:1039500008D0FFE7009802280AD0FFE70098032864
:103960000CD011E076480A2181800121C18011E04C
:1039700073480C2181800121C1800BE070480E2129
:1039800081800121C18005E06D480A2181800121EB
:10399000C180FFE702B070474A00002080B584B0C4
:1039A00003A80021018062480079032805DBFFE7B6
:1039B00060480078012808D1FFE70020029000F05D
:1039C000D7FF029800F0ACF9AFE001F0B9FD03A910
:1039D000088059480188491C0180584840780128CE
:1039E0005BD1FFE75648002141815448C17080787F
:1039F000002807D1FFE7514801218170C82000F05D
:103A0000E1FEFFE74C48008840F2E831884208DBDD
:103A1000FFE749480021018049488189491C81818B
:103A2000FFE747480089002804D1FFE7012000F0A4
:103A300077F925E042480189C088814204D1FFE737
:103A4000002000F06DF91AE03D480189C088401C53
:103A5000814204D1FFE7012000F08AFF0EE03848E0
:103A60000189C08803AA12888018401C814204D1B1
:103A7000FFE7002000F07CFFFFE7FFE7FFE7FFE73D
:103A80002F480189491C01810089282804DBFFE7B0
:103A90002B4800210181FFE73FE02748008840F2E2
:103AA000E831884217DBFFE72348002101802348E3
:103AB000807800280ED0FFE72048C178491CC170EB
:103AC000C0781E2805DBFFE71C4800218170C1700B
:103AD000FFE7FFE7FFE7002000F022F91848008920
:103AE0000128019004D0FFE70198062804D007E0E0
:103AF000012000F03DFF03E0002000F039FFFFE768
:103B00000F480189491C01810089192804DBFFE75E
:103B10000B4800210181FFE7FFE7084800780128F2
:103B200003D1FFE701F00EF8FFE704B080BDC04607
:103B300084000020F000002060000020920000209F
:103B40004A00002080B58AB040F2005003F04EFEDB
:103B50000220029002F022FE03A8002181760E4A84
:103B60000592012242760691142207920B4A039293
:103B70000176049143F200010891029901900846F0
:103B8000019902F039FE029802F0E8FD029802F075
:103B9000D5FD0AB080BDC046160100202438014082
:103BA00080B586B0194803F021FE19480021402253
:103BB00005900491039203F07BF880200599029010
:103BC00008460499029A03F073F802200121059A2D
:103BD00001901046019B00911946009A039B03F047
:103BE000F2F805980499009A039B03F034F90598BC
:103BF0000199009A029B03F0E6F805980499009A4F
:103C0000029B03F028F906B080BDC04612050000F3
:103C10000004004880B582B000F03CF8FFF792FF46
:103C2000FFF7BEFF194803F0E1FD3A48019004F0A8
:103C300031FEE1204102019804F0C8FD0421019801
:103C400004F00DFF0821019804F018FF40210198AD
:103C500004F04AFE8021019804F055FE019804F01A
:103C600061FEFFE72B480A4904F075FE002801D1E8
:103C7000FFE7F7E727480649009004F05CFE0421BF
:103C8000009804F085FE02B080BDC0460E0600001C
:103C90000407000080B51B20002103F08FF980BDD0
:103CA00080B584B00A46039002A8017001A80021E3
:103CB00001806B4619800180FFE701A8008802A9F6
:103CC0000978884223DAFFE7684600210180FFE790
:103CD0001048114904F03FFE00280BD1FFE700987F
:103CE000401C6946088008880C49884201DBFFE7D0
:103CF00000E0EDE7039801A90988415C054804F05C
:103D0000BDFDFFE70198401C01A90880D5E704B07C
:103D100080BDC0460038014007070000891300003D
:103D200080B582B0014601AA107010480078127860
:103D3000904201D1FFE712E001980C490870087821
:103D4000012806D1FFE700F013F8012002F0FEFD84
:103D500005E0022002F0FAFD00F06CF8FFE702B087
:103D600080BDC046014800210170704762000020FC
:103D700080B590B02E480F900920C0060221002285
:103D800040F20023079006910592049303F01BF87C
:103D9000032207980599049B03F05DF8079806999C
:103DA000049A02F085FF08A8039004F0FBFC0F982A
:103DB0000088039908800598488088800F9A528867
:103DC0000A92C88008732A4A1046029204F04AFCFC
:103DD0000CA8019004F0AFFB012001990880059A1E
:103DE0004A808A80CA800A814A81029B00901846D4
:103DF0000099019A04F056F90F9882880298009968
:103E000004F01CFB60220298009904F0C5FA0298A5
:103E10000099059A04F03EFB0298009904F0A9FC71
:103E2000029804F035F9029804F012FC10B080BD3D
:103E30001800002080B584B00D4804F097FB0920DD
:103E4000C0060121002240F200230390029101925A
:103E5000009302F0B8FF03980199029A009B02F0C8
:103E6000FAFF03980099019A02F084FF04B080BD24
:103E7000002C014010B58AB013460990089107A89C
:103E800002800020069005A90880099A1F24E406F4
:103E90001219920A069204930390029102F02CFEEA
:103EA0003420019002F094FD069880020121C90699
:103EB000401802F09BFD01990090084602F088FD31
:103EC000039802990880FFE705A8008807A90988D8
:103ED00088420FDAFFE7099805A909888900401888
:103EE000089A515802F01CFEFFE70598401C05A9EE
:103EF0000880E9E7342002F06BFD02F071FD0AB0A2
:103F000010BD000080B58CB0664803F06FFC6648B9
:103F100003F06CFC00F0CAF80920C0060121002261
:103F200048F200030B900A910992089302F04BFFAC
:103F30000B9809990A9A089B02F08DFF0B98089933
:103F4000099A02F017FFF74807900A99099A0A9B05
:103F500002F039FF079809990A9A0A9B02F07BFF41
:103F600007980A990A9A02F005FF80200B9906909B
:103F700008460A99099A069B02F025FF0B980999B1
:103F80000A9A069B02F067FF0B9806990A9A02F0BC
:103F9000F1FE02200B99059008460A99099A059BA3
:103FA00002F011FF0B9809990A9A059B02F053FF42
:103FB0000B9805990A9A02F0DDFE07980A99099A6A
:103FC000059B02F000FF079809990A9A059B02F0E9
:103FD00042FF079805990A9A02F0CCFE40F20010C1
:103FE0000B99049008460A99099A049B02F0EBFE8B
:103FF0000B9809990A9A049B02F02DFF0B980499DB
:104000000A9A02F0B7FE20200799039008460A9901
:10401000099A039B02F0D7FE079809990A9A039B15
:1040200002F019FF079803990A9A02F0A3FE40F2E2
:1040300000200B99029008460A99099A029B02F007
:10404000C2FE0B9809990A9A029B02F004FF0B9892
:104050000299099A02F08EFE40200B9901900846C1
:104060000599099A019B02F0AEFE03220B9809996B
:10407000019B02F0F0FE05210B98019A02F018FE58
:1040800040F200400B99009008460A99099A009B5B
:1040900002F099FE0B9809990A9A009B02F0DBFE48
:1040A0000CB080BD110500001205000080B586B07F
:1040B0000920C00648F2000100220590049202F097
:1040C00059FE9848012103900291029A02F052FE93
:1040D00080210598029A02F04DFE02200599019078
:1040E00008460199029A02F045FE03980199029A46
:1040F00002F040FE40F200110598029A02F03AFEEA
:1041000020210398029A02F035FE40F20021059822
:10411000049A02F02FFE06B080BDC046FFE7FEE71E
:1041200080B584B0014603AA107052480023438131
:1041300010780528029000D999E00298810001A228
:1041400051188F4600F03DB800F04CB800F006B8AA
:1041500000F08CB800F08BB800F088B845480078C3
:10416000012805D0FFE74348007805280DD1FFE777
:104170006C481021012202F0FDFD40F2F410FFF71F
:104180006DFA002001F0F6F81AE03A4800780028AD
:1041900005D0FFE737480078022810D1FFE73848FC
:1041A000007903280ADBFFE7012001F0E3F840F281
:1041B000F4110190084600F005FBFFE7FFE7FFE779
:1041C00056E02C48007800280BD1FFE70920C006F4
:1041D00040F20041012202F0CDFD284804F05EFCCF
:1041E000FFE745E023480078012805D0FFE7214894
:1041F000007805282BD1FFE71E48C07800280FD192
:10420000FFE71C488178491C81708078032806DB11
:10421000FFE718480121C17003218170FFE70EE01C
:1042200014488178491E81708078012806DCFFE7F8
:1042300010480021C17001218170FFE7FFE70D48A0
:104240008078FFF77BFB012000F0A4F9FFE7094825
:104250000078002809D1FFE7074804F01FFC02217D
:104260000090084601F086F8FFE701E000E0FFE774
:1042700004B080BD4A000020F19A0008FF9A0008AF
:104280008400002080B503480349044B002200F05D
:1042900007F880BD64000020C94E000821410008D5
:1042A00010B584B014460390029101A802700093E7
:1042B0000398002802D1FFE7FFE7FEE703980178A3
:1042C000F0221140891D0170019803990A78800736
:1042D000800ECF231A4010180870039800214170F7
:1042E00003988170039881800298039988600098F0
:1042F0000399C8600398FEF7D1FE04B010BD00001A
:1043000080B5064803F072FA054803F06FFAE948F1
:1043100000210122082302F056FD80BD1105000096
:10432000120500000004004880B58AB00990099881
:104330008068804708A90870087809990978890970
:10434000884217D0FFE709988078312805DCFFE71D
:1043500009988178891C817001E1089809990A7887
:1043600080013F231A4010180870099800218170BD
:10437000FFE7FFE7099800780F2108400028079021
:1043800009D0FFE70798022848D0FFE707980428DC
:1043900000D185E0C6E008A8007809990978890667
:1043A000890F884222D1FFE709988188891C818082
:1043B000099880886B49884217DBFFE7099800213C
:1043C000818009980178F0221140891C01700998B8
:1043D000C068002808D0FFE70998C068022106904D
:1043E000084606998847FFE7FFE716E0099800218D
:1043F000818009980178F0221140491C01700998C8
:10440000C068002808D0FFE70998C068012105901E
:10441000084605998847FFE7FFE7A0E008A800786D
:10442000099909788906890F884221D1FFE70998FF
:104430008188891C818009988088962817DBFFE78E
:1044400009980021818009980178F0221140091D06
:1044500001700998C068002808D0FFE70998C06873
:1044600004210490084604998847FFE7FFE716E017
:1044700009980021818009980178F0221140C91C17
:1044800001700998C068002808D0FFE70998C06843
:1044900003210390084603998847FFE7FFE75EE0A2
:1044A00008A80078099909788906890F884221D1DE
:1044B000FFE709988188891C81800998808896285F
:1044C00017DBFFE709980021818009980178F02225
:1044D0001140091D01700998C068002808D0FFE745
:1044E0000998C06804210290084602998847FFE7AE
:1044F000FFE716E009980021818009980178F022F1
:104500001140491D01700998C068002808D0FFE7D4
:104510000998C06805210190084601998847FFE77E
:10452000FFE71CE008A80078099909788906890F37
:10453000884213D1FFE709980178F02211400170F9
:104540000998C068002808D0FFE70998C0680021D2
:104550000090084600998847FFE7FFE7FFE70AB0A9
:1045600080BDC046DC05000080B582B00848006808
:104570000190FFE70198002808D0FFE70198FFF7B6
:10458000D3FEFFE7019800690190F3E702B080BD18
:104590003401002080B58EB001460DAA107010784D
:1045A00001285FD1FFE7F0488078414909788842C7
:1045B00001D1FFE779E0EC48807801280C9008D021
:1045C000FFE70C9802281BD0FFE70C9803282CD09B
:1045D00040E00920C006022100220B900A9102F05F
:1045E000C9FBBA4801210A9A09911146099A02F0B9
:1045F000C1FB40F200110B98099A02F0BBFB29E0C5
:104600000920C0060221002208900791069202F0BC
:10461000B1FBAE480799069A02F0ACFB40F20011DC
:104620000122089802F0A6FB14E00920C00602212E
:10463000002205900491039202F09CFBA348049988
:10464000039A02F097FB40F200110598039A02F0DA
:1046500091FBFFE7C448807815490870164800218F
:10466000017022E014480078002801D0FFE71CE028
:104670001148012101700E48002202700920C00675
:104680000222029001911146019B00921A4602F00B
:1046900071FB8E480099019A02F06CFB40F2001108
:1046A0000298019A02F066FBFFE70EB080BDC0469B
:1046B00079000020000400487800002080B51F48E1
:1046C0000088C007002805D1FFE7FFF74DFF00F085
:1046D0007DFCFFE719480088644941436448091894
:1046E0000122D141814208D8FFE7FEF77BFE00F0AE
:1046F000EDFA124800210180FFE79B48007801286D
:1047000003D1FFE700F080F9FFE7D94800780028DF
:1047100003D1FFE7FEF7F8FDFFE70948007802281C
:1047200003D1FFE701F014F9FFE704480188491CB1
:10473000018050480121018080BDC0467A000020E0
:104740002A01002080B584B00E4803F04FF85F487E
:10475000012100221023039002910192009302F0A4
:1047600032FB03980199029A009B02F074FB0398B4
:104770000099019A02F0FEFA2248019901704180E5
:1047800004B080BD1205000080B582B01D4840888D
:1047900001280ADBFFE71B484188491E41804B483E
:1047A0001021012202F0E6FA09E048481021002217
:1047B000019202F0DFFA134801990170FFE702B09D
:1047C00080BDC04680B582B0014601AA10800D4868
:1047D0000078002813D1FFE701980A4948804888EB
:1047E00001280BDBFFE70748012101703748102241
:1047F00000911146009A02F0BDFAFFE7FFE702B010
:1048000080BDC0467C0000207047000080B582B0AB
:10481000554800780128019004D0FFE70198052849
:1048200003D005E0FFF7BAF803E000F0E9FE00E08E
:10483000FFE70D480188491C018000880B4941436E
:104840000B4809180122D141814206D8FFE700F048
:104850003FF8054800210180FFE7FFF795FF054875
:104860000121418002B080BD80000020CDCCCCCCA5
:1048700098999919E800002080B582B0014601AAF4
:1048800010700198104B18721078012806D1FFE7BC
:104890000E482021002202F06DFA05E00B4820218D
:1048A000012202F067FAFFE702B080BD80B506483A
:1048B000FA21C180002101710172044820210122E6
:1048C00002F058FA80BDC046840000200004004871
:1048D00080B582B0244800780528019040D801981E
:1048E000810001A251188F4600F01FB800F008B8EF
:1048F00000F00FB800F013B800F01DB800F01EB8BB
:104900001A48002101700120FFF744FE03F0EEF881
:1049100027E00020FFF73EFE03F010F921E0002021
:10492000FFF738FE03F0ACF81BE00020FFF732FE83
:1049300003F0CEF815E003F019F812E08048407853
:104940000B28009004D0FFE700980F2803D005E063
:1049500003F0F0FA03E003F029FA00E0FFE700E0DB
:10496000FFE702B080BDC0464A0000209000002052
:1049700080B582B0014601AA1070C3480078127851
:10498000904201D1FFE714E00198BF490870087810
:10499000012808D1FFE7BC48807A00F0F3F8012035
:1049A00001F0D4FF05E0022001F0D0FF00F06EF925
:1049B000FFE702B080BDC04681B001466A46107074
:1049C0000098B14A907201B07047C04680B582B07D
:1049D000AD480021017041708170C170FA21818061
:1049E000C1800221817207490190084602F0FEFE53
:1049F000B54803F0BBFD0198807A00F0C3F802B01F
:104A000080BDC0460B0600009F480078002801D1F9
:104A1000FFE72BE01748C0881749884213DBFFE700
:104A200017480178491C017000780B2807DBFFE765
:104A300095480121417012480B210170FFE70F4892
:104A40000021017012E00D480178491C01700078C6
:104A50000A2807DBFFE709480B2101708A4800217B
:104A60004170FFE7064800210170FFE77047C0462C
:104A7000920000202C0100204D0400009F00002027
:104A80009E00002080B588B005A800210181069114
:104A9000059104A801802A48C188491CC180C088AA
:104AA00079283FDBFFE726480021C1800421405ED2
:104AB000754A515E401AFDF721FF3C2804DBFFE7F1
:104AC00005A8002141710DE01D488088FB498A88B6
:104AD000801A0881FEF7F6FEFEF7C6FE05A8012142
:104AE0004171FFE705A810210170082141700022E3
:104AF00082701723C3700271062303900291194636
:104B0000019201F0D7FD04A90880487803998871C3
:104B10000498C87108460299FFF7C2F8084801993D
:104B200081700AE00648807905A90870012000908C
:104B300008460099FFF7B4F8FFE708B080BDC0460B
:104B4000F000002080B5DD480621405E40F2711182
:104B5000884204DCFFE70220FFF72EFF10E0D74871
:104B60000621405E40F28511884204DCFFE7012007
:104B7000FFF722FF03E00020FFF71EFFFFE7FFE73C
:104B800080BDC04610B594B0014613AA107009202C
:104B9000C0060222002340F200240B900A91114625
:104BA00009921A4608932346079402F00CF903224F
:104BB0000B980899079B02F04EF90B980999079AF0
:104BC00002F076F80CA8069003F0ECFD0898069920
:104BD000088048808880B94A927A002A03D1FFE78A
:104BE00047200E9011E0B548807A012803D1FFE7F5
:104BF00039200E9008E0B148807A022803D1FFE7FF
:104C00002F200E90FFE7FFE7FFE70CA80021C180EF
:104C100001732D4A05901046059B04911946039295
:104C200003F020FD10A8029003F085FC01200299FA
:104C3000088004224A80049A8A80CA800A814A81B4
:104C4000039B019018460199029A03F02BFA0E98E3
:104C5000401C42080398019903F0F0FB602203987E
:104C6000019903F099FB03980199049A03F012FC4F
:104C70000398019903F07DFD039803F009FA039866
:104C800003F0E6FC14B010BD9200002080B584B0A3
:104C90000D4803F06BFC0920C0060121002240F200
:104CA0000023039002910192009302F08CF8039884
:104CB0000199029A009B02F0CEF803980099019A9C
:104CC00002F058F804B080BD002C014088B007A85D
:104CD0000021018006A8017005A8017001A80170DB
:104CE0007348007809280BDCFFE776480088704994
:104CF0000A7852006F4B98520878401C0870D4E034
:104D00006B480021017006A80170FFE706A8007833
:104D1000082835DCFFE705A800210170FFE705A89A
:104D2000007806A909780922511A884222DAFFE799
:104D300005A8007840005F490A18085A518888423F
:104D400012DDFFE705A8017849005A4A515A07AB1E
:104D500019800178490053185B88535207990078ED
:104D6000400080184180FFE7FFE70598401C05A937
:104D70000870D4E7FFE70698401C06A90870C5E74D
:104D80004C4800894C49884200DD88E003A83C215A
:104D9000017004A800210170039801AA107002A8F4
:104DA000017006A80170FFE706A800783B2868D8C4
:104DB000FFE74048008904A909784900404A515A50
:104DC00088422ADBFFE704A80078002805D0FFE727
:104DD00004A80078012801D1FFE752E03548008996
:104DE00004A909784900364A8918891E0988884229
:104DF00005DCFFE70498401E04A9087041E004A800
:104E000001786A461180017802AA12788918490847
:104E10000170009801A908702DE003A8007804A98A
:104E20000978884208D0FFE703A80078401E04A94B
:104E30000978884201D1FFE723E01E48008904A9D0
:104E4000097849001E4A89184988884205DBFFE72E
:104E50000498401C04A9087013E004A801786A466D
:104E60001180017801AA1278891849080170009808
:104E700002A90870FFE7FFE70698401C06A9087022
:104E800092E704A8007805214143C8310B4881808E
:104E90001E210181818802898918C18005E00748A7
:104EA00040F220318180C180FFE708B07047C046E2
:104EB000B4000020A0000020D70E000092000020C7
:104EC000309800082C01002080B582B009480821E4
:104ED00001F064FF002804D1FFE701A80021017060
:104EE00003E001A801210170FFE701A8007802B0EA
:104EF00080BDC0460004004880B582B00920C006CD
:104F0000012101F04BFF002804D1FFE701A8002197
:104F1000017003E001A801210170FFE701A80078FA
:104F200002B080BD80B582B02348022101F036FF77
:104F3000002804D1FFE701A80021017003E001A8C7
:104F400001210170FFE701A8007802B080BDC046D2
:104F500010B582B0164802F049FC164802F046FC33
:104F60000920C0060021012201910092009B01F05E
:104F70002AFF114802230199009A01F024FF0F48EB
:104F80000099017041708170019A8280C823C380AA
:104F90000B4C84600B4C21706170A170A280E38087
:104FA000094BA360394B18605C6002B010BDC0466D
:104FB000110500001605000000140048C000002084
:104FC000F94E0008D0000020254F000880B584B0BD
:104FD00003A800210170FFE703A80078012852DC34
:104FE000FFE703A801788900284A51588968029090
:104FF0000192884702990A789200019B9A58507052
:1050000008788000185882784078824228D1FFE7DB
:1050100003A8007880001D49085841780078814233
:105020001ED0FFE703A801788900184A51588B88E1
:105030005B1C8B800078800010588188C08881427A
:105040000DDDFFE703A801788900104A51580023BD
:105050008B8000788000105841780170FFE70CE0E9
:1050600003A801788900094A51584B788B70007861
:105070008000105800218180FFE7FFE70398401C63
:1050800003A90870A8E704B080BDC046B80000209E
:1050900080B584B002900298401E000E002803D014
:1050A000FFE70120039013E00298401E0A490860C0
:1050B0000020C143032201900846114600F0DAFFA8
:1050C0000648019901600648072202600391FFE744
:1050D000039804B080BDC04614E000E018E000E092
:1050E00010E000E081B0684600210170FFE76846EB
:1050F0000078022816DCFFE76846007840009C49EB
:10510000085A012808DBFFE7684600784000984904
:105110000A5A521E0A52FFE7FFE70098401C6946F0
:105120000870E4E701B07047B0B588B001F0B2FD97
:105130007C480188491C018000887B4941437B48A9
:1051400009180122D14181422AD8FFE778484178E5
:10515000784A0790104603F0A1FC77498A88774B7C
:105160001B798C88764D65436C0B764D06902846EE
:10517000059111461A46234603F090FC0421079A34
:10518000515E059B1A881C886F4D65432B0B6F4C35
:105190000490204603F082FC624900220A80FFE767
:1051A0006B48008860494143604809180122D14199
:1051B000814203D8FFE7FEF7BFFAFFE7A048007877
:1051C000052803D1FFE700F0D1FE02E0FEF7BCF9AD
:1051D000FFE75A480621405E40F2C211884223DBB5
:1051E000FFE797480078012805D0FFE7944800784A
:1051F000032818D1FFE757480178491C017000784F
:1052000006280FDBFFE74D480621415E524803F0B8
:1052100045FCFA4901224A7004210390084600F037
:10522000A9F8FFE7FFE703E04A4800210170FFE724
:105230004248007901281BD1FFE7F0480078012897
:1052400015D1FFE745480178491C01700078062810
:105250000CDBFFE7424803F021FCE84902224A70D8
:1052600004210290084600F085F8FFE7FFE703E01D
:105270003A4800210170FFE7DF480621405E40F216
:10528000C211884228DBFFE7DC480078012805D0FE
:10529000FFE7DA48007803281DD1FFE7314801789D
:1052A000491C01700078062814DBFFE7D34803216E
:1052B0004170007803280CD0FFE7CF480621415EFB
:1052C000294803F0EBFB04210190084600F052F856
:1052D000FFE7FFE7FFE703E0224800210170FFE757
:1052E00022480078012814D1FFE720488078172849
:1052F0000FD1FFE7164800880B4941430B480918B6
:105300000122D141814203D8FFE7FFF7BBFBFFE752
:10531000FFE70F480188491C0180154864218180FE
:1053200008B0B0BDE6000020CDCCCCCC989999193E
:1053300092000020BC9800082C010020840000206E
:10534000AC2600000A990008E40C0000349900081B
:10535000E0000020E2000020EB980008E3000020BD
:10536000A8980008E4000020CF980008F000002072
:10537000E800002010B588B0014607AA1070079811
:105380009E4A107000201081D08110820923DB0614
:1053900048F200040690184605912146069B0492A7
:1053A0001A4601F0E7FC0698FFF766FA0698FFF741
:1053B000DFFA0698FEF7B4FC0498017804290391FB
:1053C00039D80398810001A251188F4600F008B81F
:1053D00000F010B800F01EB800F024B800F02AB8B1
:1053E000FEF770FA0920C00640F20041002201F0E9
:1053F000C1FC23E00920C00648F20001012202900E
:10540000019201F0B7FC40F200410298019A01F0CC
:10541000B1FC13E00920C00640F20041012201F076
:10542000A9FC0BE00920C00640F20041012201F076
:10543000A1FCFFE7FFE7FEF75DFAFFE708B010BD4C
:105440004A00002080B584B034480168012211432D
:105450000160FFE7314800688007002801D4FFE7BA
:10546000F8E7FFE72E480168802211430160002021
:105470000390FFE703987F2805D8FFE7FFE703982D
:10548000401C0390F6E72648016890221143016012
:1054900000200390FFE703987F2805D8FFE7FFE788
:1054A0000398401C0390F6E7FFE71D4801680322BC
:1054B0009143016019490A681A4B1A400A60016851
:1054C000194A114001600168184A114001601848EA
:1054D00001680F22914301601648016840F20312EF
:1054E000914301600168012213049943016001683E
:1054F000D3079943016010480168914301600F4848
:10550000002101600292019102F01EFC0298C00687
:10551000019901F06DFD04B080BDC046001002404D
:1055200004100240FFFFF2FE0C00FF08FFFFC277ED
:105530002C1002403010024034100240081002408B
:1055400081B0684600210180FB480621405E40F2A0
:105550006711884206DCFFE7F9488088001D69462C
:10556000088042E0F4480621405E40F27B11884208
:1055700005DCFFE7F24880886946088034E0EE48A1
:105580000621405E40F28511884207DCFFE7EC48C7
:1055900080884008001D6946088024E0E64806210E
:1055A000405E40F29411884206DCFFE7E4488088C0
:1055B00080086946088015E0DF480621405E40F219
:1055C0009E11884209DCFFE7DD4880880521B0FB99
:1055D000F1F0401C6946088003E068460121018023
:1055E000FFE7FFE7FFE7FFE7FFE70098D249C87250
:1055F0006846008801B07047920000204A000020F1
:1056000080B588B007A800210180C2480078002832
:1056100001D1FFE77BE1C0480079022808DCFFE701
:1056200000200690FFF7A4F90698FEF779FB6EE1DB
:10563000FFF786FF07A90880B8480188491C018048
:10564000B4484078C01E1428059000D9F5E00598AC
:10565000810001A251188F4600F082B800F0EDB829
:1056600000F0EBB800F0E9B800F0E7B800F01EB8C1
:1056700000F04CB800F0E1B800F0DFB800F0DDB8A1
:1056800000F0DBB800F0D9B800F08FB800F0D5B862
:1056900000F0D3B800F0D1B800F0CFB800F0CDB82A
:1056A00000F0CBB800F0C9B800F05AB8A44801899E
:1056B000C088401C814219D1FFE7A14800214181E7
:1056C0000846FEF72DFB0120FFF752F99D480178AF
:1056D000491C01700078292807DBFFE79948002161
:1056E00001709A4803F0DAF9FFE70EE09448018967
:1056F000C08807AA12888018401C814204D1FFE7A5
:105700000020FFF735F9FFE7FFE7F4E08C48008958
:10571000002819D1FFE78A48002141810846FFF798
:1057200027F90120FEF7FCFA86480178491C017030
:105730000078292807DBFFE78248002101708248B2
:1057400003F0ACF9FFE70AE07D480189C088814297
:1057500004D1FFE70020FEF7E3FAFFE7FFE7CAE026
:1057600074480188491C0180008840F2E831884271
:105770001ADBFFE76F480021018008460491FFF71C
:10578000F7F80498FEF7CCFA6B480421405E0A2132
:1057900090FBF1F25143401A6849039008461146C4
:1057A000039A03F07BF9FFE7A5E05A48007B002845
:1057B00008D1FFE700200290FEF7B2FA0298FFF747
:1057C000D7F898E054480079022807DCFFE75148F1
:1057D00000210173564803F061F98CE050480188BC
:1057E000491C018000884F49884208DBFFE74C488C
:1057F0000021018047480169491C0161FFE74548D4
:1058000000694949884205DCFFE707A8008802F0E3
:105810004DFB11E03F4840694449884207DCFFE7FF
:105820003C480021017340F25821016103E03948EE
:1058300001210176FFE7FFE75DE03F48407801285E
:1058400024D1FFE73E48002141813B48C170807868
:10585000002807D1FFE7384801218170C820FEF7F2
:10586000B1FFFFE72D48008840F2E831884208DBAD
:10587000FFE72A480021018031488189491C818144
:10588000FFE707A8008802F011FB33E023480088F7
:1058900040F2E831884217DBFFE720480021018011
:1058A0002548807800280ED0FFE72348C178491C9E
:1058B000C170C0781E2805DBFFE71F4800218170FA
:1058C000C170FFE7FFE7FFE70020FEF729FA1C4859
:1058D00000890128019004D0FFE70198062804D030
:1058E00007E00120FFF744F803E00020FFF740F84D
:1058F000FFE700E0FFE712480189491C01810089A8
:10590000192804DBFFE70E4800210181FFE708B0FA
:1059100080BDC046F0000020840000200C01002063
:1059200012010020E903000057020000AF0400004C
:10593000F99900081001002092000020BA9A00088E
:105940004A0000200E010020729900085D990008AD
:1059500070B5A0B000201F901E901D901C901B9051
:105960001AA9087019A9087018AA108017AA10801F
:105970000870FFE719A80078FC49097888420CDA1A
:10598000FFE719A80078FA49095C1BAA1154FFE740
:105990001998401C19A90870ECE7F44801781AAA74
:1059A0001170F44900220A7002701BA84078022886
:1059B00007DBFFE71BA840781AA90978884201D0C5
:1059C000FFE7B3E21AA80078811E1BA800F072FE60
:1059D00018A90880FFE71AA800781BA94018801EA4
:1059E000007818A94978884216D1FFE71AA80078EC
:1059F0001BA94018401E007818A9097888420BD1CD
:105A0000FFE71BA881780902C078081817A9088049
:105A1000D9480121017000E088E217A80088401EE3
:105A20001A28159000D980E21598810001A251181A
:105A30008F46C04600F034B800F077BA00F06FB877
:105A400000F0C6B800F071BA00F06FBA00F06DBA9D
:105A500000F0EFB800F01CB900F067BA00F049B9E7
:105A600000F063BA00F061BA00F05FBA00F0DCB990
:105A700000F05BBA00F059BA00F057BA00F055BA1E
:105A800000F053BA00F051BA00F04FBA00F016BA65
:105A900000F04BBA00F049BA00F089B900F039BA09
:105AA0001BA80079002811D1FFE71BA84079002826
:105AB0000CD1FFE7B0480121017000218170AF488F
:105AC00005210170AE4802F0E9FF15E01BA800793E
:105AD000FF2810D1FFE71BA84079FF280BD1FFE773
:105AE000A548002101708170A44801210170A548DA
:105AF00002F0D4FFFFE7FFE71BA810210170062189
:105B0000149000F0D7FD18A908804878149988717E
:105B10001898C87108211498FEF7C2F806E21BA86D
:105B2000007900280CD1FFE71BA84079002807D195
:105B3000FFE7914803214170934802F0AFFF16E060
:105B40001BA80079FF280DD1FFE71BA84079FF288B
:105B500008D1FFE7F6480021817041708B4802F0C0
:105B60009DFF03E08A4802F099FFFFE7FFE71BA8CB
:105B70001021017008214170002282700323C3703C
:105B8000EC4B06241D5F0A2695FBF6F505711B5F9D
:105B900093FBF6F56E439B1B4371139012912146C4
:105BA000119200F087FD18A9088048781399887130
:105BB0001898C87108461299FEF772F81198FEF706
:105BC000AFF81198FEF7D4FED94801210170ADE17C
:105BD0001BA810210170082141700022827004224C
:105BE000C270E14A126840F2EF135343DA17120D04
:105BF0009A18120B16AB1A801A886424B2FBF4F2BE
:105C000002711A88B2FBF4F35C43121B4271062244
:105C100010900F91114600F04DFD18A908804878AA
:105C2000109988711898C87108460F99FEF738F8CE
:105C30007CE11BA80079002813D1FFE71BA840795D
:105C400006280ED1FFE7E4480821417000200E909D
:105C5000FEF766F80E98FEF78BFEC24802F01EFFB4
:105C600015E01BA80079FF280CD1FFE71BA840799D
:105C7000FF2807D1FFE7D84800214170B84802F05B
:105C80000DFF03E0B54802F009FFFFE7FFE74DE134
:105C90001BA80079002815D1FFE71BA8407906282A
:105CA00010D1FFE7CC48012101700921417000208B
:105CB0000D90FEF735F80D98FEF75AFEA64802F053
:105CC000EDFE15E01BA80079FF280CD1FFE71BA80B
:105CD0004079FF2807D1FFE7BF48002141709D4868
:105CE00002F0DCFE03E09A4802F0D8FEFFE7FFE78F
:105CF0001CE11BA8007900282ED1FFE71BA84079E2
:105D0000012829D1FFE7904802F0C8FE0921C90601
:105D1000022200230C9008460B9111460A921A4663
:105D2000099301F027F889480A99099A01F022F8A5
:105D300040F200110B98099A01F01CF8012008901C
:105D4000FDF7C8FA0898FDF7E1F9A3480B21417067
:105D500079480521017029E01BA80079FF2820D18E
:105D6000FFE71BA84079FF281BD113E02B0100207F
:105D7000160100202A010020F00000204A00002027
:105D8000CA990008E299000884990008B2990008AD
:105D9000299A00089048002141706A4802F07EFE6E
:105DA00003E0674802F07AFEFFE7FFE7BEE01BA8CA
:105DB000007900280BD1FFE71BA84079012806D104
:105DC000FFE71BA8002101710121417111E01BA80F
:105DD000007900280BD1FFE71BA84079022806D1E3
:105DE000FFE71BA8002101710121417100E09DE046
:105DF000FFE71BA81021017008214170002282706A
:105E00001A22C270062207900691114600F052FC39
:105E100018A908804878079988711898C8710846A9
:105E20000699FDF73DFF81E01BA80079002813D1FA
:105E3000FFE71BA8407900280ED1FFE766480F2135
:105E40004170012101703C4A052313700173002148
:105E500001614161017616E01BA80079FF2810D18D
:105E6000FFE71BA84079FF280BD1FFE75A48002124
:105E70004170314A0123137003730161416101765E
:105E800000E053E0FFE71BA81021017008214170DA
:105E9000002282700F22C2700622059004911146E2
:105EA00000F008FC18A908804878059988711898AE
:105EB000C87108460499FDF7F3FE37E01BA8017985
:105EC0000A224A4344498A8042798B889A188A80F8
:105ED0000022CA8010230370062303900291194602
:105EE000019200F0E7FB18A90880487803998871AF
:105EF0001898C87108210398FDF7D2FE0198FEF7A3
:105F000037FD0198FDF70CFF172002998870487043
:105F10000CE0084832210181074801218170FDF71A
:105F2000D1FC064802F0BAFD00E0FFE720B070BDEA
:105F3000F0000020920000204A0000200E9A000885
:105F4000419A00089E990008A69A0008000400489B
:105F50005F9A0008E19A0008949A0008CF9A000816
:105F6000849A0008739A00088400002080B51A48BB
:105F700040780F282ED1FFE71748007B002804D077
:105F8000FFE70220FEF778FC25E014480188491C51
:105F9000018000880B2808DBFFE710480021018002
:105FA0000D484169491C4161FFE70B4840690C49B4
:105FB00088420ADBFFE7084840F2B0414161012115
:105FC00001730220FEF758FC03E00120FEF754FCA9
:105FD000FFE700E0FFE780BDF00000201401002093
:105FE000B104000080B582B01148124902F004FDEE
:105FF00000281BD0FFE70E480E4902F0DDFC02200E
:10600000019000F095FC1421081A0B4A10700B48FF
:10601000019A02701046009100F080FB01980099EF
:1060200000F078FC019800F089FBFFE702B080BD2A
:1060300000380140040004072B0100202A01002041
:1060400081B001466A461070107840B200280DD425
:10605000FFE76846007840B21F2102460A4001214E
:10606000914040098000024A8150FFE701B070472B
:1060700000E100E070B582B0024601AB18700091FB
:10608000187840B2002817D4FFE701A8017849B278
:106090000322D2431140384BC958007840B28407DC
:1060A000E40EFF25A540A943009DAD01EDB2A5403A
:1060B00029431040C1501AE001A801780F22114075
:1060C00008390323DB4319402A4C0959007840B2B0
:1060D0008507ED0EFF26AE40B143009EB601F6B235
:1060E000AE4031431040083818400151FFE702B07C
:1060F00070BDC04670B582B0024601AB1870009109
:10610000187840B2002817D4FFE701A8017849B2F7
:106110000322D2431140184BC958007840B284077B
:10612000E40EFF25A540A943009DAD01EDB2A540B9
:1061300029431040C1501AE001A801780F221140F4
:1061400008390323DB4319400A4C0959007840B24F
:106150008507ED0EFF26AE40B143009EB601F6B2B4
:10616000AE4031431040083818400151FFE702B0FB
:1061700070BDC0461CED00E000E400E0DA480168B4
:10618000082211430160FFE7D74800680007002894
:1061900001D5FFE7F8E7D448016804221143016004
:1061A000FFE7D14800684007002801D5FFE7F8E77E
:1061B0007047C04683B0024602AB18700191187850
:1061C0000128009004D0FFE7009802280FD01DE0BE
:1061D000B04801680F221205914301600199090539
:1061E0000D4BC918114002680A4302600FE00948CC
:1061F0000168032212059143016001990905064BCC
:10620000C918114002680A43026000E0FFE703B0CA
:106210007047C046382401400000F0FF81B0009074
:106220000098002807D0FFE7DE48016840F600022A
:106230001143016006E0DB48016840F6000291432B
:106240000160FFE701B07047D648016840F20012D4
:10625000114301607047C046D2480068C00700285B
:1062600006D1FFE7CF480168012211430160FFE733
:106270007047C04610B582B00A46034601AC207094
:1062800068460170007800281BD0FFE701A800785D
:10629000C007002807D0FFE7C248016801221205A5
:1062A00011430160FFE701A800788007002807D5A7
:1062B000FFE7BC48016848F2000211430160FFE7B4
:1062C0001AE001A80078C007002807D0FFE7B5480A
:1062D00001680122120591430160FFE701A80078DF
:1062E0008007002807D5FFE7AE48016848F20002A2
:1062F00091430160FFE7FFE702B010BD83B00246A3
:1063000002AB1870019118780128009004D0FFE7C3
:10631000009802280BD015E0A24801680722520419
:1063200091430160019902680A4302600BE09D48B5
:10633000016847F2000291430160019902680A4333
:10634000026000E0FFE703B07047C046B0B585B01B
:106350000B46044604AD287003A801700292287809
:10636000052818D8FFE74D480168019104A90A786B
:1063700005231C4654431F22A240019C94430194D0
:1063800003AA127809784B439A400199114301916D
:106390000199016040E004A800780B281AD8FFE7B3
:1063A0003D480168019104A90A7805231C4654431D
:1063B0001E3C1F22A240019C9443019403AA127820
:1063C00009784B431E3B9A40019911430191019971
:1063D000016020E004A800780F281AD8FFE72D48B4
:1063E0000168019104A90A7805231C4654433C3CEA
:1063F0001F22A240019C9443019403AA12780978B9
:106400004B433C3B9A400199114301910199016032
:1064100000E0FFE7FFE7FFE703A80078092817D8A7
:10642000FFE720480168009103A90A7803231C466E
:1064300054430722A240009C94430094029A097896
:106440004B439A40009911430091009901601FE06D
:1064500003A80078122819D8FFE7114801680091B5
:1064600003A90A7803231C4654431E3C0722A2407A
:10647000009C94430094029A09784B431E3B9A4037
:106480000099114300910099016000E0FFE7FFE7E8
:1064900005B0B0BD2C24014030240140342401401B
:1064A0000C2401401024014081B001466A4610705E
:1064B0001078C007002807D0FFE73A48016801229A
:1064C000920511430160FFE76846007880070028C5
:1064D00007D5FFE7334801680122520511430160E7
:1064E000FFE701B07047C0460824014082B00A4669
:1064F0000190684601700078002827D0FFE701A8C6
:106500004078C007002807D0FFE72548016840F21F
:10651000001211430160FFE701A8407840070028FE
:1065200007D5FFE71E48016840F2004211430160B1
:10653000FFE701A800788007002806D5FFE7194883
:106540000168022211430160FFE726E001A84078BC
:10655000C007002807D0FFE71148016840F2001289
:1065600091430160FFE701A840784007002807D564
:10657000FFE70B48016840F2004291430160FFE7EA
:1065800001A800788007002806D5FFE705480168C4
:10659000022291430160FFE7FFE702B07047C04667
:1065A000042401400824014081B000903E48407915
:1065B00002280AD1FFE700981049884204D3FFE778
:1065C000394803210171FFE713E037484079042877
:1065D0000AD1FFE700980849884204D8FFE732480B
:1065E00003210171FFE703E02F4803210171FFE759
:1065F000FFE701B07047C046D30A0000820A0000DE
:1066000081B000902848407903280AD1FFE700981C
:106610001049884204D3FFE7234804210171FFE7B2
:1066200013E02148407905280AD1FFE7009808497E
:10663000884204D8FFE71C4804210171FFE703E00A
:10664000194804210171FFE7FFE701B07047C04618
:10665000710C0000280B000081B0009012484079B6
:1066600004280AD1FFE700981149884204D3FFE7C4
:106670000D4805210171FFE713E00B48407906281A
:106680000AD1FFE700980949884204D8FFE7064885
:1066900005210171FFE703E0034805210171FFE7D0
:1066A000FFE701B07047C04684000020160D0000CF
:1066B000C60C000084B00390029101A81649018025
:1066C00000200090FFE70098029988421FD2FFE760
:1066D00001A801880A0A0902511801800399009A49
:1066E000895C019A4A4002800188CAB2120951406D
:1066F000018001880A03514001800188CAB2520119
:1067000051400180FFE70098401C0090DBE701A8A2
:10671000008804B07047C046FFFF000010B581B08C
:1067200001466A4610701078142242437848135884
:106730000124A343135001B010BDC04610B581B071
:1067400001466A461070107814224243704813586C
:1067500001242343135001B010BDC04610B581B0D1
:1067600001466A4610701078142242436848135854
:106770002024A343135001B010BDC04610B581B012
:1067800001466A461070107814224243604813583C
:1067900020242343135001B010BDC04670B581B012
:1067A00001466A461070107814231C46444358482A
:1067B00025580126B543255014781D46654300240D
:1067C0002C5010781D4645435F482C5010781D46CC
:1067D00045434D482C50107843434C481C5010788A
:1067E00080000F228240034803681343036001B016
:1067F00070BDC04604000240B0B586B0024605AB8D
:1068000018700491187802920193FFF787FF04989B
:10681000006801990A7814231C4654433A4AA05050
:10682000049880680A781C465443384AA05004985B
:10683000008A0A781C465443434AA05008781A46F6
:106840004243334812580392039A43F60074A2431A
:106850000392049A5468D5682C4352691443039AEE
:1068600022430392039A0C7863431A500498007EE3
:1068700001280AD1FFE705A80078142141432448E4
:106880000A5840231A430A5009E005A80078142149
:1068900041431F480A5840239A430A50FFE704988F
:1068A000407E01280AD1FFE705A800781421414362
:1068B00017480A5880231A430A5009E005A80078AF
:1068C0001421414312480A5880239A430A50FFE793
:1068D0000498807E00280AD1FFE705A800781421DB
:1068E00041430B480A5810239A430A5009E005A86F
:1068F00000781421414306480A5810231A430A50CD
:10690000FFE706B0B0BDC0461000024014000240D0
:106910000800024082B0024601AB18700091684640
:106920000088197814234B430749585002B0704728
:1069300081B001466A461070107814224243024822
:10694000105801B07047C0460C00024080B584B0BA
:10695000014603AA107002A80023037010780028D3
:10696000019008D0FFE7019801281CD0FFE70198AB
:1069700002281CD01CE014488078411E0229009097
:1069800004D3FFE70098032804D007E002A83C21C5
:10699000017007E002A82821017003E002A83C2151
:1069A0000170FFE708E002A80021017004E0FFE7A2
:1069B00002A85A210170FFE702A8027803480021CB
:1069C00001F03CFD04B080BD4A00002000440140BD
:1069D00081B0009000984749086001B07047C046F8
:1069E00064480168802211430160704780B584B01B
:1069F00003900F20000400F027F802A9087008781F
:106A000000281BD1FFE75B480168022211430160A7
:106A100003990C4B196001684023194301600F2151
:106A2000090401900846009200F00EF802A90870CF
:106A300001980168009A91430160FFE702A800787D
:106A400004B080BD1420024080B584B0039002A839
:106A500001210170FFE700F025F802A908700398F2
:106A6000401E0390FFE702A8007800210128019151
:106A700005D1FFE70398411E88410190FFE7019887
:106A8000C0070028E7D1FFE702A80078012804D159
:106A9000FFE702A805210170FFE702A8007804B013
:106AA00080BD000081B06846002101701148006877
:106AB000C007002804D0FFE768460121017015E0F7
:106AC0000C480068C006002804D5FFE7684604218A
:106AD00001700AE0074800684007002804D5FFE776
:106AE000684602210170FFE7FFE7FFE7684600788C
:106AF00001B070470C2002401E48006800060028C4
:106B000006D5FFE703480449016004490160FFE737
:106B10007047C0460420024023016745AB89EFCD92
:106B200080B586B0059004910F200004FFF78CFF1C
:106B300003A908700878002817D1FFE70D480168FD
:106B40000122114301600499059B19600F2109047A
:106B5000029008460192FFF777FF03A90870029898
:106B60000168019A91430160FFE703A8007806B02D
:106B700080BDC0461020024080B582B001900091D7
:106B800001A80178074801F079FEFFE705480649AA
:106B900001F0E1FE002801D1FFE7F7E7019802B01C
:106BA00080BDC046003801400707000010B587B01F
:106BB0000A46034605AC208004A801702F480390C4
:106BC0000020029038482E490160FFE72D480068F8
:106BD000012108400290FFE70398401E0390002126
:106BE0000028019105D0FFE70298411E88410190DD
:106BF000FFE70198C0070028E8D1FFE702980028C6
:106C000004D0FFE706A80021017033E004A8007853
:106C10001D49086019480390FFE71A4800680221DF
:106C200008400290FFE70398401E039000210028CF
:106C3000009105D0FFE70298411E88410090FFE7D0
:106C40000098C0070028E8D1FFE70298002804D088
:106C5000FFE706A8002101700CE005A800880B4999
:106C600008400B49086010480C49016006A8012142
:106C70000170FFE706A8007807B010BDFFFF0F0006
:106C8000555500000C30004004300040FF0F00005C
:106C9000083000400448014901607047AAAA00007A
:106CA000014802490160704700300040CCCC000030
:106CB00086B00590049103920598006A01900598AA
:106CC000406A009002A800210180FFE702A8008826
:106CD00007281ED8FFE702A800880399C140C8070B
:106CE000002810D0FFE702A8018889000F228A40FF
:106CF0000199914301910499008880008140019895
:106D000008430190FFE7FFE70298401C02A90880B2
:106D1000DCE702A808210180FFE702A800880F280D
:106D200020D8FFE702A800880399C140C8070028BF
:106D300012D0FFE702A80188890020390F228A407B
:106D40000099914300910499008880002038814087
:106D5000009808430090FFE7FFE70298401C02A953
:106D60000880DAE701980599086200980599486259
:106D700006B0704783B013460290019168460270D6
:106D80000078002804D0FFE701980299886103E0A9
:106D9000019802998862FFE703B0704783B00190C1
:106DA0000091019800690099084204D0FFE702A809
:106DB0000121017003E002A800210170FFE702A891
:106DC000007803B0704787B0069005910492039352
:106DD0000698006801900698C068009002A80021FB
:106DE0000180FFE702A800880F282CD8FFE702A83F
:106DF00000880399C140C80700281ED0FFE702A8F9
:106E000001884900032213468B400199994301915F
:106E1000059903885B009940019B0B43019301880E
:106E200049008A40009991430091049900884000EC
:106E30008140009808430090FFE7FFE70298401C5C
:106E400002A90880CEE70198069908600098069983
:106E5000C86007B0704710B586B00C46059004A80E
:106E60000170039202930078012806D1FFE702988F
:106E700005994A6802434A6005E0029805994A6804
:106E800082434A60FFE705988068009001A80021CE
:106E90000180FFE701A800880F281ED8FFE701A89E
:106EA00000880299C140C807002810D0FFE701A858
:106EB0000188490003228A40009991430091039977
:106EC000008840008140009808430090FFE7FFE7FA
:106ED0000198401C01A90880DCE7009805998860AA
:106EE00006B010BD80B582B040F60010019000F0F1
:106EF0003FFB019800F04EFB02B080BD80B584B02E
:106F0000002003900121C90642F6000201900846C4
:106F1000114600F06DF862B602A80199017000F008
:106F2000B1FCFFF7DFFF22480421FFF73FFE00908E
:106F3000FFF7B6FE00F022FFFCF76CFBFCF7E2FF68
:106F4000FCF7A2F8FDF7DCF9FDF7FCFBFDF7AEFC62
:106F5000FDF7FEFFFDF73AFDFCF704FFFCF75AFED4
:106F600001F042F8FDF78EF9FCF7D2FCFCF7E6F8E9
:106F7000FFE702A800210170FFE702A800780228BD
:106F800015DCFFE702A8007840000A49085A0028EB
:106F900007D1FFE702A8007880000749085880471A
:106FA000FFE7FFE70298401C02A90870E5E7E0E769
:106FB00071020000E80000200C00002010B586B02F
:106FC0000A46034605AC207004A80170217849B236
:106FD0000078039008460399029201930094FFF70A
:106FE00089F80098017848B2FFF72AF806B010BD7A
:106FF00082B00190009101980099044A1140084321
:1070000003490860BFF34F8F02B0704780FFFF1F36
:1070100008ED00E010B582B0014601AA10705D488D
:1070200003684CF20004A34303605B4803685B4CB5
:107030002340036010780928009000D9A6E000984A
:10704000810001A251188F4600F012B800F01CB860
:1070500000F026B800F02EB800F03BB800F046B8BB
:1070600000F056B800F061B800F071B800F07CB8DC
:10707000494801680122120491430160016840F20D
:1070800000129143016082E043480168012212042A
:1070900011430160016840F200129143016076E003
:1070A000F94801680160FB48016840F20012114391
:1070B00001606CE0F44801680160F6480168012253
:1070C000D20711430160016840F2001211430160D0
:1070D0005DE0ED48016844F2000211430160ED48B3
:1070E000016840F200121143016050E0E648016877
:1070F00044F2000211430160E64801680122D20710
:1071000011430160016840F20012114301603EE04A
:10711000DD48016848F2000211430160DD48016862
:1071200040F200121143016031E0FB48016848F26F
:10713000000211430160FD4801680122D20711439A
:107140000160016840F20012114301601FE0F24843
:1071500001684CF2000211430160F448016840F2FA
:1071600000121143016012E0EB4801684CF200028A
:1071700011430160ED4801680122D207114301600B
:10718000016840F200121143016000E0FFE702B025
:1071900010BDC0460410024030100240FFFEFE7FCA
:1071A0009CB001461BAA107000201A9019901890EC
:1071B00017901690159014901390129011901090B3
:1071C0000F900E900D900C900B90AD4A0A92AD4A24
:1071D0000992089007900692059004920390CE4879
:1071E00000680C22104080081A901A98002802901B
:1071F00008D0FFE70298012807D0FFE7029802288D
:1072000006D045E0A248169045E0A148169042E01D
:10721000C14801680F2292041140890C1091006846
:107220000121C9060840C00E0F900F98012804D113
:10723000FFE71098113010900BE010980F2803D141
:10724000FFE71020109003E01098801C1090FFE7DB
:10725000FFE7B1480068012109040840000C0E90C6
:107260000E9800280ED0FFE7AF4800680F210840B5
:10727000401C0D900D988649B1FBF0F010994143E8
:10728000169104E01098814941431691FFE702E00E
:107290007F481690FFE7A0480168C9B209090C9120
:1072A0000C9907AA515C0B9116990B9AD140159134
:1072B000016840F200721140090A0C910C9905AA6C
:1072C000515C0B9115990B9AD1401491006843F6CB
:1072D00000010840C00A0C900C9803A9085C0B90B0
:1072E00015980B99C84013901BA8007805280190A9
:1072F00000D9C1E00198810001A251188F46C04613
:1073000000F00AB800F00BB800F00CB800F00DB8AF
:1073100000F00EB800F081B816981790ADE01598FF
:107320001790AAE014981790A7E013981790A4E07C
:107330007E48006840F20011084088420FD0FFE705
:107340007A480068012109040840884203D0FFE719
:107350005248129002E050481290FFE75AE06E48FF
:10736000006880B2800B199070480068C00F1890B8
:107370001998032800904BD80098810001A2511859
:107380008F46C04600F006B800F013B800F020B8F1
:1073900000F02FB81898002804D1FFE71398400890
:1073A000129005E015980321B0FBF1F01290FFE771
:1073B0002FE01898002804D1FFE713988008129056
:1073C00005E015980521B0FBF1F01290FFE720E0F1
:1073D0001898002806D1FFE713980621B0FBF1F0BA
:1073E000129005E015980721B0FBF1F01290FFE72D
:1073F0000FE01898002804D1FFE71398C0081290F6
:1074000005E015980921B0FBF1F01290FFE700E0CC
:10741000FFE7FFE7129817902FE0444800688007C5
:10742000002803D1FFE71398119022E03F4800683D
:1074300003210840012803D1FFE71698119017E0B7
:107440003A48006803210840022804D1FFE748F2C7
:10745000000011900BE03548006803210840032824
:1074600003D1FFE70A48119000E0FFE7FFE7FFE7DD
:10747000FFE71198179000E0FFE717981CB07047DE
:1074800006070809010203040410024000093D0038
:1074900000127A0030100240003FAB01809FD500FF
:1074A000ED480168012211430160FFE7EA480068E6
:1074B0008007002801D4FFE7F8E7F14801680322BC
:1074C00091430160E4490A68144B1A400A6001685C
:1074D000134A114001600168124A114001601248CC
:1074E00001680F22914301601048016840F20312C5
:1074F000914301600168012213049943016001680E
:10750000D307994301600A48016891430160094823
:10751000002101607047C04604100240FFFFF2FEE8
:107520000C00FF08FFFFC2772C1002403010024011
:10753000341002400810024082B001466A461080B2
:1075400010888009C44BC05812881F231A40D040AD
:10755000C007002804D0FFE701A80121017003E063
:1075600001A800210170FFE701A8007802B0704770
:1075700010B581B001466A46108010881F2203466C
:10758000134001229A408009F34BC4581443C4505D
:1075900001B010BD80B58CB001460BAA1080002050
:1075A0000A9009AB187008AB187010880028079073
:1075B0006AD0FFE70798102816D0FFE70798182829
:1075C00000D1DAE040F600000799814234D0FFE7AD
:1075D00040F600100799814200D1A6E040F6005025
:1075E0000799814279D0F0E0FFE708A800780021F0
:1075F0000028069107D1FFE70A987B49401A411EEF
:1076000088410690FFE70698C007002809D0FFE7E9
:107610001120FFF791FF08A908700A98401C0A90F2
:10762000E3E71120FFF788FF002804D0FFE709A84F
:1076300001210170FFE7C9E0FFE708A800780021F9
:107640000028059107D1FFE70A986549401A411EB5
:1076500088410590FFE70598C007002809D0FFE79B
:107660006048FFF769FF08A908700A98401C0A9053
:10767000E3E75C48FFF760FF002804D0FFE709A8B4
:1076800001210170FFE7A1E0FFE708A800780021D1
:107690000028049108D1FFE70A9840F20051401AEF
:1076A000411E88410490FFE70498C007002809D0D4
:1076B000FFE70120FFF740FF08A908700A98401C67
:1076C0000A90E2E70120FFF737FF002804D0FFE728
:1076D00009A801210170FFE778E0FFE708A800781A
:1076E00000210028039107D1FFE70A983949401A81
:1076F000411E88410390FFE70398C007002809D086
:10770000FFE73648FFF718FF08A908700A98401CE1
:107710000A90E3E73148FFF70FFF002804D0FFE7A6
:1077200009A801210170FFE750E0FFE708A80078F1
:1077300000210028029107D1FFE70A982549401A45
:10774000411E88410290FFE70298C007002809D037
:10775000FFE72148FFF7F0FE08A908700A98401CCF
:107760000A90E3E71C48FFF7E7FE002804D0FFE794
:1077700009A801210170FFE728E0FFE708A80078C9
:1077800000210028019107D1FFE70A981149401A0A
:10779000411E88410190FFE70198C007002809D0E9
:1077A000FFE71920FFF7C8FE08A908700A98401CD7
:1077B0000A90E3E71920FFF7BFFE002804D0FFE797
:1077C00009A801210170FFE700E0FFE709A80078A0
:1077D0000CB080BDFFFF0F0001090000010D00008B
:1077E000FFFFFF0301080000FFFF000010B581B09C
:1077F00001466A46108010881F220346134001226A
:107800009A408009544BC4581443C45001B010BD71
:1078100010B581B001466A46108010881F220346C9
:10782000134001229A4080094B4BC4589443C450E2
:1078300001B010BD10B581B001466A4610801088B5
:107840001F220346134001229A408009424BC4582C
:107850001443C45001B010BD0010024082B001902A
:10786000002000903E480168009100990322914356
:1078700000910199009A1143016002B07047C0461F
:107880000410024080B584B0002003900290FFF7FE
:10789000E5FFFFF705FE3048016801221143016052
:1078A000FFE70398401C03902B4800680221084022
:1078B0000290FFE7029800210028019108D1FFE71C
:1078C000039840F20051401A411E88410190FFE7A1
:1078D0000198C0070028E4D1FFE71F48006880072F
:1078E000002802D4FFE7FFE7FEE71C4801680222F8
:1078F0001143052291430160194801680160016844
:107900000160016801600168164A11400160016868
:10791000154A114301601048016801221206114303
:107920000160FFE70C4800688001002801D4FFE7F0
:10793000F8E70B48016803229143016001680222C5
:1079400011430160FFE7064800680007002801D4E2
:10795000FFE7F8E704B080BD0010024000200240BD
:1079600004100240FFFFC2F70000040880B58CB08D
:107970003F48407801280B901FD0FFE70B98022862
:1079800030D0FFE70B98032841D1FFE70920C0065C
:10799000022100220A900991FFF7ECF935480121F4
:1079A000099A08911146089AFFF7E4F940F200118C
:1079B0000A98089AFFF7DEF92AE00920C00602219A
:1079C0000122079006910592FFF7D4F92948002279
:1079D0000699FFF7CFF940F200110798059AFFF7D3
:1079E000C9F915E00920C006022101220490039183
:1079F0000292FFF7BFF91F480399029AFFF7BAF9FD
:107A000040F2001100220498FFF7B4F900E0FFE70C
:107A100019480178491C017000788F4941438F480B
:107A200008180221C8418E4988421FD8FFE7134831
:107A3000007800280BD0FFE700200190FBF74AFCFC
:107A40000198FBF763FB0D48019901700AE00120E2
:107A50000090FBF73FFC0098FBF758FB07480099A4
:107A60000170FFE7044800210170FFE70CB080BD02
:107A70004A0000200004004839010020380100209D
:107A800080B582B07248007A0128019004D0FFE7E7
:107A90000198022812D018E06D480079042806DB0E
:107AA000FFE70020FBF716FCFBF704FB05E0FBF704
:107AB000E5FB0020FBF72AFBFFE706E00020FBF7D1
:107AC00009FC0120FBF722FBFFE702B080BDC046A6
:107AD00080B582B000200190FCF75CFD0198FBF7B7
:107AE00015FB0198FBF7F6FB02B080BD80B582B0B4
:107AF000574800790228019016D0FFE70198032823
:107B00000CD0FFE70198011F022914D8FFE70020DD
:107B1000FBF7E0FB0120FBF7F9FA0DE0FBF7AEFB0A
:107B20000020FBF7F3FA07E00120FBF7D3FB00206E
:107B3000FBF7ECFA00E0FFE702B080BD80B588B04B
:107B400043480079401E052807907DD8079881009A
:107B500001A251188F46C04600F047B800F016B891
:107B600000F00DB800F004B800F002B800F000B862
:107B70000020FBF7AFFB0120FBF7C8FA65E001200E
:107B8000FBF7A8FB0020FBF7C1FA5EE03148017863
:107B9000491C0170002106900846FBF7B7FA0698C9
:107BA00001782D4A4A432D4951180222D1412C4ACD
:107BB000914219D8FFE72B480078002808D1FFE749
:107BC00001200590FBF786FB26480599017007E028
:107BD00000200490FBF77EFB224804990170FFE728
:107BE0001C4800210170FFE7FFE71A480178491C93
:107BF0000170002103900846FBF788FA039801788A
:107C0000154A4A43154951180222D141144A91425A
:107C100019D8FFE713480078002808D1FFE70120B2
:107C20000290FBF757FB0F480299017007E0002014
:107C30000190FBF74FFB0B4801990170FFE70548E6
:107C400000210170FFE700E0FFE708B080BDC046FB
:107C5000840000203B010020CDCCCCCC9899991910
:107C6000CCCCCC0C3A01002083B0002002900190D3
:107C700030480168012211430160FFE70298401C6F
:107C800002902C480068022108400190FFE701980B
:107C900000210028009108D1FFE7029840F200512E
:107CA000401A411E88410090FFE70098C007002855
:107CB000E4D1FFE71F4800688007002802D4FFE7EF
:107CC000FFE7FEE71C4801680222114305229143A9
:107CD00001601A4801680160016801600168016083
:107CE0000168174A114001600168164A114301609A
:107CF000104801680122120611430160FFE70D4898
:107D000000688001002801D4FFE7F8E70B4801680C
:107D10000322914301600168022211430160FFE7E1
:107D2000064800680C210840082801D0FFE7F7E763
:107D300003B07047001002400020024004100240CF
:107D4000FFFFC2F70000040880B5FFF78DFF80BD7C
:107D500081B000900098042806D1FFE7064801682A
:107D600004221143016005E00348016804229143A5
:107D70000160FFE701B0704710E000E080B582B01D
:107D80000420FFF7E5FF0848006840F2E831B0FB47
:107D9000F1F0FDF77DF90021CA4301901046FEF78E
:107DA00069F902B080BDC0460800002080B586B0E9
:107DB0003B48007E002803D0FFE700F0BBF86DE0F1
:107DC0003748006900283CD0FFE736480178491C55
:107DD00001700078652833DBFFE73248002101702D
:107DE0003148007800280BD0FFE70920C00640F298
:107DF00000110122FEF7BEFF2B48002101701EE09A
:107E00000920C00602210022059004910392FEF78A
:107E1000B1FF74480499039AFEF7ACFF40F20011D9
:107E20000598039AFEF7A6FF01200290FBF752FA8D
:107E30000298FBF76BF91C4802990170FFE7FFE716
:107E40002BE018480021017017480078002811D055
:107E5000FFE76448022101220192FEF78BFF09200F
:107E6000C00640F20011019AFEF784FF0E4800217F
:107E7000017011E00920C00640F200110022FEF757
:107E800079FF01200090FBF725FA0098FBF73EF9F7
:107E9000054800990170FFE7FFE7FFE706B080BDE6
:107EA000F00000203D0100203C01002080B582B0A0
:107EB000014601AA10801E480089002804D1FFE76E
:107EC0000120FBF72DFF25E019480189C088814278
:107ED00004D1FFE70020FBF723FF1AE014480189D3
:107EE000C088401C814204D1FFE70120FCF740FD1F
:107EF0000EE00F480189C08801AA12888018401C32
:107F0000814204D1FFE70020FCF732FDFFE7FFE7E5
:107F1000FFE7FFE706480189491C018100892828FD
:107F200004DBFFE7024800210181FFE702B080BDCA
:107F30004A00002080B588B028480178491C0170AB
:107F40000078332847DBFFE72448002101702448EC
:107F5000007800281FD0FFE70920C0060221012277
:107F6000079006910592FEF705FF1E480699059AAF
:107F7000FEF700FF40F200110798059AFEF7FAFE9F
:107F800000200490FBF7A6F90498FBF7BFF814480B
:107F9000049901701EE00920C0060221002203900E
:107FA00002910192FEF7E6FE0E480299019AFEF751
:107FB000E1FE40F200110398019AFEF7DBFE01207A
:107FC0000090FBF787F90098FBF7A0F804480099A8
:107FD0000170FFE7FFE708B080BDC0463F01002009
:107FE0003E0100200004004880B58EB0264806906F
:107FF0002648FFF7FBFBE648059000F0B7FA07A814
:10800000049000F0CFFB06980088049908800020B7
:1080100048808880069A52880992C8800873059A19
:108020000390104600F01EFB0BA8029000F083FAAC
:10803000012002990880039A4A808A80CA800A81B6
:108040004A81059B019018461146029A00F02AF8D1
:10805000069882880598039900F0F0F97022059837
:10806000039900F099F905980399039A00F012FA20
:108070000598019900F07DFB059800F009F8059836
:1080800000F0E6FA0EB080BD1E00002011060000D0
:1080900081B000900098016880221143016001B016
:1080A0007047000084B00B46039002A80180019243
:1080B00000880328009000D963E10098810001A2A4
:1080C00051188F4600F006B800F063B800F0CBB846
:1080D00000F023B90398016A0122914301620398D9
:1080E00081690322914381610198008803990A6A9A
:1080F00002430A620398016A0222914301620198D5
:10810000808803990A6A02430A6203989E4988425A
:108110000FD0FFE703989D4988420AD0FFE70398F4
:108120009B49884205D0FFE703989A4988422FD19E
:10813000FFE70398016A0422914301620198408895
:1081400003990A6A02430A620398016A082291436A
:1081500001620198C08803990A6A02430A6203987F
:10816000416840F2001291434160019800890399EF
:108170004A6802434A600398416840F200229143F2
:1081800041600198408903994A6802434A60FFE7C9
:10819000F8E00398016A1022914301620398816913
:1081A00040F20032914381610198008800010399F7
:1081B0000A6A02430A620398016A2022914301621B
:1081C00001988088000103990A6A02430A620398B1
:1081D0006D49884233D1FFE70398016A40229143F9
:1081E000016201984088000103990A6A02430A6209
:1081F0000398016A8022914301620198C0880001BE
:1082000003990A6A02430A620398416840F20042F5
:108210009143416001980089800003994A680243B4
:108220004A600398416840F600029143416001981A
:108230004089800003994A6802434A60FFE7039837
:10824000524988420ED1FFE70398416840F200424C
:108250009143416001980089800003994A68024374
:108260004A60FFE78EE00398016A40F200129143F2
:1082700001620398C16903229143C161019800889A
:10828000000203990A6A02430A620398016A40F2F3
:1082900000229143016201988088000203990A6AD2
:1082A00002430A620398E449884235D1FFE7039804
:1082B000016A40F200429143016201984088000245
:1082C00003990A6A02430A620398016A40F60002AF
:1082D000914301620198C088000203990A6A02432F
