:020000040800F2
:1028000058050020E128000851480008F140000860
:1028100000000000000000000000000000000000B8
:10282000000000000000000000000000ED2800088B
:102830000000000000000000EF2800080D52000812
:10284000F3280008F3280008F3280008F3280008FC
:10285000F3280008F3280008F3280008F3280008EC
:1028600000000000F3280008F3280008F3280008FF
:10287000F3280008F3280008F328000800000000EF
:10288000F3280008F328000800000000F3280008DF
:10289000F3280008F3280008F3280008F3280008AC
:1028A000F3280008F3280008F3280008296300082B
:1028B000F3280008000000000000000000000000F5
:1028C000F328000800000000F328000803488546AC
:1028D00000F01AFB0048004741720008580500202C
:1028E0000448804704480047FEE7FEE7FEE7FEE7AE
:1028F000FEE7FEE771560008CD280008002800DA40
:1029000040427047F0B507460846584087B0C00FB0
:10291000049048000E46590040084908BC1A8841F6
:1029200005D2384631461E4617460B460246580029
:10293000400810434CD0300D039040055900400D25
:10294000490D0590401A0290402872DA18030121BF
:10295000000B09050843019004980092002805D057
:102960000199524200208841009201900298402132
:102970000A1A0199009800F0D5F905460C466B46F5
:1029800007CB00F0F0F9C0197141039A0E0D002336
:10299000D71756401A467A40164344D0049A002A64
:1029A0002DD0029A012A039A15DC1205C01A914112
:1029B00001263605001C7141D20F059ED2070093F7
:1029C000019202962A46234600F0EDF907B0F0BDC9
:1029D00038463146FAE71605224A0F46B218C01AA1
:1029E000B74101210905001C4F4100187F411146E4
:1029F00018187941E20F10436D19644113E0E207A2
:102A00006D0815436408C2071443039A0126120592
:102A1000C01A91413605001C7141CE074008304371
:102A20004908C01851412A46234600F0AFF9CDE7C6
:102A3000FFE7049801224000C117121A00238B41BE
:102A400004983146C417381AA141EEE730B4012486
:102A5000E407634030BC55E730B40124E40761402B
:102A600030BC4FE70000E0FFF0B51FB488B00B9911
:102A70000998002448400999C00F49004908099164
:102A8000C0070B990090490049080B9109990898D3
:102A9000A64608431CD00B990A98084318D00998F9
:102AA00001244000420D4800410D0998240500030F
:102AB000000B204309900B980003000B20430B9060
:102AC00050181C494018002201901446104605E099
:102AD000002001460DB0F0BD032801DA034600E0F6
:102AE00003239C46C11A0AAE0AE05F0008ADED5B05
:102AF0004F00F75B7D430027AA187C41491C5B1EF1
:102B00006145F2DD410004AB5A522104120C0A4324
:102B1000240C401C0828DFDB0198029000997046C5
:102B200001910090059B049A0799069800F03BF9E3
:102B3000D0E700000DFCFFFFF0B50C465C4085B00F
:102B4000E40FE40703944C000026640859009446FF
:102B5000490802460296224321D062460A431ED00B
:102B60006200570D4A000E032303550D012402464F
:102B70002C492405781B1B0B360B40182343264396
:102B8000614600901C46501AB44103D30098401C83
:102B9000009002E0921800985B41002803DA0020C0
:102BA000014605B0F0BD0020012109050746864613
:102BB00011E064461D46141BB54106D36546521B01
:102BC000B341744607430C43A646CD074008490865
:102BD000284392185B4105460D43EAD1104618433D
:102BE00013D06046194650407140084306D06046F5
:102BF000101AB34106D20122002306E0002201236D
:102C0000DB0702E00122D24353100098744601050D
:102C1000381C6141029C039D0019694100F0B6F81F
:102C2000BFE70000FD0300000EB5C217C10F504002
:102C3000CA0740180021054B0293019200910A46F1
:102C40000B4600F0B0F803B000BD000033040000F4
:102C500070B5CD0F4A0009030123090B1B05194369
:102C60000B4BED070024520D9A4201DA002070BD93
:102C7000074B34339A4203DC9A1A00F063F802E0FF
:102C80000449511888402C43F1D0404270BD0000E7
:102C9000FF030000CDFBFFFF30B50B4601460020CF
:102CA0002022012409E00D46D5409D4205D31D4652
:102CB0009540491B2546954040191546521E002D4A
:102CC000F1DC30BDF0B51FB40646002082B00546E9
:102CD0004024019100901BE0019922460F463046A6
:102CE00000F030F8049A059B801A994110D31046E1
:102CF0001946224600F016F8361A8F4101972246EF
:102D000001200021009F00F00DF838184D4100907F
:102D10002046641E0028DFDC019B009829463246CD
:102D200007B0F0BD10B5202A04DB0146203A9140DF
:102D3000002010BD914020239C1A0346E340194314
:102D4000904010BD10B5202A04DB0846203AD04040
:102D5000002110BD0B46D340D0402024A21A914040
:102D60000843194610BD10B5202A06DBCB170846CC
:102D7000203A1041C1170B4306E00B461341D040E7
:102D80002024A21A91400843194610BD10B5002B0B
:102D900008DA0024401C614192185B411A4301D1BA
:102DA0004008400010BDF0B51FB482B005460C00CD
:102DB00003D0084606F02AF802E006F027F8203093
:102DC0000246009021462846FFF7ACFF049B059A77
:102DD00004460F4618431143084314D018461043C5
:102DE0001BD0009840210A1A18460599FFF7AAFF40
:102DF00005460E46009A05990498FFF793FF08438D
:102E000005D0012004E02046394607B0F0BD00207F
:102E1000C11705430E432C43374300990E986305B1
:102E2000401A7905E40A00220C43FD0A0A3002D553
:102E300000200146E9E70105101969410C9C0D9D30
:102E400000196941FFF7A2FFDFE770B54B005B088F
:102E500003430BD04B005C0D002633466542B34163
:102E6000D417AD1AA34102DB0020014670BD120544
:102E70003018514170BD00004A0009030123090BBD
:102E80001B0519430A4B10B5520D9A4202DA002075
:102E9000014610BD064B34339A4203DC9A1AFFF701
:102EA00051FF10BD034BD218FFF73CFF10BD0000CF
:102EB000FF030000CDFBFFFF10B5002904DB012458
:102EC000E40740428C412146002B04DB1C460123D1
:102ED000DB075242A3418B4200D1824210BD000069
:102EE00010B5002904DB0124E40740428C4121464F
:102EF000002B04DB1C460123DB075242A34199420D
:102F000000D1904210BD0000064C0125064E05E0A0
:102F1000E36807CC2B430C3C98471034B442F7D3FA
:102F2000FFF7D8FCE09E0008009F000880B5054828
:102F300004F0FEFD40F2005004F0FAFD062004F01B
:102F40000BFA80BD0906000080B588B0022001217F
:102F50000790069103F06CFC40F20010069903F014
:102F600067FC0020059003F0FBFA0420069904900A
:102F70000846049903F0C0FA052005990390084615
:102F80000799039A03F084FB0320069902900846F0
:102F90000299039A03F07CFB07980499039A03F0C3
:102FA00077FB02980399039A03F072FB0720410410
:102FB000069803F045FB0698069903F0FDFA03F026
:102FC000EDFA0A20019000F00BFB03F079FA01986A
:102FD00000F006FB03F0DAFA069803F007FC08B0ED
:102FE00080BD000080B58AB00020029003F078FD1B
:102FF0001048039003A8029901760F4A0592012216
:10300000427640F20012049240F20042069281762B
:103010000422079242F200020892019008460199A8
:1030200003F08CFD029803F04BFD029803F028FD9D
:103030000AB080BD4C2401404001002080B584B01E
:103040008E4804F075FD8E4804F072FD0920C0061C
:1030500003210022042303900291019204F055F809
:10306000082303980299019A04F04FF8102303985B
:103070000299019A04F049F8202303980299019AD1
:1030800004F043F804B080BD80B5FFF74FFFFFF7B1
:10309000D5FFFFF7A7FFFFF757FF80BD81B0009076
:1030A00003480168009A11610099016001B07047FE
:1030B0004801002080B517480178491C0170164866
:1030C0000078002810D1FFE71448642101701148EE
:1030D0000078332807DBFFE70E48002101700E4817
:1030E00001210170FFE70EE00C48502101700948F2
:1030F0000078332806DBFFE7064800210170064808
:103100000170FFE7FFE7054802788A48012105F0D2
:103110003DFB80BD280000202A000020290000205F
:1031200080B582B0014601AA10701078012806D13E
:10313000FFE780480121002205F028FB05E07D48DB
:103140000121642205F022FBFFE702B080BDC046EA
:1031500080B594B0494804F0EBFC494804F0E8FC21
:1031600048480221002201230C900B910A920993F6
:1031700003F0CBFF03200C99089008460A99089A9F
:10318000099B04F00AF80C980999099A03F032FF98
:103190000920C006802107900B9A069111460A9AD1
:1031A000069B03F0B2FF07980A99089A069B03F062
:1031B000F4FF07980999069A03F01CFF324804F0BF
:1031C000B7FC5C48059005F079FB0DA8049005F06C
:1031D00091FC2E48049908800A98488088806322D0
:1031E0000F92C8800873059805F0E4FB11A80390BE
:1031F00005F049FB0998039908800A9A4A808A8059
:10320000CA8040F200130B8140F200234B810598E5
:103210000999039A05F0EEF805980B99039A05F0C1
:10322000E9F864200599029008460999029A05F088
:10323000ADFA05980B99029A05F0A8FA6020059955
:10324000019008460999019A05F04EFA05980B99E4
:10325000019A05F049FA059809990A9A05F0C2FA07
:1032600005980B990A9A05F0BDFA059805F0B8F88B
:10327000059805F095FB14B080BDC046110500000F
:10328000120500000004004801070000CF02000002
:1032900080B519480178491C01700078042801DCC8
:1032A000FFE728E014480021017014480078002846
:1032B0000DD1FFE712480178491C0170007864289D
:1032C00004DBFFE70D4801210170FFE70CE00C482B
:1032D0000178491E01700078502804DCFFE7074898
:1032E00000210170FFE7FFE705480278114802213D
:1032F00005F04CFAFFE780BD2B0000202D000020D8
:103300002C00002080B582B0014601AA1070107810
:10331000012806D1FFE707480221002205F036FA0E
:1033200005E004480221642205F030FAFFE702B00C
:1033300080BDC0460004004080B536480178491C75
:1033400001700078312801DCFFE761E0314833216A
:1033500001703148007863280BDCFFE78D488088D6
:103360002E490A68101808602B480178491C017022
:103370004EE02A4801686422B1FBF2F10160016865
:103380007A4A116000682649884204D8FFE77748E6
:103390000121017133E0214800682249884204D8A4
:1033A000FFE772480121017128E01C4800681E49AE
:1033B000884205D8FFE71948006803F097FA1CE037
:1033C000164800681949884205D8FFE71348006885
:1033D00003F0B8FA10E01148006840F64051884206
:1033E00005D8FFE70D48006803F0D8FA03E05F480E
:1033F00006210171FFE7FFE7FFE7FFE7FFE7F74877
:103400000179417104480021017004480160FFE71F
:1034100080BDC0462E0000202F000020300000207C
:10342000B2090000570A0000FD0A00009B0C0000D2
:1034300080B586B005A80021018004A8017003A80A
:1034400001704748007809280BDCFFE751484088A5
:1034500043490A785200434B98520878401C087040
:103460007CE03F480021017004A80170FFE704A838
:103470000078082835DCFFE703A800210170FFE78A
:1034800003A8007804A909780922511A884222DA8F
:10349000FFE703A80078400032490A18085A51880B
:1034A000884212DDFFE703A8017849002D4A515AEE
:1034B00005AB19800178490053185B885352059970
:1034C0000078400080184180FFE7FFE70398401C28
:1034D00003A90870D4E7FFE70498401C04A908700A
:1034E000C5E7204800892049884232DCFFE71D48B3
:1034F0000189704A4A431E4B591A92FBF1F101812E
:103500000089FFF791FB00221A4B0292FFF714FB90
:1035100006F06CF9184B029AFFF70EFB174A184B8E
:10352000FFF7F0F9174A029B0190184600911146E7
:10353000019A009BFFF700FB134A144BFFF7E2F9D7
:10354000134B029AFFF790FAFFF782FBA349C8805A
:1035500004E0A24840F27031C180FFE706B080BDB0
:103560004800002034000020D70E00008C0000200E
:10357000FF0F00000088C34000DCAE404AF1F109B3
:10358000D9796B3F0000F03F66666666661271C0CF
:10359000000024404001002080B586B00F4804F0B0
:1035A000C7FA4548019005F089F902A8009005F096
:1035B000A1FA4720009908800020488088803D4A71
:1035C0000492C880019805F0F5F90121019805F0F1
:1035D0006FFA019805F0E4F906B080BD120600000C
:1035E00080B582B0014601AA1080684600220280A0
:1035F000FFE76846008801A9098888420ADAFFE7E0
:1036000040F2E83000F008F8FFE70098401C6946F7
:103610000880EEE702B080BD80B588B0014607AAF9
:10362000108005A80022028004AB1A8003AB1A8028
:1036300002AA204B1380079A06AB1A801E4A0190FB
:103640001046009105F030F901990880FFE71A480B
:1036500005F02AF904A90880088805A90988884284
:1036600025D0FFE704A8008805A90988884208DD5D
:10367000FFE704980599401A0399081803A90880E0
:1036800009E002980599401A04994018039908180E
:1036900003A90880FFE7049805A9088003A800880B
:1036A00006A90988884201DBFFE701E0FFE7CEE7D2
:1036B00008B080BD102700000048014080B584B0EC
:1036C000A94800780528039000D983E00398810079
:1036D00001A251188F46C04600F00AB800F019B890
:1036E00000F03FB800F076B800F063B800F06EB8B4
:1036F0003D480178491C01700078032808DBFFE78A
:103700000920C00640F20041002203F0D5FCFFE78B
:1037100061E095484189491C418140893C280DDB85
:10372000FFE76E481021012203F0C6FC40F2F410BE
:10373000FFF756FF002001F033FF11E0F4488089C5
:10374000F0280CDBFFE765481021012203F0B4FCF0
:10375000C820FFF745FF002001F022FFFFE7FFE749
:1037600039E0EB48C189491CC181E548007902284C
:103770000FDCFFE7E648C089042809DBFFE71948AA
:1037800005F034FB00210290084601F009FFFFE735
:103790000EE0DF48C089032809DBFFE7104805F089
:1037A00025FB00210190084601F0FAFEFFE7FFE744
:1037B000FFE7D748018A491C0182008A032804DBFD
:1037C000FFE7002001F0ECFEFFE704E0D048002115
:1037D000418100E0FFE704B080BDC0468C000020BE
:1037E0007B9E0008929E00086400002080B584B093
:1037F0000020039002902D48006803900398002851
:1038000004D0FFE70398042806D3FFE701200390C4
:10381000BE481E21018129E00398BD4988701448E3
:10382000006802900298FFF769F8632804DCFFE75C
:103830000298B649088103E0B44800210181FFE7FE
:103840000C480068AF490876087E0B4A0190104684
:10385000019A0091114605F0C9FA00990A7E022AE0
:1038600004DBFFE7A74800210176FFE704B080BD35
:1038700004F8000808F80008C79E000880B584B066
:103880000020039002900190A148807801909F4809
:103890000821405E02909B48007E0390034801A9E6
:1038A000032200F0D1FA04B080BDC04600F8000841
:1038B00080B503F091FBCB481021012203F0FCFB03
:1038C000C820FFF78DFE0920C00640F2004100220B
:1038D00003F0F2FB024805F089FA80BD00040048BD
:1038E000429D000880B582B0894800210170417076
:1038F000C17001818181C1810190FFF777FF01983B
:10390000807800F003F802B080BDC04682B0014666
:1039100001AA107001987E4A90709078012800905A
:1039200008D0FFE7009802280AD0FFE70098032894
:103930000CD011E076480A2181800121C18011E07C
:1039400073480C2181800121C1800BE070480E2159
:1039500081800121C18005E06D480A21818001211B
:10396000C180FFE702B070475000002080B584B0EE
:1039700003A80021018062480079032805DBFFE7E6
:1039800060480078012808D1FFE70020029001F08C
:1039900079F8029800F0AEF9AFE001F0E7FE03A974
:1039A000088059480188491C0180584840780128FE
:1039B0005BD1FFE75648002141815448C1708078AF
:1039C000002807D1FFE7514801218170514805F0D7
:1039D0000DFAFFE74C48008840F2E831884208DBE6
:1039E000FFE749480021018049488189491C8181BC
:1039F000FFE747480089002804D1FFE7012000F0D5
:103A000079F925E042480189C088814204D1FFE765
:103A1000002000F06FF91AE03D480189C088401C81
:103A2000814204D1FFE7012001F02CF80EE0384874
:103A30000189C08803AA12888018401C814204D1E1
:103A4000FFE7002001F01EF8FFE7FFE7FFE7FFE7D1
:103A50002F480189491C018100891E2804DBFFE7EA
:103A60002B4800210181FFE73FE02748008840F212
:103A7000E831884217DBFFE7234800210180234813
:103A8000807800280ED0FFE72048C178491CC1701B
:103A9000C0781E2805DBFFE71C4800218170C1703B
:103AA000FFE7FFE7FFE7002000F024F9184800894E
:103AB0000128019004D0FFE70198062804D007E010
:103AC000012000F0DFFF03E0002000F0DBFFFFE754
:103AD0000F480189491C01810089192804DBFFE78F
:103AE0000B4800210181FFE7FFE708480078012823
:103AF00003D1FFE701F0BAF8FFE704B080BDC0468C
:103B00008C00002004010020660000209A000020A4
:103B100050000020B09E000880B58AB040F20050EE
:103B200004F006F80220029002F0DAFF03A8002158
:103B300081760E4A0592012242760691142207925E
:103B40000B4A03920176049143F200010891029915
:103B500001900846019902F0F1FF029802F0A0FFDF
:103B6000029802F08DFF0AB080BDC0462A010020F5
:103B70002438014080B586B0194803F0D9FF1948B0
:103B80000021402205900491039203F033FA802033
:103B90000599029008460499029A03F02BFA022034
:103BA0000121059A01901046019B00911946009A47
:103BB000039B03F0AAFA05980499009A039B03F06B
:103BC000ECFA05980199009A029B03F09EFA059879
:103BD0000499009A029B03F0E0FA06B080BDC0464B
:103BE000120500000004004880B582B000F03CF8E7
:103BF000FFF792FFFFF7BEFF194803F099FF3A481D
:103C0000019004F0EFFFE1204102019804F086FFEB
:103C10000421019805F0CBF80821019805F0D6F8A9
:103C20004021019805F008F88021019805F013F86B
:103C3000019805F01FF8FFE72B480A4905F033F813
:103C4000002801D1FFE7F7E727480649009005F073
:103C50001AF80421009805F043F802B080BDC04670
:103C60000E0600000407000080B51B20002103F0B1
:103C700047FB80BD80B584B00A46039002A801705E
:103C800001A8002101806B4619800180FFE701A88F
:103C9000008802A90978884223DAFFE768460021F4
:103CA0000180FFE71048114904F0FDFF00280BD107
:103CB000FFE70098401C6946088008880C49884244
:103CC00001DBFFE700E0EDE7039801A90988415C0B
:103CD000054804F07BFFFFE70198401C01A908801C
:103CE000D5E704B080BDC04600380140070700009A
:103CF0008913000080B582B0014601AA10701048F7
:103D000000781278904201D1FFE712E001980C4947
:103D100008700878012806D1FFE700F013F80120A9
:103D200002F0B6FF05E0022002F0B2FF00F06CF8EE
:103D3000FFE702B080BDC046014800210170704716
:103D40006800002080B590B02E480F900920C00672
:103D50000221002240F2002307900691059204936D
:103D600003F0D3F9032207980599049B03F015FA91
:103D700007980699049A03F03DF908A8039004F007
:103D8000B9FE0F98008803990880059848808880BC
:103D90000F9A52880A92C88008732A4A10460292E3
:103DA00004F008FE0CA8019004F06DFD01200199BB
:103DB0000880059A4A808A80CA800A814A81029BCB
:103DC000009018460099019A04F014FB0F9882881D
:103DD0000298009904F0DAFC60220298009904F03D
:103DE00083FC02980099059A04F0FCFC0298009963
:103DF00004F067FE029804F0F3FA029804F0D0FD94
:103E000010B080BD1800002080B584B00D4804F0CB
:103E100055FD0920C0060121002240F20023039035
:103E200002910192009303F070F903980199029AAC
:103E3000009B03F0B2F903980099019A03F03CF952
:103E400004B080BD002C014010B58AB01346099023
:103E5000089107A802800020069005A90880099A09
:103E60001F24E4061219920A069204930390029109
:103E700002F0E4FF3420019002F04CFF069880022B
:103E80000121C906401802F053FF0199009008462D
:103E900002F040FF039802990880FFE705A8008818
:103EA00007A9098888420FDAFFE7099805A9098858
:103EB00089004018089A515802F0D4FFFFE705988E
:103EC000401C05A90880E9E7342002F023FF02F036
:103ED00029FF0AB010BD000080B58CB0664803F021
:103EE00027FE664803F024FE00F0CAF80920C00649
:103EF0000121002248F200030B900A9109920893D5
:103F000003F003F90B9809990A9A089B03F045F905
:103F10000B980899099A03F0CFF8E94807900A9995
:103F2000099A0A9B03F0F1F8079809990A9A0A9BE3
:103F300003F033F907980A990A9A03F0BDF8802034
:103F40000B99069008460A99099A069B03F0DDF83A
:103F50000B9809990A9A069B03F01FF90B9806998A
:103F60000A9A03F0A9F802200B99059008460A99CD
:103F7000099A059B03F0C9F80B9809990A9A059BC1
:103F800003F00BF90B9805990A9A03F095F8079836
:103F90000A99099A059B03F0B8F8079809990A9AB3
:103FA000059B03F0FAF8079805990A9A03F084F83C
:103FB00040F200100B99049008460A99099A049B54
:103FC00003F0A3F80B9809990A9A049B03F0E5F80B
:103FD0000B9804990A9A03F06FF820200799039030
:103FE00008460A99099A039B03F08FF807980999E4
:103FF0000A9A039B03F0D1F8079803990A9A03F0F1
:104000005BF840F200200B99029008460A99099A41
:10401000029B03F07AF80B9809990A9A029B03F025
:10402000BCF80B980299099A03F046F840200B99C6
:10403000019008460599099A019B03F066F803224E
:104040000B980999019B03F0A8F805210B98019A98
:1040500002F0D0FF40F200400B99009008460A9908
:10406000099A009B03F051F80B9809990A9A009B52
:1040700003F093F80CB080BD11050000120500009C
:1040800080B586B00920C00648F2000100220590E4
:10409000049203F011F8B348012103900291029AAF
:1040A00003F00AF880210598029A03F005F802202F
:1040B0000599019008460199029A02F0FDFF0398C4
:1040C0000199029A02F0F8FF40F200110598029A55
:1040D00002F0F2FF20210398029A02F0EDFF40F275
:1040E00000210598049A02F0E7FF06B080BDC046A3
:1040F000FFE7FEE710B586B0014605AA10706A48D2
:104100000023438110780528049000D9C9E0049861
:10411000810001A251188F4600F03FB800F07CB832
:1041200000F006B800F0BCB800F0BBB800F0B8B8BA
:104130005D4800780528039021D80398810001A2EA
:1041400051188F4600F00AB800F018B800F006B811
:1041500000F015B800F013B800F010B85748007917
:1041600003280ADBFFE7012001F01AFA40F2F411FC
:104170000290084600F04AFBFFE70DE0FFE77948B0
:104180001021012202F098FF40F2F410FFF728FA04
:10419000002001F005FAFFE784E04348007800289A
:1041A0000BD1FFE70920C00640F20041012202F0D6
:1041B00083FF3F4804F01AFEFFE73B4800780328DE
:1041C00029D1FFE74348C078002805D1FFE74148DF
:1041D00040F2F4118180FFE73E488088002819D022
:1041E000FFE73C48C178491CC170C078052810D150
:1041F000FFE7304804F0FAFD2F490F224A700122F0
:104200000A70294B05241C700A7300220A614A6156
:10421000FFE7FFE7FFE745E023480078012805D0E6
:10422000FFE72148007805282BD1FFE71E48C0781A
:1042300000280FD1FFE71C488178491C81708078E5
:10424000032806DBFFE718480121C17003218170B4
:10425000FFE70EE014488178491E817080780128BC
:1042600006DCFFE710480021C17001218170FFE7E3
:10427000FFE70D488078FFF749FB012000F0B8F90F
:10428000FFE709480078002809D1FFE7074804F054
:10429000ADFD02210190084601F082F9FFE701E03F
:1042A00000E0FFE706B010BD50000020609E00084F
:1042B0006E9E0008439E0008040100208C00002030
:1042C0000004004880B503480349044B002200F075
:1042D00007F880BD6C000020F14F0008F540000891
:1042E00010B584B014460390029101A802700093A7
:1042F0000398002802D1FFE7FFE7FEE70398017863
:10430000F0221140891D0170019803990A788007F5
:10431000800ECF231A4010180870039800214170B6
:10432000039881700398C18002980399886000986F
:104330000399C8600398FEF7B1FE04B010BD0000F9
:1043400080B5064803F0F4FB054803F0F1FBEC48A8
:1043500000210122082302F0D8FE80BD11050000D3
:10436000120500000004004880B58AB00990099841
:104370008068804708A90870087809990978890930
:10438000884217D0FFE709988078312805DCFFE7DD
:1043900009988178891C81700FE1089809990A7839
:1043A00080013F231A40101808700998002181707D
:1043B000FFE7FFE7099800780F21084000280790E1
:1043C00009D0FFE70798022848D0FFE7079804289C
:1043D00000D185E0C6E008A8007809990978890627
:1043E000890F884222D1FFE70998C188891CC180C2
:1043F0000998C0887249884217DBFFE709980021B5
:10440000C18009980178F0221140891C0170099837
:10441000C068002808D0FFE70998C068022106900C
:10442000084606998847FFE7FFE716E0099800214C
:10443000C18009980178F0221140491C0170099847
:10444000C068002808D0FFE70998C06801210590DE
:10445000084605998847FFE7FFE7A0E008A800782D
:10446000099909788906890F884221D1FFE70998BF
:10447000C188891CC1800998C088962817DBFFE78E
:1044800009980021C18009980178F0221140091D86
:1044900001700998C068002808D0FFE70998C06833
:1044A00004210490084604998847FFE7FFE716E0D7
:1044B00009980021C18009980178F0221140C91C97
:1044C00001700998C068002808D0FFE70998C06803
:1044D00003210390084603998847FFE7FFE75EE062
:1044E00008A80078099909788906890F884221D19E
:1044F000FFE70998C188891CC1800998C08896285F
:1045000017DBFFE709980021C18009980178F022A4
:104510001140091D01700998C068002808D0FFE704
:104520000998C06804210290084602998847FFE76D
:10453000FFE716E009980021C18009980178F02270
:104540001140491D01700998C068002808D0FFE794
:104550000998C06805210190084601998847FFE73E
:10456000FFE71CE008A80078099909788906890FF7
:10457000884213D1FFE709980178F02211400170B9
:104580000998C068002808D0FFE70998C068002192
:104590000090084600998847FFE7FFE7FFE7099882
:1045A0008088002805D0FFE709988188491E81800E
:1045B00003E009980021C170FFE70AB080BDC04642
:1045C000DC05000080B582B0084800680190FFE774
:1045D0000198002808D0FFE70198FFF7C5FEFFE724
:1045E000019800690190F3E702B080BD4801002006
:1045F00080B58EB001460DAA1070107801285CD1EC
:10460000FFE7DD4880783D490978884201D1FFE71E
:1046100071E0D948807801280C9008D0FFE70C9809
:1046200002281BD0FFE70C9803282CD040E009207B
:10463000C006022100220B900A9102F03DFDE848DD
:1046400001210A9A09911146099A02F035FD40F2BA
:1046500000110B98099A02F02FFD29E00920C006ED
:104660000221002208900791069202F025FDDC4805
:104670000799069A02F020FD40F2001101220898E5
:1046800002F01AFD14E00920C00602210022059064
:104690000491039202F010FDD1480499039A02F0AC
:1046A0000BFD40F200110598039A02F005FDFFE7AB
:1046B000B1488078114908701DE010480078002842
:1046C00001D1FFE717E00D48002101700920C00665
:1046D0000221012202900191009202F0EDFCC048FB
:1046E0000199009A02F0E8FC40F200110298009A49
:1046F00002F0E2FCFFE70EB080BDC0468000002063
:104700000004004880B51F480088C007002805D174
:10471000FFE7FFF757FF00F0EDFCFFE719480088BF
:1047200097494143974809180122D141814208D84D
:10473000FFE7FEF77DFE00F05DFB124800210180DF
:10474000FFE7CE480078012803D1FFE700F0E8F941
:10475000FFE7E3480078002803D1FFE7FEF7ECFD10
:10476000FFE709480078022803D1FFE701F0A8FA23
:10477000FFE704480188491C01808348012101802A
:1047800080BDC046820000203E01002080B584B07C
:104790000E4803F0CDF99248012100221023039026
:1047A00002910192009302F0B0FC03980199029AE1
:1047B000009B02F0F2FC03980099019A02F07CFC45
:1047C000224801990170418004B080BD12050000AB
:1047D00080B582B01D48408801280ADBFFE71B48EE
:1047E0004188491E41807E481021012202F064FC6C
:1047F00009E07B4810210022019202F05DFC134881
:1048000001990170FFE702B080BDC04680B582B05B
:10481000014601AA10800D480078002813D1FFE757
:1048200001980A494880488801280BDBFFE70748C0
:10483000012101706A48102200911146009A02F08D
:104840003BFCFFE7FFE702B080BDC04684000020CC
:104850007047000080B52E48007800284CD1FFE753
:104860008648007800280AD0FFE7844800780128AD
:1048700005D0FFE781480078022804D1FFE7032034
:1048800000F08EFE42E07D480078032833D1FFE738
:104890005248007A002812D1FFE7504800790228D8
:1048A0000CDBFFE74D480079062807DCFFE7012015
:1048B00000F06CF8174800210170FFE71AE0474844
:1048C000007A012815D1FFE7124800780B280ADB8F
:1048D000FFE711480078012804D1FFE7022000F02B
:1048E00055F8FFE704E00B480178491C0170FFE729
:1048F000FFE7FFE7FFE709E060480078032804D1FD
:10490000FFE7022000F04CFEFFE7FFE780BDC04656
:10491000D800002088000020C800002080B582B0A8
:10492000564800780128019004D0FFE70198052837
:1049300003D005E0FFF71AF803E001F00DF800E0FE
:10494000FFE70E480188491C018000880C4941435B
:104950000C4809180122D141814206D8FFE700F036
:1049600041F8064800210180FFE7FFF731FF0648C4
:104970000121418002B080BD500000208A0000204B
:10498000CDCCCCCC98999919F000002080B582B09C
:10499000014601AA10700198104B18721078012876
:1049A00006D1FFE70E482021002202F085FB05E03A
:1049B0000B482021012202F07FFBFFE702B080BDFF
:1049C00080B50648FA21C1800021017101720448B6
:1049D0002021012202F070FB80BDC0468C00002027
:1049E0000004004880B582B0244800780528019072
:1049F00040D80198810001A251188F4600F01FB8DD
:104A000000F008B800F00FB800F013B800F01DB8BF
:104A100000F01EB81A48002101700120FFF7E8FDE0
:104A200003F006FA27E00020FFF7E2FD03F028FA82
:104A300021E00020FFF7DCFD03F0C4F91BE00020BB
:104A4000FFF7D6FD03F0E6F915E003F031F912E0C7
:104A5000854840780B28009004D0FFE700980F2885
:104A600003D005E003F00EFC03E003F041FB00E09F
:104A7000FFE700E0FFE702B080BDC0465000002025
:104A80009800002080B582B0014601AA1070C84885
:104A900000781278904201D1FFE714E00198C449F0
:104AA00008700878012808D1FFE7C148807A00F033
:104AB000FDF8012002F0ECF805E0022002F0E8F831
:104AC00000F078F9FFE702B080BDC04681B0014632
:104AD0006A4610700098B64A907201B07047C0469E
:104AE0009A00002080B582B0B14800210170417069
:104AF0008170C170FA218180C180022181720749D1
:104B00000190084603F014F8B94803F0D7FE019865
:104B1000807A00F0CBF802B080BDC0460B060000E2
:104B2000A3480078002801D1FFE733E01A48C08885
:104B30001A49884217DBFFE71B480178491C0170BE
:104B400000780B2807DBFFE79948012141701648E0
:104B50000B210170FFE71248002101700E48C08848
:104B60001049086016E00E480178491C01700A4996
:104B7000C9880C4A116000780A2807DBFFE708485B
:104B80000B2101708A4800214170FFE7064800218F
:104B90000170FFE77047C046400100204C04000050
:104BA000A70000204C000020A600002080B588B09F
:104BB00005A8002101810691059104A801802A48D9
:104BC000C188491CC180C08879283FDBFFE726489F
:104BD0000021C1800421405E754A515E401AFDF7F4
:104BE0008DFE3C2804DBFFE705A8002141710DE0A4
:104BF0001D488088FB498A88801A0881FEF73EFE9E
:104C0000FEF7F4FD05A801214171FFE705A8102179
:104C1000017008214170002282701723C370027155
:104C20000623039002911946019201F0E5FE04A9C2
:104C300008804878039988710498C87108460299D9
:104C4000FFF718F80848019981700AE00648807952
:104C500005A908700120009008460099FFF70AF89E
:104C6000FFE708B080BDC0460401002080B5DD48E4
:104C70000621405E40F27111884204DCFFE7022009
:104C8000FFF724FF10E0D7480621405E40F285116F
:104C9000884204DCFFE70120FFF718FF03E0002053
:104CA000FFF714FFFFE7FFE780BDC04610B594B0E3
:104CB000014613AA10700920C0060222002340F208
:104CC00000240B900A91114609921A460893234634
:104CD000079402F01AFA03220B980899079B02F036
:104CE0005CFA0B980999079A02F084F90CA80690CF
:104CF00003F000FF08980699088048808880B94A28
:104D0000927A002A03D1FFE747200E9011E0B548C0
:104D1000807A012803D1FFE739200E9008E0B148DE
:104D2000807A022803D1FFE72F200E90FFE7FFE7EC
:104D3000FFE70CA80021C18001732D4A05901046A1
:104D4000059B04911946039203F034FE10A80290CB
:104D500003F099FD01200299088004224A80049AF8
:104D60008A80CA800A814A81039B01901846019972
:104D7000029A03F03FFB0E98401C420803980199E9
:104D800003F004FD60220398019903F0ADFC039841
:104D90000199049A03F026FD0398019903F091FE0E
:104DA000039803F01DFB039803F0FAFD14B010BD47
:104DB0009A00002080B584B00D4803F07FFD0920E3
:104DC000C0060121002240F20023039002910192CB
:104DD000009302F09AF903980199029A009B02F05D
:104DE000DCF903980099019A02F066F904B080BDDD
:104DF000002C014088B007A80021018006A801709E
:104E000005A8017001A801707348007809280BDC1F
:104E1000FFE77648008870490A7852006F4B985235
:104E20000878401C0870D4E06B480021017006A887
:104E30000170FFE706A80078082835DCFFE705A821
:104E400000210170FFE705A8007806A9097809226A
:104E5000511A884222DAFFE705A8007840005F492E
:104E60000A18085A5188884212DDFFE705A8017820
:104E700049005A4A515A07AB198001784900531822
:104E80005B88535207990078400080184180FFE703
:104E9000FFE70598401C05A90870D4E7FFE70698CE
:104EA000401C06A90870C5E74C4800894C49884257
:104EB00000DD88E003A83C21017004A800210170F6
:104EC000039801AA107002A8017006A80170FFE7FC
:104ED00006A800783B2868D8FFE74048008904A965
:104EE00009784900404A515A88422ADBFFE704A862
:104EF0000078002805D0FFE704A80078012801D138
:104F0000FFE752E03548008904A909784900364A8C
:104F10008918891E0988884205DCFFE70498401E2D
:104F200004A9087041E004A801786A46118001785C
:104F300002AA1278891849080170009801A908701E
:104F40002DE003A8007804A90978884208D0FFE77B
:104F500003A80078401E04A90978884201D1FFE720
:104F600023E01E48008904A9097849001E4A8918CF
:104F70004988884205DBFFE70498401C04A90870B3
:104F800013E004A801786A461180017801AA12781A
:104F9000891849080170009802A90870FFE7FFE727
:104FA0000698401C06A9087092E704A8007805211D
:104FB0004143C8310B4881801E21018181880289CB
:104FC0008918C18005E0074840F220318180C18006
:104FD000FFE708B07047C046BC000020A8000020D2
:104FE000D70E00009A000020809B0008400100209E
:104FF00080B582B00948082102F072F8002804D177
:10500000FFE701A80021017003E001A80121017060
:10501000FFE701A8007802B080BDC0460004004848
:1050200080B582B00920C006012102F059F800289D
:1050300004D1FFE701A80021017003E001A80121CC
:105040000170FFE701A8007802B080BD80B582B092
:105050002348022102F044F8002804D1FFE701A808
:105060000021017003E001A801210170FFE701A800
:10507000007802B080BDC04610B582B0164802F07C
:1050800057FD164802F054FD0920C00600210122F8
:1050900001910092009B02F038F811480223019917
:1050A000009A02F032F80F48009901704170817047
:1050B000019A8280C823C3800B4C84600B4C217002
:1050C0006170A170A280E380094BA360394B186026
:1050D0005C6002B010BDC04611050000160500005E
:1050E00000140048C800002021500008D80000200B
:1050F0004D50000880B584B003A800210170FFE77F
:1051000003A80078012852DCFFE703A80178890092
:10511000284A5158896802900192884702990A7872
:105120009200019B9A585070087880001858827835
:105130004078824228D1FFE703A8007880001D490B
:1051400008584178007881421ED0FFE703A8017813
:105150008900184A51588B885B1C8B80007880002E
:1051600010588188C08881420DDDFFE703A80178CF
:105170008900104A515800238B8000788000105815
:1051800041780170FFE70CE003A801788900094A23
:1051900051584B788B700078800010580021818026
:1051A000FFE7FFE70398401C03A90870A8E704B0D5
:1051B00080BDC046C000002080B584B00290029837
:1051C000401E000E002803D0FFE70120039013E0EB
:1051D0000298401E0A4908600020C1430322019042
:1051E0000846114601F0E8F80648019901600648B2
:1051F000072202600391FFE7039804B080BDC04618
:1052000014E000E018E000E010E000E081B0684643
:1052100000210170FFE768460078022816DCFFE7EE
:10522000684600784000DD49085A012808DBFFE79E
:10523000684600784000D9490A5A521E0A52FFE7D0
:10524000FFE70098401C69460870E4E701B070472A
:1052500080B588B001F0C0FEC0480188491C0180BB
:105260000088BF494143BF4809180122D14181420A
:105270000AD8FFE7BC480621415EBC4803F0B6FDF2
:10528000B64900220A80FFE7B9480088B449414383
:10529000B44809180122D141814203D8FFE7FEF743
:1052A0000DFAFFE7F1480078052803D1FFE700F089
:1052B000DFFF02E0FFF7CEFAFFE7EC4800780128B5
:1052C000069000D19BE00698032804D0FFE70698DB
:1052D00005282BD094E0A4480621405E40F2C1117D
:1052E000884206DCFFE7A0480621405E002818DC63
:1052F000FFE7A1480178491C0170007806280FDB00
:10530000FFE799480621415E9C4803F06FFDD749AD
:1053100001224A7004210590084600F041F9FFE798
:1053200003E0954800210170FFE793E09148407841
:105330000F2839D1FFE707A840F2C21101808D483C
:10534000007B002805D0FFE707A840F25821018024
:10535000FFE785480621405E07A90988884206DAEA
:10536000FFE781480621405E002818DCFFE78248FD
:105370000178491C0170007806280FDBFFE77A48A6
:105380000621415E7D4803F031FDB84901224A7093
:1053900004210490084600F003F9FFE703E0764893
:1053A00000210170FFE729E06F480621405E744943
:1053B000884206DCFFE76C480621405E002818DCC6
:1053C000FFE76D480178491C0170007806280FDB63
:1053D000FFE765480621415E6A4803F007FDA349DF
:1053E00001224A7004210390084600F0D9F8FFE733
:1053F00003E0614800210170FFE7FFE72AE0FFE7D3
:1054000059480621405E5E49884206DCFFE756485F
:105410000621405E002818DCFFE757480178491C48
:105420000170007806280FDBFFE74F480621415E38
:10543000544803F0DBFC8D4901224A70042102909C
:10544000084600F0ADF8FFE703E04B48002101708B
:10545000FFE7FFE744480079012825D1FFE78348AB
:10546000007801280AD0FFE78048007805281AD183
:10547000FFE74048007B002815D0FFE7424801784D
:10548000491C0170007806280CDBFFE73F4803F059
:10549000ADFC764902224A7004210190084600F0D2
:1054A0007FF8FFE7FFE703E0374800210170FFE7DF
:1054B00037480621405E40F2C211884228DBFFE7F0
:1054C0006A480078022822D0FFE768480078002860
:1054D0001DD0FFE72F480178491C0170007806288D
:1054E00014DBFFE7614803214170007803280CD0EA
:1054F000FFE727480621415E274803F077FC042197
:105500000090084600F04CF8FFE7FFE7FFE703E0F4
:10551000204800210170FFE716480078012814D1C7
:10552000FFE71448807817280FD1FFE7104800885C
:105530000B4941430B4809180122D141814203D84C
:10554000FFE7FFF733FBFFE7FFE709480188491C46
:10555000018012486421818008B080BDEE000020E7
:10556000CDCCCCCC989999198C0000202E9C0008A9
:10557000EA00002004010020E8000020599C0008F7
:10558000570200000C9C0008EC000020F89B00086B
:105590009A000020ED0000203D9C0008F000002053
:1055A00010B588B0014607AA10700798E74A107036
:1055B00000201081D08110820923DB0648F200040C
:1055C0000690184605912146069B04921A4601F062
:1055D00073FD0698FFF7DAF90698FFF753FA069875
:1055E000FEF788FB049801780429039139D80398C1
:1055F000810001A251188F4600F008B800F010B8E1
:1056000000F01EB800F024B800F02AB8FEF736F912
:105610000920C00640F20041002201F04DFD23E0C8
:105620000920C00648F2000101220290019201F017
:1056300043FD40F200410298019A01F03DFD13E064
:105640000920C00640F20041012201F035FD0BE0C7
:105650000920C00640F20041012201F02DFD03E0C7
:10566000FFE7FEF725F9FFE708B010BD5000002066
:1056700080B584B034480168012211430160FFE71E
:10568000314800688007002801D4FFE7F8E7FFE70A
:105690002E48016880221143016000200390FFE73B
:1056A00003987F2805D8FFE7FFE70398401C039085
:1056B000F6E726480168902211430160002003901C
:1056C000FFE703987F2805D8FFE7FFE70398401C12
:1056D0000390F6E7FFE71D4801680322914301604C
:1056E00019490A681A4B1A400A600168194A1140A0
:1056F00001600168184A11400160184801680F22D2
:10570000914301601648016840F203129143016021
:10571000016801221304994301600168D30799438A
:10572000016010480168914301600F480021016049
:105730000292019102F0AAFC0298C006019901F0C0
:10574000F9FD04B080BDC0460010024004100240C4
:10575000FFFFF2FE0C00FF08FFFFC2772C10024093
:1057600030100240341002400810024081B06846F8
:105770000021018071480621405E40F2721188428A
:1057800038DCFFE76E480168491C01606D49002262
:105790000A606D490A60006880087C2806D8FFE727
:1057A0006A488088401D6946088022E06448006895
:1057B000C0087C2806D8FFE7644880880A3069461C
:1057C000088015E05E4800686149884206D8FFE716
:1057D0005E4880880C306946088008E058485D497A
:1057E00001605A488088801C69460880FFE7FFE70F
:1057F000FFE79CE051480621405E40F28B11884251
:1058000037DCFFE74E48002101604F4801604D48FA
:105810000168491C0160006880087C2806D8FFE701
:105820004A488088801E6946088021E04548006813
:10583000C0087C2805D8FFE744488088694608806E
:1058400015E0404800684249884206D8FFE73F48D3
:105850008088801C6946088008E03A483D4901601C
:105860003A488088001F69460880FFE7FFE7FFE7A6
:105870005CE032480621405E40F29A11884238DCF2
:10588000FFE72F48002101602E4801602E48016883
:10589000491C0160006880087C2806D8FFE72B4877
:1058A0008088C01F6946088022E026480068C0083A
:1058B0007C2806D8FFE7FD488088801F694608805D
:1058C00015E0204800682249884206D8FFE7F748DB
:1058D0008088401F6946088008E01A48002101605E
:1058E000F2488088801F69460880FFE7FFE7FFE7EE
:1058F0001BE0EC480621405E40F2A41188420FDC18
:10590000FFE70F48002101600E4801600E4801606A
:10591000E64880880321B0FBF1F06946088003E087
:10592000684601210180FFE7FFE7FFE7FFE70098F6
:10593000DC49C8726846008801B070479A000020B0
:10594000F8000020FC000020000100205000002092
:10595000871300008813000080B588B007A80021D5
:105960000180C7480078002801D1FFE786E1C548DB
:105970000079022808DCFFE700200690FFF782F894
:105980000698FEF7B7F979E1FFF7F0FE07A908805E
:10599000BD480188491C0180B9484078C01E1428C0
:1059A000059000D9FDE00598810001A251188F46AD
:1059B00000F082B800F0F5B800F0F3B800F0F1B8EC
:1059C00000F0EFB800F01EB800F04CB800F0E9B8F5
:1059D00000F0E7B800F0E5B800F0E3B800F0E1B897
:1059E00000F08FB800F0DDB800F0DBB800F0D9B8F7
:1059F00000F0D7B800F0D5B800F0D3B800F0D1B8B7
:105A000000F05AB8A9480189C088401C814219D1C8
:105A1000FFE7A648002141810846FEF76BF9012007
:105A2000FFF730F8A2480178491C01700078292856
:105A300007DBFFE79E48002101709F4803F0D6F97D
:105A4000FFE70EE099480189C08807AA12888018EC
:105A5000401C814204D1FFE70020FFF713F8FFE765
:105A6000FFE7FFE091480089002819D1FFE78F4840
:105A7000002141810846FFF705F80120FEF73AF9B9
:105A80008B480178491C01700078292807DBFFE763
:105A9000874800210170874803F0A8F9FFE70AE072
:105AA00082480189C088814204D1FFE70020FEF7C7
:105AB00021F9FFE7FFE7D5E079480188491C01801B
:105AC000008840F2E83188421ADBFFE77448002181
:105AD000018008460491FEF7D5FF0498FEF70AF905
:105AE00070480421405E0A2190FBF1F25143401AB4
:105AF0006D49039008461146039A03F077F9FFE7D2
:105B0000B0E05F48007B002808D1FFE7002002904A
:105B1000FEF7F0F80298FEF7B5FFA3E059480079C8
:105B2000022807DCFFE75648002101735B4803F0B9
:105B30005DF997E055480188491C01800088544967
:105B4000884208DBFFE75148002101804C48016989
:105B5000491C0161FFE74A4800694E49884205DC5B
:105B6000FFE707A8008802F049FB19E044484069B4
:105B70004949884207DCFFE741480021017340F2B0
:105B8000582101610BE03E48007E002806D1FFE766
:105B90003B4801210176FDF771FEFFE7FFE7FFE7D4
:105BA00060E040484078012827D1FFE73F480021C6
:105BB00041813C48C170807800280AD1FFE739480C
:105BC00001218170C820FEF721FE3C4803F00EF948
:105BD000FFE72D48008840F2E831884208DBFFE704
:105BE00029480021018031488189491C8181FFE7D2
:105BF00007A8008802F002FB33E02348008840F247
:105C0000E831884217DBFFE71F4800210180254863
:105C1000807800280ED0FFE72248C178491CC17067
:105C2000C0781E2805DBFFE71E4800218170C17087
:105C3000FFE7FFE7FFE70020FEF75CF81B4800895D
:105C40000128019004D0FFE70198062804D007E05E
:105C50000120FEF717FF03E00020FEF713FFFFE728
:105C600000E0FFE711480189491C018100891928DA
:105C700004DBFFE70D4800210181FFE708B080BD8C
:105C8000040100208C0000202001002026010020BB
:105C9000E903000057020000AF040000129D000855
:105CA000240100209A0000200C9E000850000020D3
:105CB00022010020919C00087C9C0008429D000865
:105CC00080B59AB0002019901890179016901590F2
:105CD00014A9087013A9087012AA108011AA1080C4
:105CE0000870FFE713A80078FC49097888420CDAAD
:105CF000FFE713A80078FD49095C15AA1154FFE7D6
:105D00001398401C13A90870ECE7F448017814AA12
:105D10001170F74900220A70027015A84078022815
:105D200007DBFFE715A8407814A90978884201D05D
:105D3000FFE76DE214A80078811E15A800F05CFE54
:105D400012A90880FFE714A8007815A94018801E42
:105D5000007812A94978884216D1FFE714A8007884
:105D600015A94018401E007812A9097888420BD165
:105D7000FFE715A881780902C078081811A90880E2
:105D8000DC480121017000E042E211A80088401EB9
:105D90001A280F9000D93AE20F98810001A25118F9
:105DA0008F46C04600F034B800F031BA00F06FB84A
:105DB00000F0ACB800F02BBA00F029BA00F027BA16
:105DC00000F0C7B800F0F4B800F021BA00F021B933
:105DD00000F01DBA00F01BBA00F019BA00F0A9B922
:105DE00000F015BA00F013BA00F011BA00F00FBAC3
:105DF00000F00DBA00F00BBA00F009BA00F0E1B9FA
:105E000000F005BA00F003BA00F04DB900F0F0B9A7
:105E100015A80079002811D1FFE715A840790028BE
:105E20000CD1FFE7FD480121017000218170FD4880
:105E300005210170F74802F0D9FF15E015A8007997
:105E4000FF2810D1FFE715A84079FF280BD1FFE705
:105E5000F248002101708170F24801210170EE4882
:105E600002F0C4FFFFE7FFE715A81021017006212B
:105E70000E9000F0C1FD12A9088048780E99887133
:105E80001298C87108210E98FDF7F4FEC0E115A81C
:105E90000079002818D1FFE715A84079002813D110
:105EA000FFE7DE4803214170DD480421405E0A21FE
:105EB00090FBF1F25143401AEC490D90084611460F
:105EC0000D9A02F093FF16E015A80079FF280DD176
:105ED000FFE715A84079FF2808D1FFE7CF48002148
:105EE00081704170E04802F081FF03E0DD4802F07C
:105EF0007DFFFFE7FFE700200C90FDF7FBFE0C980D
:105F0000FEF7C0FDC5480121017081E1C348007E54
:105F1000002819D0FFE7D0480068D0494143C8178E
:105F2000000D0818000B10A90880088840F2E8311D
:105F3000B0FBF1F25143401AC9490B900846114693
:105F40000B9A02F053FF03E0C24802F04FFFFFE755
:105F50005EE115A80079002813D1FFE715A8407964
:105F600006280ED1FFE7EB480821417000200A9077
:105F7000FDF7C0FE0A98FEF785FDB54802F036FF32
:105F800015E015A80079FF280CD1FFE715A8407986
:105F9000FF2807D1FFE7DF4800214170AB4802F03E
:105FA00025FF03E0A84802F021FFFFE7FFE72FE10C
:105FB00015A80079002815D1FFE715A84079062813
:105FC00010D1FFE7D3480121017009214170002061
:105FD0000990FDF78FFE0998FEF754FD994802F0ED
:105FE00005FF15E015A80079FF280CD1FFE715A8DB
:105FF0004079FF2807D1FFE7C6480021417090484B
:1060000002F0F4FE03E08D4802F0F0FEFFE7FFE748
:10601000FEE015A8007900282ED1FFE715A84079E9
:10602000012829D1FFE7834802F0E0FE0921C906D3
:1060300002220023089008460791114606921A464C
:10604000059301F039F87C480699059A01F034F877
:1060500040F200110798059A01F02EF801200490F3
:10606000FDF750F90498FDF75BF8AA480B21417041
:106070006C480521017015E015A80079FF280CD1A6
:10608000FFE715A84079FF2807D1FFE7A1480021C5
:106090004170674802F0AAFE03E0644802F0A6FEE1
:1060A000FFE7FFE7B4E015A8007900280BD1FFE770
:1060B00015A84079012806D1FFE715A80021017134
:1060C000012141711AE015A80079002814D1FFE7D9
:1060D00015A8407902280FD102E0C0463F010020F8
:1060E00015A8002101710121417106E02A0100205B
:1060F0003E010020040100208AE0FFE715A81021DE
:10610000017008214170002282701A22C27006229A
:1061100003900291114600F06FFC12A908804878A4
:10612000039988711298C87108460299FDF7A2FD7B
:106130006EE015A80079002812D1FFE715A8407974
:1061400000280DD1FFE773480F2141700121017034
:10615000344A05231370017300210161416115E088
:1061600015A80079FF280FD1FFE715A84079FF286F
:106170000AD1FFE76748002141702A4A01231370C2
:1061800003730161416100E042E0FFE715A81021BF
:10619000017008214170002282700F22C270062215
:1061A00001900091114600F027FC12A90880487860
:1061B000019988711298C87108460099FDF75AFD37
:1061C00026E017480421405E40F2A511884207DB13
:1061D000FFE71348818840F2A412891A018106E082
:1061E0000F48818840F2A412511A0181FFE70FE0A5
:1061F0000B481E2101810B48012181704548002177
:106200000176FDF73BFB084802F0F0FD00E0FFE7F8
:106210001AB080BDE39C0008FB9C0008040100202C
:106220009A00002050000020279D0008769D00085D
:10623000A39C0008DB9D000800040048949D000812
:10624000339E0008C99D0008219E0008B99D0008E2
:10625000A89D0008EF9D00088C0000205613000048
:10626000B79C00085E9D0008CB9C00080C9E0008AF
:1062700080B5284840780F2849D1FFE72548007BA2
:10628000002814D0FFE72348007E00280AD0FFE74B
:10629000234800682349884204DCFFE70120FEF719
:1062A00075FB03E00220FEF771FBFFE730E01A48C0
:1062B0000188491C018000880B2808DBFFE716488D
:1062C0000021018013484169491C4161FFE71148E1
:1062D0004069124988420ADBFFE70E4840F2B041AC
:1062E0004161012101730220FEF750FB0EE00C48D2
:1062F00000680C49884204DCFFE70120FEF746FBFA
:1063000003E00220FEF742FBFFE7FFE700E0FFE7C4
:1063100080BDC0460401002028010020B104000017
:106320008C0000209A0C000080B582B01148124900
:1063300002F00AFD00281BD0FFE70E480E4902F0CC
:10634000E3FC0220019000F095FC1421081A0B4A8E
:1063500010700B48019A02701046009100F080FB0B
:106360000198009900F078FC019800F089FBFFE7A4
:1063700002B080BD00380140040004073F01002046
:106380003E01002081B001466A461070107840B28C
:1063900000280DD4FFE76846007840B21F2102466E
:1063A0000A400121914040098000024A8150FFE7E4
:1063B00001B0704700E100E070B582B0024601AB69
:1063C00018700091187840B2002817D4FFE701A890
:1063D000017849B20322D2431140384BC9580078A2
:1063E00040B28407E40EFF25A540A943009DAD01FE
:1063F000EDB2A54029431040C1501AE001A8017830
:106400000F22114008390323DB4319402A4C095954
:10641000007840B28507ED0EFF26AE40B143009EE6
:10642000B601F6B2AE403143104008381840015171
:10643000FFE702B070BDC04670B582B0024601AB46
:1064400018700091187840B2002817D4FFE701A80F
:10645000017849B20322D2431140184BC958007841
:1064600040B28407E40EFF25A540A943009DAD017D
:10647000EDB2A54029431040C1501AE001A80178AF
:106480000F22114008390323DB4319400A4C0959F4
:10649000007840B28507ED0EFF26AE40B143009E66
:1064A000B601F6B2AE4031431040083818400151F1
:1064B000FFE702B070BDC0461CED00E000E400E064
:1064C000DA480168082211430160FFE7D7480068F5
:1064D0000007002801D5FFE7F8E7D4480168042247
:1064E00011430160FFE7D14800684007002801D54B
:1064F000FFE7F8E77047C04683B0024602AB18706A
:10650000019118780128009004D0FFE70098022834
:106510000FD01DE0B04801680F22120591430160C1
:10652000019909050D4BC918114002680A43026020
:106530000FE00948016803221205914301600199A7
:106540000905064BC918114002680A43026000E0C1
:10655000FFE703B07047C046382401400000F0FF59
:1065600081B000900098002807D0FFE7DE4801685E
:1065700040F600021143016006E0DB48016840F686
:10658000000291430160FFE701B07047D6480168FF
:1065900040F20012114301607047C046D2480068C3
:1065A000C007002806D1FFE7CF4801680122114348
:1065B0000160FFE77047C04610B582B00A46034647
:1065C00001AC207068460170007800281BD0FFE7FE
:1065D00001A80078C007002807D0FFE7C24801687B
:1065E0000122120511430160FFE701A8007880072E
:1065F000002807D5FFE7BC48016848F200021143B4
:106600000160FFE71AE001A80078C007002807D062
:10661000FFE7B54801680122120591430160FFE7D9
:1066200001A800788007002807D5FFE7AE48016879
:1066300048F2000291430160FFE7FFE702B010BD9E
:1066400083B0024602AB18700191187801280090BF
:1066500004D0FFE7009802280BD015E0A24801689B
:106660000722520491430160019902680A430260C3
:106670000BE09D48016847F20002914301600199D7
:1066800002680A43026000E0FFE703B07047C046BB
:10669000B0B585B00B46044604AD287003A8017060
:1066A00002922878052818D8FFE74D480168019123
:1066B00004A90A7805231C4654431F22A240019CCA
:1066C0009443019403AA127809784B439A400199A4
:1066D000114301910199016040E004A800780B2862
:1066E0001AD8FFE73D480168019104A90A780523FB
:1066F0001C4654431E3C1F22A240019C944301941B
:1067000003AA127809784B431E3B9A400199114322
:1067100001910199016020E004A800780F281AD89F
:10672000FFE72D480168019104A90A7805231C465A
:1067300054433C3C1F22A240019C9443019403AA71
:10674000127809784B433C3B9A40019911430191DF
:106750000199016000E0FFE7FFE7FFE703A8007889
:10676000092817D8FFE720480168009103A90A7893
:1067700003231C4654430722A240009C94430094E8
:10678000029A09784B439A4000991143009100996D
:1067900001601FE003A80078122819D8FFE711480C
:1067A0000168009103A90A7803231C4654431E3C48
:1067B0000722A240009C94430094029A09784B431C
:1067C0001E3B9A400099114300910099016000E03E
:1067D000FFE7FFE705B0B0BD2C24014030240140A5
:1067E000342401400C2401401024014081B00146B2
:1067F0006A4610701078C007002807D0FFE73A48B3
:1068000001680122920511430160FFE768460078A4
:106810008007002807D5FFE73348016801225205A9
:1068200011430160FFE701B07047C04608240140F2
:1068300082B00A460190684601700078002827D08F
:10684000FFE701A84078C007002807D0FFE72548E8
:10685000016840F2001211430160FFE701A840788F
:106860004007002807D5FFE71E48016840F20042B4
:1068700011430160FFE701A800788007002806D5D2
:10688000FFE719480168022211430160FFE726E093
:1068900001A84078C007002807D0FFE71148016829
:1068A00040F2001291430160FFE701A840784007E1
:1068B000002807D5FFE70B48016840F200429143EA
:1068C0000160FFE701A800788007002806D5FFE7F0
:1068D00005480168022291430160FFE7FFE702B02B
:1068E0007047C046042401400824014081B0009054
:1068F0003E48407902280AD1FFE7009810498842B3
:1069000004D3FFE7394803210171FFE713E037485B
:10691000407904280AD1FFE700980849884204D842
:10692000FFE7324803210171FFE703E02F4803210D
:106930000171FFE7FFE701B07047C046D30A0000CE
:10694000820A000081B000902848407903280AD1CB
:10695000FFE700981049884204D3FFE72348042149
:106960000171FFE713E02148407905280AD1FFE7CC
:1069700000980849884204D8FFE71C4804210171A7
:10698000FFE703E0194804210171FFE7FFE701B0C9
:106990007047C046710C0000280B000081B00090C9
:1069A0001248407904280AD1FFE70098114988422B
:1069B00004D3FFE70D4805210171FFE713E00B4801
:1069C000407906280AD1FFE700980949884204D88F
:1069D000FFE7064805210171FFE703E003480521B1
:1069E0000171FFE7FFE701B07047C0468C0000204F
:1069F000160D0000C60C000084B00390029101A89F
:106A00001649018000200090FFE700980299884213
:106A10001FD2FFE701A801880A0A09025118018064
:106A20000399009A895C019A4A4002800188CAB29F
:106A300012095140018001880A03514001800188F8
:106A4000CAB2520151400180FFE70098401C0090FB
:106A5000DBE701A8008804B07047C046FFFF0000D4
:106A600010B581B001466A46107010781422424376
:106A7000784813580124A343135001B010BDC046F9
:106A800010B581B001466A46107010781422424356
:106A90007048135801242343135001B010BDC04661
:106AA00010B581B001466A46107010781422424336
:106AB000684813582024A343135001B010BDC046AA
:106AC00010B581B001466A46107010781422424316
:106AD0006048135820242343135001B010BDC04612
:106AE00070B581B001466A461070107814231C46B8
:106AF0004443584825580126B543255014781D466F
:106B0000654300242C5010781D4645435F482C50A7
:106B100010781D4645434D482C50107843434C484F
:106B20001C50107880000F228240034803681343F2
:106B3000036001B070BDC04604000240B0B586B02D
:106B4000024605AB18700491187802920193FFF782
:106B500087FF0498006801990A7814231C4654435F
:106B60003A4AA050049880680A781C465443384A30
:106B7000A0500498008A0A781C465443434AA05007
:106B800008781A464243334812580392039A43F650
:106B90000074A2430392049A5468D5682C43526946
:106BA0001443039A22430392039A0C7863431A50C6
:106BB0000498007E01280AD1FFE705A80078142177
:106BC000414324480A5840231A430A5009E005A8C3
:106BD0000078142141431F480A5840239A430A5021
:106BE000FFE70498407E01280AD1FFE705A8007856
:106BF0001421414317480A5880231A430A5009E0D8
:106C000005A800781421414312480A5880239A436A
:106C10000A50FFE70498807E00280AD1FFE705A804
:106C20000078142141430B480A5810239A430A5014
:106C300009E005A800781421414306480A581023AA
:106C40001A430A50FFE706B0B0BDC046100002402C
:106C5000140002400800024082B0024601AB1870E6
:106C6000009168460088197814234B43074958500F
:106C700002B0704781B001466A4610701078142245
:106C800042430248105801B07047C0460C00024011
:106C900080B584B0014603AA107002A800230370D7
:106CA00010780028019008D0FFE7019801281CD037
:106CB000FFE7019802281CD01CE014488078411E90
:106CC0000229009004D3FFE70098032804D007E0CE
:106CD00002A83C21017007E002A82821017003E00E
:106CE00002A83C210170FFE708E002A80021017022
:106CF00004E0FFE702A85A210170FFE702A802782A
:106D00000348002101F042FD04B080BD5000002086
:106D10000044014081B0009000984749086001B0EC
:106D20007047C04664480168802211430160704783
:106D300080B584B003900F20000400F027F802A96A
:106D40000870087800281BD1FFE75B480168022221
:106D50001143016003990C4B1960016840231943EA
:106D600001600F21090401900846009200F00EF81E
:106D700002A9087001980168009A91430160FFE739
:106D800002A8007804B080BD1420024080B584B011
:106D9000039002A801210170FFE700F025F802A985
:106DA00008700398401E0390FFE702A800780021B6
:106DB0000128019105D1FFE70398411E8841019008
:106DC000FFE70198C0070028E7D1FFE702A8007895
:106DD000012804D1FFE702A805210170FFE702A8FE
:106DE000007804B080BD000081B0684600210170C9
:106DF00011480068C007002804D0FFE76846012159
:106E0000017015E00C480068C006002804D5FFE7B3
:106E10006846042101700AE007480068400700281E
:106E200004D5FFE7684602210170FFE7FFE7FFE7AF
:106E30006846007801B070470C2002401E48006888
:106E40000006002806D5FFE703480449016004490D
:106E50000160FFE77047C0460420024023016745F8
:106E6000AB89EFCD80B586B0059004910F2000046A
:106E7000FFF78CFF03A908700878002817D1FFE7F7
:106E80000D4801680122114301600499059B1960B6
:106E90000F210904029008460192FFF777FF03A92A
:106EA000087002980168019A91430160FFE703A806
:106EB000007806B080BDC0461020024080B582B088
:106EC0000190009101A80178074801F07FFEFFE7DB
:106ED0000548064901F0E7FE002801D1FFE7F7E782
:106EE000019802B080BDC04600380140070700008D
:106EF00010B587B00A46034605AC208004A801708F
:106F00002F4803900020029038482E490160FFE787
:106F10002D480068012108400290FFE70398401EB9
:106F2000039000210028019105D0FFE70298411E3F
:106F300088410190FFE70198C0070028E8D1FFE7EA
:106F40000298002804D0FFE706A80021017033E072
:106F500004A800781D49086019480390FFE71A4803
:106F60000068022108400290FFE70398401E03904A
:106F700000210028009105D0FFE70298411E8841BA
:106F80000090FFE70098C0070028E8D1FFE70298CB
:106F9000002804D0FFE706A8002101700CE005A836
:106FA00000880B4908400B49086010480C490160F3
:106FB00006A801210170FFE706A8007807B010BD00
:106FC000FFFF0F00555500000C300040043000401A
:106FD000FF0F00000830004004480149016070477D
:106FE000AAAA000001480249016070470030004031
:106FF000CCCC000086B00590049103920598006AFD
:1070000001900598406A009002A800210180FFE7E6
:1070100002A8008807281ED8FFE702A80088039965
:10702000C140C807002810D0FFE702A801888900E6
:107030000F228A40019991430191049900888000B0
:107040008140019808430190FFE7FFE70298401C48
:1070500002A90880DCE702A808210180FFE702A856
:1070600000880F2820D8FFE702A800880399C140B4
:10707000C807002812D0FFE702A80188890020393C
:107080000F228A4000999143009104990088800062
:1070900020388140009808430090FFE7FFE70298FE
:1070A000401C02A90880DAE7019805990862009857
:1070B0000599486206B0704783B01346029001916B
:1070C000684602700078002804D0FFE70198029912
:1070D000886103E0019802998862FFE703B0704776
:1070E00083B001900091019800690099084204D092
:1070F000FFE702A80121017003E002A8002101704E
:10710000FFE702A8007803B0704787B006900591AA
:10711000049203930698006801900698C068009056
:1071200002A800210180FFE702A800880F282CD8C0
:10713000FFE702A800880399C140C80700281ED0B5
:10714000FFE702A801884900032213468B400199FA
:1071500099430191059903885B009940019B0B437A
:107160000193018849008A40009991430091049954
:10717000008840008140009808430090FFE7FFE747
:107180000298401C02A90880CEE701980699086081
:1071900000980699C86007B0704710B586B00C46D5
:1071A000059004A80170039202930078012806D18B
:1071B000FFE7029805994A6802434A6005E0029891
:1071C00005994A6882434A60FFE705988068009005
:1071D00001A800210180FFE701A800880F281ED820
:1071E000FFE701A800880299C140C807002810D015
:1071F000FFE701A80188490003228A4000999143D2
:107200000091039900884000814000980843009055
:10721000FFE7FFE70198401C01A90880DCE7009820
:107220000599886006B010BD80B582B040F60010A8
:10723000019000F03FFB019800F04EFB02B080BDD2
:1072400080B584B0002003900121C90642F60002F7
:1072500001900846114600F06DF862B602A8019947
:10726000017000F0B1FCFFF7DFFF22480421FFF7B7
:107270003FFE0090FFF7B6FE00F022FFFCF78CF90E
:10728000FCF72AFEFBF700FFFDF75AF8FDF77EFA40
:10729000FDF796FBFDF7F0FEFDF724FCFCF74CFD37
:1072A000FCF7A2FC01F048F8FDF70CF8FCF71AFB1C
:1072B000FBF74EFFFFE702A800210170FFE702A8DD
:1072C0000078022815DCFFE702A8007840000A4990
:1072D000085A002807D1FFE702A800788000074974
:1072E00008588047FFE7FFE70298401C02A9087092
:1072F000E5E7E0E771020000F00000200C0000204C
:1073000010B586B00A46034605AC207004A801708B
:10731000217849B2007803900846039902920193BC
:107320000094FFF789F80098017848B2FFF72AF82F
:1073300006B010BD82B00190009101980099044AF6
:107340001140084303490860BFF34F8F02B07047F4
:1073500080FFFF1F08ED00E010B582B0014601AAD2
:1073600010705D4803684CF20004A34303605B485F
:1073700003685B4C2340036010780928009000D913
:10738000A6E00098810001A251188F4600F012B8C3
:1073900000F01CB800F026B800F02EB800F03BB8A2
:1073A00000F046B800F056B800F061B800F071B8CF
:1073B00000F07CB849480168012212049143016041
:1073C000016840F200129143016082E04348016885
:1073D0000122120411430160016840F2001291433E
:1073E000016076E0F94801680160FB48016840F2FD
:1073F0000012114301606CE0F44801680160F64836
:1074000001680122D20711430160016840F20012B5
:10741000114301605DE0ED48016844F20002114350
:107420000160ED48016840F200121143016050E034
:10743000E648016844F2000211430160E648016831
:107440000122D20711430160016840F2001211438A
:1074500001603EE0DD48016848F20002114301602E
:10746000DD48016840F200121143016031E0FB4841
:10747000016848F2000211430160FD4801680122E1
:10748000D20711430160016840F20012114301600C
:107490001FE0F24801684CF2000211430160F44819
:1074A000016840F200121143016012E0EB480168EC
:1074B0004CF2000211430160ED4801680122D2073D
:1074C00011430160016840F200121143016000E0C5
:1074D000FFE702B010BDC046041002403010024069
:1074E000FFFEFE7F9CB001461BAA107000201A9080
:1074F0001990189017901690159014901390129060
:10750000119010900F900E900D900C900B90AD4A32
:107510000A92AD4A0992089007900692059004924B
:107520000390CE4800680C22104080081A901A98E8
:107530000028029008D0FFE70298012807D0FFE753
:107540000298022806D045E0A248169045E0A148DE
:10755000169042E0C14801680F2292041140890C44
:10756000109100680121C9060840C00E0F900F98C5
:10757000012804D1FFE71098113010900BE010980B
:107580000F2803D1FFE71020109003E01098801C13
:107590001090FFE7FFE7B1480068012109040840A7
:1075A000000C0E900E9800280ED0FFE7AF48006840
:1075B0000F210840401C0D900D988649B1FBF0F05A
:1075C00010994143169104E0109881494143169166
:1075D000FFE702E07F481690FFE7A0480168C9B2C4
:1075E00009090C910C9907AA515C0B9116990B9AF9
:1075F000D1401591016840F200721140090A0C91C6
:107600000C9905AA515C0B9115990B9AD1401491D4
:10761000006843F600010840C00A0C900C9803A9CA
:10762000085C0B9015980B99C84013901BA8007824
:107630000528019000D9C1E00198810001A25118EC
:107640008F46C04600F00AB800F00BB800F00CB846
:1076500000F00DB800F00EB800F081B81698179041
:10766000ADE015981790AAE014981790A7E013982A
:107670001790A4E07E48006840F20011084088425C
:107680000FD0FFE77A4800680121090408408842CA
:1076900003D0FFE75248129002E050481290FFE7F3
:1076A0005AE06E48006880B2800B199070480068FC
:1076B000C00F18901998032800904BD800988100AB
:1076C00001A251188F46C04600F006B800F013B86A
:1076D00000F020B800F02FB81898002804D1FFE778
:1076E00013984008129005E015980321B0FBF1F0C3
:1076F0001290FFE72FE01898002804D1FFE71398B5
:107700008008129005E015980521B0FBF1F0129069
:10771000FFE720E01898002806D1FFE7139806211C
:10772000B0FBF1F0129005E015980721B0FBF1F0E5
:107730001290FFE70FE01898002804D1FFE7139894
:10774000C008129005E015980921B0FBF1F01290E5
:10775000FFE700E0FFE7FFE7129817902FE04448AB
:1077600000688007002803D1FFE71398119022E0FA
:107770003F48006803210840012803D1FFE716981D
:10778000119017E03A48006803210840022804D10C
:10779000FFE748F2000011900BE035480068032134
:1077A0000840032803D1FFE70A48119000E0FFE7F3
:1077B000FFE7FFE7FFE71198179000E0FFE7179852
:1077C0001CB07047060708090102030404100240B8
:1077D00000093D0000127A0030100240003FAB016A
:1077E000809FD500ED480168012211430160FFE749
:1077F000EA4800688007002801D4FFE7F8E7F1486D
:107800000168032291430160E4490A68144B1A405D
:107810000A600168134A114001600168124A114070
:107820000160124801680F2291430160104801680D
:1078300040F203129143016001680122130499434D
:1078400001600168D307994301600A4801689143C8
:1078500001600948002101607047C04604100240E1
:10786000FFFFF2FE0C00FF08FFFFC2772C10024062
:1078700030100240341002400810024082B001462D
:107880006A46108010888009C44BC05812881F2394
:107890001A40D040C007002804D0FFE701A801210A
:1078A000017003E001A800210170FFE701A8007842
:1078B00002B0704710B581B001466A46108010884A
:1078C0001F220346134001229A408009F34BC458FB
:1078D0001443C45001B010BD80B58CB001460BAA52
:1078E000108000200A9009AB187008AB187010883F
:1078F000002807906AD0FFE70798102816D0FFE706
:107900000798182800D1DAE040F600000799814274
:1079100034D0FFE740F600100799814200D1A6E07D
:1079200040F600500799814279D0F0E0FFE708A8BF
:10793000007800210028069107D1FFE70A987B49CB
:10794000401A411E88410690FFE70698C0070028AC
:1079500009D0FFE71120FFF791FF08A908700A98E6
:10796000401C0A90E3E71120FFF788FF002804D0AD
:10797000FFE709A801210170FFE7C9E0FFE708A8B8
:10798000007800210028059107D1FFE70A98654992
:10799000401A411E88410590FFE70598C00700285E
:1079A00009D0FFE76048FFF769FF08A908700A9847
:1079B000401C0A90E3E75C48FFF760FF002804D012
:1079C000FFE709A801210170FFE7A1E0FFE708A890
:1079D000007800210028049108D1FFE70A9840F2BE
:1079E0000051401A411E88410490FFE70498C007E7
:1079F000002809D0FFE70120FFF740FF08A9087021
:107A00000A98401C0A90E2E70120FFF737FF0028A0
:107A100004D0FFE709A801210170FFE778E0FFE744
:107A200008A8007800210028039107D1FFE70A98F1
:107A30003949401A411E88410390FFE70398C00767
:107A4000002809D0FFE73648FFF718FF08A908709B
:107A50000A98401C0A90E3E73148FFF70FFF00281F
:107A600004D0FFE709A801210170FFE750E0FFE71C
:107A700008A8007800210028029107D1FFE70A98A2
:107A80002549401A411E88410290FFE70298C0072D
:107A9000002809D0FFE72148FFF7F0FE08A9087089
:107AA0000A98401C0A90E3E71C48FFF7E7FE00280D
:107AB00004D0FFE709A801210170FFE728E0FFE7F4
:107AC00008A8007800210028019107D1FFE70A9853
:107AD0001149401A411E88410190FFE70198C007F3
:107AE000002809D0FFE71920FFF7C8FE08A9087091
:107AF0000A98401C0A90E3E71920FFF7BFFE002810
:107B000004D0FFE709A801210170FFE700E0FFE7CB
:107B100009A800780CB080BDFFFF0F00010900002C
:107B2000010D0000FFFFFF0301080000FFFF000040
:107B300010B581B001466A46108010881F220346A6
:107B4000134001229A408009544BC4581443C45036
:107B500001B010BD10B581B001466A461080108892
:107B60001F220346134001229A4080094B4BC45800
:107B70009443C45001B010BD10B581B001466A46AF
:107B8000108010881F220346134001229A4080096A
:107B9000424BC4581443C45001B010BD0010024001
:107BA00082B00190002000903E4801680091009949
:107BB0000322914300910199009A1143016002B0A0
:107BC0007047C0460410024080B584B00020039086
:107BD0000290FFF7E5FFFFF705FE3048016801223C
:107BE00011430160FFE70398401C03902B48006895
:107BF000022108400290FFE702980021002801912D
:107C000008D1FFE7039840F20051401A411E884115
:107C10000190FFE70198C0070028E4D1FFE71F4863
:107C200000688007002802D4FFE7FFE7FEE71C4852
:107C3000016802221143052291430160194801683D
:107C4000016001680160016801600168164A114025
:107C500001600168154A1143016010480168012262
:107C6000120611430160FFE70C48006880010028FC
:107C700001D4FFE7F8E70B48016803229143016054
:107C80000168022211430160FFE70648006800070F
:107C9000002801D4FFE7F8E704B080BD00100240DF
:107CA0000020024004100240FFFFC2F70000040859
:107CB00080B58CB03F48407801280B901FD0FFE77B
:107CC0000B98022830D0FFE70B98032841D1FFE73B
:107CD0000920C006022100220A900991FFF7ECF961
:107CE00035480121099A08911146089AFFF7E4F9ED
:107CF00040F200110A98089AFFF7DEF92AE00920FD
:107D0000C00602210122079006910592FFF7D4F9DF
:107D1000294800220699FFF7CFF940F20011079891
:107D2000059AFFF7C9F915E00920C00602210122D2
:107D3000049003910292FFF7BFF91F480399029A3A
:107D4000FFF7BAF940F2001100220498FFF7B4F9E6
:107D500000E0FFE719480178491C017000788F495D
:107D600041438F4808180221C8418E4988421FD8D4
:107D7000FFE71348007800280BD0FFE700200190B0
:107D8000FBF7C0FA0198FBF7CBF90D480199017098
:107D90000AE001200090FBF7B5FA0098FBF7C0F964
:107DA000074800990170FFE7044800210170FFE7D0
:107DB0000CB080BD50000020000400484D010020A0
:107DC0004C01002080B582B07248007A01280190F1
:107DD00004D0FFE70198022812D018E06D4800791E
:107DE000042806DBFFE70020FBF78CFAFBF762F9BB
:107DF00005E0FBF74DFA0020FBF792F9FFE706E0FC
:107E00000020FBF77FFA0120FBF78AF9FFE702B0B9
:107E100080BDC04680B582B000200190FCF7E8FB31
:107E20000198FBF77DF90198FBF76CFA02B080BD71
:107E300080B582B0574800790228019016D0FFE73C
:107E4000019803280CD0FFE70198011F022914D8DC
:107E5000FFE70020FBF756FA0120FBF761F90DE080
:107E6000FBF716FA0020FBF75BF907E00120FBF7B0
:107E700049FA0020FBF754F900E0FFE702B080BDAB
:107E800080B588B043480079401E052807907DD80A
:107E90000798810001A251188F46C04600F047B8EC
:107EA00000F016B800F00DB800F004B800F002B809
:107EB00000F000B80020FBF725FA0120FBF730F9AD
:107EC00065E00120FBF71EFA0020FBF729F95EE0D0
:107ED00031480178491C0170002106900846FBF7E3
:107EE0001FF9069801782D4A4A432D49511802225C
:107EF000D1412C4A914219D8FFE72B48007800283D
:107F000008D1FFE701200590FBF7FCF92648059909
:107F1000017007E000200490FBF7F4F9224804996F
:107F20000170FFE71C4800210170FFE7FFE71A48D6
:107F30000178491C0170002103900846FBF7F0F816
:107F400003980178154A4A43154951180222D14134
:107F5000144A914219D8FFE713480078002808D145
:107F6000FFE701200290FBF7CDF90F48029901705D
:107F700007E000200190FBF7C5F90B48019901705B
:107F8000FFE7054800210170FFE700E0FFE708B0C8
:107F900080BDC0468C0000204F010020CDCCCCCC51
:107FA00098999919CCCCCC0C4E01002083B00020BC
:107FB0000290019030480168012211430160FFE7FF
:107FC0000298401C02902C48006802210840019051
:107FD000FFE7019800210028009108D1FFE70298EF
:107FE00040F20051401A411E88410090FFE700987E
:107FF000C0070028E4D1FFE71F4800688007002879
:1080000002D4FFE7FFE7FEE71C48016802221143A4
:108010000522914301601A4801680160016801600E
:10802000016801600168174A114001600168164A41
:1080300011430160104801680122120611430160DA
:10804000FFE70D4800688001002801D4FFE7F8E74A
:108050000B48016803229143016001680222114329
:108060000160FFE7064800680C210840082801D09D
:10807000FFE7F7E703B0704700100240002002401E
:1080800004100240FFFFC2F70000040880B5FFF7AC
:108090008DFF80BD81B000900098042806D1FFE7D5
:1080A0000648016804221143016005E003480168A5
:1080B000042291430160FFE701B0704710E000E047
:1080C00080B582B00420FFF7E5FF0848006840F261
:1080D000E831B0FBF1F0FDF76FF80021CA430190E1
:1080E0001046FEF769F902B080BDC04608000020C6
:1080F00080B588B03E48007E002803D0FFE700F03E
:10810000C1F872E03A48006900283CD0FFE73948DE
:108110000178491C01700078652833DBFFE735489A
:10812000002101703448007800280BD0FFE70920B7
:10813000C00640F200110122FEF7BEFF2E480021CA
:1081400001701EE00920C00602210022079006915E
:108150000592FEF7B1FF77480699059AFEF7ACFF46
:1081600040F200110798059AFEF7A6FF012004903F
:10817000FBF7C8F80498FAF7D3FF1F480499017079
:10818000FFE7FFE730E01B48002101701A48007844
:10819000002809D0FFE7674802210122FEF78CFF83
:1081A0001548002101701EE00920C00602210022AE
:1081B000039002910192FEF77FFF5E480299019AB7
:1081C000FEF77AFF40F200110398019AFEF774FF60
:1081D00001200090FBF796F80098FAF7A1FF0648F7
:1081E00000990170FFE7FFE7FFE708B080BDC046D8
:1081F00004010020510100205001002080B582B010
:10820000014601AA10801E480089002804D1FFE71A
:108210000120FBF76FFD25E019480189C0888142E4
:1082200004D1FFE70020FBF765FD1AE0144801893F
:10823000C088401C814204D1FFE70120FCF722FCEA
:108240000EE00F480189C08801AA12888018401CDE
:10825000814204D1FFE70020FCF714FCFFE7FFE7B1
:10826000FFE7FFE706480189491C018100891E28B4
:1082700004DBFFE7024800210181FFE702B080BD77
:108280005000002080B588B028480178491C017052
:108290000078332847DBFFE7244800210170244899
:1082A000007800281FD0FFE70920C0060221012224
:1082B000079006910592FEF7FFFE1E480699059A63
:1082C000FEF7FAFE40F200110798059AFEF7F4FE59
:1082D00000200490FBF716F80498FAF721FF1448E1
