:020000040800F2
:10200000F80C0020D1AC000869AB00086BAB0008ED
:1020100000000000000000000000000000000000C0
:10202000000000000000000000000000CDA8000833
:1020300000000000000000008FA8000801910008C7
:10204000372A0008000000001B2E0008DB310008C2
:1020500057330008273500080B380008C748000828
:10206000000000006DAB000877AB0008876800082F
:102070009F8A00083F8F0008EF91000800000000D1
:1020800081AB00080000000000000000E39C000895
:1020900000000000B79D0008EB9D00080FA7000896
:1020A00063A700089BA7000887A800082BA90008C1
:1020B0008BAB0008000000000000000000000000E2
:1020C00010B5040001D1012010BD3D20205C002886
:1020D00004D13C216054200000F0F0FD21E03D21BE
:1020E000415C012901D00120704702213D22815429
:1020F00002680121D3680B43D36000681A4A9042FA
:1021000002D01A4A904207D18368194A1A40062A17
:1021100005D00B049A4202D00268114301600020EE
:10212000704702203D216054211D206800F0CCFA48
:102130000120482160543E2160543F2160544021D9
:102140006054412160544221605443216054442131
:1021500060544521605446216054472160543D211C
:102160006054002010BD0000002C0140000400401D
:102170000700010010B5040001D1012010BD3D2071
:10218000205C002804D13C216054200000F044FE73
:10219000C7E710B50400002901D13E2010E0042952
:1021A00001D13F200CE0082901D1402008E00C2992
:1021B00001D1412004E0102901D1422000E0432058
:1021C000205C012801D0012010BD0220002901D18E
:1021D0003E2210E0042901D13F220CE0082901D160
:1021E000402208E00C2901D1412204E0102901D14C
:1021F000422200E04322A0540122206800F00EFC9D
:1022000021681348814205D0124A914202D0124AF5
:10221000914204D14A6C80231B0213434B64216812
:102220000122814202D00848814207D18B680748C9
:102230001840062805D01304984202D008680243CB
:102240000A60002010BD00000004004007000100EB
:10225000002C0140004401400048014004000E00F1
:102260000020694608700125300006D0042E35D0C4
:10227000082E3AD00C2E3FD045E02068C1682E4A87
:102280000A40C260606A00F09AFE002231002068B5
:1022900000F0C4FB2268294829492A4B9A4205D0FC
:1022A000294B9A4202D0294B9A4209D1136A0B401A
:1022B00006D1136A034003D1536C254F1F40576466
:1022C0002268136A194005D1116A084002D11068CA
:1022D000A8431060002E19D13E2028E02068C16874
:1022E0001C4A0A40C260A06ACDE72068C1681A4A49
:1022F0000A40C260E06AC6E72068C168174A0A401F
:10230000C260206BBFE76846057011E0042E01D162
:102310003F200CE0082E01D1402008E00C2E01D116
:10232000412004E0102E01D1422000E0432025543A
:1023300068460078F2BD0000FFFDFFFF4404000086
:1023400011110000002C01400044014000480140F0
:10235000FF7FFFFFFFFBFFFFFFF7FFFFFFEFFFFF29
:10236000F8B504002068002502260169314015D027
:10237000C168314012D00221C94301610121217796
:102380008069800703D0200000F024FF05E02000D2
:1023900000F021FF200000F01FFF257720680427B0
:1023A0000169394016D0C168394013D00421C943AE
:1023B000016126778069C0218900014003D0200097
:1023C00000F008FF05E0200000F005FF200000F00D
:1023D00003FF2577206808260169314014D0C168C1
:1023E000314011D00821C94301612777C0698007B6
:1023F00003D0200000F0EEFE05E0200000F0EBFE30
:10240000200000F0E9FE25772068102102690A40CB
:1024100016D0C268114013D01021C943016126773C
:10242000C069C0218900014003D0200000F0D2FE25
:1024300005E0200000F0CFFE200000F0CDFE257763
:102440002068012102690A4008D0C268114005D005
:102450000121C9430161200000F056FF206880255A
:102460000169294008D0C168294005D08021C943AD
:102470000161200000F061FF20680169C90507D5EE
:10248000C1680D4004D05A490161200000F056FF98
:102490002068402102690A4008D0C268114005D076
:1024A0004021C9430161200000F049FF206820213C
:1024B00002690A4008D0C268114005D02021C943F2
:1024C0000161200000F03CFFF1BD0000F1B582B0D9
:1024D00000206B46187002983C23C05C012801D193
:1024E0000220FEBD0120029B3C2418550827414EC6
:1024F000C5020C00002A0AD0042A18D0082A28D0C5
:102500000C2A36D0102A46D0142A54D065E00298FE
:10251000006800F00BF90298006881690F43876139
:102520008169042291438161816922690EE00298E8
:10253000006800F02FF90298006881690D438561F9
:1025400081690E4086618169226912020A438261B3
:1025500045E00298006800F04EF902980068C169F1
:102560000F43C761C16904229143C161C1692269F6
:102570000EE00298006800F06DF902980068C169E9
:102580000D43C561C1690E40C661C169226912026D
:102590000A43C26123E00298006800F089F90298BA
:1025A0000068416D0F434765416D042291434165C9
:1025B000416D22690EE00298006800F0A1F90298CE
:1025C0000068416D0D434565416D0E404665416DA6
:1025D000226912020A43426501E069460870002040
:1025E00002993C22885468460078FEBD0000000035
:1025F000FFFEFFFFFFFBFFFFF8B504000026684663
:1026000006703C20205C012801D10220F2BD270089
:102610003C3701253D7002203D22A054206882688D
:10262000284B13408360086802003FD010283DD03B
:1026300020283BD0302839D0402830D0502820D016
:10264000602825D0702806D02B03984235D05B0037
:1026500098420AD02FE0CB684A688968206800F069
:10266000AFF920688168772208E0CB684A688968FA
:10267000206800F0A5F920688168AA030A438260F7
:102680001BE0CA684968206800F06AF950210EE032
:10269000CA684968206800F079F9602107E0CA68D3
:1026A0004968206800F05CF9402100E001002068E2
:1026B00000F07EF901E0684605703D2025543E702B
:1026C000FFF736FE8800CEFFF0B50668754A764BF8
:1026D000764C894DA84201D0A04206D17027BE4356
:1026E00037004E683E43A84208D0A04206D0834C33
:1026F000A04203D0984201D0904203D1954C34407F
:10270000CE6826438024A6434C69344304608C6819
:10271000C4620C688462A84203D0984201D09042FF
:1027200001D10969016301214161F0BDF8B5026A77
:1027300001239A430262036A42688469834D2540FB
:102740000C682C4300940224A3438C681C43554B13
:10275000554D694EB04203D0A84201D098420AD1EB
:102760000827BC432700CC683C430427BC43B04245
:1027700003D0A84201D0984205D1764B13404D6951
:102780001D438A692A434260009A82614968416315
:102790000462F1BD70B5026A10239A430262026AB4
:1027A000436884696A4D25400C6824022C43202527
:1027B000AA438D682D0115434F4A904208D18022CB
:1027C00095432E00CA68150135434022954305E024
:1027D000354A904202D0334A904206D17D4A1A408F
:1027E0004B698E691E43B30013434360846149689B
:1027F0008163056270BD70B5026A574B1340036276
:10280000046A4268C369514D1D400B682B43534D08
:1028100025408C6824022C43374DA84207D1594DDE
:102820002540CC6826022E43574C344005E01E4D0F
:10283000A84202D01B4DA84206D1674D15404A69F7
:102840008E69164332012A434260C3614968C163FD
:10285000046270BD30B5026A604B13400362036AC4
:102860004268C4693A4D25400C6824022C435C4DF3
:102870001D408B681B032B431F4DA84205D00A4DFA
:10288000A84202D0074DA84204D1564D15404A69CE
:1028900092012A434260C46149680164036230BD09
:1028A00000000000004801400044014000040040D6
:1028B00070B54D4A036A13400362046A4368456D6C
:1028C0004A4E2E400D683543494E26408C682404FC
:1028D0003443094EB04205D0464EB04202D0464E77
:1028E000B04203D11A404B691B0213434360456554
:1028F00049688165046270BD002C014000200040E1
:1029000030B5026A3D4B13400362036A4268446D6E
:102910003B4D25400C6824022C433A4D1D408B68EA
:102920001B052B43384DA84205D0324DA84202D09A
:10293000314DA84204D1354D15404A6992022A43CF
:10294000426044654968C165036230BD8CFFFEFF8B
:10295000FF8CFFFEFFFCFFFFFFFEFFFFFFFDFFFF01
:1029600030B5036A046A0125AC4304628469F0252A
:10297000AC431201224382610A229343194301624C
:1029800030BD0000FFF7FFFFFFFBFFFF30B5036A1C
:102990001024A34303628469036A1E4D2540120379
:1029A0002A438261A022934309011943016230BD89
:1029B0008268174B1340194307220A43826070470D
:1029C00030B58468144D254029430A431902114348
:1029D000816030BDFFF3FFFFFFCFFFFFFFEFFFFF81
:1029E000FFDFFFFFFFBFFFFFFFFFFEFF8FFFFEFFC9
:1029F000FFFFFDFF0044014000480140FFFFEFFFE3
:102A0000FF8FFFFEFFFFDFFF002C0140FFFFFBFFFA
:102A10008FFFCFFFFF0FFFFFFF00FFFF10B5C906BD
:102A2000C90E036A01248C40A3430362036A8A40EF
:102A30001A43026210BDFEE7F0B59BB010220021E0
:102A400017A800F07EFC0C22002107A800F079FCFA
:102A50001C220021684600F074FC342200210AA8E0
:102A600000F06FFCA64DC94828601F206860002454
:102A7000AC60FA20C000E8602C616C618020A86125
:102A80002800FFF71DFB002801D000F051FC80203A
:102A90004001179017A92800FFF7AEFD002801D0CC
:102AA00000F046FC2800FFF765FB002801D000F08D
:102AB0003FFC07940894099407A9280000F094FCAF
:102AC000002801D000F034FCC64F00970194029416
:102AD0000394049405940694002269462800FFF7A5
:102AE000F5FC002801D000F023FC602600960422AB
:102AF00069462800FFF7EAFC002801D000F018FC26
:102B00000097082269462800FFF7E0FC002801D062
:102B100000F00EFC00960C2269462800FFF7D6FC58
:102B2000002801D000F004FC0A940B940C940D943E
:102B30000E94802080010F90109411941294000341
:102B400013901494159416940AA9280000F07AFCA6
:102B5000002801D000F0ECFB280000F0D3F81BB0F7
:102B6000F0BD30B587B01C220021684600F0E9FBBB
:102B70009D4C9E482060042060600025A560642074
:102B8000E0602561A5612000FFF79AFA002801D0D6
:102B900000F0CEFB2000FFF7EDFA002801D000F096
:102BA000C7FB6020009001950295049500226946BC
:102BB0002000FFF78BFC002801D000F0B9FB2000BB
:102BC00000F0A0F807B030BD38B594B01C22002149
:102BD000684600F0B6FB3422002107A800F0B1FBE4
:102BE000834D8448286000246C60AC609620C0004F
:102BF000E8602C616C61AC612800FFF761FA002885
:102C000001D000F095FB2800FFF7B4FA002801D0AE
:102C100000F08EFB60200090F020400028E038B5E6
:102C200094B01C220021684600F08BFB3422002166
:102C300007A800F086FB704D704828600F20686080
:102C40000024AC600320E8602C616C61AC6128005A
:102C5000FFF736FA002801D000F06AFB2800FFF7E2
:102C600089FA002801D000F063FB60200090022068
:102C700001900294039404940594069400226946FA
:102C80002800FFF723FC002801D000F051FB079437
:102C9000089409940A940B94802080010C900D9460
:102CA000139407A9280000F0CDFB002801D000F004
:102CB0003FFB280000F026F815B030BD81B0016858
:102CC0004F48504A914201D1C10C0FE0474A91420E
:102CD00001D1D10B0AE0474A914202D180218902F9
:102CE00004E0464A914208D18021C90202680A43A1
:102CF0000260006801400091009801B07047000038
:102D000010060020F8B586B00400142200216846A1
:102D100000F017FB21683C4F022401263B480025A8
:102D20001A4A91421FD10168314301600168314064
:102D300005910599016821430160006820400590D4
:102D40000598900D009001940295039504946946AE
:102D5000A020C00500F0E8FB4020009001940295FF
:102D60000395049637E0214A914211D1202102684F
:102D70000A4302600068014005910598009601949D
:102D80000295039504946946214826E0002C0140F1
:102D9000184A91420FD1082102680A430260006874
:102DA00001400591059800960194029503950494BD
:102DB0006946184811E0114A914210D10168214337
:102DC00001600068204005900598780D00900194FE
:102DD0000295039504946946380000F0A5FB07B0FE
:102DE000F0BD0000500001005C0600200020004003
:102DF000A806002000440140F406002000480140DD
:102E000040100240002C01400004005034100240E9
:102E100000140050000C00507047FEE738B5040065
:102E200001D1012032BD256883482818142100F003
:102E3000D1FC8000206402202521605428687F494D
:102E40000140296020680168A268E3681343226991
:102E50001A4363691343A2691A43E3691343226A5D
:102E60001A430A430260200000F083F90025A0689D
:102E70008021C901884200D1656020798006800EDA
:102E8000616C0860E06CA16C4860606800280AD042
:102E9000052808D2200000F081F9206D0560A06DA2
:102EA000616D486002E025656565A565E563012003
:102EB0002521605424202554002032BDF2B50400A1
:102EC000002000262421615C012901D10220F2BDED
:102ED0002100243101250D702527E75D012F2DD11B
:102EE00002212527E155E06320680168A9430160BC
:102EF0000099200000F01EF92068216B002901686C
:102F000001D00E2205E0042291430160206801688F
:102F10000A220A430260616C28020A68D20302D5C1
:102F20000A6802430A60216D002902D00A68104332
:102F30000860206801680D43056003E08022E263B9
:102F4000087001263000F2BDF0B5002809D001005C
:102F5000243100222523C35C022B04D00423C36345
:102F60000A700120F0BD03681C680E25AC431C608C
:102F7000446C6F4B25681D40256004682568012658
:102F8000B54325602E4C2568AC464025475D1C2581
:102F90003D400127AF4065462F432760C46C856CD8
:102FA0006C60046D002C05D025682B402360836D78
:102FB000446D63602523C6540A700020F0BDF8B547
:102FC0000021002401262522825C022A03D004214C
:102FD000C16301242DE0026813680E25AB43136022
:102FE00002681368B3431360436C514A1D6815406F
:102FF0001D60134B1D68AC464025475D1C253D40B8
:103000000127AF4065462F431F60C36C856C6B6022
:10301000036D002B05D01D682A401A60826D436D38
:103020005A602522865424228154816B002900D0C5
:1030300088472000F2BD0000F8FFFDBF0F80FFFFB2
:1030400004000240FEB55D490A68029202681368F6
:1030500001934023C35C1C241C406B461C7020233E
:103060000424029D6E4636780427B7402F4015D0C1
:10307000019D254012D015682B4002D11368A3434F
:1030800013604A684023C35C1C251D40AC401443B8
:103090004C60016B002949D08847F7BD0124002509
:1030A000029EB44602276E463678B74066463740E1
:1030B0001BD00226019F374017D017683B4005D12F
:1030C00013680A27BB431360252284544A684023AF
:1030D000C35C1C241C40A64016434E60242145546A
:1030E000C16A002922D08847F7BD08236E4636788A
:1030F0000827B7406646374018D0019E334015D0A8
:1031000013680E26B34313604A684023C35C1C2631
:103110001E400123B34013434B60C4632521445434
:1031200024214554416B002900D08847F7BD000099
:10313000FFFEFFFFF0B5C46C856C6C60046D002C65
:1031400002D0846D456D6C601D4C26684025475D3E
:103150001C253D400127AF4037432760046863606A
:103160008068102802D1A260E160F0BDA160E26039
:10317000F0BD10B50400206C0321884311494018AC
:10318000606420780838142100F024FB0E49A16403
:103190000121C006C00E8140E16410BD017989069D
:1031A000890E8A00094BD2180265094A426501223C
:1031B000491E8907890F8A408265704700000240D6
:1031C000040002400008024080080240FC0802405F
:1031D00040090240704770477047FEE74F48036858
:1031E0004F490A789B0102D5130001221A43036854
:1031F0005B0102D5130002221A4303681B0102D5AA
:10320000130004221A430368DB0002D513000822CE
:103210001A4303689B0002D5130010221A43036867
:103220005B0002D5130020221A430368002B02D54D
:10323000130040221A430A700168802212040A43D4
:103240000260704780B5FFF7C9FF3648364908600D
:1032500000F0DCFA00F03CFE00F01BF800F04CFE41
:10326000FFF7EAFB00F01CFF00F038FF01F034F834
:1032700001F036F801F0E8F801F06AF9FFF771FCA7
:10328000FFF7A2FCFFF7CBFC01F0B6F901F08AFAD8
:10329000FEE730B591B0342104A801F09FFA6846EA
:1032A00000210022002300241EC08020800001F0A5
:1032B0009DFA0A200490F630079008944020099067
:1032C00001200A9002250B950C950D9408200E9074
:1032D000E02000030F902807109004A800F0E6FA01
:1032E000002801D000F024F8072000900195A802E2
:1032F000029003940121684600F0BCFC002801D034
:1033000000F016F811B030BD00680849884200D0BE
:10331000704780B501F090FA01BD000060100240D6
:10332000F50800200020000808ED00E0000400403F
:1033300080B572B601F0B3FAFCE77047704770478A
:10334000704710B50400080011000200200001F0D1
:1033500047FA200010BDFEE710B5040044300029F4
:1033600002D14422A25C08E0042901D1427804E0A1
:10337000082901D1827800E0C278012A01D0012019
:1033800010BD0222002901D1027008E0042901D1F8
:10339000427004E0082901D1827000E0C27004226A
:1033A000206800F0B3F82068416C802212020A43C2
:1033B000426420680121094A904202D0084A9042A2
:1033C00007D18368074A1A40062A05D00B049A429F
:1033D00002D0026811430160002010BD002C0140A2
:1033E0000004004007000100F0B53C22825C012A85
:1033F00001D10220F0BD01223C23C25402233D240E
:10340000035505686E68AB68334CA54203D1334F52
:1034100037404E683E437027BE430F6837436F60A6
:103420000568A54202D02E4CA54204D18024A343B6
:1034300089681943A9603D21425400213C228154EE
:103440000020F0BD10B53C22825C012A01D102208F
:1034500010BD01223C23C254CA68224B13408A6823
:103460001A43214B13404A681A43204B13400A6801
:103470001A431F4B13400A691A43164B13404A69FB
:103480001A431C4B13400A6B1A431B4C14408A69A5
:10349000130423430268104CA24214D1174C1C4061
:1034A000CB6923430D4C1C408B6A1B052343144CF2
:1034B0001C400B6A2343134C1C404B6A2343124CA1
:1034C0001C40CB6A23435364FFE700213C22815414
:1034D000002010BDFFDFFFFF002C0140FFFF0FFFAA
:1034E00000040040FFFCFFFFFFFBFFFFFFF7FFFFB3
:1034F000FFEFFFFFFFBFFFFFFFFFF0FFFFFFFFEF4B
:10350000FFFFFFFEFFFFFFFDFFFFFFDF10B5C90656
:10351000C90E036A04248C40A3430362036A8A40F1
:103520001A43026210BDFEE7FFB500220F2302938B
:103530002CE0052602E0974FB842FAD1AE40264370
:10354000009C2660944C2568DC4325404E68F602BA
:1035500000D51D43904E3560756825404F68BF0209
:1035600000D51D4375608D4D6E6826404D68AD03D6
:1035700000D51E43894D6E602E6834404E68F603B8
:1035800002D526001C0034432C60521C0B681C0022
:10359000D44078D0012595402B40F6D05400032725
:1035A000A740FE4301964E68B707BF0F012F03D017
:1035B000B607B60F022E0ED18768019E3E40CF6837
:1035C000A740374387604668AE434D68EF06FF0F5C
:1035D0009740374347600D79AD07AD0F032D25D0D8
:1035E000C568019E2E408D68A5403543C5600D79A4
:1035F000AD07AD0F022D19D1D508AD0045192E6AC2
:10360000039697001C263E406F463E70039EB446CC
:10361000029F6E463678B7406646BE43B4460F6991
:103620006E463678B740664637432F6207680326F2
:10363000019D3D404F683740BC4627006446BC4072
:103640002C4304604C68350425409ED0544C9508AA
:10365000AD00641900942468D70018253D40029FEE
:10366000AF40BC43A027FF05B84201D1002665E763
:103670004C4FB84201D1012660E74B4FB84200D011
:1036800059E702265AE7FFBDF0B585B0020043486E
:1036900000900491002346E0052703E03D4DAA4237
:1036A000FAD10327BC46DF0018253D406746AF40EE
:1036B000BE4218D1039EF543009E36682E40009FFF
:1036C0003E60009E76682E40009F7E60324E766897
:1036D0002E40314F7E603E6835403D60019D2D6833
:1036E000A543019C256003245D00AC40019414684F
:1036F000019D25431560DC08A4001419256A9F006C
:103700001C263E400F27B740BD432562019DEC4378
:103710009568254095605568029EB5435560D5680B
:103720002C40D4605B1C049CDC4025D001249C40D0
:103730000294049C029D25400395039C002CF1D02B
:10374000174C9D08AD006419019426680F24DD0014
:1037500018272F40BC402640A025ED05AA4201D1E4
:1037600000279FE70F4DAA4201D101279AE70E4D8E
:10377000AA4293D1022795E705B0F0BD0069084041
:1037800000D00120C0B27047002A01D0816170478B
:1037900081627047000C00500018024080180240FF
:1037A000601802400004005000080050CA0F00D00A
:1037B000494203105A400DD004B500D3404200F0F6
:1037C00009F8009AD20701D34942124200D540427B
:1037D00004BD0000094214D088420FD30122030C1B
:1037E00001D100041204002300185B418B4200D376
:1037F0005B1A5241F8D319001000704701000020F5
:10380000704708B501F05EF808BDFEE7F8B501F0B5
:103810005BF80600802464001F4D28682043286060
:103820002868400506D401F04FF8801B0328F7D321
:103830000320F2BDA001686001F046F80026AE60EA
:103840000700A8683821014006D001F03DF8C01BF0
:1038500012498842F5D3EBE72C602C6001F034F874
:1038600004002868800105D501F02EF8001B03280C
:10387000F7D3DDE7A80CE860AE610020C043286202
:103880000748084908600848006801F023F8002844
:1038900000D00120F2BD000000100240891300009A
:1038A0000024F400600000205C000020FEB507004A
:1038B0001BD0A84C3878C00719D5A168382008401B
:1038C000E1688025AD02102808D18807800F032801
:1038D00006D079686808814234D13BE00828F8D1E5
:1038E0002068054003D07868002800D1B5E1387819
:1038F00080077BD5A06838210140E268B948BA4DFD
:1039000010294ED19207920F022A4CD0F968002953
:1039100000D196E0216808403969014321602068A0
:10392000A10D0143216000F0CFFF3E000700206899
:10393000400500D57DE000F0C7FFC01B0328F6D38B
:103940000320FEBDA022D202914207D1216882004D
:103950000A43226021680843206007E02068A349E9
:10396000014021602068A249014021607868002858
:103970000BD000F0A9FF060020682840B7D100F066
:10398000A3FF801B6528F7D3DAE700F09DFF060050
:1039900020682840ABD000F097FF801B6528F7D344
:1039A000CEE70029B2D12268520502D5FA68002A72
:1039B0003ED0626815407A6912022A43626000298B
:1039C0000ED121680840396901432160A4480121D2
:1039D00022689204520F9140FFF7FCFEA149086053
:1039E000A148006800F076FF002821D10225387830
:1039F00000070AD5A06838210140182931D1206E6E
:103A0000284002D0B869002812D03878400700D486
:103A1000A9E000200190A06838210140202942D16E
:103A2000E06D054000D19EE0B868002800D09AE023
:103A300013E1606805407069000228436060370048
:103A4000D4E7206889490140216000F03DFF05006E
:103A500020684005CAD500F037FF401B0328F7D384
:103A60006EE7B8690028206E0ED00121014321665F
:103A700000F02AFF0600206E2840C6D100F024FF87
:103A8000801B0328F7D35BE701218843206600F001
:103A90001BFF0600206E2840B7D000F015FF801BEA
:103AA0000328F7D34CE7E806E16B014008D1E16B4E
:103AB0000143E163E16B0840009000980120019010
:103AC0006B4D2868C00512D4A00D0090286800999D
:103AD0000143296000F0F8FE0600286800990140C3
:103AE00005D100F0F1FE801B0328F6D328E7B86863
:103AF0000121012805D00528E06D06D104220243EA
:103B0000E265E06D0143E16505E08843E065E06D55
:103B100004218843E0650226B86800280CD000F034
:103B2000D3FE0500E06D304016D100F0CDFE401B05
:103B3000A4498842F6D303E700F0C6FE0500E06D15
:103B4000304009D000F0C0FE401B9E498842F6D3A9
:103B5000F6E600BF001002400198002803D0E06B99
:103B600099490140E163F869002855D0A1683822DD
:103B70000A40102A52D08026B604944902282068B0
:103B800038D10140216000F09FFE050020683040E0
:103B900005D000F099FE401B0328F7D3D0E6E0687B
:103BA0008B490140386A0843796A0143B86A0002C8
:103BB0000843F96A0143386B0843E06020687108E4
:103BC00001432160E068F1000143E16000F07CFE08
:103BD0000500206830401FD100F076FE401B03280E
:103BE000F7D3ADE6FFC7FFFFFF80FFFFFFFFFEFF3C
:103BF000FFFFFBFF0140216000F066FE050020682A
:103C0000304005D000F060FE401B0328F7D397E654
:103C1000E06898490140E1600020FEBD01281CD009
:103C2000E0688107890F3A6A914216D170210140FC
:103C30007A6A914211D1FE21C9010140BA6A120289
:103C400091420AD1F82189030140FA6A914204D1D4
:103C5000400F4007396B8842DED00120FEBD0000D6
:103C60000024F400600000205C000020FFFEFFFF45
:103C700000700040F8B5070066D000917E480068EB
:103C80004007400F884218D27B4C206807218843A8
:103C900000990143216000F017FE009D0600206896
:103CA0004007400FA84207D000F00EFE801B454998
:103CB0008842F4D30320F2BD009539687B4C022082
:103CC00001420CD0490704D5A168E022D2010A4381
:103CD000A260A168744A0A40B9681143A16007252F
:103CE000ED433978C90732D57968012918D12068A0
:103CF000800329D5A06828400143A16000F0E4FDBD
:103D00003E000700A068382101407068C000814271
:103D10001CD000F0D9FDC01B2A498842F2D3C9E764
:103D2000022902D12068800103E0002903D1206824
:103D30004005DFD408E0032903D1226E1040D9D119
:103D400002E0E26D1040D5D10120F2BD37000098AD
:103D5000494909684907490F884217D2464800680F
:103D60000540009828434449086000F0ADFD009DDF
:103D70000600414800684007400FA84206D000F006
:103D8000A3FD801B0F498842F3D393E7387840079F
:103D900005D5A06846490140F8680843A06000F0D6
:103DA00019F84449A2681205120F9200895CC906ED
:103DB000C90EC840404908604048006800F08AFDCC
:103DC000F2BD000089130000FFFFFFEFFFFFFFFEC1
:103DD0008C80C11F30B507213A48344C3823A26883
:103DE0001A4006D123680122DB0A19408A401100DB
:103DF0001EE04208A5681D40082D01D1100030BD0D
:103E0000A5681D40102D16D1E368E5682D092940ED
:103E1000491C7F259B079B0F032B00D11000FFF748
:103E2000D9FCE168090A0D406843E168490F491C63
:103E3000FFF7D0FC30BDA0681840202802D18020B8
:103E4000000230BDA0680340182B02D1FA20C00147
:103E500030BD002030BD1A480168174800681A4A72
:103E60004904490F8900515CC906C90EC840704712
:103E700000000000FCFFFEEF0020024030B50722EA
:103E800002600F4B1C68144044601C68F0252D0133
:103E9000254085601B6814031C40C4600B48006803
:103EA00002400A6030BD0000FFF0FFFF001002403A
:103EB000FF8FFFFF28AB0008600000205C0000209F
:103EC000081002400024F40064AC00080020024006
:103ED00010B5002407480168820D0A4302600320E0
:103EE00000F0F8FC002801D0012401E000F02EFDD4
:103EF000200010BD00200240F8B586B01422002139
:103F00006846FFF71EFA6048016804220A4302600F
:103F100001680422114005910599202102680A4395
:103F2000026002681140059105990124016821434E
:103F300001600168214005910599016802220A4348
:103F40000260016802221140059105990827016865
:103F5000394301600068384005900598002202212D
:103F60004A48FFF711FC01221021A020C005FFF7ED
:103F70000BFC00226021A020C005FFF705FC444E89
:103F8000002231004348FFF7FFFB00224021424856
:103F9000FFF7FAFB012280213F48FFF7F5FB0022E3
:103FA00002213E48FFF7F0FB012204213B48FFF7C6
:103FB000EBFB012230213748FFF7E6FBE02000024F
:103FC000009000250195029469463348FFF7ACFA4A
:103FD0000220009001940295039569462B48FFF753
:103FE000A3FA702000900194029503956946A020E1
:103FF000C005FFF799FA009601940295039569466A
:104000002448FFF791FA402000900194029503950F
:1040100069462148FFF788FA802000901126019612
:104020000295039569461C48FFF77EFAE00300906D
:10403000019502946946A020C005FFF775FA022099
:10404000009001940295039569461448FFF76CFAB5
:104050000420009001960295039569460F48FFF7EA
:1040600063FA009730040190029569460B48FFF708
:104070005BFA302000900196029503956946054849
:10408000FFF752FA07B0F0BD3410024000140050A0
:10409000087800000004005000080050000C005098
:1040A00080B501200C490A6802430A60096808408B
:1040B0000090009800220321092000F0E2FB092073
:1040C00000F0E4FB002203210A2000F0DAFB0A20C2
:1040D00000F0DCFB01BD00BF381002403EB50C22F1
:1040E00000216846FFF72DF96D4C6E482060802056
:1040F000C00260600020A060E060802109062161AC
:104100000421616120830125A576E5616062A062DA
:104110002C22A5542063072161633C22A054E06453
:10412000200000F046FC002801D0FFF701F90095BF
:1041300001956946200000F0E3FD002801D0FFF75B
:10414000F7F8594800906946200000F0D9FD002892
:1041500001D0FFF7EDF8554800906946200000F0C7
:10416000CFFD002801D0FFF7E3F8514800906946E1
:10417000200000F0C5FD002801D0FFF7D9F84D4818
:1041800000906946200000F0BBFD002801D0FFF739
:10419000CFF8494800906946200000F0B1FD0028A2
:1041A00001D0FFF7C5F8454800906946200000F0AF
:1041B000A7FD002801D0FFF7BBF8414800906946F1
:1041C000200000F09DFD002801D0FFF7B1F820008D
:1041D00000F0E2FF37BD70B58CB00600142200215C
:1041E00001A8FFF7AEF81822002106A8FFF7A9F8EA
:1041F00030682C49884250D18020C00106900024AC
:104200000A9406A801F07CF8002801D0FFF790F886
:104210002C4880214903C2680A43C260C268114029
:1042200000910099012102680A430260026811406E
:1042300000910099022102680A430260006801406F
:10424000009100988320019003250295039401A911
:10425000A020C005FFF768F91B4801900295039460
:1042600001A91A48FFF760F9194D1A48286005207E
:104270006860AC60EC6080202861803068618000FC
:10428000A8612020E8612C622800FEF7C7FD002805
:1042900001D0FFF74DF83565AE620CB070BD00007F
:1042A0006003002000240140020000048000001C84
:1042B000002000B4000100200002002400040028B7
:1042C0000008002C341002400704000000040050D5
:1042D000280400200800024010B5524C524802E069
:1042E00010B5524C52482060524860600020A060D7
:1042F0000121E16020616061A061E0612062200035
:1043000001F0A6F8002801D0FFF712F800212000E4
:1043100001F024FC002801D0FFF70AF8002120005A
:1043200001F039FC002801D0FFF702F810BDF8B504
:104330008CB00400142200216846FFF702F818220E
:10434000002106A8FEF7FDFF2068122701253A4C40
:104350000026354988421FD120200690089606A8DD
:1043600000F0CEFF002801D0FEF7E2FF20682843CE
:1043700020602068284005900598C020C00000906B
:10438000019702950396062004906946A020C00577
:10439000FFF7CAF8680517E0254988421BD1206855
:1043A000284320602068284005900598C0204001DF
:1043B0000090019702950396062004906946A0207C
:1043C000C005FFF7B1F8A805A1680143A160A16885
:1043D0000840009000980DB0F0BD10B50168A02411
:1043E000E4051648104A91420AD10168144A0A406D
:1043F0000260410D2000FFF747F98021C9000CE061
:104400000B4A91420CD101680E4A0A400260C10C6D
:104410002000FFF739F9802149012000FFF734F926
:1044200010BD00002C05002000540040780500203D
:1044300000580040BB7C7000341002403C10024029
:10444000FFFFDFFFFFFFBFFF80B53B483B49016037
:1044500082214900416000218160E022D200C260D7
:10446000016141618022920082610822C261016281
:10447000416281620723C3620163426301F0B4FBBE
:10448000002801D0FEF754FF01BDF1B586B014221B
:1044900000216846FEF755FF0698006827498842C4
:1044A00047D12748090C82680A438260826811401C
:1044B000059105990225016829430160006828409B
:1044C00005900598A8030090019500240294039498
:1044D000049469461B48FFF727F8EF010097019500
:1044E000029403940125049569461648FFF71CF8C9
:1044F000154E16483060132070601020B060F460D4
:10450000802030617461B461F46134623000FEF780
:1045100085FC002801D0FEF70BFF0698466506983B
:10452000B062009701950294039469460548FEF72E
:10453000FBFF07B0F0BD0000C403002000380040BE
:104540003410024000040050840400201C0002408B
:1045500080B5264826490160E121490241600021D9
:104560008160C16001610C2242618161C1610162AF
:104570004162816201F09CFD002801D0FEF7D8FE67
:1045800001BD10B586B004001422002101A8FEF779
:10459000D8FE20681649884226D11649802080021C
:1045A0008A6802438A608A6810400090009801205F
:1045B0000A6802430A6009680140009100990C21D1
:1045C000019102210291002103910491059001A91A
:1045D000A020C005FEF7A8FF002203211C2000F048
:1045E00050F91C2000F052F906B010BD380100202F
:1045F000004400403410024018B58FB00AA800BF34
:1046000056A1142202F018F9474C00210AA800F024
:10461000CEF8206005A800BF55A1142202F00CF9C5
:10462000002105A800F0C3F86060684655A1142277
:1046300002F002F90021684600F0B9F8A06002F02B
:1046400047F910B010BD000038B502F035FB0090FE
:1046500002F056FDFA21890037A002F058F9334CD8
:10466000334D02F088F9287A002811D103F030F98F
:1046700003F025FA02F0C2FE2621615CF7220A400F
:10468000C0000821084010432621605403F0D4FBE9
:104690000121684602F054FAE3E7000038B502F061
:1046A0000BFB0090FA21890026A002F030F9214C82
:1046B0001F4D02F060F9287A002805D103F026FC8E
:1046C00002F0CCFF03F0BCFC2078401C2070C0B28C
:1046D000032803DB0020207003F08FFD0A216846C9
:1046E00002F02EFAE5E700001CB502F0E5FA0090B2
:1046F000FA21890016A002F00AF90D4C02F03BF9EC
:10470000207A002804D0022809D103F047F806E0F7
:1047100003F02CFF607A04F048F903F007F80A214F
:10472000684602F00DFAE9E7D4080020F4070020FB
:10473000DC020020F40800205379735F5461736B2E
:10474000310000005379735F5461736B32000000D5
:104750005379735F5461736B33000000E0AC000861
:104760004946000800000000000000008000000032
:10477000ECAC00089D460008FEFF000000000000B1
:1047800080000000F8AC0008E9460008FEFF0000C9
:10479000000000008000000001000020842900D0FB
:1047A000C81C704780B502F011FA002002BD3EB56A
:1047B00004000D000820205EFFF7EEFF02A9019122
:1047C00000902B00226992B22168606802F002F921
:1047D000012801D000203EBD02983EBD002200BF4E
:1047E000094202D0491E4254FCD1704710B50E4C0C
:1047F00021680E4A0A4002432260610D884210D1AE
:104800000B480068062148430A49FEF7E3FF401CB5
:1048100000E0401E6169490503D50028F9D1032055
:1048200010BD002010BD000000700040FFF9FFFF28
:104830006000002040420F00024841680278891859
:10484000416070475400002010B5C2001823134087
:10485000FF249C40E2438907090E9940030004D4D9
:1048600013489B089B00C01806E0124B0007000F7E
:10487000083880088000181803681A401143016046
:1048800010BD80B5FFF7E0FF01BD0000010005D4B9
:104890000121C006C00E8140074801607047BFF388
:1048A0004F8F064806490860BFF34F8F00BFFDE7F2
:1048B00000E400E01CED00E000E100E00400FA0587
:1048C0000CED00E07047FEE701484068704700BF0C
:1048D0005400002010B586B0010000221020FFF720
:1048E000D0FF1020FFF7D2FF022013490A680243CD
:1048F0000A60096808400090009801A902A8FFF723
:10490000BDFAFFF7A8FA0D4C0D4921600D49E16091
:104910000D49FEF75FFF401E606000202061A0602F
:104920002000FDF7CDFB002803D12000FDF7D7FBC9
:1049300000E0012006B010BD3C100240C40500207C
:1049400000040040E703000040420F0080B50C481F
:10495000012142680A434260426811400091009977
:104960008021490502680A43026000680140009105
:104970000098002203210120C043FFF782FF01BD00
:104980003C10024010B504231940436907248C40B1
:10499000A3438A401A43426110BDC068C021090187
:1049A0000140481E8041C00F704780684107C80F12
:1049B0007047FEB5050000270097002D01D10120AA
:1049C000FEBD2C0054346068002804D12800FFF795
:1049D00002FCA760277028688168C90014D4816828
:1049E000724A0A408021490511438160704800687D
:1049F0007049FEF7EFFE401C400001E00098401EA9
:104A0000009000980028F9D12A6890680126C0001B
:104A100007D46068102101436160A0683043A06042
:104A2000012790686168C90600D4400700D5B5E049
:104A3000606861490140022008436060906830402E
:104A400072D1286B002801D0310300E000212869D1
:104A5000002802D54000400800E070050190A87EC3
:104A60006B461870AB68287E800318436B7EDB03AF
:104A7000034368460078400318430143EB680B4347
:104A8000019818432C21695C490001432020285CCF
:104A900001280ED168460078002803D108003104AF
:104AA000014306E06068202303436360A06830434D
:104AB000A060686A002806D0E0235B000340A86A73
:104AC000184308430100D0683C4B03401943D160B0
:104AD0006868810F8907E86C08433C21695C0129FB
:104AE00007D10200286C696C0143A86C084330436D
:104AF000104329680A69324B1340184308616868FB
:104B0000C021090688420FD0494288420CD080213A
:104B10000906884208D02B490B682B4A1A40F0231B
:104B20009B03034013430B606A6B00212868FFF767
:104B300029FFAA6B25492868FFF724FF29690F2060
:104B4000C043002904D129688A6A104388620CE0B6
:104B50007205914209D129688A6AEA69521E520790
:104B6000D20E9040E26802438A62286841690220BE
:104B7000C0434907490F6A6B914206D10021A160E9
:104B800061680840064366600DE0616808401021D6
:104B900001436160A0683043A06003E060681021B9
:104BA0000143616001273800FEBD0000E8FFFF7F80
:104BB00060000020400D0300FFFEFFFF0102FEFF2A
:104BC00002FCFF1F08270140FFFFC3FF04FFFF0790
:104BD000F8B504000D00160021688A68022052070B
:104BE00044D45422A25C012A40D001225427E25529
:104BF0003E4FCB6813400AD18B68134003D08B68BB
:104C00003B40184388602068C1680A43C2602000A6
:104C100000F0EBF9010029D133002A0020005430C4
:104C20004168334D0D4080214900294341600021F6
:104C30008160304D266DF5622F4D266D35632F4D09
:104C4000266D75631C2526683560017020684168F3
:104C500010250D43456021684031206DFEF72EF987
:104C600021688A68174004223A438A60F2BDF8B589
:104C700004005420205C012801D10220F2BD27004D
:104C8000543701253D70200000F084F9060022D140
:104C9000206D2521415C022907D1FEF755F9060058
:104CA00003D0786840210143796020684168102270
:104CB00091434160300012D1200000F0DFF906007E
:104CC00004D17868084901400D437D602068C168BF
:104CD00001229143C160002038703000F2BD2000F5
:104CE00000F0CCF9F2E70000FFFEFFFFE8FFFF7FD6
:104CF000FEF1FFFFE3500008755100087F510008E6
:104D0000F1B585B000206A46507001900598542294
:104D1000805C012801D1022021E1059854300290E5
:104D20000125057005980668B068400700D509E1BF
:104D300001910598006903900198406804908949A1
:104D4000894A8A4880231B06049C022C039C00D1BC
:104D5000CEE09C4201D0844207D101980068B46A39
:104D60004003400B2043B06280E0019800680F24AC
:104D7000470302D14000C50E47E0284244D18707CF
:104D800043D4450701D502253FE00825284201D03C
:104D900003253AE0C70601D5042536E0870601D58C
:104DA000052532E0470601D506252EE0070601D588
:104DB00007252AE0C70528D4850501D5092524E063
:104DC000450501D50A2520E0050501D50B251CE088
:104DD000C50401D50C2518E0850401D50D2514E086
:104DE000450401D50E2510E0050401D50F250CE082
:104DF000C50301D5102508E0850301D5112504E080
:104E0000400301D5122500E000250498C006C00E1D
:104E10006F4638700298C768BC46684607780F200E
:104E2000B840674687436846007885403D4302980E
:104E3000C56001984068059DED6987087F1CBD42EB
:104E400014D3019D2D68C006C00E6F463870B76A36
:104E5000BC46684607780F20B84067468743A80ECF
:104E600004406846007884403C43B46201988068FE
:104E7000019C2568059C24682D026669AE43284084
:104E80003B4D05403543656101980468234061D07E
:104E90001368C8431840374B9C4217D180231B042A
:104EA000184257D114682140084303431360324825
:104EB00000683249FEF78EFC401C0C2148430190EB
:104EC0000198002846D00198401EF8E72C4B9C42E0
:104ED00002D180235B0404E02A4B9C423AD1802318
:104EE000DB03184236D1146821400843034327E00E
:104EF0009C4201D0844206D101980068B46A400304
:104F0000400B8443B46201980468234022D01368A4
:104F1000C8431840174B9C4203D1136819401A4BE1
:104F20000CE0174B9C4203D113681940174B05E066
:104F3000144B9C420ED113681940154B03400B4390
:104F4000136007E002984068202101430298416005
:104F5000684645700020029908706846407806B09F
:104F6000F0BD0000FFFF3FFE082701400400008065
:104F700000FFFF07001000B060000020400D03009C
:104F8000004000B8002000B4FFFF7FFFFFFFFFFEDE
:104F9000FFFFBFFFF8B5050028688168490722D5E3
:104FA00081681024890704D481686D4A0A4022432D
:104FB0008260FFF789FC0427060028688068384073
:104FC00011D0FFF781FC801B0328F6D32868806886
:104FD0003840F2D0A86D0443AC65E86D012101436F
:104FE000E9650120F2BD0020F2BDF8B50500002002
:104FF000009028688168012421403DD110278168F4
:10500000584A0A4030D18168554A0A40224382609A
:105010005548006800020CD5544800685449FEF712
:10502000D9FB401C01E00098401E00900098002829
:10503000F9D1687E01281FD0FFF746FC06002868DA
:105040000168214018D18168214004D18168444A17
:105050000A4022438260FFF737FC801B0328EED30F
:10506000286800682040EAD1A86D0743AF65E86D65
:105070000443EC650120F2BD0020F2BDF8B5060046
:10508000306881688268D20729D5890727D410241F
:105090000125816805220A40012A18D18168304A19
:1050A0000A40022111438160032031680860FFF744
:1050B0000BFC070030688068284010D0FFF704FC24
:1050C000C01B0228F6D9306880682840F2D0B06D45
:1050D0000443B465F06D0543F5650120F2BD002081
:1050E000F2BD38B5846AA16D50220A402BD1A06D63
:1050F000802189000143A1652068FFF74EFC00284C
:105100001DD0A07E00281AD120680168090716D595
:105110000125FFF74AFC00280AD1206841680C22CB
:1051200091434160A06D0D4901400D43A56506E026
:10513000A06D20210143A165E06D0543E5652000D8
:1051400002F06AF831BDA16DC90603D5200003F055
:105150009FFC31BD216D496B884731BDFFFEFFFFCC
:10516000E8FFFF7F17000080082701406000002053
:10517000400D030080B5806A03F08BFC01BD80B553
:10518000806A816D40220A438265C16D04220A4310
:10519000C26503F07DFC01BDF1B586B0002400942A
:1051A000039406985421405C012801D102209AE022
:1051B000069E5436012535700698FFF75FFF694655
:1051C00008710698006881681027294000D084E0A3
:1051D0000699543102914968444A0A400221114318
:1051E000029A5160C168424A0A400592C168414A28
:1051F0000A40C26002940820069909688A683E4BFA
:105200001340802212061A438A60069909683B4BB4
:105210008A68D20F0ED0009A521C0092009A9A42CD
:10522000F6D3069854304168022291430F434760F9
:10523000047045E0B4228A58039B5206520E9A1815
:105240000392029A521C0292401ED5D12A4E8868BF
:10525000304028438860069800680490B421405884
:105260007F218843009003980299FEF7B3FA01006A
:10527000009801430498B422815006980068816820
:105280000E40022131438160FFF71EFB059E009016
:10529000069800688168294014D0FFF715FB009933
:1052A000401A0228F4D90698006880682840EFD098
:1052B0000698543041680F43476081680D4385600C
:1052C000012010E0C1680E43C660069E5436706827
:1052D000022188430543756002E0706807437760E8
:1052E00034706846007907B0F0BD0000FFFEFFFF94
:1052F00003800000FC7FFFFFE8FFFF7F00F2020059
:10530000FEB5040000206A461070494D21688903EB
:1053100055D5019080204005296B014008D1296BAB
:1053200001432963296B08400190019801200190F5
:1053300040480068A90D01433E480160FFF7C4FAE8
:1053400006003C480068C00505D4FFF7BDFA801B85
:105350000328F6D323E0296DC02080000840364F93
:1053600000280ED0616988420BD0286D3840296D25
:10537000802252020A432A65296D304A0A402A6572
:105380002865C0070FD5FFF79FFA0600286D800734
:1053900009D4FFF799FA801B29498842F6D30320E4
:1053A0006946087004E0286D074060693843286545
:1053B0000198002803D0286B2249014029632078F6
:1053C000C00705D5A86C0321884361680143A9641F
:1053D0002078800605D5A86C1B490140A0680843C9
:1053E000A8648020C001216801400DD0A96C89000B
:1053F000890822690A43AA6421690204914203D1FF
:10540000296882000A432A60216809050DD5A96C24
:105410000E4A0A40E1681143A964E168814204D15F
:105420002868802149020143296068460078FEBD52
:105430000C10024000700040FFFCFFFFFFFFFEFF6A
:1054400089130000FFFFFFEFFFCFFFFFFF3FFFFFCC
:1054500070B5040001D1012070BD25004035002643
:105460006878002803D12E702000FEF760FF24200A
:1054700068702068016801229143016060683249C8
:10548000014020680161216830488A6802408A60D2
:10549000E1680129A16801D1C24301E0842212021E
:1054A0000A4321688A60E168022903D18021090149
:1054B0002268516021684A68254B13434B6021687C
:1054C000CA681040C860206961690143A069000290
:1054D00008432168C860E069216A014320680160CF
:1054E0002068016801220A4302606E602020687013
:1054F0002663AE70002070BD38B5040001D10120D4
:1055000032BD2500403524206870206801680122E2
:10551000914301602000FEF760FF00206860687022
:105520002063A870287032BD20202168C8612168DE
:105530004A68084B13404B602100403148700020FE
:1055400088700870FEBD0000FFFFFFF0FF7FFFFFC7
:105550000080000200E800FEFEB504000F00160007
:105560001D0040304078202800D0A2E00898002894
:1055700003D06846808C002805D18020800021005F
:105580004031486091E04020205C012800D190E04B
:10559000012040216054FFF797F9029000901923F1
:1055A0000122D103200000F0C1F900287DD12B0099
:1055B000320021202100403148704020210040313C
:1055C0008870002021004031486008986062684679
:1055D000808C608500206063029801900A9800909A
:1055E0003900200000F036F9002803D000204021C7
:1055F00060545AE0608DFF283AD9FF2020850020B2
:10560000009080235B04FF223900200000F08FFA15
:105610000A9E029D2A003100200000F0B3F9002804
:1056200043D1606A007821688862606A401C6062C9
:105630008548618D09186185218D08182085618D47
:10564000002928D0000426D10095330000228021B3
:10565000200000F06BF9002827D1608DFF280FD9BA
:10566000FF2020850020009080235B04FF220EE0B5
:10567000628D22850020009080239B04D2B2C3E774
:10568000628D22850020009080239B04D2B23900D5
:10569000200000F04CFA608D0028BBD131002A00B8
:1056A000200000F098F9002801D00120FEBDFFF78E
:1056B0003BFF0220FEBD0000FEB584B00600403076
:1056C0004178202900D0BBE00C99002902D00D9F21
:1056D000390003D1802189004160A0E04020305C86
:1056E000012800D1ACE03500403501202870FFF7DB
:1056F000EBF804003068806900040DD5FFF7E4F88A
:10570000001B1A28F6D3202069680143696068707D
:105710000020A870287082E002966846038B828A77
:1057200030464030039022206870402003998870F2
:105730000026039846600C980299486202984785B3
:105740000298466301940E9800906846018A029878
:1057500000F0AEF8002802D0039806705FE08020C9
:105760004004019039480299498DFF293AD9FF2117
:10577000029A11850090019BFF226846018A0298D7
:1057800000F0D5F9029D0E9F00943B0000220421F9
:10579000280000F0CBF8002841D12868406A696AE7
:1057A0000870686A401C68622749288D401828855F
:1057B0006A8D51186985698D002926D0000424D18D
:1057C00000943B0000228021280000F0AFF8002860
:1057D00025D1688DFF280DD9FF2028850096019BD3
:1057E000FF220DE002994A8D0A85009080239B04D8
:1057F000D2B2C2E76A8D2A85009680239B04D2B27A
:105800006846018A280000F092F9688D0028BBD113
:1058100039002200280000F0DEF8002801D0012025
:105820000FE020202968C86129684A68084B1340A6
:105830004B60290040314870002088700E7000E0F5
:10584000022007B0F0BD0000FFFF00000024008030
:1058500000E800FEF8B5060015001C00079F2B4865
:10586000009080235B04E2B2300000F060F93A005F
:105870000699300000F086F8002817D1012C09D0D5
:10588000280A316888623A000699300000F07AF8F8
:1058900000280BD1EDB2306885620097069B00228C
:1058A0008021300000F042F8002800D00120F2BD35
:1058B000F8B5060015001C00079F1448009000234F
:1058C000E2B2300000F033F93A000699300000F0FF
:1058D00059F8002817D1012C09D0280A31688862AC
:1058E0003A000699300000F04DF800280BD1EDB2D7
:1058F000306885620097069B00224021300000F04E
:1059000015F8002800D00120F2BD00000020008022
:1059100000688169890701D50021816201218269BE
:105920000A4002D18269114381617047F8B50024B1
:1059300005000F00684602701E0028688069384024
:10594000B84201D1012000E0002069460978884270
:1059500016D10020C0438642EFD0FEF7B5FF06996E
:10596000401A864201D3002EE7D128004030202182
:1059700042680A4342604170847004700120F2BDA5
:105980000020F2BD70B504000D001600206880698B
:1059900080071ED432002900200000F040F80028C3
:1059A00001D0012070BD0020C0438542EED0FEF73B
:1059B0008BFF801B854201D3002DE7D120004030B2
:1059C000202142680A4342604170002181700170C9
:1059D000E7E7002070BDF8B5202504000E00170091
:1059E00020688069284018D13A003100200000F07A
:1059F00016F800280FD1FEF767FFC01B864201D3BF
:105A0000002EEDD1200040304168294341604570AF
:105A10000021817001700120F2BD0020F2BDF1B5BE
:105A200082B000260068836900250092029C403401
:105A30001022134047D0C261019101E00297009506
:105A4000029800688169890637D4310035D1019800
:105A50000021C9438842F3D0FEF736FF0099401A6F
:105A60000199814201D30029EAD102980068416876
:105A7000A27883691B040BD5490409D4202A07D0D6
:105A800041688022D2010A434260FEF71DFF009068
:105A9000029F009D386880698006CFD4FEF714FF0E
:105AA000401B1A28F6D320206168014361606070B2
:105AB0000020A07020700126ECE7002E01D12021EB
:105AC000C1610425012602980268906901210B0238
:105AD000184202D00D43D36101268A02104206D03B
:105AE0002B0008251D43029B1B68DA6101264A0230
:105AF000104007D028000225054302980068C261C3
:105B0000012601E0300010D00298FFF701FF029853
:105B1000006841680F4A0A4042606068054365605A
:105B2000202060700020A07020703000FEBDF0B515
:105B3000059C00684568660D074F3743BD438905DE
:105B4000890D12040A4313431C4361004908294389
:105B50004160F0BD00E800FEFF63FF0370B5020086
:105B600040325378202B14D14023C35C012B10D03A
:105B70000123137024245470046825689D43256014
:105B800004682568164E2E4026600468256829435F
:105B90001CE0022070BD70B5020040325378202B0B
:105BA00012D14023C35C012B0ED001231370242497
:105BB0005470046825689D43256004682568094E73
:105BC0002E400902314301E0022070BD21600068CF
:105BD00001680B430360202050700020107070BDDE
:105BE000FFEFFFFFFFF0FFFFF8B5040001D1012038
:105BF000F2BD82277F000025606A002804D160681A
:105C0000B84203D0E56101E025616561A562260027
:105C10005C367078002803D135702000FEF735FC23
:105C20000220707020680168402291430160E3689F
:105C3000E022D200F0200001934203D900218342E8
:105C400004D104E080214901934200D0A5620122E1
:105C500063681F40BC46A76884231B023B4067461D
:105C60003B439C46277C02231F4063461F436369D6
:105C700013403B439C46A76953021F4063461F43A2
:105C8000BC46277F38233B4067463B439C46202346
:105C9000E75C80231F4063461F43BC46A36A57034B
:105CA0003B4067463B4327683B60A3691F0C0423C6
:105CB0001F40BC462423E35C10273B4067463B4320
:105CC0009C463423E75C08231F4063461F43E36878
:105CD000184038430143206841602068C169034B84
:105CE0000B40C361756072700020F2BDFFF7FFFFCB
:105CF000F8B50700002500263C004434207E01282A
:105D000001D10220F2BD01202076607E012801D061
:105D100002266CE0002901D0100001D1012666E0C6
:105D200003206076E561B963BA87FA873D64E56070
:105D3000A560258065808020C001B968420091423D
:105D400008D139680A6840239A430A6039680A68AA
:105D500002430A6028492269116328492269D162F5
:105D600027492269516321698D633A682149536843
:105D70000B405360FA68234B9A4215D2226992690C
:105D800003099A4210D13A68FB8FDB0705D45068AB
:105D900001405160F88F400805E0516808435060A9
:105DA000F88F4008401CF887FB8F3A680C32B96BBB
:105DB0002069FDF783F8002807D0E069102101432E
:105DC000E16101200126607611E038684021026817
:105DD0000A4002D1026811430160386841682022FC
:105DE0000A4342603868416802220A4342602576CD
:105DF0003000F2BDFFBFFFFF775E0008095E0008BC
:105E0000815E0008010700007CB50600B46AFEF759
:105E10005BFD202531680968294028D121684A683E
:105E2000AA434A6021684A6802239A434A600200F2
:105E30006421200000F016F9002802D0206E0543EE
:105E400025660020A168002906D100902168CA6853
:105E50000092896800910099E08701205D216054DB
:105E6000206E002803D0200002F014FE73BD200035
:105E700002F011FE73BD80B5806A02F00DFE01BD17
:105E800080B5806A01684A6803239A434A60016EBC
:105E900010220A43026601215D22815402F0FAFDBC
:105EA00001BDFEB582B006000A9C1D46FEF70CFD42
:105EB000281A0719FEF708FD684909684901090D04
:105EC0007943009101240025019006E00098002804
:105ED00000D100270098401E009030688068029929
:105EE00001400298814201D1012000E00020694672
:105EF000097B884235D004980021C9438842ECD000
:105F0000FEF7E2FC0199401AB84201D2002FDDD120
:105F100030684168E0229143416070688221490005
:105F200088420BD1B068E103884202D04909884217
:105F300004D1306801684022914301606003B16A76
:105F4000814208D131680A68454B13400B603168C3
:105F50000A681043086030005C304470057003200C
:105F600000E0002005B0F0BDFCB585B007000E00D4
:105F70000C9D002469460C7006990091FEF7A4FC64
:105F80000099081A40190090FEF79EFC39680C3100
:105F9000009A324B1B6823256B431B0D5A43019219
:105FA0003D000296059F009E0490039106E0019833
:105FB000002800D100260198401E019028688068C2
:105FC00002990140B94245D00298C021C9008842D7
:105FD00007D1002F05D103980078694608706846FC
:105FE000007806980021C9438842E7D0FEF76CFC90
:105FF0000499401AB04201D2002ED8D128684168D5
:10600000E0229143416068688221490088420CD1B6
:10601000A86880210902884202D04909884204D137
:106020002868016840229143016080208001A96AAC
:10603000814208D129680A68094B13400B6029681E
:106040000A681043086028005C3001214170047028
:10605000032000E0002007B0F0BD00006000002039
:10606000FFDFFFFFF8B504000F00160020250096A3
:106070003B000022C0214901FFF776FF002812D122
:1060800000963B00002280212000FFF70AFF002835
:1060900009D100963B000022C021C9002000FFF773
:1060A00063FF002803D0206E054325660320F2BD60
:1060B00038B5040014D0250080356868002803D165
:1060C00028702000FEF75DFA2420686020680168CF
:1060D000012291430160200000F09AF9012801D1CA
:1060E000012032BDA06A002802D0200000F03EFA54
:1060F00020684168084A0A404260206881682A2274
:1061000091438160FFE72068016801220A43026031
:10611000200000F091FA32BDFFB7FFFFF8B5040090
:106120002368D86919689A68B24F074025005C3522
:106130000026002F0CD1870602D58F0602D4D70087
:1061400000D484E06969002901D020008847F1BDAE
:10615000A94F174002D1A94F0F4078D0C70706D5E5
:10616000CF0504D501271F622B6B1F432F638307C5
:1061700008D5D30706D5022327683B622B6B04277B
:106180001F432F63430708D5D30706D50423276889
:106190003B622B6B02271F432F630823184209D051
:1061A0008F0602D4944F174004D027683B622F6BB0
:1061B0003B432B63030509D54B0107D580231B0106
:1061C00027683B622B6B20271F432F632B6B002B11
:1061D00033D0800608D5880601D4D00004D569697B
:1061E000002901D020008847286B40272168896852
:1061F000394002D12821014024D0200000F0DCFAEF
:1062000020688068074019D0EFF31080012181F3E6
:10621000108821688A6840239A438A6080F3108836
:10622000286A00280AD076498163286AFCF7C7FEED
:10623000002802D0286A816B8847F1BD200002F057
:106240002CFCF1BD200002F028FC2E63F1BD2F696B
:10625000012F00D08FE0C70600D5CF0600D48AE01A
:1062600010201862C04321688968490649D5296A07
:106270000A68526892B2002AE8D05C23E35A9A4234
:10628000E4DA6A8009680968890634D4EFF310817A
:10629000012282F31088226813685A4F1F4017604A
:1062A00081F31088EFF31081012282F310882268B5
:1062B00093680127BB43936081F31088EFF310814B
:1062C000012282F31088226893684027BB439360C1
:1062D00081F310882021E9622E61EFF31081012201
:1062E00082F31088226813681840106081F31088C8
:1062F000286AFCF729FE5C20205A6988411A89B275
:1063000035E05C21615A6A88891A6A461180698879
:1063100000296DD069460988002969D0EFF3108102
:10632000012282F3108822681368374F1F401760DC
:1063300081F31088EFF31081012282F31088226824
:106340009368324F1F40976081F310882021E962E3
:106350002E616E61EFF31081012282F310882268B2
:1063600013681840106081F3108868460188200087
:1063700002F094FBF1BDC70208D5570206D5802074
:1063800040031862200002F08BFBF1BD030609D523
:106390000B0601D4120205D5A969002928D02000D6
:1063A0008847F1BD420614D54A0612D5EFF3108096
:1063B000012181F3108821680A6840239A430A600A
:1063C00080F310882020A862AE61200002F069FBF3
:1063D000F1BD020205D54A0003D5200002F062FBA0
:1063E000F1BDC00104D5002902D5200002F05BFBFD
:1063F000F1BD00000F0800000100001020010004A2
:1064000025680008FFFEFFFFDFFEFFFFFEFFFFEF36
:10641000F8B5050000270024286801689E4A0A4054
:10642000A96811432A690A4369691143EA690A4361
:1064300002604168994A0A40E968114341608168F5
:10644000974A0A40A96911432A6A0A438260C16ACD
:106450000F2291436A6A0A43C2621021914A904214
:1064600010D1914800688007800F0ED0022803D019
:1064700004D3032804D009E0022107E0042105E049
:10648000082103E0894A904200D1002131A68848C2
:1064900080221202EB69934229D1002906D00229F9
:1064A00008D004291ED008291FD048E0FDF7D3FCEE
:1064B000002845D069680091696A4900715AFDF762
:1064C00089F940000099490840180099FDF782F9C0
:1064D00001001039AE4A914231D202400007400F0C
:1064E000104324E0FDF776FCE2E71000E2E7002924
:1064F00006D0022908D004291CD008291DD01EE08E
:10650000FDF7A9FC00281BD069680091696A490061
:10651000715AFDF75FF90099490840180099FDF795
:1065200059F9010010399A4A914208D280B229687B
:10653000C86005E0FDF74EFCE4E71000E4E7012445
:10654000280068300121418001808760C7602000F9
:10655000F2BD0000010002000400060008000A006D
:106560000C00100020004000800000012821415C48
:10657000C90706D501684A68864B1340C26A1A43A8
:106580004A602821415C890706D501684A68824B28
:106590001340026B1A434A602821415C490706D523
:1065A00001684A687D4B1340426B1A434A602821B8
:1065B000415C090706D501684A68794B1340826B34
:1065C0001A434A602821415CC90606D501688A68D9
:1065D000744B1340C26B1A438A602821415C8906C0
:1065E00006D501688A68134B1340026C1A438A600F
:1065F0002821415C490611D501684A686A4B13405D
:10660000426C1A434A60426C80235B039A4205D174
:106610004A68664B1340826C1A434A602821415CE9
:10662000090606D501684A68614B1340C06C1843DF
:1066300048607047FFDFFFFFF8B504000025803099
:10664000C560FEF741F907005A4E20680068000750
:1066500009D500963B00002280218903200000F02C
:1066600029F800280DD12068006840070BD5009656
:106670003B0000228021C903200000F01BF8002805
:1066800001D00320F2BD21008031202048608860C5
:10669000E5660D700020F2BDF369FFCFFFCFFFFF6D
:1066A000FFF4FF1100380140541002400044004044
:1066B0000024F400FEB5089F802424010025060074
:1066C00001916846027002933068C06901990140E7
:1066D0000198814201D1012000E00020694609783B
:1066E000884252D10020C0438742EDD0FEF7ECF83B
:1066F0000299401A874201D3002F1FD1EFF3108077
:10670000012181F3108831680A68434B13400B6004
:1067100080F31088EFF31080012181F31088316835
:106720008A6801239A438A6080F3108830008030A1
:1067300020214160816005700320FEBD3068016842
:106740004907C1D5C1692140BED00462EFF3108072
:10675000012181F3108831680A682F4B13400B60C8
:1067600080F31088EFF31080012181F310883168E5
:106770008A6801239A438A6080F310883000803051
:10678000202141608160C160D5E70020FEBD00008E
:10679000F0FF0000FFFFFDFFFFFFFEFFFFFFFBFF1D
:1067A000FF7FFFFFFFEFFFFFFFFFEFFFFFFF9FFFF9
:1067B000FFFFF7FFFFFFFF0110B5EFF3108101228C
:1067C00082F3108802681368144C1C40146081F333
:1067D0001088EFF31081012282F310880268936819
:1067E0000F4C1C40946081F31088C16E01290BD1BD
:1067F000EFF31081012282F31088026813681024DD
:10680000A343136081F31088202188228150002146
:10681000C166016710BD00005FFEFFFFDFFEFFFFE6
:10682000FEFFFFEF80B5806A0100563100220A8129
:106830000A8002F032F901BD70B4103A03D378C96E
:10684000103A78C0FBD2530701D318C918C001D53C
:1068500008C908C0D20704D30B880380891C801C98
:10686000002A01D50B78037070BC70478B0701D1EB
:106870008307E1D0124205D00B78491C0370401CFD
:10688000521EF9D17047FEE710B54A4C05E0401C96
:10689000072807DB642000F07FF92000703002F049
:1068A0002EF90020010161180A68002AEFD00A7B46
:1068B000002A04D14A89002A01D0521E4A810A7B4B
:1068C000002AE4D149890029E1D1FEE70000000057
:1068D0001CB5384C38482067002060673748A067EF
:1068E000E0672000703002F0DFF8012002F065F967
:1068F000802160502000843001900020C04300902F
:10690000002380222FA12E4800F064F813BDF8B5B3
:1069100004000D0000F00EFB0090264E6421802044
:10692000305802F0F1F900270020009B0101715856
:106930008B4218D0401C0728F8DB002221002800D9
:10694000140134192568002D03D0521C072AF7DBE7
:1069500009E02360616063306421FCF727FF208138
:106960002089608127730023002200218020305875
:1069700002F038F9F1BD38B500F0DCFA00210D4A1B
:106980000B01D5182B68984203D0491C0729F7DB67
:1069900031BD140080346421206802F0B5F92889E3
:1069A0006881FFE7002300220021206802F01AF925
:1069B00031BD00005402002000300040FF0F0000F5
:1069C000896800087461736B5F7761746368646FD2
:1069D00067000000F7B584B01C00900002F0B0FA28
:1069E00005000026002D44D0542002F0A9FA07002B
:1069F0003CD02300059904983D63039602970D9AB5
:106A000001920C9A00926A46128B00F05BF802F039
:106A10005FFB6C4CE06C401CE0646B4DA06A00288E
:106A20002BD1A762E06C012830D1142070432818C4
:106A300002F092FB761C072EF7D32000743002F090
:106A40008BFB26008836300002F086FB200002F027
:106A500083FB2000143002F07FFB2000383002F06E
:106A60007BFB20007430E06226630FE0280002F018
:106A7000B5FA0020C04307B0F0BDA06D002805D1D5
:106A8000F86AA16AC96A884200D3A762A06E401C56
:106A9000A066F86A616D814200D26065391D1422DA
:106AA0005043281802F06AFB02F01EFBA06D00287C
:106AB00006D0A06AC06AF96A884201D202F002FBDD
:106AC0000120D8E7F9B581B00A9C206B92008718A5
:106AD0003F1F072087437807002500290DD00A189B
:106AE00013782600343633541278002A02D0401C22
:106AF0001028F4D34321655401E034216054089EEA
:106B0000062E00D90626E6626664A564201D02F002
:106B100032FB2000183002F02EFB24610720801B7E
:106B2000A0616462E56450202554029A01993800FE
:106B300002F09AFA20600998002800D00460F7BD9E
:106B400010B5002801D172B6FEE7002901D172B656
:106B5000FEE71C4A136F002B01D072B6FEE7136FDD
:106B60005B1C1367126D03685C189A4203D29C4247
:106B700003D3046008E09C4201D3A242F9D204602E
:106B80000021A01A00F090FA00F048F8002801D186
:106B900002F098FA10BD000080B500280FD0094916
:106BA0000A6F002A01D072B6FEE70A6F521C0A670C
:106BB000002100F079FA00F031F8002801D102F04C
:106BC00081FA01BD98000020C80100201CB53C4C92
:106BD00020009C300190002000900023802200BF04
:106BE00009A18348FFF7F6FE0021C943012807D118
:106BF00072B6E166A0650020206502F04DFA13BD73
:106C00008842FCD172B6FEE749444C4500000000C2
:106C10005948016F491C016770470000F8B500270B
:106C200000260097264C206F002801D172B6FEE79F
:106C300002F04EFA206F401E2067206F002837D1E7
:106C4000E06C00281BD133E0E068C66830001830E3
:106C500002F0BAFA301D02F0B7FAF06A616D8142B3
:106C600000D26065311D584A14235843101802F0B1
:106C700085FAF06AA16AC96A884200D325660125AF
:106C800020680028E0D1002E01D000F045F9E66D23
:106C9000002E07D000F016F8002800D02566761EDA
:106CA000F8D1E765206E002802D0009502F00AFABC
:106CB00002F01AFA0098F2BD2F48006D70470000EC
:106CC00098000020F8B500262B4C206F00284ED1EC
:106CD000276D7F1C27650ED1E06A0068002801D06F
:106CE00072B6FEE7E06A216BE1622063606E401CD1
:106CF000606600F011F9E06E87422AD31BE0281D80
:106D000002F062FAA86A002803D02800183002F0C6
:106D10005BFAE86A616D814200D26065291D2A4AEA
:106D200014235843101802F029FAE86AA16AC96AC4
:106D3000884200D30126E06A0068002806D0E06A95
:106D4000C068C56868688742D9D201E00020C043A6
:106D5000E066A06A1C49C06A142250430858022801
:106D600000D30126206E002804D0012602E0E06D49
:106D7000401CE0653000F2BD9800002010B5754859
:106D8000016F002902D00121016610BD0166416D2D
:106D900000E0491E0C4A14234B43D2181368002B01
:106DA00003D10029F5D172B6FEE753685B685360E2
:106DB00014000834A34201D15B6853605268D26862
:106DC0008262416510BD0000C801002010B50C00B2
:106DD000002801D172B6FEE75E49896A183102F0D7
:106DE000D9F9FFE70121200000F05EF910BD000095
:106DF000C96E000838B5C068C568002D01D172B6EB
:106E0000FEE72800183002F0DFF9524C206F00280E
:106E10000DD1281D02F0D8F9E86A616D814200D2D7
:106E20006065291D7E4A14235843101802E029008A
:106E30001831200002F0A2F9A06AC06AE96A88420B
:106E400002D20120206632BD002032BD41494A6E87
:106E50000260096D41607047FEB50500002D01D14B
:106E600072B6FEE70E00002E01D172B6FEE702F008
:106E70002FF93849086D0290686801900298019ACC
:106E8000801A0090326800240020C043824213D050
:106E90004B6E2F68BB4203D0029B019FBB420AD2BC
:106EA000009B934206D2D01A3060486E2860086D6D
:106EB000686001E03460012402F016F92000FEBD94
:106EC000012024490866704770B5554C214D11E0EA
:106ED00002F0FEF8286AC668301D02F075F9E86C09
:106EE000401EE864686B401E686302F0FDF83000E5
:106EF00000F009F8686B0028EAD120680228F9D36D
:106F000002F0E0F8F6E710B50400206B02F066F836
:106F1000200002F063F810BD0E48C16A096800291C
:106F200002D10021C94303E0C16AC968C968496840
:106F3000C16670470748806A70470648816D00291E
:106F400001D101207047006F002801D10220704755
:106F5000002070479800002070B505000020002D2B
:106F60002FD0E96A4F4EB26AD26A914223D2A86901
:106F7000002804D40720B26AD26A801AA861484C5B
:106F80006869142251436118884210D1281D02F00B
:106F90001BF9B06AC06AE862716D814200D2706507
:106FA000291D14225043201802F0E8F808E0B06AC6
:106FB000C06AE86204E0696CB26AD26A914200D2A7
:106FC000012070BD38B504000020002C26D0354DBE
:106FD000A96A8C4201D072B6FEE7A16C002901D1EA
:106FE00072B6FEE7491EA164E26A636C9A4215D04C
:106FF000002913D1201D02F0E7F8606CE062072140
:10700000091AA161696D814200D26865211D244A77
:1070100014235843101802F0B1F8012032BD0000CB
:10702000C801002070B504002FD0A26C002A01D145
:1070300072B6FEE7606C814200D20100E06A8842CD
:1070400023D0012A21D1174EB26A944201D172B6DF
:10705000FEE7E162A269002A02D40722511AA16167
:107060000F4D616914225043281881420DD1201D13
:1070700002F0AAF8E06A716D814200D27065211DAC
:1070800014225043281802F079F870BD0548816A2F
:10709000002903D0816A8A6C521C8A64806A704716
:1070A000C801002098000020F8B504000E00134D20
:1070B0002F6DA86A001D02F087F80020C0438442AB
:1070C00008D1002E06D0A86A011D2800383002F031
:1070D00055F8F1BD3C19A86A4460BC42A86A04D2C4
:1070E000011D286B02F056F8F1BD011DE86A02F09F
:1070F00051F8E86E844200D2EC66F1BD98000020A1
:1071000038B5012251039A48FCF73EFB01F0FAF82A
:1071100000228021AA48FCF737FB052002F068F81E
:1071200002F0D1F802F08BFB012002F061F8AC4CC8
:10713000282221003431AB48FDF74AFD00F063FB03
:1071400000F075FC0021A848FBF723F80021A748B0
:10715000FBF71FF8A648FAF7C2FF02F033FD2071D3
:1071600002F029FD607102F033FDA070A14D02F024
:107170007EFD002808D1E8689F4902F09FFD03D3F7
:10718000B24902F0AFFD01D8012028740020A17897
:10719000022900DBA07002212279022A00DD217180
:1071A0006279022A00DD6171A178002901D161793B
:1071B00000E02179E1701421A54A1170207231BDDF
:1071C0007FB505000E0014000A216846FDF706FB96
:1071D00070002A180023684615881E06F60D855390
:1071E000650052195B1CDDB2042DF5DD002300247F
:1071F0006500425B46197688964202D2465345198D
:107200006A80641C0422D21A9442F1DB5B1C042BBA
:10721000EDDB808804B070BD38B5724D2800FDF7F5
:1072200026FD6F4C0822002120003430FFF7C8FFF4
:10723000A0840822012120003430FFF7C1FFE08440
:107240000822032120003430FFF7BAFF20850822EE
:10725000042120003430FFF7B3FF608508220221AB
:1072600020003430FFF7ACFFA08508220521200064
:107270003430FFF7A5FFE0850822062120003430D6
:10728000FFF79EFF20862822210034312800FDF7D9
:107290009FFC31BDF8B55248417A9C4C0025344FD3
:1072A0008026B601807A012838D1002903D002292E
:1072B00030D01CD3F1BD2078401C2070C0B2FB2818
:1072C00053DB2570012231003800FCF75DFA002203
:1072D0000221C248FCF758FA00224021A020C00534
:1072E000FCF752FA00221021A020C0052BE0A024B8
:1072F000E405012240212000FCF746FA012210217A
:107300002000FCF741FA012231003800FCF73CFA7A
:10731000012216E001223100380014E0002903D0D8
:1073200002291CD012D3F1BD6078401C6070C0B23D
:10733000FB281ADB6570002231003800FCF724FAC4
:1073400000220221A548FCF71FFAF1BD01223100FD
:107350003800FCF719FA01220221A04802E00122BC
:1073600031003800FCF710FA6570F1BD0000000034
:107370000004005080B5012251039948FCF704FA3B
:10738000012202219548FCF7FFF9002280210C48D8
:10739000FCF7FAF9012001F02BFF01F094FF02F055
:1073A0004EFA01222021A020C005FCF7EDF9FA20B9
:1073B000400001F01DFF0120A549087001BD00003B
:1073C0000008005080B500222021A020C005FCF755
:1073D000DBF9844882780179407902F0C1FB01BD74
:1073E000DC02002060030020A80600205C060020CC
:1073F000C4050020E00700209A99993F70B57A48AB
:1074000041780378774AD469332C1AD3914C2625D6
:10741000655D6E08F60715D5538DD2785200821837
:1074200092889A4206D2A34A934208DB10222A434A
:107430002623E2540A0004D0491E012302E032212F
:10744000FAE7002303704170007870BD00006040CF
:1074500080070020FCB58049886801904D68CA68A3
:107460000023604C607A012843D14878A678B04266
:1074700001D001930025A0786E46307001268E4819
:107480000078C708374205D10198401C8B4FB8429D
:1074900015D211E0681CA778002F08D10F78002FB3
:1074A00003D00500002200200FE0521C03E0E77B20
:1074B000002F00D005000020804FBA4202D30020E8
:1074C00000226372A778002F03D1964EB54215D3E0
:1074D00002E0954FBD4203D30020002263720DE00D
:1074E0005B4BAC4CA54202D06400A54206D11E7095
:1074F00004E00025002000226C462370CA604D6025
:107500008860684600784870F3BD0000920800204B
:10751000F8B5012700250226324CA178002931D187
:10752000012827D1A5480078142823D19A4800784B
:10753000232821DA984E401C3070A57300222021A8
:10754000A020C005FCF720F9012291032448FCF794
:107550001BF93078212825D101F0DAFF984C402121
:10756000605463281ED101F057FE3570142040216D
:10757000605417E088480570002271031848FCF732
:1075800003F909E084480570002271031448FCF7F0
:10759000FBF8142089490870E07A002801D1A7730C
:1075A00000E0A67385480078F2BD10B5140002F023
:1075B000ADFB02F001FC02F0CDFD02F0D0FD210098
:1075C00002F0A4FB7F4902F0FBFD0100FE208005D4
:1075D00002F09CFB7C4902F0F3FD10BD001400504A
:1075E00000040050DC0200200000002070B5774C41
:1075F000774A78490E001500E08D02F071FE0022F6
:10760000754B02F087FE02000B000020734902F068
:1076100043FF0022724B02F0A0FF03F08BF803F04F
:10762000A1F82A003100FFF7C0FF03F0B7F820826D
:107630002020205C1021615E2D2901DB012002E069
:107640002B2900DA002020216054605C70BD00000E
:10765000C4080020F407002094080020FEB5FFF7BE
:1076600019FEFFF7F7FE0127554D5E4E574C607A25
:1076700001280ED102F01CFAE0732620305CC1080C
:1076800001200840FFF744FF40216854E069401C96
:1076900000E00020E0614020285C01902620305C62
:1076A000C00807400097637AE278A179A07800F0DB
:1076B00070FCF7BDA10F00001A080020E12E0000A9
:1076C00010B54948414C49490978C908C90704D54A
:1076D000E17A002901D1012200E000224021FCF7DB
:1076E00053F80021607A01281AD1A020C005A27B9E
:1076F000002A0ED0022A01D007D310BD3C4A1378CD
:107700005B1C1370DBB2092B01DC012202E00E2BA3
:1077100004DC00222021FCF737F810BD117010BDE9
:10772000A17310BDA18C0000C15D000038B5274CCD
:10773000607B022803D120780121014321700225BA
:10774000207B022802D12078284320702948E18D2F
:107750000A39814203D3217804220A432270218E00
:107760000A39814203D32078082101432170A08C7B
:1077700064382149884203D32078102101432170C5
:10778000FFF734FFE072FFF79BFF2088002800D04E
:10779000257231BD10270000D308002080B50020DD
:1077A0000A49487200F0CBF900F0F6F800220221F5
:1077B0001248FBF7E9FF00F07FFF01BD80070020C2
:1077C000400700200FCF5B3B339388C3DC020020CF
:1077D0000040534500401C4600000440001885410D
:1077E0000020ACC0F4070020000800501A08002058
:1077F000EF080020C90F00006F0F000000140050B8
:107800007E490860704710B56E486F4901606F4946
:1078100041606F4981606F490162794C002120000D
:10782000FBF79AFD00212000FAF7B3FC10BDF8B574
:10783000140002F0FDFC0500E560266920682900BF
:1078400002F0C9FF07006068310002F0C4FF0100C8
:10785000380002F0EDFC0700A168606902F0BBFF90
:10786000390002F0ADFC66612561F2BD5A498A78A3
:107870005448002A15D14A79C97A012907D1002A2A
:107880000BD0022A01D008D3704754491EE0002AC9
:1078900003D0022A03D0F8D370474E4916E050496E
:1078A00014E0012A13D10A79C97A012902D1022AE6
:1078B00006D97047002A03D0022A05D002D37047A8
:1078C000484903E04F4901E0FA214901016270474C
:1078D00070B53C4C4448808802F002FD43A20CCABB
:1078E00002F018FD02F014FFA084FFF7BFFF01258E
:1078F0002620205C8008284235D0A08C02F032FF80
:107900000600206A02F02EFF22003100FFF78FFFF1
:107910000600A661E06902F035FF310002F088FC44
:1079200002F03CFF96218900884203DC8C2149004B
:10793000884200DA0800E0612E48016802220A430A
:1079400002603149FA2292000B68DA62CA60E26989
:1079500009684A6301680222914301602620205C85
:107960008008284205D12620205C042101432620DE
:10797000215470BD10B513482621415C02220A43F0
:10798000262142541C4C0022802149012000FBF793
:10799000FBFE0122D10211E010B50A482621415C0C
:1079A000FD220A4026214254134C00228021490125
:1079B0002000FBF7E9FE0022802109012000FBF7EF
:1079C000E3FE10BDF4070020A69B443C0AD7A33B6E
:1079D0006F12033B70170000DC02002064190000E6
:1079E000901A0000581B000000030020B81E85EB11
:1079F00051B80440004401400004005028480140B0
:107A0000F40600204C1D0000A80600206349086011
:107A1000704780B55148008902F062FC50A20CCA40
:107A200002F078FC02F074FE4F49888401BD38B53D
:107A30004D484E4901604E4941604E4981600221E6
:107A40004D4A13680B4313604C4C32232568EB629C
:107A5000E360236816255D6320259D63D9630C21AF
:107A60001964116802239943116048490162002199
:107A70002000FAF78EFB08212000FAF78AFB31BDBF
:107A80003F498A783848002A09D1497900290FD01E
:107A9000022902D012D23B490FE03B490DE0012AF6
:107AA0000CD10979002903D0022905D002D37047EF
:107AB000364902E0364900E039490162704738B57D
:107AC000FFF7A7FFFFF7DCFF274CA08C02F04AFE70
:107AD0000500206A02F046FE22002900FFF7A7FEFB
