:030B8500019900D3
:101C8F00E4F580F590F5A0F5F9F5FAF5FB75F9F89F
:101C9F0075FA0343FB20F5F1F5F2F5F343F3304307
:101CAF00F20443F10453F3F253F27FC286C287D298
:021CBF0084227D
:0700030043E50775E66922E1
:041E8D007BFFE4FFF4
:0E1E91008F448B458A4689477B007A0079444E
:011E9F002220
:101BBA00E4F55DE55D25E025E02465F8E6B4011D60
:101BCA00E55D25E025E02466F808E6FA08E6F9125C
:101BDA0005ACE55D25E025E02465F8E4F6055DE55C
:061BEA005DC3940D40CD27
:011BF00022D2
:071F2700121BBA75865A2255
:100F08007A1779F9121E8D78657C00FDFE7F041230
:100F180003637A0579B2121E8D78697C00FDFE7F25
:100F2800041203637BFF7A177978E4FF121E917825
:100F38006D7C00FDFE7F041203637BFF7A0C79B69B
:100F4800E4FF121E9178717C00FDFE7F041203639A
:100F58007BFF7A0D79E2E4FF121E9178757C00FD23
:100F6800FE7F041203637BFF7A1679F6E4FF121EF4
:100F78009178797C00FDFE7F041203637BFF7A0A77
:100F88007940E4FF121E91787D7C00FDFE7F0412FB
:100F980003637BFF7A147999E4FF121E9178817CB0
:100FA80000FDFE7F041203637BFF7A19795CE4FF7E
:100FB800121E9178857C00FDFE7F041203637BFF7F
:100FC8007A117930E4FF121E9178897C00FDFE7F4A
:100FD800041203637BFF7A15794DE4FF121E9178A2
:100FE8008D7C00FDFE7F041203637BFF7A1579DC9C
:100FF800E4FF121E9178917C00FDFE7F04120363CA
:101008007BFF7A0879F1E4FF121E9178957C00FD48
:06101800FE7F04020363E9
:101A6D0078897601E55E7044E55F24FB602524FBF3
:101A7D00600824FB6022240E703278657601786947
:101A8D007601786D760178717601787576017891A9
:101A9D007601227879760122787D7601788176013A
:0D1AAD0078857601788D7601789576012296
:101C2700121EC5121EB3121EFA43B92243A928D2A7
:101C370091121E0F121D4A121E46121F2E121E2C23
:101C4700121D2012000A121D71121CF3120F0878C0
:041C57009976012257
:100B88006048004A03020302049C030203020302B2
:100B980003F203F2053203F203F2038E04C404C421
:100BA800064004C404C4039805A005D2069005B401
:100BB80005D2044C06AE06D606D606AE06CC04B060
:100BC80007580758076C0758074E04B00C28000050
:0E0BD8000000000000000000000002340000D9
:0C001E00E535453460037F01227F00229D
:1017F900E559707A9000AAE064026072121224E539
:101809001F606BE52830E36630E463E53630E04578
:1018190020E237E5386057053FE53F7002053EFF96
:10182900AE3EBE0116BF9013E4F523752201F524DF
:10183900FF121E79E4FF121DF28023E53FB4F4087C
:10184900E53EB40103E4F5388014E53620E31FE5ED
:1018590038601B8009E56230E011E5206003021B56
:0F1869007FE52830E208121B7F80005328FB2206
:101B7F00E4FDFC7F207E03121DD3E4F50DF50ED29C
:101B8F00907F03121E601211307F03121E6012111C
:101B9F00304328204328014328025328EF752F0094
:0B1BAF00532EF0D28CE4F530F531220B
:10122400AE2EEE54F0FCE52F2401FFE43E540F4CA7
:10123400F52EEFF52FE52E540FFEC3EF9533EE9503
:10124400324010E532540FFEE52E54F04EF52EE5F3
:1012540033F52FE5295407FFBF010A052DE52D704D
:1012640009052C8005E4F52CF52DD3E52D94F4E542
:101274002C9401400DE4F52CF52DE52954F8440295
:10128400F529E520600A0531E5317009053080054E
:10129400E4F530F531D3E53194B8E530940B4012E0
:1012A400E4F530F531F530F531F520900092E04465
:1012B40002F0753400753501E52820E436E52E5436
:1012C4000FFEE52F64024E70035328FEE52E540FE3
:1012D400FEE52F64054E70035328FDE52E540FFEE2
:1012E400C3E52F9533EE95324009432810752F003E
:0412F400532EF02263
:0B1F0800C2905328DFE4F534F53522C9
:101E2C0090004AE0FEA3E0FF7C007D0A1203898E3D
:0A1E3C00328F337534007535012232
:101DF200EF25E0244AF582E43400F583E0FEA3E017
:0D1E0200FF7C007D0A1203898E328F33228F
:0F0BE6004C009200000000000000000000000022
:10113000E4FDE52830E503021223E55960030212BD
:101140001E900092E0FE30E50654DFF05363BE903F
:101150000092E030E03954FEF0536341E52314601F
:101160001514601714601914601B14601D24057099
:101170001C43630280174363048012436308800D9D
:10118000436310800843632080034363807D0190A4
:101190000092E030E10F54FDF05363BFE52060039F
:1011A0004363407D01900092E030E41854EFF07505
:1011B00063007563FFE53620E20553637F800353C8
:1011C00063BF7D01900092E030E70A547FF07563C1
:1011D00000D2847D01900093E0B40307900092E078
:1011E00054FBF0900092E030E21F54FBF0A3E014B7
:1011F000600B14600824027010C284800C9000946C
:10120000E07004C2848002D284E5177005E52830BE
:10121000E103ED600EAF63121D92AF638002AF5722
:03122000121D920A
:0112230022A8
:101BF100900093E0B4032E90009AE475F001120373
:101C0100DEFE900096E0B50608A3E0B5F003D284AD
:101C11002290009AE07004A3E064167008C28490D8
:061C2100009AF0A3F0227E
:1013CB00900093E0FF64016005EF6402705B900096
:1013DB009AE475F0011203DEFE90009CE0B5061254
:1013EB00A3E0B5F00D9000947401F0900092E044EE
:1013FB0004F090009DE025E0FF90009CE033FE9010
:10140B00009AE06E7003A3E06F60030214989000E3
:10141B009AF0A3F0900094F0900093E0B40102E4F2
:10142B00F0900092E04404F022900093E06403708B
:10143B005190009875F0011203DEAFF0FE7C007D39
:10144B0064120389ED4C7045900095E07017A375FD
:10145B00F0011203DEFEE5F064154E70309000953E
:10146B0004F0E4801690009674FFF5F01203DEFE94
:10147B00E5F064014E7016900095F0900098F0A383
:0E148B00F022E490009AF0A3F0900094F0227A
:101CF300E4FF121D92E4900092F090009C7427F090
:101D0300A37410F0E4F563AF36EFC31330E003D3ED
:0D1D13008001C34007900092E04404F022DC
:101A1600900093EFF0E490009AF0A3F0900094F019
:101A2600BF010B90009C04F0A3742CF08031BF0220
:101A36000C90009C7401F0A374F4F08022BF03158F
:101A4600E4900098F0A3F090009504F0A3E4F0A3CE
:101A56007415F0800A90009C7427F0A37410F0901F
:071A66000092E04404F022AD
:10187800AB078B1F5328FE4328025328FB9000AF69
:1018880012057B00000000EB603BE4FF121A169083
:1018980000AA7401F0E52954F84401F529121CC185
:1018A800E5221475F006A42523F524E5221475F025
:1018B80006A42523FF121E79E5221475F006A42537
:1018C80023FF021DF29000AAE0B402047F03800205
:1018D800E4FF121A16E4F5205329F8121B43E536E3
:0B18E80020E007900092E04480F02216
:10177800E4F54412000EE55960028071E53630E167
:1017880002806AE53630E018E527B40411E53870C0
:101798000D7F01121878753B017F02121A16804DD1
:1017A8009000AAE0B40213E527B4040C7F011218D4
:1017B80078900092E04401F08033E52724FE601120
:1017C80024FE7029E51F601BE5207017432804805C
:1017D80012E51F600EE520700A752001900092E066
:1017E8004402F09000AF12057B000000007527FF4F
:0117F80022CE
:101CC1009000A0E054F84402F0E490009FF0D2A507
:101CD100FDFC7F207E03121DD30053FBEFE4FDFCCE
:101CE1007F207E03121DD343BE02C291E4F50DF5A0
:021CF1000E22C1
:101B430053BEFD43FB10C2A4D291E55954FA70056C
:101B5300E53630E00DE490009FF0C2A5A3E054F811
:101B6300F022E55970159000A0E054F84401F0E428
:0C1B73009000A3F090009F04F0C2A52297
:10101E00E4FAFE7DFF2092011D6305FFEDFCE4FB6B
:10102E000BBB14FCEDB504027E01EE700302112A17
:10103E008C1CE519146025146049146071146077D6
:10104E002404600302111FE51C700302111FF51B1F
:10105E00751D00751E0175190102111FE51C651B1A
:10106E006003021115051EE51EAC1D7002051D1450
:10107E0064034C600302111F851B1A7A0175190255
:10108E0002111FE51C651B60028027051EE51E7000
:10109E0002051D24FDFDE51D34FFFCED64964C702C
:1010AE0070E51B25E0F51A7A017519038063E51CBE
:1010BE00651B751904805AE51C7056051EE51EAC9D
:1010CE001D7002051D14C39406EC94004043E51EEA
:1010DE009450E51D9400500AE51B25E025E0F51A15
:1010EE008014D3E51E9496E51D94004009E51B334C
:1010FE00333354F8F51AE53630E107900092E044A8
:10110E0004F05336FD7A01751BFFE4F51DF51EF54F
:10111E0019BA0107AF1AE4FCFDFE22E47FFFFEFDC3
:01112E00FCC4
:01112F00229D
:0C000E0012101EEFF46005751AFF8F271A
:01001A0022C3
:101E4600751AFF751BFF751CFFE4F51DF51EF519C8
:0A1E56007527FFF523F522F524227D
:0F0BF5004C009E00000000000000000000000007
:100A4000E55954FE6003020B84E53630E103020BE6
:100A50008430E003020B84E50A6003020B3EE517D5
:100A60006003020B84E52830E003020B847F03124D
:100A70001C5B9000A8EEF0A3EFF0FDAC06E41201C1
:100A8000D9E4FBFA79FA784212002EE4FBFAF978FD
:100A9000431201371202129000A6EEF0A3EFF0E429
:100AA000A3F0A3F0E529540764026008E55920E0AB
:100AB00003020B3E9000A6E0FEA3E0FFC39432EEDB
:100AC00094004009D3EF9490EE940140349000A23A
:100AD000E004F0E49000A1F0A3E0C39432405FE4AE
:100AE000F090009EE04401F0435901E4FF121878B1
:100AF0009000AA7401F05328EF752F00532EF08058
:100B00003D9000A1E004F0E4A3F09000A1E0C394C4
:100B100032402BE4F090009EE030E01B7F01121F7A
:100B200034E52260127F01121878752A0190009234
:100B3000E0547FF04401F090009EE054FEF09000FD
:100B4000A0E05407FFBF01109000A5E004F070067C
:100B50009000A4E004F08007E49000A4F0A3F090DB
:100B600000A4E0FEA3E0FFE4FCFD7BB87A0BF9F8FB
:100B7000C312051F500E9000A0E054F8F0E490005E
:050B80009FF0C2A52258
:101DB30090009FE060199000A3E0FF04F0EFB403EC
:101DC30003D2A5229000A3E0B40A04C2A5E4F02242
:01000A0022D3
:0A0C0400084F00000000000000008F
:100DE200E4F5447545FFF546E5596003020F07E552
:100DF2003630E103020F0730E003020F07E5176008
:100E020003020F071212F88F47E54714602014609F
:100E12003124FA606E24F8601F24F0601624E0602A
:100E22001C2441606324FB7065754503806375452E
:100E320005805E7545018059E4F54580547545028B
:100E4200804FE5526003020F070551E551640560CA
:100E520003020F07F551755201E51F7003020F07D8
:100E6200E4F530F531E52070047F0180027F008FC8
:100E720020900092E04402F09000AF12057B000047
:100E82000000227545048009E4F552F551227545AA
:100E9200FFE545C394065067AF47E4FCFDFEAB5641
:100EA200AA55A954A853C312053560530550E550FD
:100EB2006402704EF550E51F6048854523E5221413
:100EC20075F006A42523F524E5221475F006A42561
:100ED20023FF121E79E5221475F006A42523FF12C2
:100EE2001DF2900092E04401F0E4854756F555F575
:100EF20054F5539000AF12057B000000008003E41C
:050F0200F550E4F5517B
:010F070022C7
:061F2E00121ED70212F89A
:100C0E006048000000E100E1010E00E100E100E1BA
:100C1E0000F500F5011800F500F500EB010E010ED0
:100C2E000122010E010E00F501220122012C0122EA
:100C3E00012200FA0131013101310131013101048A
:100C4E0001400140014001400140010E0D0A00002B
:100C5E00000000000000000000000001170041002D
:0D0C6E004900410048000118000208000084
:101E7900EF25E02400F582E43400F583E0F50FA3B3
:041E8900E0F510224E
:1005B200E4F547F548754910F54AF54EF54DF54C09
:1005C200F54BE559600953BEFD43FB10C2A42290CE
:1005D20000AAE0640270030208F0E4F5447F02120C
:1005E2001C5B8E458F46E4FCFDE5162FF516E515DE
:1005F2003EF515ED3514F514EC3513F513C3E54846
:100602009546E54795455006854547854648D3E5D5
:100612004A9546E5499545400685454985464A0538
:1006220044E544C3940540B5AE47AF48AB07AA06BC
:10063200C3E5169BFFE5159AFEE5149400FDE5134C
:100642009400FCC006C007AE49AF4AAB07AA06D069
:1006520007D006C3EF9BFFEE9AFEED9400FDEC94EB
:1006620000FCE47B03FAF9F812047FE47BA07A0F22
:10067200F9F81203F4E41201D47BA37A8B794D7852
:100682004312002EE4FBFA79807845120137E4FB2D
:10069200FA797A78441201371202128E118F12E41B
:1006A200F516F515F514F513F547F54874FFF549F8
:1006B200F54AE4F5447F06121C5B8E458F46E4FC46
:1006C200FDE54E2FF54EE54D3EF54DED354CF54C25
:1006D200EC354BF54BC3E5489546E5479545500645
:1006E200854547854648D3E54A9546E549954540BF
:1006F2000685454985464A0544E544C3940340B509
:10070200AE47AF48AB07AA06C3E54E9BFFE54D9A3D
:10071200FEE54C9400FDE54B9400FCC006C007AE1C
:1007220049AF4AAB07AA06D007D006C3EF9BF54EE6
:10073200EE9AF54DED9400F54CEC9400F54BAF4E6E
:10074200AE4DAD4CFCE41201D47B007A78792A7864
:100752004112002E120212E48F4E8E4DF54CF54BD3
:10076200E54E241EF54EE4354DF54DE4354CF54C81
:10077200E4354BF54BE51F70030208A812001EEF8B
:1007820070030208A2C3E5129510E511950F40030C
:10079200020848E47FEC7E2CFDFCAB4EAA4DA94C2E
:1007A200A84BC31205355019C3E50E941CE50D94F0
:1007B20000500302086774E4250EF50E74FF020868
:1007C20042E47F507E2DFDFCAB4EAA4DA94CA84BB6
:1007D200D31205355003020867E47F7C7E2EFDFCB0
:1007E200A84BD3120535400575440A8037E47F18BB
:1007F2007E2EFDFCAB4EAA4DA94CA84BD31205355B
:100802004005754408801DE47FB47E2DFDFCAB4E8F
:10081200AA4DA94CA84BD312053540057544068054
:1008220003754404AF447E00C374919FFD74019E1E
:10083200FCC3E50E9DE50D9C502BEF250EF50EEE4B
:10084200350DF50D801FE5102405FFE4350FFED3AD
:10085200E5129FE5119E4007E4F50DF50E80067541
:100862000D00750E08E51024FEFFE50F34FFFEC3F0
:10087200E5129FE5119E40054328088016E51024E5
:10088200FBFFE50F34FFFEC3E5129FE5119E500307
:100892005328F7AD0EAC0D7F207E03121DD38006C8
:1008A200750D00750E64E52954076402703BE5126C
:1008B2004511600BD3E5129490E5119401402AAFE3
:1008C20036EFC31330E003D38001C3401CE5177039
:1008D20006900049E004F0900049E0B46410432817
:0E08E20008435902E4FF021878E4900049F040
:0108F00022E5
:1016F600E4F547F546F545F54443D50453D5FC7F57
:101706000C121C5BE48F478E46F545F544AB47AAA1
:1017160046A945A844FFFE7D7DFC12047FE48F4761
:101726008E46F545F5447FAC7E0DFDFCAB47AA46DB
:10173600A945A844C3120535400FE47F707E17FD06
:10174600FCA844D312053540057517018018E47FBF
:10175600A07E0FFDFCAB47AA46A945A844D31205B7
:10176600354003E4F51753D5FBE5D554FE4402F5A1
:01177600D59D
:01177700224F
:101D2000E4F544F545F546F547F54874FFF549F502
:101D30004AE4F54EF54DF54CF54B900000E0F50FFB
:091D4000A3E0F510E4F50DF50E29
:011D49002277
:0A1F1300E518C3946450020518227B
:030C7B0001620013
:1015DC00E5596003021669E53630E103021669200D
:1015EC00E07B9000AAE06402607320933DAF62EF51
:1015FC00C313FEEF5401FFEE547FFE04547FFD2510
:10160C00E04FF562EEC39402405353620190009395
:10161C00E07009E51F60057F02121A169000AF12E8
:10162C00057B0000000043620122AF62EFC313FE92
:10163C00EF5401FFEE547FFE04547FFD25E04FF57F
:10164C0062EEC394024016536201900093E0B40220
:0E165C0009E51F6005E4FF121A165362FE2214
:0B0C7E004200B30000016100016000B3
:10149900E55954FB600302154CE53630E1030215AA
:1014A9004C30E00302154CE517600302154CE529A1
:1014B900540764026008E55920E20302154CE50A65
:1014C900600302154CFF121C5BAC06AD07E4120168
:1014D900D9E4FBFA797A783F12002E1202129000B1
:1014E900B3EEF0A3EFF0C394F4EE94015017E4F5D2
:1014F90060AF610561EFC394324048E4F561435937
:1015090004FF021878D39000B4E094D09000B3E0BF
:101519009407402FE4F561E55930E227AF60056093
:10152900EF9432401EE4F5607F04121F34E5226017
:10153900127F01121878752A01900092E04420F078
:03154900547FF0DC
:01154C00227C
:0A0C890005580000000000015700AC
:051F3400EFF4525922F8
:10195C00E5596059055CE55C7002055B640A455B02
:10196C007003435801E55C6414455B7007F55BF547
:10197C005C5358FEE4F557E55830E019E55930E072
:10198C0003435706E55930E10343570EE55930E25E
:10199C001C43571E22E55930E0035357F9E55930E3
:0D19AC00E1035357F1E55930E2035357E1D1
:0119B900220B
:0C0C93004900AA00000000000000000062
:10154D00E55960030215DBE53630E1030215DB20BA
:10155D00E07CE51F60649000AF120546E47B287ABD
:10156D0023F9F8C3120535501E9000AF12057B000C
:10157D000000009000AA7402F0E4FF1218785328BE
:10158D00EF752F00532EF09000AB1205467B907A2D
:10159D005F79017800C312053550339000AB120509
:1015AD007B000000009000AA7402F0E4FF1218788E
:1015BD005328EF752F00532EF0229000AF12057BAC
:0F15CD00000000009000AB12057B000000002220
:100C9F000E36000000000000000000000000000001
:0A1F1D00E539C3943C500205392257
:101D7100E4FFFEF539E539C3943C50092092030F85
:101D810080F30E80F0EFD39E4003433602E4F53931
:011D9100222F
:1008F100E4F544F545E53620E107E5596003020AD0
:100901003FE53620E10620E003020A3FE53630E10B
:100911004A20E0471212F88F44E4FF0FBF14FC1283
:1009210012F88F45E544B54507B40204053A80063F
:10093100E53A6002153AE53A6450701F5336FD43BB
:100941003601F52375220675241E7F1E121E797F3E
:100951001E121DF2900092E04410F0E53630E21BC9
:10096100E5386017E5432401F543E43542F542E4F7
:100971003541F541E43540F5408009E4F543F54260
:10098100F541F540E53620E323E47F987E3AFDFC0E
:10099100AB43AA42A941A840D3120535402FE4F543
:1009A10043F542F541F5404336088021E47F707EEE
:1009B10017FDFCAB43AA42A941A840D3120535401B
:1009C1000CE4F543F542F541F5405336F7E53B605C
:1009D1006D053DE53D7002053C64907004E53C64A5
:1009E10001702A753801F53BF53CF53DF53EF53FC3
:1009F100F543F542F541F5405336F7F523752206E7
:100A010075241E7F1E121E797F1E121DF2E53630DF
:100A1100E02CE5387028E53620E207E4F53EF53FA5
:100A21008009E4F543F542F541F540E4F5237522EB
:0E0A31000675241E7F1E121E797F1E121DF2F6
:010A3F002294
:101D4A00E4F5AD75AC06F5BCF5BB85BCAF85BBAE9D
:101D5A00F5BDF5BE75ABF053FBEFFDFC7F207E03AE
:071D6A00121DD343BE02224B
:101DD300AB07AA068AADEBF5ACAA04AB058ABCEB4C
:0E1DE300F5BB85BCAF85BBAEE4F5BD75ABF0BE
:011DF10022CF
:03002B00021ABAFC
:101ABA00C0E0C0F0C083C082C0D075D000C000C0F2
:101ACA0001C002C003C004C005C006C00730C60B6F
:101ADA00C2C675CDFE75CCF4121BF1D007D006D064
:101AEA0005D004D003D002D001D000D0D0D082D00B
:061AFA0083D0F0D0E032C1
:03000B00021B00D5
:101B0000C0E0C0F0C083C082C0D075D000C000C0AB
:101B100001C002C003C004C005C006C007C28C7566
:101B20008CF5758A94121F08D007D006D005D00412
:101B3000D003D002D001D000D0D0D082D083D0F05A
:031B4000D0E032C0
:03001B000218F3D5
:1018F300C0E0C0F0C083C082C0D075D000C000C0BB
:1019030001C002C003C004C005C006C007758DF541
:10191300758B95121F13121F1D7899E66020121AFA
:101923006D055FE55F7002055ED39414E55E940078
:101933004006755E00755F001213CB121DB3D0070E
:10194300D006D005D004D003D002D001D000D0D02F
:09195300D082D083D0F0D0E03244
:0E1EFA0075CDFE75CCF475C805C2C6D2AD22FA
:101EB300758DF5758B95438910D28EC28FD2ABD2B7
:021EC300AF224C
:101EC500758CF5758A94438901C28CC28DD2A9D2CD
:021ED500AF223A
:101E0F0053D2F3439E0D43D68043D28043D2024335
:0D1E1F00D44043D42075D5027F02021C5B25
:101C5B00E4FDFC53D2F0EF42D243D240E5D230E563
:101C6B00FB53D2BFAFD37C00AD07EDC4F8540FC804
:101C7B0068FFECC454F048FEE5D4540F2FFDEC3E46
:031C8B00FEAF05A4
:011C8E002233
:101E6000EF24FE6007146008240270067F0E8002D3
:091E70007FFAAE071FEE70FA22A2
:071EA000ED25E0FDEC33FC31
:0C1EA7007F01121E60D2837F01021E60CA
:1012F800E4FDFCC283003082010D121EA0C28300EF
:10130800308203430501121EA0C2830030820343CA
:101318000501121EA0C28300308203430501121E7C
:10132800A0C28300308203430501121EA0C28300BD
:10133800308203430501121EA0C28300308203439A
:101348000501121EA0C28300308203430501121E4C
:10135800A0C28300308203430501121EA0C283008D
:10136800308203430501121EA0C28300308203436A
:101378000501121EA0C28300308203430501121E1C
:10138800A0C28300308203430501121EA0C283005D
:10139800308203430501121EA0C28300308203433A
:1013A8000501121EA0C28300308203430501121EEC
:1013B800A7D283ED64C27008ECFD6305FFAF052278
:0213C8007FFFA5
:0113CA002200
:101ED700D2837F02121E60D2827F02121E6053F9E4
:021EE700FB22DC
:030CAF00016300DE
:101D9200C2AF7E01EE6017C286C2875F6004D28541
:101DA2008002C285D287D286EE25E0FE80E6D2AFDF
:011DB200220E
:030CB200016400DA
:1019BA00A294E433FFA295E433FEA296E433FDEE4B
:1019CA0025E0FEED25E025E02E2FFF14B407005098
:1019DA00389019E975F003A4C58325F0C58373020D
:1019EA001A0A021A0D021A100219FE021A01021A22
:1019FA0004021A077F07227F01227F02227F032225
:0B1A0A007F04227F05227F06227F0060
:011A150022AE
:100CB600E5596003020DE1E53630E103020DE1126C
:100CC60019BA8F64E53630E003020DAEE5227003F3
:100CD600020D6065647003020DAAE564D3940040BA
:100CE60052E5649407504C9000AAE0B4020C7F01D0
:100CF600121878900092E04401F07F01121A1685CE
:100D06006422E5221475F006A42523F524E52214B1
:100D160075F006A42523FF121E79E5221475F00648
:100D2600A42523FF121DF29000AF12057B000000E0
:100D3600008071E5646407706B9000AA04F0E4FF1C
:100D4600121878E4FF121A16E4F522852324AF233D
:100D5600121E79AF23121DF2804AE564D394004037
:100D660043E5649407503D856422E5221475F00638
:100D7600A42523F524E5221475F006A42523FF12E5
:100D86001E79E5221475F006A42523FF121DF27FB5
:100D960001121878E52A60057F01121A1690009252
:100DA600E04401F0752A0122E564602F6537602B67
:100DB600E538600AE4FF121A16E4FF121878E564B3
:100DC600B40708E4F5385336FB8006E4F5384336B5
:0C0DD60004900092E04410F08564372285
:101EE900120003121C8F121C27121F2775865A8095
:011EF900F8F0
:0A1FF600FFFFFFFFFFFFB75AA5AF82
:0300000002166A7B
:0C166A00787FE4F6D8FD7581990216B176
:10002E00EC4D6011E8497017ED33EC3304600DE4CC
:10003E00FCFFFEFD22E933E8330470F802027E1263
:10004E00024958046009E4CC248150062850090264
:10005E000288284003020285C0E0EB4A7044B98052
:10006E0006D0E0FB020274EF4E701CBD8008EBFF61
:10007E00EAFEE9FD80EBE98DF0A4FEE5F002011742
:10008E00E9CDF9EAFEEBFFEF89F0A4FCE5F0CE89AD
:10009E00F0A42EFFE435F0CD89F0A42DFEE435F06A
:1000AE008067EF4E7005BD80D780C3EF8BF0A4AC98
:1000BE00F0EE8BF0A42CFCE435F0F8EF8AF0A42CD3
:1000CE00E5F038FCE433CB8DF0A42CFCE5F03BF8E6
:1000DE00EE8AF0A42CFCE5F038F8E433CF89F0A4D6
:1000EE002CFCE5F038CF3400CE89F0A42FFFE5F0DC
:1000FE003EFEE433C98DF0A42EFEE5F039CD8AF034
:10010E00A42FFFE5F03EFEE43DFD33D0E0FB5007AB
:10011E000BBB000F020288EC2CFCEF33FFEE33FE1C
:06012E00ED33FD0202604A
:10013400020288EC5D046005E85904700302027E43
:10014400120249580460F6EC4860F2EC7004FDFEBB
:10015400FF22C860DB2481C85009C398600250069E
:100164000202859850CAF582E9294B4A7005AB8290
:1001740002027475F0007C1A7880C3EF9BEE9AED4E
:1001840099400DC3EF9BFFEE9AFEED99FDE842F016
:10019400DC23ACF0D0E0FFD0E0FED0E0FDAB822069
:1001A400E7101BEB60BAEC2CFCEF33FFEE33FEEDF3
:1001B40033FD020260E803F830E705C0F075F00093
:1001C400EF2FFFEE33FEED33FD40B830E7C280AAD7
:1001D40075F020800E75F010800575F0087D007EA6
:1001E400007F003392D530D503120511EC33401053
:1001F400EF33FFEE33FEED33FDEC33FCD5F0ED22AF
:0E020400E5F0247EA2D513CC92E7CDCEFF22EA
:10021200EDD2E7CD33EC3392D524814006E4FFFEE4
:10022200FDFC22FCE4CFCECDCC24E0501174FF8043
:10023200EDC3CC13CCCD13CDCE13CECF13CF0470E0
:07024200F030D5DE020511CA
:10024900E9D2E7C933E833F892D5EDD2E7CD33ECFB
:0702590033FC5002B2D52274
:10026000EC30E7100FBF000C0EBE00080DBD0004FF
:100270000BEB6014A2D5EB13FCED92E7FD2274FFAB
:10028000FCFDFEFF22E480F8A2D574FF13FC7D8004
:03029000E480EF18
:10167600021EE9E493A3F8E493A34003F68001F283
:1016860008DFF48029E493A3F85407240CC8C33375
:10169600C4540F4420C8834004F456800146F6DF44
:1016A600E4800B0102040810204080900B85E47E44
:1016B600019360BCA3FF543F30E509541FFEE49339
:1016C600A360010ECF54C025E060A840B8E493A300
:1016D600FAE493A3F8E493A3C8C582C8CAC583CA2B
:1016E600F0A3C8C582C8CAC583CADFE9DEE780BEE3
:010CB500003E
:10029300E709F608DFFA8046E709F208DFFA803E4D
:1002A30088828C83E709F0A3DFFA8032E309F6083A
:1002B300DFFA8078E309F208DFFA807088828C83A2
:1002C300E309F0A3DFFA806489828A83E0A3F60856
:1002D300DFFA805889828A83E0A3F208DFFA804C30
:1002E30080D280FA80C680D4806980F28033801007
:1002F30080A680EA809A80A880DA80E280CA803370
:1003030089828A83ECFAE493A3C8C582C8CCC583E7
:10031300CCF0A3C8C582C8CCC583CCDFE9DEE780B7
:100323000D89828A83E493A3F608DFF9ECFAA9F036
:10033300EDFB2289828A83ECFAE0A3C8C582C8CC8C
:10034300C583CCF0A3C8C582C8CCC583CCDFEADEA5
:10035300E880DB89828A83E493A3F208DFF980CC07
:1003630088F0EF60010E4E60C388F0ED2402B40400
:100373000050B9F582EB2402B4040050AF232345A7
:0603830082239002E373E7
:10038900BC000BBE0029EF8DF084FFADF022E4CC58
:10039900F875F008EF2FFFEE33FEEC33FCEE9DEC21
:1003A900984005FCEE9DFE0FD5F0E9E4CEFD22ED67
:1003B900F8F5F0EE8420D21CFEADF075F008EF2FB1
:1003C900FFED33FD4007985006D5F0F222C398FDA2
:0503D9000FD5F0EA223F
:1003DE00C5F0F8A3E028F0C5F0F8E58215827002AA
:0603EE001583E038F02247
:1003F400E88FF0A4CC8BF0A42CFCE98EF0A42CFCA8
:100404008AF0EDA42CFCEA8EF0A4CDA8F08BF0A425
:100414002DCC3825F0FDE98FF0A42CCD35F0FCEB84
:100424008EF0A4FEA9F0EB8FF0A4CFC5F02ECD3949
:0F043400FEE43CFCEAA42DCE35F0FDE43CFC22B6
:1004430075F008758200EF2FFFEE33FECD33CDCC70
:1004530033CCC58233C5829BED9AEC99E5829840F3
:100463000CF582EE9BFEED9AFDEC99FC0FD5F0D6D0
:10047300E4CEFBE4CDFAE4CCF9A88222B800C1B9FA
:100483000059BA002DEC8BF084CFCECDFCE5F0CB38
:10049300F97818EF2FFFEE33FEED33FDEC33FCEB71
:1004A30033FB10D703994004EB99FB0FD8E5E4F92C
:1004B300FA227818EF2FFFEE33FEED33FDEC33FC19
:1004C300C933C910D7059BE99A4007EC9BFCE99A0D
:1004D300F90FD8E0E4C9FAE4CCFB2275F010EF2F52
:1004E300FFEE33FEED33FDCC33CCC833C810D70752
:1004F3009BEC9AE899400AED9BFDEC9AFCE899F88D
:0E0503000FD5F0DAE4CDFBE4CCFAE4C8F9221F
:0E051100C3E49FFFE49EFEE49DFDE49CFC22FB
:10051F00EB9FF5F0EA9E42F0E99D42F0EC6480C853
:06052F0064809845F022F3
:10053500EB9FF5F0EA9E42F0E99D42F0E89C45F01C
:010545002293
:100546007401FF3395E0FEFDFCA3A3A3E0CF2FF0DB
:10055600E582158270021583E0CE3EF0E5821582B3
:1005660070021583E0CD3DF0E58215827002158399
:05057600E0CC3CF02286
:10057B00A8828583F0D083D0821205921205921245
:10058B000592120592E473E493A3C583C5F0C5836A
:10059B00C8C582C8F0A3C583C5F0C583C8C582C8CA
:0105AB00222D
:0605AC008A838982E473DA
:00000001FF
