:030E250001990030
:101D3800E4F580F590F5A0F5F9F5FAF5FB75F9F8F5
:101D480075FA0343FB20F5F1F5F2F5F343F330435D
:101D5800F20443F10453F3F253F27FC286C287D2EE
:021D68008422D3
:0700030043E50775E66922E1
:041F3E007BFFE4FF42
:0E1F42008F448B458A4689477B007A0079449C
:011F5000226E
:101BE300E4F55DC3E55D940D74809480502FE55D4D
:101BF30025E025E02465F8E66401701DE55D25E038
:101C030025E02466F808E6FA08E6F91205ACE55D76
:0D1C130025E025E02465F8E4F6055D80C6B7
:011C200022A1
:071FE000121BE375865A2273
:101078007A18798F121F3E78657C00FDFE7F041276
:1010880003637A0579B2121F3E78697C00FDFE7F02
:10109800041203637BFF7A177983E4FF121F4278F7
:1010A8006D7C00FDFE7F041203637BFF7A0B79AE33
:1010B800E4FF121F4278717C00FDFE7F0412036377
:1010C8007BFF7A0C79F3E4FF121F4278757C00FDF0
:1010D800FE7F041203637BFF7A18790DE4FF121F69
:1010E8004278797C00FDFE7F041203637BFF7A0A55
:1010F8007959E4FF121F42787D7C00FDFE7F0412BF
:1011080003637BFF7A1479FAE4FF121F4278817C2B
:1011180000FDFE7F041203637BFF7A1A7953E4FF14
:10112800121F4278857C00FDFE7F041203637BFF5B
:101138007A11798EE4FF121F4278897C00FDFE7FC8
:10114800041203637BFF7A167960E4FF121F42786A
:101158008D7C00FDFE7F041203637BFF7A1579BE48
:10116800E4FF121F4278917C00FDFE7F04120363A6
:101178007BFF7A097900E4FF121F4278957C00FD15
:06118800FE7F0402036378
:101B0D0078897601E55E7044E55F24FB602524FB52
:101B1D00600824FB6022240E7032786576017869A6
:101B2D007601786D76017871760178757601789108
:101B3D007601227879760122787D76017881760199
:0D1B4D0078857601788D76017895760122F5
:101D0400121F76121F64121FC743B92243A928D297
:101D140091121EC0121DF6121EF7121FE7121EDDCD
:101D2400121DCC12000A121E1D121D9C121078786E
:041D34009976012279
:100E28006048004A03020302049C0302030203020F
:100E380003F203F2053203F203F2038E04C404C47E
:100E4800064004C404C4039805A005D2069005B45E
:100E580005D2044C06AE06D606D606AE06CC04B0BD
:100E680007580758076C0758074E04B00C280000AD
:0E0E7800000000000000000000000234000036
:0C001E00E535453460037F01227F00229D
:10188F00E559707A9000AAE064026072121282E544
:10189F001F606BE52830E36630E463E53630E045E2
:1018AF0020E237E5386057053FE53F7002053EFF00
:1018BF00AE3EBE0116BF9013E4F523752201F52449
:1018CF00FF121F2AE4FF121EA38023E53FB4F40882
:1018DF00E53EB40103E4F5388014E53620E31FE557
:1018EF0038601B8009E56230E011E5206003021CBF
:0F18FF005DE52830E208121C5D80005328FB22B3
:101C5D00E4FDFC7F207E03121E84E4F50DF50ED20B
:101C6D00907F03121F1112118E7F03121F1112117B
:101C7D008E4328204328014328025328EF752F0057
:0B1C8D00532EF0D28CE4F530F531222C
:10128200AE2EEE54F0FCE52F2401FFE43E540F4C49
:10129200F52EEFF52FE52E540FFEC3EF9533EE95A5
:1012A200324010E532540FFEE52E54F04EF52EE595
:1012B20033F52FE52954076401700A052DE52D70D9
:1012C20009052C8005E4F52CF52DD3E52D94F4E5E4
:1012D2002C9401400DE4F52CF52DE52954F8440237
:1012E200F529E520600A0531E531700905308005F0
:1012F200E4F530F531D3E53194B8E530940B401282
:10130200E4F530F531F530F531F520900092E04406
:1013120002F0753400753501AF28EFC45401703600
:10132200E52E540FFEE52F64024E70035328FEE5AE
:101332002E540FFEE52F64054E70035328FDE52E53
:10134200540FFEC3E52F9533EE9532400943281022
:07135200752F00532EF0225D
:0B1FD500C2905328DFE4F534F53522FC
:101EDD0090004AE0FEA3E0FF7C007D0A1203898E8C
:0A1EED00328F337534007535012281
:101EA300EF25E0244AF582E43400F583E0FEA3E065
:0D1EB300FF7C007D0A1203898E328F3322DE
:0F0E86004C00920000000000000000000000007F
:10118E00E4FDE52830E503021281E5596003021201
:10119E007C900092E030E50654DFF05363BE900081
:1011AE0092E030E03954FEF0536341E523146015AC
:1011BE0014601714601914601B14601D2405701C34
:1011CE0043630280174363048012436308800D4318
:1011DE006310800843632080034363807D01900089
:1011EE0092E030E10F54FDF05363BFE520600343FE
:1011FE0063407D01900092E030E41854EFF0756387
:10120E00007563FFE53620E20553637F8003536369
:10121E00BF7D01900092E030E70A547FF0756300C5
:10122E00D2847D01900093E064037007900092E0F9
:10123E0054FBF0900092E030E21F54FBF0A3E01458
:10124E00600B14600824027010C284800C9000940D
:10125E00E07004C2848002D284E5177005E5283060
:10126E00E103ED600EAF63121E63AF638002AF57F2
:03127E00121E63DA
:01128100224A
:101C9800900093E06403702D90009A75F001120390
:101CA800DEFE900096E0B50608A3E0B5F003D28406
:101CB8002290009AE07004A3E064167008C2849031
:061CC800009AF0A3F022D7
:10142C00900093E0FF64016005EF6402705B900034
:10143C009AE475F0011203DEFE90009CE0B50612F2
:10144C00A3E0B5F00D9000947401F0900092E0448C
:10145C0004F090009DE025E0FF90009CE033FE90AE
:10146C00009AE06E7003A3E06F60030214F9900021
:10147C009AF0A3F0900094F0900093E06401700156
:10148C00F0900092E04404F022900093E06403702A
:10149C005190009875F0011203DEAFF0FE7C007DD8
:1014AC0064120389ED4C7045900095E07017A3759C
:1014BC00F0011203DEFEE5F064154E7030900095DD
:1014CC0004F0E4801690009674FFF5F01203DEFE33
:1014DC00E5F064014E7016900095F0900098F0A322
:0E14EC00F022E490009AF0A3F0900094F02219
:101D9C00E4FF121E63E4900092F090009C7427F014
:101DAC00A37410F0E4F563AF36EFC3135401640170
:101DBC007003D38001C34007900092E04404F022EA
:1019F300900093EFF0E490009AF0A3F0900094F03D
:101A0300EFFD7C006401700B90009C04F0A3742C28
:101A1300F08035ED64024C700B90009C04F0A374CD
:101A2300F4F08024ED64034C7014900098F0A3F05C
:101A330090009504F0A3E4F0A37415F0800A9000DD
:101A43009C7427F0A37410F0900092E04404F022F9
:10190E00AB078B1F5328FE4328025328FB9000AFD2
:10191E0012057B00000000EB603BE4FF1219F39010
:10192E0000AA7401F0E52954F84401F529121D6A44
:10193E00E5221475F006A42523F524E5221475F08E
:10194E0006A42523FF121F2AE5221475F006A425EE
:10195E0023FF021EA39000AAE0640270047F03809E
:10196E0002E4FF1219F3E4F5205329F8121C21E5C5
:0C197E003620E007900092E04480F02248
:10178300E4F54412000EE5596002807AAF36EFC3E8
:1017930013540164017002806DE53630E019E527CA
:1017A30064047011E538700D7F0112190E753B0149
:1017B3007F021219F3804F9000AAE064027014E5CF
:1017C300276404700C7F0112190E900092E044010B
:1017D300F08033E52724FE601124FE7029E51F60A5
:1017E3001BE52070174328048012E51F600EE520D7
:1017F300700A752001900092E04402F09000AF124D
:09180300057B000000007527FFC1
:01180C0022B9
:101D6A009000A0E054F84402F0E490009FF0D2A55D
:101D7A00FDFC7F207E03121E840053FBEFE4FDFC72
:101D8A007F207E03121E8443BE02C291E4F50DF544
:021D9A000E2217
:101C210053BEFD43FB10C2A4D291E55954FA70058D
:101C3100E53630E00DE490009FF0C2A5A3E054F832
:101C4100F022E55970159000A0E054F84401F0E449
:0C1C51009000A3F090009F04F0C2A522B8
:100F5600E4FBFF7EFF2092011E6306FFEEFDE4FC2C
:100F6600ECC394147480948050030C80F3EEB505A2
:100F7600027F01EF70030210728D1CE519146025C3
:100F860014604914607114607724046003021066CB
:100F9600E51C7003021066F51B751D00751E0175B4
:100FA6001901021066E51C651B600302105C051E34
:100FB600E51EAE1D7002051D1464034E600302108B
:100FC60066851B1A7B01751902021066E51C651BF6
:100FD60060028027051EE51E7002051D24FDFFE543
:100FE6001D34FFFEEF64964E7076E51B25E0F51A7C
:100FF6007B017519038069E51C651B751904806002
:10100600E51C705C051EE51EAE1D7002051D14C3B1
:101016009406EE94004049E51E9450E51D94005058
:101026000AE51B25E025E0F51A8014D3E51E949603
:10103600E51D94004009E51B33333354F8F51AAF28
:1010460036EFC313540164017007900092E0440424
:10105600F05336FD7B01751BFFE4F51DF51EF519F2
:10106600EB64017006AF1AFCFDFE22E47FFFFEFD75
:01107600FC7D
:011077002256
:0C000E00120F56EFF46005751AFF8F27E3
:01001A0022C3
:101EF700751AFF751BFF751CFFE4F51DF51EF51917
:0A1F07007527FFF523F522F52422CB
:0F0E95004C009E00000000000000000000000064
:100A5900E55954FE6003020BADAF36EFC3135401E1
:100A690064017003020BADE53630E003020BADE51E
:100A79000A6003020B67E5176003020BADE5283036
:100A8900E003020BAD7F03121CCE9000A8EEF0A389
:100A9900EFF0FDAC06E41201D9E4FBFA79FA7842E9
:100AA90012002EE4FBFAF978431201371202129070
:100AB90000A6EEF0A3EFF0E4A3F0A3F0E5295407B4
:100AC90064026008E55920E003020B679000A6E084
:100AD900FEA3E0FFC39432EE94004009D3EF949053
:100AE900EE940140389000A2E004F0E49000A1F0F7
:100AF900A3E0C39432748094804063E4F090009E34
:100B0900E04401F0435901E4FF12190E9000AA7460
:100B190001F05328EF752F00532EF080419000A16A
:100B2900E004F0E4A3F09000A1E0C394327480944F
:100B390080402BE4F090009EE030E01B7F01121F03
:100B4900EDE52260127F0112190E752A01900092BB
:100B5900E0547FF04401F090009EE054FEF09000D4
:100B6900A0E05407640170109000A5E004F070063D
:100B79009000A4E004F08007E49000A4F0A3F090B2
:100B890000A4E0FEA3E0FFE4FCFD7BB87A0BF9F8D2
:100B9900C312051F500E9000A0E054F8F0E4900035
:050BA9009FF0C2A5222F
:101E420090009FE0601A9000A3E0FF04F0EF6403AB
:101E52007003D2A5229000A3E0640A7003C2A5F029
:011E6200225D
:01000A0022D3
:0A0EA400084F0000000000000000ED
:100CF300E4F5447545FFF546E5596003020E24AF5C
:100D030036EFC313540164017003020E24E5363039
:100D1300E003020E24E5176003020E241213598F19
:100D230047E54714602014603124FA606E24F860AC
:100D33001F24F0601624E0601C2441606324FB70D0
:100D4300657545038063754505805E75450180596A
:100D5300E4F5458054754502804FE5526003020E69
:100D6300240551E55164056003020E24F5517552C3
:100D730001E51F7003020E24E4F530F531E5207020
:100D8300047F0180027F008F20900092E04402F0F4
:100D93009000AF12057B0000000022754504800916
:100DA300E4F552F551227545FFC3E5459406748079
:100DB30094805067AF47E4FCFDFEAB56AA55A95497
:100DC300A853C312053560530550E5506402704EB5
:100DD300F550E51F6048854523E5221475F006A408
:100DE3002523F524E5221475F006A42523FF121FFD
:100DF3002AE5221475F006A42523FF121EA39000F2
:100E030092E04401F0E4854756F555F554F55390C7
:100E130000AF12057B000000008003E4F550E4F509
:010E2300517D
:010E240022AB
:061FE700121F88021359CD
:100EAE006048000000E100E1010E00E100E100E118
:100EBE0000F500F5011800F500F500EB010E010E2E
:100ECE000122010E010E00F501220122012C012248
:100EDE00012200FA013101310131013101310104E8
:100EEE0001400140014001400140010E0D0A000089
:100EFE00000000000000000000000001170041008B
:0D0F0E0049004100480001180002080000E1
:101F2A00EF25E02400F582E43400F583E0F50FA301
:041F3A00E0F510229C
:1005B200E4F547F548754910F54AF54EF54DF54C09
:1005C200F54BE559600953BEFD43FB10C2A42290CE
:1005D20000AAE0640270030208FFE4F544C3E544A4
:1005E20094057480948050467F02121CCE8E458FF3
:1005F20046E4FCFDE5162FF516E5153EF515ED353D
:1006020014F514EC3513F513C3E5489546E5479503
:10061200455006854547854648D3E54A9546E5490E
:100622009545400685454985464A054480AFAE4713
:10063200AF48AB07AA06C3E5169BFFE5159AFEE590
:10064200149400FDE5139400FCC006C007AE49AF48
:100652004AAB07AA06D007D006C3EF9BFFEE9AFE6D
:10066200ED9400FDEC9400FCE47B03FAF9F812042B
:100672007FE47BA07A0FF9F81203F4E41201D47B31
:10068200A37A8B794D784312002EE4FBFA798078B5
:1006920045120137E4FBFA797A78441201371202E3
:1006A200128E118F12E4F516F515F514F513F547B0
:1006B200F54874FFF549F54AE4F544C3E54494036B
:1006C2007480948050467F06121CCE8E458F46E47D
:1006D200FCFDE54E2FF54EE54D3EF54DED354CF565
:1006E2004CEC354BF54BC3E5489546E547954550EF
:1006F20006854547854648D3E54A9546E5499545E9
:10070200400685454985464A054480AFAE47AF4815
:10071200AB07AA06C3E54E9BFFE54D9AFEE54C9456
:1007220000FDE54B9400FCC006C007AE49AF4AABE2
:1007320007AA06D007D006C3EF9BF54EEE9AF54DF9
:10074200ED9400F54CEC9400F54BAF4EAE4DAD4C34
:10075200FCE41201D47B007A78792A784112002EC7
:10076200120212E48F4E8E4DF54CF54BE54E241ECF
:10077200F54EE4354DF54DE4354CF54CE4354BF58D
:100782004BE51F70030208B412001EEF700302084B
:10079200AEC3E5129510E511950F4003020854E42B
:1007A2007FEC7E2CFDFCAB4EAA4DA94CA84BC3128C
:1007B20005355019C3E50E941CE50D940050030253
:1007C200087374E4250EF50E74FF02084EE47F50A0
:1007D2007E2DFDFCAB4EAA4DA94CA84BD31205357C
:1007E2005003020873E47F7C7E2EFDFCA84BD312DB
:1007F2000535400575440A8037E47F187E2EFDFCDE
:10080200AB4EAA4DA94CA84BD312053540057544F1
:1008120008801DE47FB47E2DFDFCAB4EAA4DA94C91
:10082200A84BD31205354005754406800375440470
:10083200AF447E00C374919FFD74019EFCC3E50E1C
:100842009DE50D9C502BEF250EF50EEE350DF50DA9
:10085200801FE5102405FFE4350FFED3E5129FE566
:10086200119E4007E4F50DF50E8006750D00750E1C
:1008720008E51024FEFFE50F34FFFEC3E5129FE5F5
:10088200119E40054328088016E51024FBFFE50F62
:1008920034FFFEC3E5129FE5119E50035328F7ADC6
:1008A2000EAC0D7F207E03121E848006750D00752E
:1008B2000E64E52954076402703EE5124511600B8F
:1008C200D3E5129490E5119401402DAF36EFC31396
:1008D200540164017003D38001C3401CE517700604
:1008E200900049E004F0900049E06464700F4328EE
:0D08F20008435902FF02190EE4900049F07E
:0108FF0022D6
:10180D00E4F547F546F545F54443D50453D5FC7F3E
:10181D000C121CCEE48F478E46F545F544AB47AA16
:10182D0046A945A844FFFE7D7DFC12047FE48F4749
:10183D008E46F545F5447FAC7E0DFDFCAB47AA46C3
:10184D00A945A844C3120535400FE47F707E17FDEE
:10185D00FCA844D312053540057517018018E47FA7
:10186D00A07E0FFDFCAB47AA46A945A844D312059F
:10187D00354003E4F51753D5FBE5D554FE4402F589
:01188D00D585
:01188E002237
:101DCC00E4F544F545F546F547F54874FFF549F556
:101DDC004AE4F54EF54DF54CF54B900000E0F50F4F
:091DEC00A3E0F510E4F50DF50E7D
:011DF50022CB
:0E1FAB00C3E5189464748094805002051822D7
:030F1B0001620070
:1015BE00E559600302165FAF36EFC31354016401A1
:1015CE00700302165FE53630E00302165F9000AA44
:1015DE00E06402607C209341AF62EFC313FEEF54D0
:1015EE0001FFEE547FFE04547FFD25E04FF562EEC1
:1015FE00C39402748094804058536201900093E02B
:10160E007009E51F60057F021219F39000AF1205F5
:10161E007B0000000043620122AF62EFC313FEEFB6
:10162E005401FFEE547FFE04547FFD25E04FF5621A
:10163E00EEC394027480948040175362019000931D
:10164E00E064027009E51F6005E4FF1219F35362AE
:02165E00FE226A
:0B0F1E004200B3000001610001600010
:1014FA00E55954FB60030215BDAF36EFC31354011F
:10150A00640170030215BDE53630E0030215BDE53E
:10151A001760030215BDE529540764026008E559FE
:10152A0020E2030215BDE50A60030215BDFF121C85
:10153A00CEAC06AD07E41201D9E4FBFA797A783F1A
:10154A0012002E1202129000B3EEF0A3EFF0C39431
:10155A00F4EE9401501BE4F560AF610561C3EF94AA
:10156A003274809480404CE4F561435904FF0219B7
:10157A000ED39000B4E094D09000B3E094074033C7
:10158A00E4F561E55930E22BAF600560EF943274FF
:10159A00809480401EE4F5607F04121FEDE522600E
:1015AA00127F0112190E752A01900092E04420F070
:0315BA00547FF06B
:0115BD00220B
:0A0F29000558000000000001570009
:051FED00EFF45259223F
:101A5300E5596059055CE55C7002055B640A455B0A
:101A63007003435801E55C6414455B7007F55BF54F
:101A73005C5358FEE4F557E55830E019E55930E07A
:101A830003435706E55930E10343570EE55930E266
:101A93001C43571E22E55930E0035357F9E55930EB
:0D1AA300E1035357F1E55930E2035357E1D9
:011AB0002213
:0C0F33004900AA000000000000000000BF
:10166000E55960030216F6AF36EFC3135401640167
:1016700070030216F6E53620E07CE51F60649000FA
:10168000AF120546E47B287A23F9F8C312053550DA
:101690001E9000AF12057B000000009000AA7402AB
:1016A000F0E4FF12190E5328EF752F00532EF0901F
:1016B00000AB1205467B907A5F79017800C3120572
:1016C0003550339000AB12057B000000009000AA5B
:1016D0007402F0E4FF12190E5328EF752F00532EF9
:1016E000F0229000AF12057B000000009000AB12CA
:0716F000057B000000002251
:100F3F000E3600000000000000000000000000005E
:0E1FB900C3E539943C748094805002053922AF
:101E1D00E4FFFEF539C3E539943C74809480500994
:101E2D002092030F80EF0E80ECEFD39E40034336DC
:041E3D0002E4F5398D
:011E4100227E
:10090000E4F544F545E53620E107E5596003020AC0
:1009100058E53620E10620E003020A58E53630E1CA
:100920005420E0511213598F44E4FFEFC394147420
:1009300080948050030F80F31213598F45E544B51E
:10094000450864027004053A8006E53A6002153AEB
:10095000E53A6450701F5336FD433601F523752286
:100960000675241E7F1E121F2A7F1E121EA39000D2
:1009700092E04410F0E53630E21BE5386017E543BD
:100980002401F543E43542F542E43541F541E435CF
:1009900040F5408009E4F543F542F541F540E53680
:1009A00020E323E47F987E3AFDFCAB43AA42A941B1
:1009B000A840D3120535402FE4F543F542F541F543
:1009C000404336088021E47F707E17FDFCAB43AACC
:1009D00042A941A840D3120535400CE4F543F54245
:1009E000F541F5405336F7E53B606D053DE53D705B
:1009F00002053C64907004E53C6401702A7538017E
:100A0000F53BF53CF53DF53EF53FF543F542F54147
:100A1000F5405336F7F52375220675241E7F1E1206
:100A20001F2A7F1E121EA3E53630E02CE538702801
:100A3000E53620E207E4F53EF53F8009E4F543F5AD
:100A400042F541F540E4F52375220675241E7F1E0C
:080A5000121F2A7F1E121EA3D3
:010A5800227B
:101DF600E4F5AD75AC06F5BCF5BB85BCAF85BBAEF1
:101E0600F5BDF5BE75ABF053FBEFFDFC7F207E0301
:071E1600121E8443BE0222EC
:101E8400AB07AA068AADEBF5ACAA04AB058ABCEB9A
:0E1E9400F5BB85BCAF85BBAEE4F5BD75ABF00C
:011EA200221D
:03002B00021B5A5B
:101B5A00C0E0C0F0C083C082C0D075D000C000C051
:101B6A0001C002C003C004C005C006C00730C60BCE
:101B7A00C2C675CDFE75CCF4121C98D007D006D01B
:101B8A0005D004D003D002D001D000D0D0D082D06A
:061B9A0083D0F0D0E03220
:03000B00021BA035
:101BA000C0E0C0F0C083C082C0D075D000C000C00B
:101BB00001C002C003C004C005C006C007C28C75C6
:101BC0008CF5758A94121FD5D007D006D005D004A5
:101BD000D003D002D001D000D0D0D082D083D0F0BA
:031BE000D0E03220
:03001B0002198A3D
:10198A00C0E0C0F0C083C082C0D075D000C000C023
:10199A0001C002C003C004C005C006C007758DF5AA
:1019AA00758B95121FAB121FB97899E66020121B2E
:1019BA000D055FE55F7002055ED39414E55E940041
:1019CA004006755E00755F0012142C121E42D00785
:1019DA00D006D005D004D003D002D001D000D0D098
:0919EA00D082D083D0F0D0E032AD
:0E1FC70075CDFE75CCF475C805C2C6D2AD222C
:101F6400758DF5758B95438910D28EC28FD2ABD205
:021F7400AF229A
:101F7600758CF5758A94438901C28CC28DD2A9D21B
:021F8600AF2288
:101EC00053D2F3439E0D43D68043D28043D2024384
:0D1ED000D44043D42075D5027F02021CCE01
:101CCE00E4FDFC53D2F0EF42D243D240E5D2542091
:101CDE00642070F853D2BFAFD3FCAD07EDC4F854F7
:101CEE000FC868FFECC454F048FEE5D4540F2FFD26
:051CFE00EC3EFEAF0505
:011D030022BD
:101F1100EF24FE6007146008240270067F0E800221
:091F21007FFAAE071FEE70FA22F0
:071F5100ED25E0FDEC33FC7F
:0C1F58007F01121F11D2837F01021F11B4
:10135900E4FDFCC283003082010D121F51C28300DB
:10136900308203430501121F51C2830030820343B7
:101379000501121F51C28300308203430501121F68
:1013890051C28300308203430501121F51C28300F9
:10139900308203430501121F51C283003082034387
:1013A9000501121F51C28300308203430501121F38
:1013B90051C28300308203430501121F51C28300C9
:1013C900308203430501121F51C283003082034357
:1013D9000501121F51C28300308203430501121F08
:1013E90051C28300308203430501121F51C2830099
:1013F900308203430501121F51C283003082034327
:101409000501121F51C28300308203430501121FD7
:1014190058D283ED64C27008ECFD6305FFAF052265
:021429007FFF43
:01142B00229E
:101F8800D2837F02121F11D2827F02121F1153F9CE
:021F9800FB222A
:030F4F000163003B
:101E6300C2AF7E01EE6017C286C2875F6004D2856F
:101E73008002C285D287D286EE25E0FE80E6D2AF0D
:011E8300223C
:030F520001640037
:101AB100A294E433FFA295E433FEA296E433FDEE53
:101AC10025E0FEED25E025E02E2FFF14B4070050A0
:101AD10038901AE075F003A4C58325F0C58373021D
:101AE1001B01021B04021B07021AF5021AF8021A53
:101AF100FB021AFE7F07227F01227F02227F03223F
:0B1B01007F04227F05227F06227F0068
:011B0C0022B6
:100BAE00E5596003020CF2AF36EFC3135401640132
:100BBE007003020CF2121AB18F64E53630E00302B4
:100BCE000CBFE5227003020C6765647003020CBB58
:100BDE007E00D3EF9400748094804056EF94077497
:100BEE00809480504D9000AAE06402700C7F011238
:100BFE00190E900092E04401F07F011219F3856402
:100C0E0022E5221475F006A42523F524E522147599
:100C1E00F006A42523FF121F2AE5221475F006A460
:100C2E002523FF121EA39000AF12057B00000000CB
:100C3E00807BE564640770759000AA04F0E4FF12EF
:100C4E00190EE4FF1219F3E4F522852324AF2312C3
:100C5E001F2AAF23121EA38054AF647E00D3EF94DD
:100C6E0000748094804046EF940774809480503DC9
:100C7E00856422E5221475F006A42523F524E522C9
:100C8E001475F006A42523FF121F2AE5221475F011
:100C9E0006A42523FF121EA37F0112190EE52A605A
:100CAE00057F011219F3900092E04401F0752A01BC
:100CBE0022E564602F6537602BE538600AE4FF1289
:100CCE0019F3E4FF12190EE56464077007F5385343
:100CDE0036FB8006E4F538433604900092E044106B
:050CEE00F085643722CF
:101F9A00120003121D38121D04121FE075865A80A2
:011FAA00F83E
:0A1FF600FFFFFFFFFFFFB75AA5AF82
:030000000216F7EE
:0C16F700787FE4F6D8FD75819902173E5B
:10002E00EC4D6011E8497017ED33EC3304600DE4CC
:10003E00FCFFFEFD22E933E8330470F802027E1263
:10004E00024958046009E4CC248150062850090264
:10005E000288284003020285C0E0EB4A7044B98052
:10006E0006D0E0FB020274EF4E701CBD8008EBFF61
:10007E00EAFEE9FD80EBE98DF0A4FEE5F002011742
:10008E00E9CDF9EAFEEBFFEF89F0A4FCE5F0CE89AD
:10009E00F0A42EFFE435F0CD89F0A42DFEE435F06A
:1000AE008067EF4E7005BD80D780C3EF8BF0A4AC98
:1000BE00F0EE8BF0A42CFCE435F0F8EF8AF0A42CD3
:1000CE00E5F038FCE433CB8DF0A42CFCE5F03BF8E6
:1000DE00EE8AF0A42CFCE5F038F8E433CF89F0A4D6
:1000EE002CFCE5F038CF3400CE89F0A42FFFE5F0DC
:1000FE003EFEE433C98DF0A42EFEE5F039CD8AF034
:10010E00A42FFFE5F03EFEE43DFD33D0E0FB5007AB
:10011E000BBB000F020288EC2CFCEF33FFEE33FE1C
:06012E00ED33FD0202604A
:10013400020288EC5D046005E85904700302027E43
:10014400120249580460F6EC4860F2EC7004FDFEBB
:10015400FF22C860DB2481C85009C398600250069E
:100164000202859850CAF582E9294B4A7005AB8290
:1001740002027475F0007C1A7880C3EF9BEE9AED4E
:1001840099400DC3EF9BFFEE9AFEED99FDE842F016
:10019400DC23ACF0D0E0FFD0E0FED0E0FDAB822069
:1001A400E7101BEB60BAEC2CFCEF33FFEE33FEEDF3
:1001B40033FD020260E803F830E705C0F075F00093
:1001C400EF2FFFEE33FEED33FD40B830E7C280AAD7
:1001D40075F020800E75F010800575F0087D007EA6
:1001E400007F003392D530D503120511EC33401053
:1001F400EF33FFEE33FEED33FDEC33FCD5F0ED22AF
:0E020400E5F0247EA2D513CC92E7CDCEFF22EA
:10021200EDD2E7CD33EC3392D524814006E4FFFEE4
:10022200FDFC22FCE4CFCECDCC24E0501174FF8043
:10023200EDC3CC13CCCD13CDCE13CECF13CF0470E0
:07024200F030D5DE020511CA
:10024900E9D2E7C933E833F892D5EDD2E7CD33ECFB
:0702590033FC5002B2D52274
:10026000EC30E7100FBF000C0EBE00080DBD0004FF
:100270000BEB6014A2D5EB13FCED92E7FD2274FFAB
:10028000FCFDFEFF22E480F8A2D574FF13FC7D8004
:03029000E480EF18
:10170300021F9AE493A3F8E493A34003F68001F243
:1017130008DFF48029E493A3F85407240CC8C333E7
:10172300C4540F4420C8834004F456800146F6DFB6
:10173300E4800B0102040810204080900E25E47E13
:10174300019360BCA3FF543F30E509541FFEE493AB
:10175300A360010ECF54C025E060A840B8E493A372
:10176300FAE493A3F8E493A3C8C582C8CAC583CA9D
:10177300F0A3C8C582C8CAC583CADFE9DEE780BE55
:010F5500009B
:10029300E709F608DFFA8046E709F208DFFA803E4D
:1002A30088828C83E709F0A3DFFA8032E309F6083A
:1002B300DFFA8078E309F208DFFA807088828C83A2
:1002C300E309F0A3DFFA806489828A83E0A3F60856
:1002D300DFFA805889828A83E0A3F208DFFA804C30
:1002E30080D280FA80C680D4806980F28033801007
:1002F30080A680EA809A80A880DA80E280CA803370
:1003030089828A83ECFAE493A3C8C582C8CCC583E7
:10031300CCF0A3C8C582C8CCC583CCDFE9DEE780B7
:100323000D89828A83E493A3F608DFF9ECFAA9F036
:10033300EDFB2289828A83ECFAE0A3C8C582C8CC8C
:10034300C583CCF0A3C8C582C8CCC583CCDFEADEA5
:10035300E880DB89828A83E493A3F208DFF980CC07
:1003630088F0EF60010E4E60C388F0ED2402B40400
:100373000050B9F582EB2402B4040050AF232345A7
:0603830082239002E373E7
:10038900BC000BBE0029EF8DF084FFADF022E4CC58
:10039900F875F008EF2FFFEE33FEEC33FCEE9DEC21
:1003A900984005FCEE9DFE0FD5F0E9E4CEFD22ED67
:1003B900F8F5F0EE8420D21CFEADF075F008EF2FB1
:1003C900FFED33FD4007985006D5F0F222C398FDA2
:0503D9000FD5F0EA223F
:1003DE00C5F0F8A3E028F0C5F0F8E58215827002AA
:0603EE001583E038F02247
:1003F400E88FF0A4CC8BF0A42CFCE98EF0A42CFCA8
:100404008AF0EDA42CFCEA8EF0A4CDA8F08BF0A425
:100414002DCC3825F0FDE98FF0A42CCD35F0FCEB84
:100424008EF0A4FEA9F0EB8FF0A4CFC5F02ECD3949
:0F043400FEE43CFCEAA42DCE35F0FDE43CFC22B6
:1004430075F008758200EF2FFFEE33FECD33CDCC70
:1004530033CCC58233C5829BED9AEC99E5829840F3
:100463000CF582EE9BFEED9AFDEC99FC0FD5F0D6D0
:10047300E4CEFBE4CDFAE4CCF9A88222B800C1B9FA
:100483000059BA002DEC8BF084CFCECDFCE5F0CB38
:10049300F97818EF2FFFEE33FEED33FDEC33FCEB71
:1004A30033FB10D703994004EB99FB0FD8E5E4F92C
:1004B300FA227818EF2FFFEE33FEED33FDEC33FC19
:1004C300C933C910D7059BE99A4007EC9BFCE99A0D
:1004D300F90FD8E0E4C9FAE4CCFB2275F010EF2F52
:1004E300FFEE33FEED33FDCC33CCC833C810D70752
:1004F3009BEC9AE899400AED9BFDEC9AFCE899F88D
:0E0503000FD5F0DAE4CDFBE4CCFAE4C8F9221F
:0E051100C3E49FFFE49EFEE49DFDE49CFC22FB
:10051F00EB9FF5F0EA9E42F0E99D42F0EC6480C853
:06052F0064809845F022F3
:10053500EB9FF5F0EA9E42F0E99D42F0E89C45F01C
:010545002293
:100546007401FF3395E0FEFDFCA3A3A3E0CF2FF0DB
:10055600E582158270021583E0CE3EF0E5821582B3
:1005660070021583E0CD3DF0E58215827002158399
:05057600E0CC3CF02286
:10057B00A8828583F0D083D0821205921205921245
:10058B000592120592E473E493A3C583C5F0C5836A
:10059B00C8C582C8F0A3C583C5F0C583C8C582C8CA
:0105AB00222D
:0605AC008A838982E473DA
:00000001FF
