:030BB600019900A2
:101CDE00E4F580F590F5A0F5F9F5FAF5FB75F9F850
:101CEE0075FA0343FB20F5F1F5F2F5F343F33043B8
:101CFE00F20443F10453F3F253F27FC286C287D249
:021D0E0084222D
:0700030043E50775E66922E1
:041F0E007BFFE4FF72
:0E1F12008F448B458A4689477B007A007944CC
:011F2000229E
:101BC400E4F55DC3E55D940D74809480502FE55D6C
:101BD40025E025E02465F8E66401701DE55D25E057
:101BE40025E02466F808E6FA08E6F91205B8E55D8A
:0D1BF40025E025E02465F8E4F6055D80C6D7
:011C010022C0
:071FB000121BC475865A22C2
:101065007A1879F3121F0E78657C00FDFE7F041255
:1010750003637A0579BE121F0E78697C00FDFE7F39
:10108500041203637BFF7A17796BE4FF121F127852
:101095006D7C00FDFE7F041203637BFF7A0A797184
:1010A500E4FF121F1278717C00FDFE7F04120363BA
:1010B5007BFF7A0C79E9E4FF121F1278757C00FD3D
:1010C500FE7F041203637BFF7A1779F5E4FF121F95
:1010D5001278797C00FDFE7F041203637BFF7A0999
:1010E500790CE4FF121F12787D7C00FDFE7F04124F
:1010F50003637BFF7A1479E2E4FF121F1278817C87
:1011050000FDFE7F041203637BFF7A1A7934E4FF46
:10111500121F1278857C00FDFE7F041203637BFF9E
:101125007A11797BE4FF121F1278897C00FDFE7F1E
:10113500041203637BFF7A167948E4FF121F1278C5
:101145008D7C00FDFE7F041203637BFF7A1579A673
:10115500E4FF121F1278917C00FDFE7F04120363E9
:101165007BFF7A0E791BE4FF121F1278957C00FD38
:06117500FE7F040203638B
:101AEE00E55E7048E55F24FB602524FB600824FB5F
:101AFE006022240E70367865760178697601786DED
:101B0E007601787176017875760178917601227872
:101B1E0079760122787D7601788176017885760155
:0D1B2E0078897601788D7601789576012210
:101CAA00121F46121F34121F9743B92243A928D282
:101CBA0091121E90121D9C121EC7121FB7121EAD42
:101CCA00121D7212000A121DE9121D4212106578C5
:041CDA0099760122D4
:100BB9006048004A03020302049C03020302030281
:100BC90003F203F2053203F203F2038E04C404C4F0
:100BD900064004C404C4039805A005D2069005B4D0
:100BE90005D2044C06AE06D606D606AE06CC04B02F
:100BF90007580758076C0758074E04B00C2800001F
:0E0C09000000000000000000000002340000A7
:0C001E00E535453460037F01227F00229D
:1018F300E55970739000ACE06402606B12126AE504
:101903001F6064E52830E35F30E45CE53630E03E99
:1019130020E230E5386050053FE53F7002053E6444
:1019230028453E7012F523752201F524FF121EFA95
:10193300E4FF121E738020E53F6432453E7018F5C4
:10194300388014E53620E31FE538601B8009E56223
:1019530030E011E5206003021DC3E52830E20812E0
:081963001DC380005328FB2284
:101DC300D290432820432801432802E4FDFC7F20CE
:101DD3007E03121E545328EF752F00532EF0D28C1E
:061DE300E4F530F53122A9
:10126A00AE2EEE54F0FCE52F2401FFE43E540F4C61
:10127A00F52EEFF52FE52E540FFEC3EF9533EE95BD
:10128A00324010E532540FFEE52E54F04EF52EE5AD
:10129A0033F52FE52954076401700A052DE52D70F1
:1012AA0009052C8005E4F52CF52DD3E52D94F4E5FC
:1012BA002C9401400DE4F52CF52DE52954F844024F
:1012CA00F529E520600A0531E53170090530800508
:1012DA00E4F530F531D3E53194B8E530940B40129A
:1012EA00E4F530F531F530F531F5209000A0E04411
:1012FA0002F0753400753501AF28EFC45401703619
:10130A00E52E540FFEE52F64024E70035328FEE5C6
:10131A002E540FFEE52F64054E70035328FDE52E6B
:10132A00540FFEC3E52F9533EE953240094328103A
:07133A00752F00532EF02275
:0B1FA500C2905328DFE4F534F535222C
:101EAD0090004AE0FEA3E0FF7C007D0A1203898EBC
:0A1EBD00328F3375340075350122B1
:101E7300EF25E0244AF582E43400F583E0FEA3E095
:0D1E8300FF7C007D0A1203898E328F33220E
:0F0C17004C00A0000000000000000000000000E2
:10117B00E4FDE52830E503021269E559600302122C
:10118B00649000A0E030E50654DFF05363DE90007E
:10119B00A0E030E03954FEF05363A0E52314601552
:1011AB0014601714601914601B14601D2405701C47
:1011BB0043630180174363028012436304800D4332
:1011CB006308800843631080034363407D019000F4
:1011DB00A0E030E10F54FDF05363DFE520600343E3
:1011EB0063207D019000A0E030E41854EFF07563AC
:1011FB00007563FFE53620E2055363BF800353633D
:10120B00DF7D019000A0E030E70A547FF0756300AA
:10121B00D2847D019000A1E0640370079000A0E0F0
:10122B0054FBF09000A0E030E21F54FBF0A3E0145D
:10123B00600B14600824027010C284800C9000A212
:10124B00E07004C2848002D284E5177005E5283073
:0E125B00E103ED6009AF638002AF57121E0E73
:011269002262
:101C3E009000A1E06403702D9000A875F0011203CE
:101C4E00DEFE9000A4E0B50608A3E0B5F003D28452
:101C5E00229000A8E07004A3E064167008C284907D
:061C6E0000A8F0A3F02223
:101414009000A1E0FF64016005EF6402705B90003E
:10142400A8E475F0011203DEFE9000AAE0B50612EE
:10143400A3E0B5F00D9000A27401F09000A0E04488
:1014440004F09000ABE025E0FF9000AAE033FE90AA
:1014540000A8E06E7003A3E06F60030214E1900043
:10146400A8F0A3F09000A2F09000A1E06401700144
:10147400F09000A0E04404F0229000A1E064037026
:10148400519000A675F0011203DEAFF0FE7C007DE2
:1014940064120389ED4C70459000A3E07017A375A6
:1014A400F0011203DEFEE5F064154E70309000A3E7
:1014B40004F0E480169000A474FFF5F01203DEFE3D
:1014C400E5F064014E70169000A3F09000A6F0A31E
:0E14D400F022E49000A8F0A3F09000A2F02215
:101D4200E4FF121E0EE49000A0F09000AA7427F0A7
:101D5200A37410F0E4F563AF36EFC31354016401CA
:101D62007003D38001C340079000A0E04404F02236
:1019D4009000A1EFF0E49000A8F0A3F09000A2F032
:1019E400EFFD7C006401700B9000AA04F0A3742C3A
:1019F400F08035ED64024C700B9000AA04F0A374DF
:101A0400F4F08024ED64034C70149000A6F0A3F06D
:101A14009000A304F0A3E4F0A37415F0800A9000EE
:101A2400AA7427F0A37410F09000A0E04404F022FC
:10187700AB078B1F5328FE4328025328FB9000B168
:1018870012058700000000EB603BE4FF1219D490BB
:1018970000AC7401F0E52954F84401F529121D1034
:1018A700E5221475F006A42523F524E5221475F026
:1018B70006A42523FF121EFAE5221475F006A425B7
:1018C70023FF021E739000ACE0640270047F038064
:1018D70002E4FF1219D4E4F5205329F8121C02E59B
:0C18E7003620E0079000A0E04480F022D2
:10176B00E4F54412000EE5596002807AAF36EFC300
:10177B0013540164017002806DE53630E019E527E2
:10178B0064047011E538700D7F01121877753B01F9
:10179B007F021219D4804F9000ACE064027014E504
:1017AB00276404700C7F011218779000A0E04401AD
:1017BB00F08033E52724FE601124FE7029E51F60BD
:1017CB001BE52070174328048012E51F600EE520EF
:1017DB00700A7520019000A0E04402F09000B11255
:0917EB000587000000007527FFCE
:0117F40022D2
:101D1000900094E054F84402F0E4900093F0D2A5CF
:101D2000FDFC7F207E03121E540053FBEFE4FDFCFC
:101D30007F207E03121E5443BE02C291E4F50DF5CE
:021D40000E2271
:101C020053BEFD43FB10C2A4D291E55954FA7005AC
:101C1200E53630E00DE4900093F0C2A5A3E054F85D
:101C2200F022E5597015900094E054F84401F0E474
:0C1C3200900097F090009304F0C2A522EF
:100F4300E4FBFF7EFF2092011E6306FFEEFDE4FC3F
:100F5300ECC394147480948050030C80F3EEB505B5
:100F6300027F01EF700302105F8D1CE519146025E9
:100F730014604914607114607724046003021053F1
:100F8300E51C7003021053F51B751D00751E0175DA
:100F93001901021053E51C651B6003021049051E6D
:100FA300E51EAE1D7002051D1464034E600302109E
:100FB30053851B1A7B01751902021053E51C651B2F
:100FC30060028027051EE51E7002051D24FDFFE556
:100FD3001D34FFFEEF64964E7076E51B25E0F51A8F
:100FE3007B017519038069E51C651B751904806015
:100FF300E51C705C051EE51EAE1D7002051D14C3C5
:101003009406EE94004049E51E9450E51D9400506B
:101013000AE51B25E025E0F51A8014D3E51E949616
:10102300E51D94004009E51B33333354F8F51AAF3B
:1010330036EFC3135401640170079000A0E0440429
:10104300F05336FD7B01751BFFE4F51DF51EF51905
:10105300EB64017006AF1AFCFDFE22E47FFFFEFD88
:01106300FC90
:011064002269
:0C000E00120F43EFF46005751AFF8F27F6
:01001A0022C3
:101EC700751AFF751BFF751CFFE4F51DF51EF51947
:0A1ED7007527FFF523F522F52422FC
:100C26004E009200000000000000000000000000DE
:010C360000BD
:10090C00E55954FE6003020A70AF36EFC31354016D
:10091C0064017003020A70E53630E003020A70E5E8
:10092C000A6003020A2AE5176003020A70E5283000
:10093C00E003020A707F03121C74E4FCFD90009C1F
:10094C0012057BE47FA07E0FFDFC90009CE0F8A3D9
:10095C00E0F9A3E0FAA3E0FB1203F4E41201D4E4FF
:10096C00FBFA7980784512013712021290009AEE48
:10097C00F0A3EFF0A312058700000000E52954074F
:10098C0064026008E55920E003020A2A90009AE00C
:10099C00FEA3E0FFC39432EE94004009D3EF949091
:1009AC00EE94014038900096E004F0E4900095F04D
:1009BC00A3E0C39432748094804063E4F09000927E
:1009CC00E04401F0435901E4FF1218779000AC7435
:1009DC0001F05328EF752F00532EF08041900095B5
:1009EC00E004F0E4A3F0900095E0C394327480949A
:1009FC0080402BE4F0900092E030E01B7F01121F4E
:100A0C00BDE52260127F01121877752A019000A0B3
:100A1C00E0547FF04401F0900092E054FEF090001E
:100A2C0094E0540764017010900099E004F0700693
:100A3C00900098E004F08007E4900098F0A3F09008
:100A4C000098E0FEA3E0FFE4FCFD7BB87A0BF9F81C
:100A5C00C312051F500E900094E054F8F0E490007F
:050A6C0093F0C2A52279
:101E3300900093E0601A900097E0FF04F0EF6403D2
:101E43007003D2A522900097E0640A7003C2A5F044
:011E5300226C
:01000A0022D3
:0A0C3700084F00000000000000005C
:100CE900E4F5447545FFF546E5596003020E1AAF70
:100CF90036EFC313540164017003020E1AE536304E
:100D0900E003020E1AE5176003020E1A1213418F4F
:100D190047E54714602014603124FA606E24F860B6
:100D29001F24F0601624E0601C2441606324FB70DA
:100D3900657545038063754505805E754501805974
:100D4900E4F5458054754502804FE5526003020E73
:100D59001A0551E55164056003020E1AF5517552E1
:100D690001E51F7003020E1AE4F530F531E5207034
:100D7900047F0180027F008F209000A0E04402F0F0
:100D89009000B11205870000000022754504800912
:100D9900E4F552F551227545FFC3E5459406748083
:100DA90094805067AF47E4FCFDFEAB56AA55A954A1
:100DB900A853C312053560530550E5506402704EBF
:100DC900F550E51F6048854523E5221475F006A412
:100DD9002523F524E5221475F006A42523FF121E08
:100DE900FAE5221475F006A42523FF121E7390005C
:100DF900A0E04401F0E4854756F555F554F55390C4
:100E090000B1120587000000008003E4F550E4F505
:010E19005187
:010E1A0022B5
:061FB700121F5802134145
:100C41006048000000E100E1010E00E100E100E187
:100C510000F500F5011800F500F500EB010E010E9D
:100C61000122010E010E00F501220122012C0122B7
:100C7100012200FA01310131013101310131010457
:100C810001400140014001400140010E0D0A0000F8
:100C910000000000000000000000000117004100FA
:0D0CA1004900410048000118000208000051
:101EFA00EF25E02400F582E43400F583E0F50FA332
:041F0A00E0F51022CC
:1005BE00E4F547F548754910F54AF54EF54DF54CFD
:1005CE00F54BE559600953BEFD43FB10C2A42290C2
:1005DE0000ACE06402700302090BE4F544C3E54489
:1005EE0094057480948050467F02121C748E458F41
:1005FE0046E4FCFDE5162FF516E5153EF515ED3531
:10060E0014F514EC3513F513C3E5489546E54795F7
:10061E00455006854547854648D3E54A9546E54902
:10062E009545400685454985464A054480AFAE4707
:10063E00AF48AB07AA06C3E5169BFFE5159AFEE584
:10064E00149400FDE5139400FCC006C007AE49AF3C
:10065E004AAB07AA06D007D006C3EF9BFFEE9AFE61
:10066E00ED9400FDEC9400FCE47B03FAF9F812041F
:10067E007FE47BA07A0FF9F81203F4E41201D47B25
:10068E00A37A8B794D784312002EE4FBFA798078A9
:10069E0045120137E4FBFA797A78441201371202D7
:1006AE00128E118F12E4F516F515F514F513F547A4
:1006BE00F54874FFF549F54AE4F544C3E54494035F
:1006CE007480948050467F06121C748E458F46E4CB
:1006DE00FCFDE54E2FF54EE54D3EF54DED354CF559
:1006EE004CEC354BF54BC3E5489546E547954550E3
:1006FE0006854547854648D3E54A9546E5499545DD
:10070E00400685454985464A054480AFAE47AF4809
:10071E00AB07AA06C3E54E9BFFE54D9AFEE54C944A
:10072E0000FDE54B9400FCC006C007AE49AF4AABD6
:10073E0007AA06D007D006C3EF9BF54EEE9AF54DED
:10074E00ED9400F54CEC9400F54BAF4EAE4DAD4C28
:10075E00FCE41201D47B007A78792A784112002EBB
:10076E00120212E48F4E8E4DF54CF54BE54E241EC3
:10077E00F54EE4354DF54DE4354CF54CE4354BF581
:10078E004BE51F70030208C012001EEF7003020833
:10079E00BAC3E5129510E511950F4003020860E407
:1007AE007FD07E20FDFCAB4EAA4DA94CA84BC312A8
:1007BE0005355019C3E50E941CE50D940050030247
:1007CE00087F74E4250EF50E74FF02085AE47F9834
:1007DE007E21FDFCAB4EAA4DA94CA84BD31205357C
:1007EE00500302087FE47F8C7E23FDFCA84BD312BE
:1007FE00053540057544208037E47F287E23FDFCB7
:10080E00AB4EAA4DA94CA84BD312053540057544E5
:10081E001C801DE47FC47E22FDFCAB4EAA4DA94C6C
:10082E00A84BD31205354005754418800375441442
:10083E00AF447E00C374919FFD74019EFCC3E50E10
:10084E009DE50D9C502BEF250EF50EEE350DF50D9D
:10085E00801FE5102405FFE4350FFED3E5129FE55A
:10086E00119E4007E4F50DF50E8006750D00750E10
:10087E0008E51024FEFFE50F34FFFEC3E5129FE5E9
:10088E00119E40054328088016E51024FBFFE50F56
:10089E0034FFFEC3E5129FE5119E50035328F7ADBA
:1008AE000EAC0D7F207E03121E548006750D017551
:1008BE000E88E52954076402703EE5124511600B5F
:1008CE00D3E5129490E5119401402DAF36EFC3138A
:1008DE00540164017003D38001C3401CE5177006F8
:1008EE00900049E004F0900049E06464700F4328E2
:0D08FE0008435902FF021877E4900049F00A
:01090B0022C9
:1017F500E4F547F546F545F54443D50453D5FC7F57
:101805000C121C74E48F478E46F545F544AB47AA88
:1018150046A945A844FFFE7D7DFC12047FE48F4761
:101825008E46F545F5447FAC7E0DFDFCAB47AA46DB
:10183500A945A844C3120535400FE47F707E17FD06
:10184500FCA844D312053540057517018018E47FBF
:10185500A07E0FFDFCAB47AA46A945A844D31205B7
:10186500354003E4F51753D5FBE5D554FE4402F5A1
:01187500D59D
:01187600224F
:101D7200E4F544F545F546F547F54874FFF549F5B0
:101D82004AE4F54EF54DF54CF54B900000E0F50FA9
:091D9200A3E0F510E4F50DF50ED7
:011D9B002225
:0E1F7B00C3E518946474809480500205182207
:030CAE00016200E0
:1015A600E5596003021647AF36EFC31354016401D1
:1015B6007003021647E53630E0030216479000AC8A
:1015C600E06402607C209341AF62EFC313FEEF54E8
:1015D60001FFEE547FFE04547FFD25E04FF562EED9
:1015E600C394027480948040585362019000A1E035
:1015F6007009E51F60057F021219D49000B112052B
:10160600870000000043620122AF62EFC313FEEFC2
:101616005401FFEE547FFE04547FFD25E04FF56232
:10162600EEC394027480948040175362019000A127
:10163600E064027009E51F6005E4FF1219D45362E5
:02164600FE2282
:0B0CB1004200B500000161000160007E
:1014E200E55954FB60030215A5AF36EFC31354014F
:1014F200640170030215A5E53630E0030215A5E587
:101502001760030215A5E529540764026008E5592E
:1015120020E2030215A5E50A60030215A5FF121CCD
:1015220074AC06AD07E41201D9E4FBFA797A783F8C
:1015320012002E1202129000B5EEF0A3EFF0C39447
:10154200F4EE9401501BE4F560AF610561C3EF94C2
:101552003274809480404CE4F561435904FF0218D0
:1015620077D39000B6E094D09000B5E09407403372
:10157200E4F561E55930E22BAF600560EF94327417
:10158200809480401EE4F5607F04121FBDE5226056
:10159200127F01121877752A019000A0E04420F012
:0315A200547FF083
:0115A5002223
:0A0CBC000558000000000001570079
:051FBD00EFF45259226F
:101A3400E5596059055CE55C7002055B640A455B29
:101A44007003435801E55C6414455B7007F55BF56E
:101A54005C5358FEE4F557E55830E019E55930E099
:101A640003435703E55930E103435707E55930E28F
:101A74001C43570F22E55930E0035357FCE5593016
:0D1A8400E1035357F8E55930E2035357F0E2
:011A91002232
:0C0CC6004900AC0000000000000000002D
:10164800E55960030216DEAF36EFC3135401640197
:1016580070030216DEE53620E07CE51F606490002A
:10166800B1120546E47B287A23F9F8C312053550F0
:101678001E9000B1120587000000009000AC7402B3
:10168800F0E4FF1218775328EF752F00532EF090CF
:1016980000AD1205467B907A5F79017800C3120588
:1016A8003550339000AD120587000000009000AC63
:1016B8007402F0E4FF1218775328EF752F00532EA9
:1016C800F0229000B1120587000000009000AD12D2
:0716D800058700000000225D
:100CD2000E360000000000000000000000000000CE
:0E1F8900C3E539943C748094805002053922DF
:101DE900E4FFFEF539C3E539943C748094805009C9
:101DF9002092030F80EF0E80ECEFD39E4003433611
:041E090002E4F539C1
:011E0D0022B2
:100E1B00E4F544F545E53620E107E5596003020F9B
:100E2B0042E53620E10620E003020F42E53630E1D1
:100E3B005420E0511213418F44E4FFEFC394147418
:100E4B0080948050030F80F31213418F45E544B516
:100E5B00450864027004053A8006E53A6002153ACB
:100E6B00E53A6450701F5336FD433601F523752266
:100E7B000675241E7F1E121EFA7F1E121E73900013
:100E8B00A0E04410F0E53630E21BE5386017E5438F
:100E9B002401F543E43542F542E43541F541E435AF
:100EAB0040F5408009E4F543F542F541F540E53660
:100EBB0020E323E47F987E3AFDFCAB43AA42A94191
:100ECB00A840D3120535402FE4F543F542F541F523
:100EDB00404336088021E47F707E17FDFCAB43AAAC
:100EEB0042A941A840D3120535400CE4F543F54225
:100EFB00F541F5405336F7E53B603C053DE53D706C
:100F0B0002053C64907004E53C6401702A7538015D
:100F1B00F53BF53CF53DF53EF53FF543F542F54127
:100F2B00F5405336F7F52375220675241E7F1E12E6
:070F3B001EFA7F1E121E7357
:010F4200228C
:101D9C00E4F5AD75AC06F5BCF5BB85BCAF85BBAE4B
:101DAC00F5BDF5BE75ABF053FBEFFDFC7F207E035C
:071DBC00121E5443BE022277
:101E5400AB07AA068AADEBF5ACAA04AB058ABCEBCA
:0E1E6400F5BB85BCAF85BBAEE4F5BD75ABF03C
:011E7200224D
:03002B00021B3B7A
:101B3B00C0E0C0F0C083C082C0D075D000C000C070
:101B4B0001C002C003C004C005C006C00730C60BED
:101B5B00C2C675CDFE75CCF4121C3ED007D006D094
:101B6B0005D004D003D002D001D000D0D0D082D089
:061B7B0083D0F0D0E0323F
:03000B00021B8154
:101B8100C0E0C0F0C083C082C0D075D000C000C02A
:101B910001C002C003C004C005C006C007C28C75E5
:101BA1008CF5758A94121FA5D007D006D005D004F4
:101BB100D003D002D001D000D0D0D082D083D0F0D9
:031BC100D0E0323F
:03001B0002196B5C
:10196B00C0E0C0F0C083C082C0D075D000C000C042
:10197B0001C002C003C004C005C006C007758DF5C9
:10198B00758B95121F7B121F897899E66020121AAE
:10199B00EE055FE55F7002055ED39414E55E94007F
:1019AB004006755E00755F00121414121E33D007CB
:1019BB00D006D005D004D003D002D001D000D0D0B7
:0919CB00D082D083D0F0D0E032CC
:0E1F970075CDFE75CCF475C805C2C6D2AD225C
:101F3400758DF5758B95438910D28EC28FD2ABD235
:021F4400AF22CA
:101F4600758CF5758A94438901C28CC28DD2A9D24B
:021F5600AF22B8
:101E900053D2F3439E0D43D68043D28043D20243B4
:0D1EA000D44043D42075D5027F02021C748B
:101C7400E4FDFC53D2F0EF42D243D240E5D25420EB
:101C8400642070F853D2BFAFD3FCAD07EDC4F85451
:101C94000FC868FFECC454F048FEE5D4540F2FFD80
:051CA400EC3EFEAF055F
:011CA9002218
:101EE100EF24FE6007146008240270067F0E800252
:091EF1007F16AE071FEE70FA2205
:071F2100ED25E0FDEC33FCAF
:0C1F28007F01121EE1D2837F01021EE146
:10134100E4FDFCC283003082010D121F21C2830023
:10135100308203430501121F21C2830030820343FF
:101361000501121F21C28300308203430501121FB0
:1013710021C28300308203430501121F21C2830071
:10138100308203430501121F21C2830030820343CF
:101391000501121F21C28300308203430501121F80
:1013A10021C28300308203430501121F21C2830041
:1013B100308203430501121F21C28300308203439F
:1013C1000501121F21C28300308203430501121F50
:1013D10021C28300308203430501121F21C2830011
:1013E100308203430501121F21C28300308203436F
:1013F1000501121F21C28300308203430501121F20
:1014010028D283ED64C27008ECFD6305FFAF0522AD
:021411007FFF5B
:0114130022B6
:101F5800D2837F02121EE1D2827F02121EE153F960
:021F6800FB225A
:030CE200016300AB
:101E0E00C2AF7E01EE601BC2865F6004D285800287
:101E1E00C285D286C286C287D287C287EE25E0FEF1
:041E2E0080E2D2AFCD
:011E3200228D
:030CE500016400A7
:101A9200A294E433FFA295E433FEA296E433FDEE72
:101AA20025E0FEED25E025E02E2FFF14B4070050BF
:101AB20038901AC175F003A4C58325F0C58373025B
:101AC2001AE2021AE5021AE8021AD6021AD9021A10
:101AD200DC021ADF7F07227F01227F02227F03229C
:0B1AE2007F04227F05227F06227F0088
:011AED0022D6
:100A7100E5596003020BB5AF36EFC31354016401AE
:100A81007003020BB5121A928F64E53630E003024F
:100A91000B82E5227003020B2A65647003020B7E50
:100AA1007E00D3EF9400748094804056EF940774D5
:100AB100809480504D9000ACE06402700C7F011274
:100AC10018779000A0E04401F07F011219D48564E9
:100AD10022E5221475F006A42523F524E5221475D8
:100AE100F006A42523FF121EFAE5221475F006A4D0
:100AF1002523FF121E739000B1120587000000002C
:100B0100807BE564640770759000AC04F0E4FF122B
:100B11001877E4FF1219D4E4F522852324AF2312B8
:100B21001EFAAF23121E738054AF647E00D3EF947C
:100B310000748094804046EF940774809480503D07
:100B4100856422E5221475F006A42523F524E52207
:100B51001475F006A42523FF121EFAE5221475F080
:100B610006A42523FF121E737F01121877E52A6060
:100B7100057F011219D49000A0E04401F0752A010B
:100B810022E564602F6537602BE538600AE4FF12C7
:100B910019D4E4FF121877E56464077007F5385338
:100BA10036FB8006E4F5384336049000A0E044109B
:050BB100F0856437220D
:101F6A00120003121CDE121CAA121FB075865A80B8
:011F7A00F86E
:0A1FF600FFFFFFFFFFFFB75AA5AF82
:030000000216DF06
:0C16DF00787FE4F6D8FD7581990217268B
:10002E00EC4D6011E8497017ED33EC3304600DE4CC
:10003E00FCFFFEFD22E933E8330470F802027E1263
:10004E00024958046009E4CC248150062850090264
:10005E000288284003020285C0E0EB4A7044B98052
:10006E0006D0E0FB020274EF4E701CBD8008EBFF61
:10007E00EAFEE9FD80EBE98DF0A4FEE5F002011742
:10008E00E9CDF9EAFEEBFFEF89F0A4FCE5F0CE89AD
:10009E00F0A42EFFE435F0CD89F0A42DFEE435F06A
:1000AE008067EF4E7005BD80D780C3EF8BF0A4AC98
:1000BE00F0EE8BF0A42CFCE435F0F8EF8AF0A42CD3
:1000CE00E5F038FCE433CB8DF0A42CFCE5F03BF8E6
:1000DE00EE8AF0A42CFCE5F038F8E433CF89F0A4D6
:1000EE002CFCE5F038CF3400CE89F0A42FFFE5F0DC
:1000FE003EFEE433C98DF0A42EFEE5F039CD8AF034
:10010E00A42FFFE5F03EFEE43DFD33D0E0FB5007AB
:10011E000BBB000F020288EC2CFCEF33FFEE33FE1C
:06012E00ED33FD0202604A
:10013400020288EC5D046005E85904700302027E43
:10014400120249580460F6EC4860F2EC7004FDFEBB
:10015400FF22C860DB2481C85009C398600250069E
:100164000202859850CAF582E9294B4A7005AB8290
:1001740002027475F0007C1A7880C3EF9BEE9AED4E
:1001840099400DC3EF9BFFEE9AFEED99FDE842F016
:10019400DC23ACF0D0E0FFD0E0FED0E0FDAB822069
:1001A400E7101BEB60BAEC2CFCEF33FFEE33FEEDF3
:1001B40033FD020260E803F830E705C0F075F00093
:1001C400EF2FFFEE33FEED33FD40B830E7C280AAD7
:1001D40075F020800E75F010800575F0087D007EA6
:1001E400007F003392D530D503120511EC33401053
:1001F400EF33FFEE33FEED33FDEC33FCD5F0ED22AF
:0E020400E5F0247EA2D513CC92E7CDCEFF22EA
:10021200EDD2E7CD33EC3392D524814006E4FFFEE4
:10022200FDFC22FCE4CFCECDCC24E0501174FF8043
:10023200EDC3CC13CCCD13CDCE13CECF13CF0470E0
:07024200F030D5DE020511CA
:10024900E9D2E7C933E833F892D5EDD2E7CD33ECFB
:0702590033FC5002B2D52274
:10026000EC30E7100FBF000C0EBE00080DBD0004FF
:100270000BEB6014A2D5EB13FCED92E7FD2274FFAB
:10028000FCFDFEFF22E480F8A2D574FF13FC7D8004
:03029000E480EF18
:1016EB00021F6AE493A3F8E493A34003F68001F28C
:1016FB0008DFF48029E493A3F85407240CC8C33300
:10170B00C4540F4420C8834004F456800146F6DFCE
:10171B00E4800B0102040810204080900BB6E47E9D
:10172B00019360BCA3FF543F30E509541FFEE493C3
:10173B00A360010ECF54C025E060A840B8E493A38A
:10174B00FAE493A3F8E493A3C8C582C8CAC583CAB5
:10175B00F0A3C8C582C8CAC583CADFE9DEE780BE6D
:010CE800000B
:10029300E709F608DFFA8046E709F208DFFA803E4D
:1002A30088828C83E709F0A3DFFA8032E309F6083A
:1002B300DFFA8078E309F208DFFA807088828C83A2
:1002C300E309F0A3DFFA806489828A83E0A3F60856
:1002D300DFFA805889828A83E0A3F208DFFA804C30
:1002E30080D280FA80C680D4806980F28033801007
:1002F30080A680EA809A80A880DA80E280CA803370
:1003030089828A83ECFAE493A3C8C582C8CCC583E7
:10031300CCF0A3C8C582C8CCC583CCDFE9DEE780B7
:100323000D89828A83E493A3F608DFF9ECFAA9F036
:10033300EDFB2289828A83ECFAE0A3C8C582C8CC8C
:10034300C583CCF0A3C8C582C8CCC583CCDFEADEA5
:10035300E880DB89828A83E493A3F208DFF980CC07
:1003630088F0EF60010E4E60C388F0ED2402B40400
:100373000050B9F582EB2402B4040050AF232345A7
:0603830082239002E373E7
:10038900BC000BBE0029EF8DF084FFADF022E4CC58
:10039900F875F008EF2FFFEE33FEEC33FCEE9DEC21
:1003A900984005FCEE9DFE0FD5F0E9E4CEFD22ED67
:1003B900F8F5F0EE8420D21CFEADF075F008EF2FB1
:1003C900FFED33FD4007985006D5F0F222C398FDA2
:0503D9000FD5F0EA223F
:1003DE00C5F0F8A3E028F0C5F0F8E58215827002AA
:0603EE001583E038F02247
:1003F400E88FF0A4CC8BF0A42CFCE98EF0A42CFCA8
:100404008AF0EDA42CFCEA8EF0A4CDA8F08BF0A425
:100414002DCC3825F0FDE98FF0A42CCD35F0FCEB84
:100424008EF0A4FEA9F0EB8FF0A4CFC5F02ECD3949
:0F043400FEE43CFCEAA42DCE35F0FDE43CFC22B6
:1004430075F008758200EF2FFFEE33FECD33CDCC70
:1004530033CCC58233C5829BED9AEC99E5829840F3
:100463000CF582EE9BFEED9AFDEC99FC0FD5F0D6D0
:10047300E4CEFBE4CDFAE4CCF9A88222B800C1B9FA
:100483000059BA002DEC8BF084CFCECDFCE5F0CB38
:10049300F97818EF2FFFEE33FEED33FDEC33FCEB71
:1004A30033FB10D703994004EB99FB0FD8E5E4F92C
:1004B300FA227818EF2FFFEE33FEED33FDEC33FC19
:1004C300C933C910D7059BE99A4007EC9BFCE99A0D
:1004D300F90FD8E0E4C9FAE4CCFB2275F010EF2F52
:1004E300FFEE33FEED33FDCC33CCC833C810D70752
:1004F3009BEC9AE899400AED9BFDEC9AFCE899F88D
:0E0503000FD5F0DAE4CDFBE4CCFAE4C8F9221F
:0E051100C3E49FFFE49EFEE49DFDE49CFC22FB
:10051F00EB9FF5F0EA9E42F0E99D42F0EC6480C853
:06052F0064809845F022F3
:10053500EB9FF5F0EA9E42F0E99D42F0E89C45F01C
:010545002293
:100546007401FF3395E0FEFDFCA3A3A3E0CF2FF0DB
:10055600E582158270021583E0CE3EF0E5821582B3
:1005660070021583E0CD3DF0E58215827002158399
:05057600E0CC3CF02286
:0C057B00ECF0A3EDF0A3EEF0A3EFF022F3
:10058700A8828583F0D083D08212059E12059E1221
:10059700059E12059EE473E493A3C583C5F0C58346
:1005A700C8C582C8F0A3C583C5F0C583C8C582C8BE
:0105B7002221
:0605B8008A838982E473CE
:00000001FF
