:030E250001990030
:101D3300E4F580F590F5A0F5F9F5FAF5FB75F9F8FA
:101D430075FA0343FB20F5F1F5F2F5F343F3304362
:101D5300F20443F10453F3F253F27FC286C287D2F3
:021D63008422D8
:0700030043E50775E66922E1
:041F39007BFFE4FF47
:0E1F3D008F448B458A4689477B007A007944A1
:011F4B002273
:101BDE00E4F55DC3E55D940D74809480502FE55D52
:101BEE0025E025E02465F8E66401701DE55D25E03D
:101BFE0025E02466F808E6FA08E6F91205ACE55D7C
:0D1C0E0025E025E02465F8E4F6055D80C6BC
:011C1B0022A6
:071FDB00121BDE75865A227D
:101078007A18798A121F3978657C00FDFE7F041280
:1010880003637A0579B2121F3978697C00FDFE7F07
:10109800041203637BFF7A17797EE4FF121F3D7801
:1010A8006D7C00FDFE7F041203637BFF7A0B79AE33
:1010B800E4FF121F3D78717C00FDFE7F041203637C
:1010C8007BFF7A0C79F3E4FF121F3D78757C00FDF5
:1010D800FE7F041203637BFF7A187908E4FF121F6E
:1010E8003D78797C00FDFE7F041203637BFF7A0A5A
:1010F8007959E4FF121F3D787D7C00FDFE7F0412C4
:1011080003637BFF7A1479F5E4FF121F3D78817C35
:1011180000FDFE7F041203637BFF7A1A794EE4FF19
:10112800121F3D78857C00FDFE7F041203637BFF60
:101138007A11798EE4FF121F3D78897C00FDFE7FCD
:10114800041203637BFF7A16795BE4FF121F3D7874
:101158008D7C00FDFE7F041203637BFF7A1579B94D
:10116800E4FF121F3D78917C00FDFE7F04120363AB
:101178007BFF7A097900E4FF121F3D78957C00FD1A
:06118800FE7F0402036378
:101B0800E55E7048E55F24FB602524FB600824FB44
:101B18006022240E70367865760178697601786DD2
:101B28007601787176017875760178917601227858
:101B380079760122787D760178817601788576013B
:0D1B480078897601788D76017895760122F6
:101CFF00121F71121F5F121FC243B92243A928D2AC
:101D0F0091121EBB121DF1121EF2121FE2121ED8EB
:101D1F00121DC712000A121E18121D971210787882
:041D2F00997601227E
:100E28006048004A03020302049C0302030203020F
:100E380003F203F2053203F203F2038E04C404C47E
:100E4800064004C404C4039805A005D2069005B45E
:100E580005D2044C06AE06D606D606AE06CC04B0BD
:100E680007580758076C0758074E04B00C280000AD
:0E0E7800000000000000000000000234000036
:0C001E00E535453460037F01227F00229D
:10188A00E559707A9000AAE06402607212127DE54E
:10189A001F606BE52830E36630E463E53630E045E7
:1018AA0020E237E5386057053FE53F7002053EFF05
:1018BA00AE3EBE0116BF9013E4F523752201F5244E
:1018CA00FF121F25E4FF121E9E8023E53FB4F40891
:1018DA00E53EB40103E4F5388014E53620E31FE55C
:1018EA0038601B8009E56230E011E5206003021CC4
:0F18FA0058E52830E208121C5880005328FB22C2
:101C5800E4FDFC7F207E03121E7FE4F50DF50ED215
:101C6800907F03121F0C12118E7F03121F0C12118A
:101C78008E4328204328014328025328EF752F005C
:0B1C8800532EF0D28CE4F530F5312231
:10127D00AE2EEE54F0FCE52F2401FFE43E540F4C4E
:10128D00F52EEFF52FE52E540FFEC3EF9533EE95AA
:10129D00324010E532540FFEE52E54F04EF52EE59A
:1012AD0033F52FE52954076401700A052DE52D70DE
:1012BD0009052C8005E4F52CF52DD3E52D94F4E5E9
:1012CD002C9401400DE4F52CF52DE52954F844023C
:1012DD00F529E520600A0531E531700905308005F5
:1012ED00E4F530F531D3E53194B8E530940B401287
:1012FD00E4F530F531F530F531F520900092E0440C
:10130D0002F0753400753501AF28EFC45401703605
:10131D00E52E540FFEE52F64024E70035328FEE5B3
:10132D002E540FFEE52F64054E70035328FDE52E58
:10133D00540FFEC3E52F9533EE9532400943281027
:07134D00752F00532EF02262
:0B1FD000C2905328DFE4F534F5352201
:101ED80090004AE0FEA3E0FF7C007D0A1203898E91
:0A1EE800328F337534007535012286
:101E9E00EF25E0244AF582E43400F583E0FEA3E06A
:0D1EAE00FF7C007D0A1203898E328F3322E3
:0F0E86004C00920000000000000000000000007F
:10118E00E4FDE52830E50302127CE5596003021206
:10119E0077900092E030E50654DFF05363DE900066
:1011AE0092E030E03954FEF05363A0E5231460154D
:1011BE0014601714601914601B14601D2405701C34
:1011CE0043630180174363028012436304800D431F
:1011DE006308800843631080034363407D019000E1
:1011EE0092E030E10F54FDF05363DFE520600343DE
:1011FE0063207D01900092E030E41854EFF07563A7
:10120E00007563FFE53620E2055363BF8003536329
:10121E00DF7D01900092E030E70A547FF0756300A5
:10122E00D2847D01900093E064037007900092E0F9
:10123E0054FBF0900092E030E21F54FBF0A3E01458
:10124E00600B14600824027010C284800C9000940D
:10125E00E07004C2848002D284E5177005E5283060
:0E126E00E103ED6009AF638002AF57121E5E10
:01127C00224F
:101C9300900093E06403702D90009A75F001120395
:101CA300DEFE900096E0B50608A3E0B5F003D2840B
:101CB3002290009AE07004A3E064167008C2849036
:061CC300009AF0A3F022DC
:10142700900093E0FF64016005EF6402705B900039
:101437009AE475F0011203DEFE90009CE0B50612F7
:10144700A3E0B5F00D9000947401F0900092E04491
:1014570004F090009DE025E0FF90009CE033FE90B3
:10146700009AE06E7003A3E06F60030214F490002B
:101477009AF0A3F0900094F0900093E0640170015B
:10148700F0900092E04404F022900093E06403702F
:101497005190009875F0011203DEAFF0FE7C007DDD
:1014A70064120389ED4C7045900095E07017A375A1
:1014B700F0011203DEFEE5F064154E7030900095E2
:1014C70004F0E4801690009674FFF5F01203DEFE38
:1014D700E5F064014E7016900095F0900098F0A327
:0E14E700F022E490009AF0A3F0900094F0221E
:101D9700E4FF121E5EE4900092F090009C7427F01E
:101DA700A37410F0E4F563AF36EFC3135401640175
:101DB7007003D38001C34007900092E04404F022EF
:1019EE00900093EFF0E490009AF0A3F0900094F042
:1019FE00EFFD7C006401700B90009C04F0A3742C2E
:101A0E00F08035ED64024C700B90009C04F0A374D2
:101A1E00F4F08024ED64034C7014900098F0A3F061
:101A2E0090009504F0A3E4F0A37415F0800A9000E2
:101A3E009C7427F0A37410F0900092E04404F022FE
:10190900AB078B1F5328FE4328025328FB9000AFD7
:1019190012057B00000000EB603BE4FF1219EE901A
:1019290000AA7401F0E52954F84401F529121D654E
:10193900E5221475F006A42523F524E5221475F093
:1019490006A42523FF121F25E5221475F006A425F8
:1019590023FF021E9E9000AAE0640270047F0380A8
:1019690002E4FF1219EEE4F5205329F8121C1CE5D4
:0C1979003620E007900092E04480F0224D
:10177E00E4F54412000EE5596002807AAF36EFC3ED
:10178E0013540164017002806DE53630E019E527CF
:10179E0064047011E538700D7F01121909753B0153
:1017AE007F021219EE804F9000AAE064027014E5D9
:1017BE00276404700C7F01121909900092E0440115
:1017CE00F08033E52724FE601124FE7029E51F60AA
:1017DE001BE52070174328048012E51F600EE520DC
:1017EE00700A752001900092E04402F09000AF1252
:0917FE00057B000000007527FFC7
:0118070022BE
:101D65009000A0E054F84402F0E490009FF0D2A562
:101D7500FDFC7F207E03121E7F0053FBEFE4FDFC7C
:101D85007F207E03121E7F43BE02C291E4F50DF54E
:021D95000E221C
:101C1C0053BEFD43FB10C2A4D291E55954FA700592
:101C2C00E53630E00DE490009FF0C2A5A3E054F837
:101C3C00F022E55970159000A0E054F84401F0E44E
:0C1C4C009000A3F090009F04F0C2A522BD
:100F5600E4FBFF7EFF2092011E6306FFEEFDE4FC2C
:100F6600ECC394147480948050030C80F3EEB505A2
:100F7600027F01EF70030210728D1CE519146025C3
:100F860014604914607114607724046003021066CB
:100F9600E51C7003021066F51B751D00751E0175B4
:100FA6001901021066E51C651B600302105C051E34
:100FB600E51EAE1D7002051D1464034E600302108B
:100FC60066851B1A7B01751902021066E51C651BF6
:100FD60060028027051EE51E7002051D24FDFFE543
:100FE6001D34FFFEEF64964E7076E51B25E0F51A7C
:100FF6007B017519038069E51C651B751904806002
:10100600E51C705C051EE51EAE1D7002051D14C3B1
:101016009406EE94004049E51E9450E51D94005058
:101026000AE51B25E025E0F51A8014D3E51E949603
:10103600E51D94004009E51B33333354F8F51AAF28
:1010460036EFC313540164017007900092E0440424
:10105600F05336FD7B01751BFFE4F51DF51EF519F2
:10106600EB64017006AF1AFCFDFE22E47FFFFEFD75
:01107600FC7D
:011077002256
:0C000E00120F56EFF46005751AFF8F27E3
:01001A0022C3
:101EF200751AFF751BFF751CFFE4F51DF51EF5191C
:0A1F02007527FFF523F522F52422D0
:0F0E95004C009E00000000000000000000000064
:100A5900E55954FE6003020BADAF36EFC3135401E1
:100A690064017003020BADE53630E003020BADE51E
:100A79000A6003020B67E5176003020BADE5283036
:100A8900E003020BAD7F03121CC99000A8EEF0A38E
:100A9900EFF0FDAC06E41201D9E4FBFA79FA7842E9
:100AA90012002EE4FBFAF978431201371202129070
:100AB90000A6EEF0A3EFF0E4A3F0A3F0E5295407B4
:100AC90064026008E55920E003020B679000A6E084
:100AD900FEA3E0FFC39432EE94004009D3EF949053
:100AE900EE940140389000A2E004F0E49000A1F0F7
:100AF900A3E0C39432748094804063E4F090009E34
:100B0900E04401F0435901E4FF1219099000AA7465
:100B190001F05328EF752F00532EF080419000A16A
:100B2900E004F0E4A3F09000A1E0C394327480944F
:100B390080402BE4F090009EE030E01B7F01121F03
:100B4900E8E52260127F01121909752A01900092C5
:100B5900E0547FF04401F090009EE054FEF09000D4
:100B6900A0E05407640170109000A5E004F070063D
:100B79009000A4E004F08007E49000A4F0A3F090B2
:100B890000A4E0FEA3E0FFE4FCFD7BB87A0BF9F8D2
:100B9900C312051F500E9000A0E054F8F0E4900035
:050BA9009FF0C2A5222F
:101E3D0090009FE0601A9000A3E0FF04F0EF6403B0
:101E4D007003D2A5229000A3E0640A7003C2A5F02E
:011E5D002262
:01000A0022D3
:0A0EA400084F0000000000000000ED
:100CF300E4F5447545FFF546E5596003020E24AF5C
:100D030036EFC313540164017003020E24E5363039
:100D1300E003020E24E5176003020E241213548F1E
:100D230047E54714602014603124FA606E24F860AC
:100D33001F24F0601624E0601C2441606324FB70D0
:100D4300657545038063754505805E75450180596A
:100D5300E4F5458054754502804FE5526003020E69
:100D6300240551E55164056003020E24F5517552C3
:100D730001E51F7003020E24E4F530F531E5207020
:100D8300047F0180027F008F20900092E04402F0F4
:100D93009000AF12057B0000000022754504800916
:100DA300E4F552F551227545FFC3E5459406748079
:100DB30094805067AF47E4FCFDFEAB56AA55A95497
:100DC300A853C312053560530550E5506402704EB5
:100DD300F550E51F6048854523E5221475F006A408
:100DE3002523F524E5221475F006A42523FF121FFD
:100DF30025E5221475F006A42523FF121E9E9000FC
:100E030092E04401F0E4854756F555F554F55390C7
:100E130000AF12057B000000008003E4F550E4F509
:010E2300517D
:010E240022AB
:061FE200121F83021354DC
:100EAE006048000000E100E1010E00E100E100E118
:100EBE0000F500F5011800F500F500EB010E010E2E
:100ECE000122010E010E00F501220122012C012248
:100EDE00012200FA013101310131013101310104E8
:100EEE0001400140014001400140010E0D0A000089
:100EFE00000000000000000000000001170041008B
:0D0F0E0049004100480001180002080000E1
:101F2500EF25E02400F582E43400F583E0F50FA306
:041F3500E0F51022A1
:1005B200E4F547F548754910F54AF54EF54DF54C09
:1005C200F54BE559600953BEFD43FB10C2A42290CE
:1005D20000AAE0640270030208FFE4F544C3E544A4
:1005E20094057480948050467F02121CC98E458FF8
:1005F20046E4FCFDE5162FF516E5153EF515ED353D
:1006020014F514EC3513F513C3E5489546E5479503
:10061200455006854547854648D3E54A9546E5490E
:100622009545400685454985464A054480AFAE4713
:10063200AF48AB07AA06C3E5169BFFE5159AFEE590
:10064200149400FDE5139400FCC006C007AE49AF48
:100652004AAB07AA06D007D006C3EF9BFFEE9AFE6D
:10066200ED9400FDEC9400FCE47B03FAF9F812042B
:100672007FE47BA07A0FF9F81203F4E41201D47B31
:10068200A37A8B794D784312002EE4FBFA798078B5
:1006920045120137E4FBFA797A78441201371202E3
:1006A200128E118F12E4F516F515F514F513F547B0
:1006B200F54874FFF549F54AE4F544C3E54494036B
:1006C2007480948050467F06121CC98E458F46E482
:1006D200FCFDE54E2FF54EE54D3EF54DED354CF565
:1006E2004CEC354BF54BC3E5489546E547954550EF
:1006F20006854547854648D3E54A9546E5499545E9
:10070200400685454985464A054480AFAE47AF4815
:10071200AB07AA06C3E54E9BFFE54D9AFEE54C9456
:1007220000FDE54B9400FCC006C007AE49AF4AABE2
:1007320007AA06D007D006C3EF9BF54EEE9AF54DF9
:10074200ED9400F54CEC9400F54BAF4EAE4DAD4C34
:10075200FCE41201D47B007A78792A784112002EC7
:10076200120212E48F4E8E4DF54CF54BE54E241ECF
:10077200F54EE4354DF54DE4354CF54CE4354BF58D
:100782004BE51F70030208B412001EEF700302084B
:10079200AEC3E5129510E511950F4003020854E42B
:1007A2007FF87E2AFDFCAB4EAA4DA94CA84BC31282
:1007B20005355019C3E50E941CE50D940050030253
:1007C200087374E4250EF50E74FF02084EE47FC030
:1007D2007E2BFDFCAB4EAA4DA94CA84BD31205357E
:1007E2005003020873E47F187E2EFDFCA84BD3123F
:1007F200053540057544208037E47FEC7E2CFDFCF6
:10080200AB4EAA4DA94CA84BD312053540057544F1
:100812001C801DE47F887E2CFDFCAB4EAA4DA94CAA
:10082200A84BD3120535400575441880037544144E
:10083200AF447E00C374919FFD74019EFCC3E50E1C
:100842009DE50D9C502BEF250EF50EEE350DF50DA9
:10085200801FE5102405FFE4350FFED3E5129FE566
:10086200119E4007E4F50DF50E8006750D00750E1C
:1008720008E51024FEFFE50F34FFFEC3E5129FE5F5
:10088200119E40054328088016E51024FBFFE50F62
:1008920034FFFEC3E5129FE5119E50035328F7ADC6
:1008A2000EAC0D7F207E03121E7F8006750D007533
:1008B2000E64E52954076402703EE5124511600B8F
:1008C200D3E5129490E5119401402DAF36EFC31396
:1008D200540164017003D38001C3401CE517700604
:1008E200900049E004F0900049E06464700F4328EE
:0D08F20008435902FF021909E4900049F083
:0108FF0022D6
:10180800E4F547F546F545F54443D50453D5FC7F43
:101818000C121CC9E48F478E46F545F544AB47AA20
:1018280046A945A844FFFE7D7DFC12047FE48F474E
:101838008E46F545F5447FAC7E0DFDFCAB47AA46C8
:10184800A945A844C3120535400FE47F707E17FDF3
:10185800FCA844D312053540057517018018E47FAC
:10186800A07E0FFDFCAB47AA46A945A844D31205A4
:10187800354003E4F51753D5FBE5D554FE4402F58E
:01188800D58A
:01188900223C
:101DC700E4F544F545F546F547F54874FFF549F55B
:101DD7004AE4F54EF54DF54CF54B900000E0F50F54
:091DE700A3E0F510E4F50DF50E82
:011DF00022D0
:0E1FA600C3E5189464748094805002051822DC
:030F1B0001620070
:1015B900E559600302165AAF36EFC31354016401AB
:1015C900700302165AE53630E00302165A9000AA53
:1015D900E06402607C209341AF62EFC313FEEF54D5
:1015E90001FFEE547FFE04547FFD25E04FF562EEC6
:1015F900C39402748094804058536201900093E030
:101609007009E51F60057F021219EE9000AF1205FF
:101619007B0000000043620122AF62EFC313FEEFBB
:101629005401FFEE547FFE04547FFD25E04FF5621F
:10163900EEC3940274809480401753620190009322
:10164900E064027009E51F6005E4FF1219EE5362B8
:02165900FE226F
:0B0F1E004200B3000001610001600010
:1014F500E55954FB60030215B8AF36EFC313540129
:10150500640170030215B8E53630E0030215B8E54D
:101515001760030215B8E529540764026008E55908
:1015250020E2030215B8E50A60030215B8FF121C94
:10153500C9AC06AD07E41201D9E4FBFA797A783F24
:1015450012002E1202129000B3EEF0A3EFF0C39436
:10155500F4EE9401501BE4F560AF610561C3EF94AF
:101565003274809480404CE4F561435904FF0219BC
:1015750009D39000B4E094D09000B3E094074033D1
:10158500E4F561E55930E22BAF600560EF94327404
:10159500809480401EE4F5607F04121FE8E5226018
:1015A500127F01121909752A01900092E04420F07A
:0315B500547FF070
:0115B8002210
:0A0F29000558000000000001570009
:051FE800EFF452592244
:101A4E00E5596059055CE55C7002055B640A455B0F
:101A5E007003435801E55C6414455B7007F55BF554
:101A6E005C5358FEE4F557E55830E019E55930E07F
:101A7E0003435703E55930E103435707E55930E275
:101A8E001C43570F22E55930E0035357FCE55930FC
:0D1A9E00E1035357F8E55930E2035357F0C8
:011AAB002218
:0C0F33004900AA000000000000000000BF
:10165B00E55960030216F1AF36EFC3135401640171
:10166B0070030216F1E53620E07CE51F6064900004
:10167B00AF120546E47B287A23F9F8C312053550DF
:10168B001E9000AF12057B000000009000AA7402B0
:10169B00F0E4FF1219095328EF752F00532EF09029
:1016AB0000AB1205467B907A5F79017800C3120577
:1016BB003550339000AB12057B000000009000AA60
:1016CB007402F0E4FF1219095328EF752F00532E03
:1016DB00F0229000AF12057B000000009000AB12CF
:0716EB00057B000000002256
:100F3F000E3600000000000000000000000000005E
:0E1FB400C3E539943C748094805002053922B4
:101E1800E4FFFEF539C3E539943C74809480500999
:101E28002092030F80EF0E80ECEFD39E40034336E1
:041E380002E4F53992
:011E3C002283
:10090000E4F544F545E53620E107E5596003020AC0
:1009100058E53620E10620E003020A58E53630E1CA
:100920005420E0511213548F44E4FFEFC394147425
:1009300080948050030F80F31213548F45E544B523
:10094000450864027004053A8006E53A6002153AEB
:10095000E53A6450701F5336FD433601F523752286
:100960000675241E7F1E121F257F1E121E9E9000DC
:1009700092E04410F0E53630E21BE5386017E543BD
:100980002401F543E43542F542E43541F541E435CF
:1009900040F5408009E4F543F542F541F540E53680
:1009A00020E323E47F987E3AFDFCAB43AA42A941B1
:1009B000A840D3120535402FE4F543F542F541F543
:1009C000404336088021E47F707E17FDFCAB43AACC
:1009D00042A941A840D3120535400CE4F543F54245
:1009E000F541F5405336F7E53B606D053DE53D705B
:1009F00002053C64907004E53C6401702A7538017E
:100A0000F53BF53CF53DF53EF53FF543F542F54147
:100A1000F5405336F7F52375220675241E7F1E1206
:100A20001F257F1E121E9EE53630E02CE53870280B
:100A3000E53620E207E4F53EF53F8009E4F543F5AD
:100A400042F541F540E4F52375220675241E7F1E0C
:080A5000121F257F1E121E9EDD
:010A5800227B
:101DF100E4F5AD75AC06F5BCF5BB85BCAF85BBAEF6
:101E0100F5BDF5BE75ABF053FBEFFDFC7F207E0306
:071E1100121E7F43BE0222F6
:101E7F00AB07AA068AADEBF5ACAA04AB058ABCEB9F
:0E1E8F00F5BB85BCAF85BBAEE4F5BD75ABF011
:011E9D002222
:03002B00021B5560
:101B5500C0E0C0F0C083C082C0D075D000C000C056
:101B650001C002C003C004C005C006C00730C60BD3
:101B7500C2C675CDFE75CCF4121C93D007D006D025
:101B850005D004D003D002D001D000D0D0D082D06F
:061B950083D0F0D0E03225
:03000B00021B9B3A
:101B9B00C0E0C0F0C083C082C0D075D000C000C010
:101BAB0001C002C003C004C005C006C007C28C75CB
:101BBB008CF5758A94121FD0D007D006D005D004AF
:101BCB00D003D002D001D000D0D0D082D083D0F0BF
:031BDB00D0E03225
:03001B0002198542
:10198500C0E0C0F0C083C082C0D075D000C000C028
:1019950001C002C003C004C005C006C007758DF5AF
:1019A500758B95121FA6121FB47899E66020121B3D
:1019B50008055FE55F7002055ED39414E55E94004B
:1019C5004006755E00755F00121427121E3DD00794
:1019D500D006D005D004D003D002D001D000D0D09D
:0919E500D082D083D0F0D0E032B2
:0E1FC20075CDFE75CCF475C805C2C6D2AD2231
:101F5F00758DF5758B95438910D28EC28FD2ABD20A
:021F6F00AF229F
:101F7100758CF5758A94438901C28CC28DD2A9D220
:021F8100AF228D
:101EBB0053D2F3439E0D43D68043D28043D2024389
:0D1ECB00D44043D42075D5027F02021CC90B
:101CC900E4FDFC53D2F0EF42D243D240E5D2542096
:101CD900642070F853D2BFAFD3FCAD07EDC4F854FC
:101CE9000FC868FFECC454F048FEE5D4540F2FFD2B
:051CF900EC3EFEAF050A
:011CFE0022C3
:101F0C00EF24FE6007146008240270067F0E800226
:091F1C007FFAAE071FEE70FA22F5
:071F4C00ED25E0FDEC33FC84
:0C1F53007F01121F0CD2837F01021F0CC3
:10135400E4FDFCC283003082010D121F4CC28300E5
:10136400308203430501121F4CC2830030820343C1
:101374000501121F4CC28300308203430501121F72
:101384004CC28300308203430501121F4CC2830008
:10139400308203430501121F4CC283003082034391
:1013A4000501121F4CC28300308203430501121F42
:1013B4004CC28300308203430501121F4CC28300D8
:1013C400308203430501121F4CC283003082034361
:1013D4000501121F4CC28300308203430501121F12
:1013E4004CC28300308203430501121F4CC28300A8
:1013F400308203430501121F4CC283003082034331
:101404000501121F4CC28300308203430501121FE1
:1014140053D283ED64C27008ECFD6305FFAF05226F
:021424007FFF48
:0114260022A3
:101F8300D2837F02121F0CD2827F02121F0C53F9DD
:021F9300FB222F
:030F4F000163003B
:101E5E00C2AF7E01EE6017C2865F6004D28580023B
:101E6E00C285D286C287D287EE25E0FE80E6D2AF4B
:011E7E002241
:030F520001640037
:101AAC00A294E433FFA295E433FEA296E433FDEE58
:101ABC0025E0FEED25E025E02E2FFF14B4070050A5
:101ACC0038901ADB75F003A4C58325F0C583730227
:101ADC001AFC021AFF021B02021AF0021AF3021A73
:101AEC00F6021AF97F07227F01227F02227F03224E
:0B1AFC007F04227F05227F06227F006E
:011B070022BB
:100BAE00E5596003020CF2AF36EFC3135401640132
:100BBE007003020CF2121AAC8F64E53630E00302B9
:100BCE000CBFE5227003020C6765647003020CBB58
:100BDE007E00D3EF9400748094804056EF94077497
:100BEE00809480504D9000AAE06402700C7F011238
:100BFE001909900092E04401F07F011219EE85640C
:100C0E0022E5221475F006A42523F524E522147599
:100C1E00F006A42523FF121F25E5221475F006A465
:100C2E002523FF121E9E9000AF12057B00000000D0
:100C3E00807BE564640770759000AA04F0E4FF12EF
:100C4E001909E4FF1219EEE4F522852324AF2312CD
:100C5E001F25AF23121E9E8054AF647E00D3EF94E7
:100C6E0000748094804046EF940774809480503DC9
:100C7E00856422E5221475F006A42523F524E522C9
:100C8E001475F006A42523FF121F25E5221475F016
:100C9E0006A42523FF121E9E7F01121909E52A6064
:100CAE00057F011219EE900092E04401F0752A01C1
:100CBE0022E564602F6537602BE538600AE4FF1289
:100CCE0019EEE4FF121909E56464077007F538534D
:100CDE0036FB8006E4F538433604900092E044106B
:050CEE00F085643722CF
:101F9500120003121D33121CFF121FDB75865A80B7
:011FA500F843
:0A1FF600FFFFFFFFFFFFB75AA5AF82
:030000000216F2F3
:0C16F200787FE4F6D8FD75819902173965
:10002E00EC4D6011E8497017ED33EC3304600DE4CC
:10003E00FCFFFEFD22E933E8330470F802027E1263
:10004E00024958046009E4CC248150062850090264
:10005E000288284003020285C0E0EB4A7044B98052
:10006E0006D0E0FB020274EF4E701CBD8008EBFF61
:10007E00EAFEE9FD80EBE98DF0A4FEE5F002011742
:10008E00E9CDF9EAFEEBFFEF89F0A4FCE5F0CE89AD
:10009E00F0A42EFFE435F0CD89F0A42DFEE435F06A
:1000AE008067EF4E7005BD80D780C3EF8BF0A4AC98
:1000BE00F0EE8BF0A42CFCE435F0F8EF8AF0A42CD3
:1000CE00E5F038FCE433CB8DF0A42CFCE5F03BF8E6
:1000DE00EE8AF0A42CFCE5F038F8E433CF89F0A4D6
:1000EE002CFCE5F038CF3400CE89F0A42FFFE5F0DC
:1000FE003EFEE433C98DF0A42EFEE5F039CD8AF034
:10010E00A42FFFE5F03EFEE43DFD33D0E0FB5007AB
:10011E000BBB000F020288EC2CFCEF33FFEE33FE1C
:06012E00ED33FD0202604A
:10013400020288EC5D046005E85904700302027E43
:10014400120249580460F6EC4860F2EC7004FDFEBB
:10015400FF22C860DB2481C85009C398600250069E
:100164000202859850CAF582E9294B4A7005AB8290
:1001740002027475F0007C1A7880C3EF9BEE9AED4E
:1001840099400DC3EF9BFFEE9AFEED99FDE842F016
:10019400DC23ACF0D0E0FFD0E0FED0E0FDAB822069
:1001A400E7101BEB60BAEC2CFCEF33FFEE33FEEDF3
:1001B40033FD020260E803F830E705C0F075F00093
:1001C400EF2FFFEE33FEED33FD40B830E7C280AAD7
:1001D40075F020800E75F010800575F0087D007EA6
:1001E400007F003392D530D503120511EC33401053
:1001F400EF33FFEE33FEED33FDEC33FCD5F0ED22AF
:0E020400E5F0247EA2D513CC92E7CDCEFF22EA
:10021200EDD2E7CD33EC3392D524814006E4FFFEE4
:10022200FDFC22FCE4CFCECDCC24E0501174FF8043
:10023200EDC3CC13CCCD13CDCE13CECF13CF0470E0
:07024200F030D5DE020511CA
:10024900E9D2E7C933E833F892D5EDD2E7CD33ECFB
:0702590033FC5002B2D52274
:10026000EC30E7100FBF000C0EBE00080DBD0004FF
:100270000BEB6014A2D5EB13FCED92E7FD2274FFAB
:10028000FCFDFEFF22E480F8A2D574FF13FC7D8004
:03029000E480EF18
:1016FE00021F95E493A3F8E493A34003F68001F24E
:10170E0008DFF48029E493A3F85407240CC8C333EC
:10171E00C4540F4420C8834004F456800146F6DFBB
:10172E00E4800B0102040810204080900E25E47E18
:10173E00019360BCA3FF543F30E509541FFEE493B0
:10174E00A360010ECF54C025E060A840B8E493A377
:10175E00FAE493A3F8E493A3C8C582C8CAC583CAA2
:10176E00F0A3C8C582C8CAC583CADFE9DEE780BE5A
:010F5500009B
:10029300E709F608DFFA8046E709F208DFFA803E4D
:1002A30088828C83E709F0A3DFFA8032E309F6083A
:1002B300DFFA8078E309F208DFFA807088828C83A2
:1002C300E309F0A3DFFA806489828A83E0A3F60856
:1002D300DFFA805889828A83E0A3F208DFFA804C30
:1002E30080D280FA80C680D4806980F28033801007
:1002F30080A680EA809A80A880DA80E280CA803370
:1003030089828A83ECFAE493A3C8C582C8CCC583E7
:10031300CCF0A3C8C582C8CCC583CCDFE9DEE780B7
:100323000D89828A83E493A3F608DFF9ECFAA9F036
:10033300EDFB2289828A83ECFAE0A3C8C582C8CC8C
:10034300C583CCF0A3C8C582C8CCC583CCDFEADEA5
:10035300E880DB89828A83E493A3F208DFF980CC07
:1003630088F0EF60010E4E60C388F0ED2402B40400
:100373000050B9F582EB2402B4040050AF232345A7
:0603830082239002E373E7
:10038900BC000BBE0029EF8DF084FFADF022E4CC58
:10039900F875F008EF2FFFEE33FEEC33FCEE9DEC21
:1003A900984005FCEE9DFE0FD5F0E9E4CEFD22ED67
:1003B900F8F5F0EE8420D21CFEADF075F008EF2FB1
:1003C900FFED33FD4007985006D5F0F222C398FDA2
:0503D9000FD5F0EA223F
:1003DE00C5F0F8A3E028F0C5F0F8E58215827002AA
:0603EE001583E038F02247
:1003F400E88FF0A4CC8BF0A42CFCE98EF0A42CFCA8
:100404008AF0EDA42CFCEA8EF0A4CDA8F08BF0A425
:100414002DCC3825F0FDE98FF0A42CCD35F0FCEB84
:100424008EF0A4FEA9F0EB8FF0A4CFC5F02ECD3949
:0F043400FEE43CFCEAA42DCE35F0FDE43CFC22B6
:1004430075F008758200EF2FFFEE33FECD33CDCC70
:1004530033CCC58233C5829BED9AEC99E5829840F3
:100463000CF582EE9BFEED9AFDEC99FC0FD5F0D6D0
:10047300E4CEFBE4CDFAE4CCF9A88222B800C1B9FA
:100483000059BA002DEC8BF084CFCECDFCE5F0CB38
:10049300F97818EF2FFFEE33FEED33FDEC33FCEB71
:1004A30033FB10D703994004EB99FB0FD8E5E4F92C
:1004B300FA227818EF2FFFEE33FEED33FDEC33FC19
:1004C300C933C910D7059BE99A4007EC9BFCE99A0D
:1004D300F90FD8E0E4C9FAE4CCFB2275F010EF2F52
:1004E300FFEE33FEED33FDCC33CCC833C810D70752
:1004F3009BEC9AE899400AED9BFDEC9AFCE899F88D
:0E0503000FD5F0DAE4CDFBE4CCFAE4C8F9221F
:0E051100C3E49FFFE49EFEE49DFDE49CFC22FB
:10051F00EB9FF5F0EA9E42F0E99D42F0EC6480C853
:06052F0064809845F022F3
:10053500EB9FF5F0EA9E42F0E99D42F0E89C45F01C
:010545002293
:100546007401FF3395E0FEFDFCA3A3A3E0CF2FF0DB
:10055600E582158270021583E0CE3EF0E5821582B3
:1005660070021583E0CD3DF0E58215827002158399
:05057600E0CC3CF02286
:10057B00A8828583F0D083D0821205921205921245
:10058B000592120592E473E493A3C583C5F0C5836A
:10059B00C8C582C8F0A3C583C5F0C583C8C582C8CA
:0105AB00222D
:0605AC008A838982E473DA
:00000001FF
