:020000040800F2
:10200000B01E00204D21000811900008197800082A
:1020100000000000000000000000000000000000C0
:10202000000000000000000000000000459A0008C9
:1020300000000000000000000B210008A9A2000819
:102040005F210008000000005F2100085F210008F8
:102050005F2100085F2100085F2100083935000872
:10206000000000000931000855310008F93000086F
:102070005F2100085F2100085F21000800000000C8
:1020800069A6000800000000000000005F210008B1
:10209000000000005F2100085F2100085F210008A8
:1020A0005F2100085F2100085F2100085F21000810
:1020B000F1B900080000000000000000000000006E
:1020C0000348854600F0A4FC00480047C9D000083A
:1020D000B01E0020084B19680868203080F309887A
:1020E000022080F31488BFF36F8F3FBCAE4608BC5C
:1020F00004BC62B6184700004C010020EFF31080CA
:1021000072B6704780F310887047EFF309800E4B6A
:102110001A6820381060F0C044464D4656465F4667
:10212000F0C008B572B60BF0F7FD62B60CBC1168D2
:1021300008681030F0C8A046A946B246BB4680F3F6
:1021400009882038F0C818474C010020044880470F
:1021500004480047FEE7FEE7FEE7FEE7FEE7FEE78E
:1021600089A30008C120000830B50B4601460020B5
:102170002022012409E00D46D5409D4205D31D468D
:102180009540491B2546954040191546521E002D85
:10219000F1DC30BD03460B439B0703D009E008C9BF
:1021A000121F08C0042AFAD203E00B780370401C07
:1021B000491C521EF9D27047D2B201E00270401C95
:1021C000491EFBD270470022F6E710B513460A46B7
:1021D00004461946FFF7F0FF204610BD30B504460F
:1021E0000020034600E05B1C934203D2E05CCD5C20
:1021F000401BF8D030BD0321001D401E03781202A1
:102200001A43491EF9D510467047F8B502464A40B0
:10221000D40F42004B0052085B089A4202D2024699
:10222000084611464A0023D0C30D4A00DDB2120E03
:10223000AD1A202D35DA49020126490AF6058A1918
:10224000002C00D0524220214F1B1146B9402A4198
:102250001018C20D9A4221D0002C17D0012D08DC95
:10226000DA05801AD20F8019D207DBB200F04EFADD
:10227000F8BDDA05801A012340001B06C01880183B
:102280005A428018CA0F1043490007E04908C207A4
:102290001143DA05801A80194008801800F02EFAE0
:1022A000F8BD61000122511A001BF7E70122D20795
:1022B0005140AAE70122D2075040A6E770B5024676
:1022C0004A40D50F40004A00ED0740085208002858
:1022D00014D0002A12D0C40DD30D41020120C00534
:1022E0005202490A520AE41A091812187D3491421E
:1022F00001D3641C00E04900002C01DA002070BD0D
:102300000023914201D3891A034340084900002861
:10231000F7D100290AD0914202D10121C90705E075
:10232000914201D2012101E00121C943E005C01819
:10233000401900F0E3F970BDF0B507460846584073
:1023400087B0C00F049048000E4659004008490865
:10235000BC1A884105D2384631461E4617460B4600
:1023600002465800400810434CD0300D0390400501
:102370005900400D490D0590401A0290402872DA2C
:1023800018030121000B09050843019004980092ED
:10239000002805D001995242002088410092019006
:1023A000029840210A1A0199009800F073F9054635
:1023B0000C466B4607CB00F08EF9C0197141039AA9
:1023C0000E0D0023D71756401A467A40164344D0C4
:1023D000049A002A2DD0029A012A039A15DC1205CC
:1023E000C01A914101263605001C7141D20F059E8D
:1023F000D2070093019202962A46234600F0CCF9B8
:1024000007B0F0BD38463146FAE71605224A0F46B6
:10241000B218C01AB74101210905001C4F4100182C
:102420007F41114618187941E20F10436D1964413C
:1024300013E0E2076D0815436408C2071443039ACA
:1024400001261205C01A91413605001C7141CE07C4
:10245000400830434908C01851412A46234600F03D
:102460008EF9CDE7FFE7049801224000C117121A48
:1024700000238B4104983146C417381AA141EEE776
:1024800030B40124E407634030BC55E730B4012484
:10249000E407614030BC4FE70000E0FFF0B51FB437
:1024A00088B00B990998002448400999C00F490049
:1024B00049080991C0070B990090490049080B9100
:1024C00009990898A64608431CD00B990A98084316
:1024D00018D0099801244000420D4800410D099888
:1024E00024050003000B204309900B980003000B08
:1024F00020430B9050181C494018002201901446AC
:10250000104605E0002001460DB0F0BD032801DAB9
:10251000034600E003239C46C11A0AAE0AE05F00AE
:1025200008ADED5B4F00F75B7D430027AA187C41A7
:10253000491C5B1E6145F2DD410004AB5A52210487
:10254000120C0A43240C401C0828DFDB019802907F
:102550000099704601910090059B049A079906988E
:1025600000F01AF9D0E700000DFCFFFF10B50022C3
:102570009623114600F0CAF810BD00000EB50549BB
:102580000291002100910A460B46019100F004F9E6
:1025900003B000BD330400004A0009030123090B06
:1025A0001B051943094B10B5520D9A4201DA002060
:1025B00010BD064B34339A4203DC9A1A00F07AF8C5
:1025C00010BD03495118884010BD0000FF030000F2
:1025D000CDFBFFFFC20FD207400040080BD0C10D5A
:1025E0000723DB01C91840020905400A1143C2084C
:1025F000400711437047002001467047CB0FDB07AF
:10260000490010B5490802460A4307D00A0D0724BD
:102610000903E401090B121B002A01DC002010BD94
:10262000C900440F0C43C100E018D205801800F027
:1026300065F810BDF0B51FB40646002082B005460F
:102640004024019100901BE0019922460F4630463C
:1026500000F030F8049A059B801A994110D3104677
:102660001946224600F016F8361A8F410197224685
:1026700001200021009F00F00DF838184D41009016
:102680002046641E0028DFDC019B00982946324664
:1026900007B0F0BD10B5202A04DB0146203A914076
:1026A000002010BD914020239C1A0346E3401943AB
:1026B000904010BD10B5202A04DB0846203AD040D7
:1026C000002110BD0B46D340D0402024A21A9140D7
:1026D0000843194610BD10B5202A06DBCB17084663
:1026E000203A1041C1170B4306E00B461341D0407E
:1026F0002024A21A91400843194610BD002904DA8B
:10270000401C490001D140084000704770B40024CB
:10271000050C05D11024000402D1002921D0112478
:10272000050E01D100020834050F01D10001241D5E
:10273000850F01D18000A41C002801DB4000641C2F
:10274000002908D020252E1B0D46F540A14000D0C1
:1027500001212943084301061B1B000ADB1D02D58A
:10276000002070BC7047DB05181880180029F8DAC3
:10277000401C4900F5D170BC40084000704710B5BE
:10278000002B08DA0024401C614192185B411A4377
:1027900001D14008400010BDF0B51FB482B005461D
:1027A0000C0003D0084609F081FB02E009F07EFB33
:1027B00020300246009021462846FFF76BFF049B1D
:1027C000059A04460F4618431143084314D018468F
:1027D00010431BD0009840210A1A18460599FFF7AC
:1027E00069FF05460E46009A05990498FFF752FFC7
:1027F000084305D0012004E02046394607B0F0BD6B
:102800000020C11705430E432C43374300990E980F
:102810006305401A7905E40A00220C43FD0A0A30D8
:1028200002D500200146E9E70105101969410C9C19
:102830000D9D00196941FFF7A2FFDFE7F0B50C46D7
:102840005C4085B0E40FE40703944C000026640864
:1028500059009446490802460296224321D0624616
:102860000A431ED06200570D4A000E032303550D84
:10287000012402462C492405781B1B0B360B4018FB
:1028800023432643614600901C46501AB44103D3AB
:102890000098401C009002E0921800985B410028CC
:1028A00003DA0020014605B0F0BD00200121090532
:1028B0000746864611E064461D46141BB54106D303
:1028C0006546521BB341744607430C43A646CD07E9
:1028D00040084908284392185B4105460D43EAD158
:1028E0001046184313D060461946504071400843C3
:1028F00006D06046101AB34106D20122002306E03A
:1029000000220123DB0702E00122D243531000988A
:1029100074460105381C6141029C039D0019694100
:10292000FFF72DFFBFE70000FD03000070B54B006F
:102930005B0803430BD04B005C0D00263346654219
:10294000B341D417AD1AA34102DB0020014670BD8C
:1029500012053018514170BD0EB5C217C10F50405D
:10296000CA0740180021054B0293019200910A46C4
:102970000B46FFF711FF03B000BD00003304000059
:102980004A0009030123090B1B0519430A4B10B523
:10299000520D9A4202DA0020014610BD064B343334
:1029A0009A4203DC9A1AFFF785FE10BD034BD2183A
:1029B000FFF770FE10BD0000FF030000CDFBFFFF1E
:1029C00010B5002904DB0124E40740428C41214674
:1029D000002B04DB1C460123DB075242A3418B4240
:1029E00000D1824210BD000010B5002904DB012493
:1029F000E40740428C412146002B04DB1C460123A6
:102A0000DB075242A341994200D1904210BD000021
:102A1000064C0125064E05E0E36807CC2B430C3C31
:102A200098471034B442F7D3FFF74EFB1CE500087B
:102A30003CE5000870B58C180578401C6B075B0FEF
:102A400001D10378401C2A1106D10278401C03E012
:102A500006780E70401C491C5B1EF9D12B0705D46B
:102A60000023521E0DD40B70491CFAE70378401C5A
:102A7000CB1A921C03E01D780D70491C5B1C521E82
:102A8000F9D5A142D8D3002070BD0000F0B51E4B8F
:102A900000209A1D0025185E555F0226411B042068
:102AA000185E9E5F04240223145FD35E001BF21A9B
:102AB000002900DA4942002A00DA52428918002827
:102AC00000DA4042091810482438C2688A18C260E7
:102AD0004188491C89B241800A290DD300210B4E3F
:102AE0004180B2420DD90A4F0126BA4201D946614E
:102AF00001E086614161C1600348058043808480B4
:102B0000F0BD8161F6E700007C0000207017000036
:102B100060EA000070B50446006805F00FFC00286C
:102B200024D0206881688907C90F04D18168104AC0
:102B300011401031816001F065FF054612E001F09F
:102B400061FF401B02280DD920688068400709D525
:102B5000A06D10210843A065E06D01210843E065E8
:102B6000084670BD206880684007E8D4002070BD2A
:102B7000E8FFFF7F10B5846AA16D502211420DD18C
:102B8000A06D012149020843A065206805F0DAFB29
:102B900000281BD0A07E002807D017E0A16DC90631
:102BA00024D5204601F028F910BD206801680907E6
:102BB0000CD505F0C3FB0146012000290AD0A16D08
:102BC00020221143A165E16D0143E165204601F03A
:102BD00011F910BD21684A680C239A434A60A16D1F
:102BE000FF22013291430143A165EFE7216D496B5B
:102BF000884710BD10B5806A816D40221143816500
:102C0000C16D04221143C16501F0F6F810BD10B585
:102C1000806A01F0F0F810BD10B501221146064897
:102C200001F0E9FE054800F03FFF60220449034837
:102C300001F05EFA10BD0000001400506C05002089
:102C400042030020F8B50446006881688907CD0F6B
:102C500005F06CFB00282AD0002D28D1206881685F
:102C60000522114010250126012914D18168114A3D
:102C70001140891C816021680320086001F0C2FEB8
:102C8000074610E001F0BEFEC01B02280BD92068E9
:102C90008068C00707D0A06D2843A065E06D304371
:102CA000E0650120F8BD20688068C007EAD10020F7
:102CB000F8BD0000E8FFFF7FF8B504460020009053
:102CC000206805F033FB002845D120688168234A3D
:102CD00010261140002930D18168D5432940491C74
:102CE00081601F48006807218905084000020AD555
:102CF0001D481C490068FFF737FA401C00E0401EE1
:102D000000900028FBD1607E012824D001F07AFEDB
:102D100007461BE005F00AFB002804D12068816803
:102D20002940491C816001F06DFEC01B02280DD9AD
:102D300020680068C043C00708D0A06D3043A0657C
:102D4000E06D01210843E0650846F8BD2068016890
:102D5000C943C907DED10020F8BD0000170000807C
:102D600008270140400D03004801002010B513481A
:102D7000E722817E114089088900891C817605201F
:102D800000222021000701F036FE0C48F7222038EF
:102D900081781140817000214161FF21F5318181ED
:102DA0000178E3221140C906C90E89088900891CEF
:102DB000017006F0CDFA04F0FBFE10BDCC0100203E
:102DC0007047000010B5294CE088401CE080C00727
:102DD00005D100F0C1FDFFF759FE00F0F7FDE288D4
:102DE00000210120082A17D3E18061706269002A5E
:102DF00002D0012A04D008E0E26904E060700EE02D
:102E0000E269002AFAD0012AF8D0A269012A09D180
:102E1000E269002AF2D005E06278002A02D0207030
:102E2000082006E02078002806D02089002802D05B
:102E3000401E208100E021700C482A3001880029C2
:102E400012D1418800290FD1808800280CD1074871
:102E500030300188002907D14188002904D18088B9
:102E6000002801D100F082FD207810BD580000201C
:102E700038B501240A4B22460F21D420009404F0D7
:102E8000EBFC02220749002803D1054800786C2892
:102E900002D04A77022038BD4C77012038BD0000AF
:102EA00038030020AC01002000B51148114A4178D8
:102EB0004B070021002B10DAC3885B1C9BB2C38038
:102EC000642B01D891700AE0962B01D8012002E012
:102ED000C82B02D80220907001E09170C180D17897
:102EE0009078814202D0D07000F00AFA00BD000054
:102EF0001C050020D800002010B50446F02006F084
:102F000031F8F02007F09CF9230008F0E6FF0906ED
:102F100006060909090C0C1115006421012004E0C2
:102F20006421032001E06421072008F02BFA10BD82
:102F3000072005F0A5FB10BDF020FAE71D49FF238F
:102F4000421899331C499A4201D800202FE01B4AAD
:102F50008218A32A01D8012029E0184AA43A82182D
:102F6000282A01D8022022E0144ACD3A8218282AC1
:102F700001D803201BE0114AF63A8218512A01D8E1
:102F8000042014E00E4A8218502A01D805200EE0D1
:102F90000B4A513A8218292A01D8062007E06922F3
:102FA0005201801A17225201904201D807208870DE
:102FB000887870473CF6FFFF98000020A3F4FFFFDD
:102FC0005BF3FFFF30B515490424897E00228B078F
:102FD0009B0F1349012B1DD1124D0B46DB78A842E4
:102FE0000DD24A810879401CC0B20871322813D929
:102FF00032200871012B0FD90120C8700CE0012B81
:1030000001D0002B06D14889401C80B24881642839
:1030100001D94A81CC700A71C87830BDCC0100203A
:1030200098000020150A0000F0B51C490020897E98
:103030008907890F012928D11849002620394D78A0
:103040000B466A065B69002A1BDA0C46144AA47810
:103050002F0705D4E70703D017787F1C177000E00F
:103060001670002B02D11778642F0AD9E70708D011
:10307000640864008C70082425434D701424CC80AF
:103080001670CA78120701D54E61F0BD5B1C054A67
:103090004B619342F9D901204A61F0BDCC01002077
:1030A000C0000020E02E00001CB580206946087199
:1030B00064200090012301AAC021024801F066FDAE
:1030C0001CBD00008006002008B500030749FFF77B
:1030D0004BF80749020A0A70487064200A460090BB
:1030E0000223C021034801F051FD08BDE40C00009B
:1030F000E80000208006002010B5024801F06EF9BB
:1031000010BD0000BC09002010B5104801F066F9A0
:103110000F480168890703D54168022211434160C5
:103120000168490703D541680422114341600168E1
:10313000090703D541680822114341600168C907A6
:1031400003D0416801221143416010BDD005002029
:103150000000024010B5224801F040F9214C2068DF
:10316000800603D56068202108436060206840061F
:1031700003D560684021084360602068000603D5DD
:1031800060688021084360602068C00603D56068DD
:10319000102108436060144801F020F92068800580
:1031A00004D5606801214902084360602068400539
:1031B00004D5606801218902084360602068000529
:1031C00004D560680121C902084360602068C00519
:1031D00004D56068FF2101310843606010BD000024
:1031E000D8070020000002406009002010B5044606
:1031F000006C094980088000401860642078142120
:103200000838FEF7B1FF04498031A164C106C90E38
:1032100001208840E06410BD000802400179084B9D
:103220008906890E8A00D2180265054A4432491E71
:1032300042658A07920F0121914081657047000025
:10324000FC080240F0B5846CC56C6560046D002C10
:1032500002D0446D856D65600B4C6568066C1C275B
:103260003E400127B7403D43656004686360836862
:10327000102B036803D099600068C260F0BD9A60AB
:103280000068C160F0BD00000000024070B5044657
:1032900082790021C079002A07D00225012A0AD0AC
:1032A000022A0DD0032A27D11DE06180002823D0F7
:1032B0000120A07120E06279824212D1A5711BE049
:1032C000627990420DD10321A171A268002A13D026
:1032D0006188904701280FD1A5716088401C6080EB
:1032E0000AE0A17108E06279904205D0A171E1681D
:1032F000002901D010468847E079607170BD000058
:1033000010B51F210D4A0E4B00280AD0FF24F534BA
:10331000012803D0022808D003280AD091629C809B
:1033200010BD91627D20C00005E09162FF204B300E
:1033300001E09162FA20988010BD0000002C01404D
:10334000D8000020F8B52D4EB07EC143890729D0A2
:103350003446203C21788907890F012922D1800732
:10336000800F01281ED12046A2780546510940351C
:103370000427C078012903D1030701D5430702D0F0
:10338000022915D025E0D006C00EA07000F0F2F89A
:1033900000F0E6F8287B800705D46078C00601D4E9
:1033A00006F006F8F8BD1648817839438170F8BDFB
:1033B00000070ED505F0DAFF287BC00704D01148BE
:1033C000417839434170F8BD00F0CAF800F0E2F8E6
:1033D000F8BD0329FCD105F0BBFF04F0E9FB05F0C3
:1033E000C5FF00F0C7F800F0B1F8074900200873E6
:1033F000B07E80088000801CB076F8BDCC01002033
:10340000D20000201C0500202805002010B5002156
:10341000174803F089FB0821154803F085FB15497F
:103420000868022210430860134883881048046823
:10343000E362C36004684123636304685A23A3639F
:1034400004680523E36300681E230364086890434F
:1034500008600021064803F067FB0821044803F0D8
:1034600063FB0648042281781143817010BD00007F
:1034700034080020002C0140D8000020AC010020BE
:1034800010B50021034803F0AFFB0821014803F009
:10349000ABFB10BD34080020F8B5244E707A8007CD
:1034A000800F012841D130462038807E8007800F70
:1034B00001283AD13446403CA0781D4D40090427EC
:1034C00001280BD0022830D105F050FFA078C006AB
:1034D000C00EA070307BC00718D01EE000F04AF884
:1034E00000F03EF8A078C006C00EA070307B8007C8
:1034F00004D46078C00601D405F05AFFA878FB22F6
:103500003843A8700B48417811400DE06078C00640
:1035100003D400F025F800F03DF8A878FB2108401E
:10352000A8700448417839434170F8BDEC0100208F
:10353000D20000201C05002010B50120800201F0FF
:1035400091F90120400301F08DF910BD10B5FF2164
:1035500000220131014801F04EFA10BD0004005074
:1035600010B501221102024801F045FA10BD000019
:103570000004005010B50648FB224178114041700C
:10358000034900200C310873FFF77AFF10BD0000DB
:103590001C05002010B504F0FBFAFFF7E1FF0C4812
:1035A0000422417811434170094901200C3108730C
:1035B00002460146074801F01EFA0520012220219B
:1035C000000701F018FAFFF721FFFFF76DFD10BDAE
:1035D0001C050020001400500748FB228178114090
:1035E0008170074805494162016849084900016046
:1035F0000021416270470000AC010020204E000015
:10360000002C014082881049531E132B06D214222D
:1036100082800878C006C00E203009E01346143BB3
:10362000052B07D2192282800878C006C00E4030D0
:1036300008707047193A052AFBD81E228280087844
:10364000C006C00E6030F3E7AC01002081880B4A51
:103650000B46153B042B06D8142181801078C00638
:10366000C00E203008E01A39042906D819218180BB
:103670001078C006C00E403010707047AC010020BA
:1036800038B5FFF777FF05F071FE052000222021F5
:10369000000701F0B0F9354C00220121204601F06D
:1036A000AAF900220121204601F0A5F93048E322C1
:1036B000417A890889004172017A0907090F01726C
:1036C0000021C180403801781140C906C90E89081F
:1036D00089000170C178EF22C908C900C170417822
:1036E00011404170234801F0E7FC234800F096FDAB
:1036F000214800F057FD214803F011FB1F4803F05B
:103700000BFD1F4802F0A0FA1D4802F039FB1D48CE
:1037100002F036FB1C4801F011FC1C4801F00EFCC5
:103720001B4802F055FF1B4802F052FFFFF7A8FEAE
:1037300005F05AFE05F0D2F8072001F063FD1648A7
:10374000C26B01040A43C263C06B084000900820AA
:1037500001F0A4FD02F004FE0121880301F0A6FDA2
:10376000082001F093FD02F065FA38BD0014005006
:10377000EC010020D40600206C050020CC080020BD
:1037800010070020740700202C060020800600206F
:1037900034080020800800200010024072B6FEE7C6
:1037A0001FB5022100911F21C9064018C00A0290CE
:1037B00001200390042001900449684600F014FFA2
:1037C000002801D0FFF7EAFF1FBD0000EC00002039
:1037D00003494A6901231B04184302434A617047A5
:1037E00000200240044A5069044BC90018400143BC
:1037F00003480143516170470020024007E0FFFF8A
:103800000200010010B50146012000F06BFF002806
:1038100001D0FFF7C3FF10BD30B505494C69012544
:103820002C434C610260BFF36F8F436030BD0000DA
:103830000020024030B50B4C002362690125AD0425
:103840002A436261EFF3108272B620C95B1C20C06C
:10385000DBB2402BF9D32069C003FCD482F310887B
:1038600030BD000000200240F8B5054601F0CAF85E
:10387000471901263604114C03E001F0C3F8B842A1
:1038800014D220693042F8D121690D4801400D4819
:10389000206103D00C4841600120F8BD01F0B2F86E
:1038A000451905E001F0AEF8A84201D30320F8BDA8
:1038B00020694003F6D40020F8BD0000002002403B
:1038C000FA830000FB830000980C002000B5030081
:1038D00008F003FB0714050505070B0F1400002271
:1038E00008E001223221032006E0012232210720D4
:1038F00002E001223221012007F018FD00BD000086
:1039000030B5134841784A0612491DD582890024F2
:10391000521C92B202238281322A01D20C700CE036
:103920001546323D962D02D201220A7005E0FF2590
:10393000F535AA420B7000D3858102789207920F69
:10394000012A01D10B708481087805F01DFD30BD7E
:10395000AC010020CE00002010B5FFF789FA012845
:1039600003D105F081FC05F0B9FC10BDF8B5FFF7F7
:103970007FFA0124134D144E2B4622461021D420E9
:10398000009403F07DFF012000F01CFE6B1C01225F
:103990001121D420009403F073FF012000F012FEE7
:1039A000334601221021D420009403F055FF01205A
:1039B00000F008FE731C01221121D420009403F0B2
:1039C0004BFFF8BD8E0000203803002010B5174BC8
:1039D0000020185E042202219A5E595E002800DA57
:1039E0004042002900DA49424018002A00DA5242D7
:1039F00081180E48303802698A1802618188491C92
:103A000089B281800A290DD30021094B81809A4215
:103A100009D90123074C0362A24201D9C36100E026
:103A2000C161016110BD0162FAE700008800002059
:103A3000701700004442010070B500250A4C2E4664
:103A40002B460AE05A00825AAA4200D91546A242E1
:103A500000D21446B6185B1CDBB28B42F2D3301B8B
:103A6000401B4002000C70BDFF0F000010B5144653
:103A7000FEF724FCFEF7AEFD09F07CF9FEF7BEFD73
:103A80002146FEF71BFC0649FEF7BFFB01467F20DF
:103A9000C005FEF713FC0349FEF708FC10BD00004B
:103AA0000FCF5B3B33938843FEB5002705460446A2
:103AB00040350097287D3E4601280ED0012028750C
:103AC0002046FFF7BFF80290206804F033FC00287E
:103AD000A06D04D0102108436FE00220FEBDFF213D
:103AE0000131884302210843A0652068C168354A36
:103AF00011400191C168D2431140C160002120688A
:103B0000826817239A43DB071A4382602E4A206893
:103B10000CE0009B5B1C0093934207D3A06D022135
:103B2000884310210843A0652F7536E08368DB0FBA
:103B3000EFD18030406B491C4006400E86190829A1
:103B4000DDD33046FEF710FB0146206883681F4A2C
:103B500013405B1C836020688030436BDB09DB0112
:103B60000B434363206881681140891C816000F029
:103B700049FF064613E000F045FF801B02280ED9DE
:103B8000206804F0D7FB002809D0A06D102108435D
:103B9000A065E06D01210843E0650120FEBD2068BD
:103BA00004F0C8FB0028E6D12068C168019A1143DF
:103BB000C160A06D80088000401CA0652F75029830
:103BC000FEBD00000380000000F20200E8FFFF7F5E
:103BD000F8B500270646044640360097307D0D466E
:103BE00001280FD001203075206804F0A7FB0028C1
:103BF0000AD0A06D20210843A06501270020307560
:103C00003846F8BD0220F8BD686802287ED001223F
:103C10002169D207914202D0121D914206D120683B
:103C20002968826A4903490B0A436EE0C206D20E34
:103C30000F20216E904081432868430302D0C307C0
:103C40004BD102E04000C00E48E0830701D50120BF
:103C500044E0430701D5022040E0030701D50320DB
:103C60003CE0C30601D5042038E0830601D50520D9
:103C700034E0430601D5062030E0030601D50720D5
:103C80002CE0C30501D5082028E0830501D50920D3
:103C900024E0430501D50A2020E0030501D50B20CF
:103CA0001CE0C30401D50C2018E0830401D50D20CD
:103CB00014E0430401D50E2010E0030401D50F20C9
:103CC0000CE0C30301D5102008E0830301D51120C7
:103CD00004E0400301D5122000E0002090400143A1
:103CE00021666968E2698808401C904210D8206803
:103CF0002B68826A9C46C906C90E0F238B409A43E3
:103D000063469B001B0F8B401A4300E03BE082623E
:103D10002168AB6828684A69000282431840400164
:103D2000400902434A612868002800DB66E72B4A05
:103D3000116807239B051940294B984214D10B02A7
:103D400012D4C0020143104604F004FB2648254962
:103D50000068FEF709FA0C21401C484300E0401EB1
:103D600000900028FBD149E7204B984203D1CB01BA
:103D700001D4800205E01E4B9842D7D14802D5D429
:103D80005802014325E001212069C907884202D079
:103D9000091D884206D120682968826A4903490BB7
:103DA0008A43826228680028C0DA0C4A1168072317
:103DB0009B0519400A4B984201D1C00208E00B4B09
:103DC000984201D1800203E0094B9842AED14002F3
:103DD0008143104604F0BEFA10E7000008270140B6
:103DE000001000B0400D030048010020004000B862
:103DF000002000B47047704770470000FEB50027F0
:103E0000044601973E4602970097002805D02546B4
:103E1000A06D2035002802D007E00120FEBD20461D
:103E200000F0FCF8E6655420065520688168C9005A
:103E3000C90F12D18168724A114001221207114341
:103E4000816071486F490068FEF78EF94000801C60
:103E500000E0401E00900028FBD120688168C90066
:103E6000C90F08D1A16D10221143A165E16D012296
:103E70001143E165174604F061FAA16DC90601D44A
:103E8000002804D0A06D10210843A065B4E0A06D07
:103E9000FF210131884302210843A065206804F016
:103EA00045FA00286DD1217EA06889030843617E10
:103EB000CA03A17E4B031A431043226B002A01D090
:103EC000012212031043E26810432269002A02DA39
:103ED0005200520801E00122520510432A7B520091
:103EE0001043019A10432A78012A09D1002922D0CF
:103EF000A16D20221143A165E16D01221143E1650D
:103F0000616A002906D0FF23C1331940A26A014328
:103F1000104608432168CA683C4B1A400243CA60F5
:103F20006168029A890F8907E06C0A4310432A7F6F
:103F3000012A04D00CE0012109040843E0E7636C86
:103F4000226C491C1A43A36C0B43114619430843C6
:103F500021680A692E4B1A4002430A6103216068F6
:103F6000890788420DD0590788420AD04900884203
:103F700007D0284A91680F239B04994318400143B6
:103F800091600021626B206804F0EBF92249A26B7A
:103F9000206804F0E6F90F202169C04300291CD0F5
:103FA0000122520591420AD121688A6A227F920039
:103FB000121FD206D20E9040226E104388622068F3
:103FC0004069616B4007400F88420BD1E665A06DE8
:103FD00080088000401CA0650FE021688A6A0243C7
:103FE0008A62ECE7A06D0221884310210843A06596
:103FF000E06D01210843E06501273846FEBD000061
:10400000E8FFFF7F400D0300480100200102FEFF92
:1040100002FCFF1F0027014004FFFF0770B58CB0B2
:10402000064614216846FEF7CEF8182105A8FEF7CB
:10403000CAF82A49306888424ED101208003002501
:104040000590099505A801F051F9002801D0FFF766
:10405000A5FB23480268012109050A4302600068A4
:1040600008401F490B904039486B012210434863B8
:10407000486B10400B904A6B022002434A63496B25
:10408000032401400B9113206A4631C20520694682
:10409000000700F0FDFB0120C0026A4631C26946FC
:1040A000104800F0F5FB114C0F482060A56005207A
:1040B000E560606080202061400060618000A06158
:1040C00020202562E061204600F0E4F9002801D0BC
:1040D000FFF764FB3465A6620CB070BD002401409C
:1040E000401002400004005008000240D0050020AB
:1040F000F7B50446006804F021F9002845D12546AB
:104100004035287D012840D001272F752068C168DF
:104110001F4EC9070CD104F009F9002804D020680B
:1041200081683140891C81602068C1683943C16061
:104130002046FEF7C1FD002826D1A06D1549084094
:10414000FF2101310843A0650020E065226D12497E
:10415000D162226D11491163226D114951632268A8
:104160001C211160287520684168102211434160AC
:104170002168206D4031029B019A00F0DDF9216831
:104180008A683240121D8A60FEBD0220FEBD00001A
:10419000E8FFFF7FFEF1FFFF752B00080F2C0008E2
:1041A000F52B0008F8B5064604464036307D012858
:1041B00007D0012737752046FEF7ACFC050002D07A
:1041C00028E00220F8BD206D2521095C022907D1D5
:1041D00000F048F8050003D0A06D40210843A06519
:1041E00020684168102291434160002D204602D092
:1041F000FEF728FD09E0FEF725FD050005D1A06DBD
:10420000FF21013188433843A0652068C16849080F
:104210004900C160002030752846F8BD70B50546DC
:1042200004464035287D012807D001262E752046FA
:10423000FEF770FC002802D011E0022070BD20685B
:1042400041681C22914341602046FEF7FBFC002898
:1042500005D1A16DFF22013291433143A1650021B7
:10426000297570BDF0B5002808D0014620314A7983
:10427000022A05D00422C263002008710120F0BD8B
:10428000026813680E24A3431360426C1468FF2372
:1042900001339C431460026814686408640014606D
:1042A0000C4A5568066C1C24264001242746B7405A
:1042B0003D435560826CC56C5560026D002A05D087
:1042C00015689D431560826D406D42604C71002001
:1042D0000871F0BD00000240F8B50024024620320B
:1042E0005179022903D00421C16301242DE0016822
:1042F0000B680E25AB430B6001680B685B085B0025
:104300000B60416C0B68FF250135AB430B60104916
:104310004D68066C1C231E4001231F46B7403D43D9
:104320004D60816CC56C4D60016D002906D00E6832
:104330001D02AE430E60416D856D4D6053710021CD
:104340001171816B002900D088472046F8BD00001C
:104350000000024070B5040038D0206801684908A8
:10436000490001601A48266814213018FDF7FCFE48
:10437000800000252064356016484168226C1C23AB
:104380001A4001239340194341602046FEF72EFF57
:10439000606C0560A06CE16C41606068401E0328A1
:1043A00007D82046FEF73AFF206D0560606DA16DCD
:1043B000416025656565A565E56225636563A5635F
:1043C000E563203465712571002070BD012070BD4A
:1043D000F8FFFDBF00000240C06B7047F0B42C49ED
:1043E0000C6802681368056C1C273D400426AE402B
:1043F000264211D05E070FD513689B0603D41468BC
:1044000004239C4314604B68046C04223C40A2408B
:1044100013434B60016B1CE00227AF400646274068
:104420002036002F19D09F0717D513689B0605D497
:1044300013680A24A3431360012272714B68046C51
:104440001C2214400222A24013434B600021317110
:10445000C16A00291AD0F0BC08470827AF4027429C
:1044600014D01B0712D513680E24A34313604B68A6
:10447000046C1C22144001221546A5402B434B60BE
:10448000C263727100213171416BE2E7F0BC704789
:104490000000024070B504003FD025482568142173
:1044A0002818FDF761FE8000206402202646203691
:1044B000707128681F4908402860E168A068626937
:1044C0000843216911430843A1690843E16908438E
:1044D000216A084321680A68104308602046FEF7F5
:1044E00085FE0121A06889030025884200D165600E
:1044F0002079616C8006800E0860A06CE16C4160E0
:104500006068401E03280AD82046FEF787FE206D0B
:104510000560606DA16D416004E0012070BD2565FE
:104520006565A565E563012070713571002070BD7A
:10453000F8FFFDBF0F80FFFFF8B504468C46203022
:104540000179002501290BD0012606714179002748
:10455000012907D08021E163077101252846F8BDB4
:104560000220F8BD02214171E76320680168490813
:104570004900016061462046FEF764FE206B00287A
:104580002068016801D00E2205E0042291430160F9
:10459000206801680A2211430160606C0168CA0347
:1045A000074902D502680A430260206D002802D044
:1045B00002680A4302602068016831430160CDE768
:1045C0000001000070B5044600F01CFA0546601CAE
:1045D00002D004480078241800F014FA401BA042CE
:1045E000FAD370BD3C010020F8B51F4E0446307868
:1045F0000F4601280AD001203070002070607D2015
:10460000C000FFF731F9002802D029E00220F8BDF0
:10461000042161602268042A03D0491F3960A5681B
:1046200014E00846FFF7D4F87D20C000FFF71CF91E
:1046300016E029466068FFF7D5F87D20C000FFF737
:1046400013F9002801D03D6005E06D1CE268A16807
:104650008918A942EDD805494A6902239A434A615B
:1046600000213170F8BD0000980C002000200240AD
:10467000054901204A69C3071A434A61496900296B
:1046800000DA002070470000002002400348416922
:104690000122D206114341610120704700200240EF
:1046A000054901204A6983071A434A61496949005B
:1046B00000D500207047000000200240064901207C
:1046C0004A69520007D5054ACA60054ACA60496965
:1046D000490000D400207047002002403B2A1908FE
:1046E0007F6E5D4CF0B51FB4144C0646207815461D
:1046F00001280AD00120207000277D20C0006760BB
:10470000FFF7B2F8002803D010E0022005B0F0BD9A
:10471000012E0DD029460198FFF78CF87D20C000AE
:10472000FFF7A2F806494A69B2434A612770EDE7EC
:104730002A46039B0198FFF76FF8EFE7980C0020DB
:1047400000200240064900204A69002A07DA054A8B
:104750008A60054A8A604969002900DA01207047A9
:104760000020024023016745AB89EFCDF0B500235F
:104770005AE001249C4022460A4054D09E082C4D09
:10478000B60075192F6EAC469D07EE0E0F25B5408D
:10479000AE463D4005273F07B84201D100270FE054
:1047A000244FB84201D101270AE0234FB84201D17A
:1047B000022705E0214FB84201D1032700E0052779
:1047C000B740AF4214D11A4E8036356895433560F4
:1047D000756895437560164E7568954375603568C4
:1047E0009543356065462D6E724695436246156663
:1047F00005685E000322B24015430560DD08AD0088
:104800002D182E6AAC465D07EF0E0F25BD40AE4356
:1048100065462E628568954385604568A543456079
:10482000C4689443C4605B1C0A46DA40A1D1F0BD61
:10483000001802400004005000080050000C005016
:10484000012110B54903884206D1044800F0CEF892
:10485000002801D10249488110BD00000008005025
:10486000AC01002070B5084D0446E868204203D032
:10487000EC60204600F00AF82869204203D02C6141
:104880002046FFF7DDFF70BD0018024070470000B2
:10489000F0B5002303249AE02A4601259D402A40D2
:1048A0007ED00E79B607B60F012E01D0022E16D19A
:1048B00086682746B4465E00B646B7406646BE43A5
:1048C000B446CF687646B740664637438760466849
:1048D000AE430D79ED06ED0F9D40354345600D79F2
:1048E000ED43AD0708D0C5685F002646BE40B5431E
:1048F0008E68BE402E43C6600D79AD07AD0F022D08
:104900000ED1DD08AD002D18AC462D6A5E07F60EFF
:104910000F27B740BD430F69B7402F4365462F624D
:1049200005685F002646BE40B5430E79B607B60F50
:10493000BE402E4306604D68AD03AD0F46D09E08C5
:10494000264DB6007519AC462D6E9E07F60E0F2744
:10495000B740BD4305273F07B84201D100270FE00C
:104960001F4FB84201D101270AE01E4FB84201D1C2
:10497000022705E01C4FB84201D1032700E00527BC
:10498000B7402F43154D664637662D684E689543F0
:10499000F60200D51543114F3D607D68954300E058
:1049A00014E04E68B60200D515437D600B4D80358E
:1049B0006E684F689643BF0300D516436E602E683D
:1049C0004F689643FF0300D516432E605B1C0A68B0
:1049D0001546DA4000D05FE7F0BD00000018024045
:1049E0000004005000080050000C0050006908400E
:1049F00000D001207047002A01D081617047816298
:104A00007047000001488068704700003C010020AA
:104A100070B5024640325378202B1CD11378012BFD
:104A200019D00123137024245470046825689D4311
:104A30002560046825681E03B54325600468256861
:104A40000D43256000680168194301602020507003
:104A50000020107070BD022070BD70B5024640325B
:104A60005378202B1BD11378012B18D001241470FC
:104A70002423537003681D68A5431D6005682B68D7
:104A80000F263602B3430902194329600068016802
:104A900021430160202050700020107070BD022062
:104AA00070BD70B5040014D0242120464030054666
:104AB000417020680168490849000160204600F003
:104AC0003DFA0021616469702163A970297008466C
:104AD00070BD012070BD000070B5040006D02546F1
:104AE000403568780026002802D005E0012070BD1E
:104AF0002E70204600F04EFA24206870206801686D
:104B00004908490001600F2160680906884321684F
:104B1000086121688A680120C00382438A60E168D5
:104B20000129A16808D021229202114322689160D4
:104B3000E168022902D005E00143F7E7012122687C
:104B4000C902516021684A680F4B1A434A602168C4
:104B5000CA688243CA60616920690843A169090281
:104B600008432168C860216AE06908432168086039
:104B7000206801680122114301606664202068708A
:104B80002663AE70002070BD00800002FFB50546B0
:104B900004464035687881B0202878D128780128EB
:104BA00075D001202870FFF72DFF074601220090E5
:104BB0001923D103204602F075FF00283CD12120A3
:104BC00068701020A87000266664039860620498DC
:104BD00060856663618D2F48FF2903D9FF222285F6
:104BE00000903BE0618D218500903DE020460299D8
:104BF00002F042FF16E002F0A2FF00281CD1606A1A
:104C0000216800788862606A401C6062608D401E86
:104C10006085208D401E80B22085618D002901D0E5
:104C200000280CD0608D0A9900283A462046E2D12F
:104C300002F05FFF00281CD0012005B0F0BD0097F6
:104C40000022802120460A9B02F02CFF0028F3D18D
:104C5000608DFF2805D9FF222285009601231B06BF
:104C6000C4E7608D20850096208D0123C2B25B06CB
:104C7000BCE721682020C86121684A68064B1A40B9
:104C80004A606870AE702E700020D6E7FFE7022001
:104C9000D3E700000020008000E800FEFFB50546D5
:104CA00004464035687883B0202875D10C980028D8
:104CB00014D00D98002811D0287801286CD001203C
:104CC0002870FFF79FFE0746012200901923D103A9
:104CD000204602F0E7FE002874D103E001204002E4
:104CE00060646FE0222068704020A870002666642F
:104CF0000C9860620D98608566630E98009001972D
:104D000004A90EC9204602F057FE002801D02E70DB
:104D100058E0618D3448FF2905D9FF2222850123FF
:104D20001B06009006E0618D21850090208D0123F7
:104D3000C2B25B062046049902F09EFE0097002254
:104D4000042120460E9B02F0ADFE00283AD12068D7
:104D5000406A616A0870606A401C6062208D401E73
:104D600081B22185608D401E6085608D00281FD036
:104D700000291DD100970022802120460E9B02F0C1
:104D800091FE00281ED1608DFF2806D9FF222285C2
:104D900001231B06009607E024E0608D2085009625
:104DA000208D0123C2B25B062046049902F064FE06
:104DB000608D0028C2D13A4620460E9902F099FE35
:104DC000002802D0012007B0F0BD20682021C16179
:104DD00020684268054B1A4042606970AE702E70C0
:104DE0000020F0E70220EEE70024008000E800FE4B
:104DF000FFB5054604464035687883B0202872D157
:104E00000C98002814D00D98002811D0287801287B
:104E100069D001202870FFF7F5FD074601220090B8
:104E20001923D103204602F03DFE002871D103E092
:104E30000120400260646CE0212068704020A8706E
:104E4000002666640C9860620D98608566630E9813
:104E50000090019704A90EC9204602F0DDFD00284C
:104E600001D02E7055E0608DFF2805D9FF222285E4
:104E700001231B06009606E0608D20850096208D9C
:104E80000123C2B25B062046049902F0F5FD3A46C2
:104E900020460E9902F053FE00283AD1606A21683C
:104EA00000788862606A401C6062608D401E608588
:104EB000208D401E80B22085618D00291FD00028E2
:104EC0001DD100970022802120460E9B02F0EAFDB2
:104ED00000281ED1608DFF2806D9FF2222850123DC
:104EE0001B06009607E024E0608D20850096208D4B
:104EF0000123C2B25B062046049902F0BDFD608D1D
:104F00000028C4D13A4620460E9902F0F2FD00284E
:104F100002D0012007B0F0BD20682021C1612068C7
:104F20004268054B1A4042606970AE702E700020D6
:104F3000F0E70220EEE7000000E800FE10B5124A9C
:104F400000681249940490420BD1C86B01225205AB
:104F50009043C86349152046FFF708FC01218902E8
:104F60000DE00B4A90420DD1C86B0122920590438F
:104F7000C863D1122046FFF7F9FB0121090320463F
:104F8000FFF7F4FB10BD0000005400400010024089
:104F900000580040F0B58DB0044614216846FDF776
:104FA00012F9182105A8FDF70EF925492068254CAE
:104FB000012612270025884221D12020059007953F
:104FC00005A800F093F9002801D0FEF7E7FB606B1D
:104FD00030436063606B0295C007C00F0B900320E5
:104FE0004002009006200490052001970395694631
:104FF0000007FFF74DFCE16B0120400519E0124965
:1050000088421BD1606B30436063606B0295C007C0
:10501000C00F0B900320C0020090062004900520D2
:105020000197039569460007FFF732FCE16B012009
:1050300080050143E163E16B01400B910DB0F0BDD0
:1050400000540040001002400058004070B50400B9
:105050000FD021681548086021681548086003CC06
:1050600041602068083C21688860FFF7CBFC05465A
:105070000CE0012070BDFFF7C5FC401B312805D9AD
:105080002068C068400701D0032070BD2068C06858
:105090004007F0D120680269E1688A4201D00161CD
:1050A00001E004490160002070BD0000CCCC00008C
:1050B00055550000AAAA00000068024901600020BE
:1050C00070470000AAAA000005480168054A127846
:1050D0008918016004480168491C0160704700009C
:1050E000440100203C0100200C01002010B50848BC
:1050F00000240168821511430160032000F00AF8C2
:10510000002801D0012401E000F052F8204610BD33
:105110000020024030B505461F4887B0C26B02210F
:105120000A43C263C06B0840009005A901A800F0C3
:1051300081FA0498002815D000F098FA4000174929
:10514000FDF712F8411E1748154A0260164AC26060
:105150004160002101618160816101F013FA040066
:1051600003D015E000F082FAE9E70E4801F064FA96
:1051700004000DD1102000F045F8042D07D20022C4
:105180002946102000F04AF80848056000E0012494
:10519000204607B030BD00000010024040420F0022
:1051A000000400404C0C0020E703000040010020F8
:1051B00008B50B48016801221143016000681040E6
:1051C000009007484038C26B01040A43C263C06BB9
:1051D0000022084003210090481F00F01FF808BD7E
:1051E00040100240002809DBC106C90E012088409A
:1051F00003490860BFF34F8FBFF36F8F7047000004
:1052000080E100E0002805DBC106C90E01208840CE
:10521000014908607047000000E100E010B506F0A9
:1052200069FE10BDBFF34F8F04490348C860BFF348
:105230004F8F00BFFDE700000400FA0500ED00E01D
:1052400010B50F4C216803225202914301432160A3
:10525000C11FFF39FA390ED10A48062100684843B8
:105260000949FCF781FF401C02E0002805D0401EE0
:1052700061694905F9D4002010BD032010BD00006C
:10528000007000404801002040420F0002490A68B7
:1052900082430A60704700000070004002490A68BB
:1052A00002430A6070470000007000400D4A002869
:1052B000106803D0C008C000401C01E0C008C00056
:1052C000106009480369042213430361012906D0D1
:1052D00040BF20BF20BF016991430161704730BFCB
:1052E000F9E700000070004000ED00E0F8B504466A
:1052F000006800264D4D800358D54C4800274038A3
:10530000C06BC00009D449484038C26B01040A434D
:10531000C263C06B084001270090454801688215B0
:1053200011430160FFF76EFB009005E0FFF76AFB99
:105330000099401A022825D83D480068C005F5D5D7
:10534000E8690321090208400FD0616981420CD04D
:10535000E86903210902EA698843012109040A4333
:10536000EA61EA698A43EA61E861C0070FD0FFF7A2
:1053700049FB009008E0FFF745FB0099411A2D48D2
:10538000814201D9032609E0E8698007F3D5E8697D
:1053900003210902884361690843E861002F05D0B1
:1053A00022484038C26B01048A43C2632078C00798
:1053B00005D06869616880088000084368612078CA
:1053C000800606D56869032109038843A16808435C
:1053D00068612088400411D56869216980008008CF
:1053E00008436861012120698907884206D10F4876
:1053F0004038C168012212041143C16020880005B1
:1054000012D56869032189038843E168084368610C
:105410000121E0688903884206D104484038C16808
:10542000012212041143C1603046F8BD4010024011
:105430000070004088130000F8B50F46060043D006
:105440004D4D28684007400FB84213D22868C00865
:10545000C00038432860FFF7D5FA044605E0FFF79F
:10546000D1FA011B4548814261D828684007400FA6
:10547000B842F4D13068424C81070DD5400704D5BD
:10548000A068072109030843A060A0680F21090252
:105490008843B1680843A0603078C00732D0706894
:1054A00001280AD002280BD000280FD034494031FF
:1054B00003280ED0C969890704E02168890301E047
:1054C00021688901002906DB0120F8BD2168490512
:1054D000F8E7096AEFE7A168C908C9000143A160BC
:1054E000FFF790FA009006E0FFF78CFA0099411A56
:1054F000224881421BD8A068382108407168C90041
:105500008842F1D128684007400FB84217D91A489D
:105510000168C908C90039430160FFF773FA0546FD
:1055200007E0FFF76FFA411B1448814201D90320BD
:10553000F8BD114800684007400FB842F1D13078FB
:10554000400706D5A068072109038843F16808438E
:10555000A06000F09FF8A1683C2289091140094A27
:10556000515CC906C90EC840074908600748006871
:10557000FFF7D0FDF8BD00000020024088130000B6
:105580000010024058E400084801002040010020BB
:10559000F8B5FFF737FA224C06462068A5152843D0
:1055A000206004E0FFF72EFA801B022820D8206834
:1055B0004005F7D5012080036060FFF723FA00273C
:1055C0000646A76005E0FFF71DFA811B15488142DA
:1055D0000ED8A0688006400FF5D125602560FFF742
:1055E00011FA054606E0FFF70DFA401B022801D923
:1055F0000320F8BD20688001F5D401200003E0609D
:10560000A7610020C0432062084907480860084895
:105610000068FFF77FFD0028EBD00120F8BD0000F7
:1056200000100240881300000024F400480100200C
:105630004001002010B5072202600A4A93685B0708
:105640005B0F436093680F242402234083609268B9
:1056500007231B031A40C260034800684007400F3D
:10566000086010BD001002400020024006480749B3
:1056700000688968064A4904490F8900515CC906D7
:10568000C90EC840704700004801002000100240C9
:1056900098E4000810B5204CA068204A8006400F0E
:1056A00016D0A0688006410F501001290FD0A168C4
:1056B0008906490F022912D0A0688006400F0428ED
:1056C00023D0A0688006400F032821D0002010BD01
:1056D000206801218004400F8140104612E0E168FB
:1056E0008B07E1689B0F4906490F491C032B00D02B
:1056F0001046FCF739FDE1684904490E4843E1686A
:10570000490F491CFCF730FD10BD0120C00310BD3E
:105710007D20000210BD0000001002400024F400B3
:10572000F8B504007ED020783827C007E94D00285E
:1057300046D0A868E96838408907890F102802D048
:1057400008280BD001E0032908D00120626800047A
:1057500082420AD129680143296015E02868800344
:105760002ED560680028DDD02AE0052301211B0426
:1057700089049A422A6802D10A432A60EAE78243EE
:105780002A60286888432860606800280CD0FFF7EA
:1057900039F9064604E0FFF735F9801B642873D811
:1057A00028688003F7D50BE0FFF72CF9064604E0E4
:1057B000FFF728F9801B6428F1D828688003F7D404
:1057C0002078800769D5A868E96838408A070721EA
:1057D000920FC902102802D0002813D001E0022A3B
:1057E00010D0E068002846D0286888432169084323
:1057F00028602868FF21013108432860FFF702F97B
:1058000006462CE02A68520502D5E268002A89D0B3
:105810006A687F231B029A4363691B021A436A600A
:10582000002800E08DE00ED12868884321690843F4
:105830002860286801218004400F8140A648FCF7B9
:1058400093FCA6490860A6480068FFF763FC00289F
:1058500077D122E0FFF7D6F8801B02289FD828686E
:105860004005F7D568687F2109028843616909020C
:105870000843686011E02968FF20013081432960F6
:10588000FFF7C0F8064605E098E0FFF7BBF8801B7D
:10589000022884D828684005F7D42078914E000764
:1058A0002ED5A8688006400F03280AD0A0690028DA
:1058B000306A16D0012108433062FFF7A3F807468B
:1058C0000BE0306A80071BD5A06900289FD017E045
:1058D000FFF798F8C01B022870D8306A8007F7D508
:1058E0000EE0400840003062FFF78CF8074604E005
:1058F000FFF788F8C01B022860D8306A8007F7D409
:10590000207840076CD5A86800278006400F04283F
:1059100018D0E86BC00008D4E96B012000070143F0
:10592000E963E96B0140012700916F480168C905EF
:1059300019D40168821511430160FFF763F80090E4
:105940000DE083E0F06980074AD5A06800287DD08B
:1059500046E0FFF757F80099401A02282ED862480F
:105960000068C005F5D5A168012910D004200529DB
:10597000F16911D049084900F161F1698143F16190
:10598000A068002816D0FFF73DF800900EE0F069FF
:1059900001210843F061F3E70143F161F7E7FFF705
:1059A00031F80099411A5148814265D8F069800761
:1059B000F5D50EE0FFF726F8009007E05CE0FFF772
:1059C00021F80099411A4948814255D8F069800769
:1059D000F5D4002F04D0E96B012000078143E9636F
:1059E000E069002873D0A9688906490F02294DD0C3
:1059F000012636060228286805D0B0432860FFF744
:105A000001F804463AE0B0432860FEF7FBFF074682
:105A100004E0FEF7F7FFC01B02282DD8286880019C
:105A2000F7D4616A206AA26A0843E16A120211434C
:105A30000843216B0843E9682D4A11400843E86098
:105A4000286830432860E868012100E03DE009074C
:105A50000843E860FEF7D6FF044604E0FEF7D2FFF5
:105A6000001B022808D828688001F7D52FE0FEF730
:105A7000C9FF001B022801D90320F8BD2868800156
:105A8000F5D4E8681B490840E86020E00128F4D01C
:105A9000E868226A8107890F914216D17021626AF3
:105AA0000140914211D17F21A26A090201401202F4
:105AB00091420AD11F214904E26A0140914204D176
:105AC000400F216B4007884201D00120F8BD002023
:105AD000F8BD0000001002400024F400480100203E
:105AE0004001002040100240007000408813000078
:105AF0008C80C11FFCFFFEEF70B504460120002C16
:105B00004BD025462035687A002806D1287211200E
:105B1000C0026060204600F047F8022068722068EA
:105B2000C168C943C90639D5CA21416221685320D9
:105B30004862204603F032FD002829D1206881699F
:105B4000184A1140816121688869A268E36910439D
:105B500062691A43104388612168206908612068DE
:105B60000169A289120411430161204603F038FD46
:105B700000280DD121688A69D200D2088A61216883
:105B80008A69636AA6691A43236A33431A438A619E
:105B90002268FF215162002801D070BD0020012140
:105BA000697270BDBFFF8FFB10B588B00446182125
:105BB0006846FCF708FB1049206888421AD101208A
:105BC00040040090001205906846FFF78FFB002804
:105BD00001D0FDF7E3FD0948C1690122D203114359
:105BE000C16106484038C26B01150A43C263C06BED
:105BF0000840069008B010BD002800404010024048
:105C000070B504460068C168A0229143C160FEF7E8
:105C1000F9FE7D260546F60006E0FEF7F3FE401B82
:105C2000B04201D9032070BD2068C0688006F4D559
:105C3000002070BD03480068C16801221143C160A3
:105C4000704700004C0C002070B50446406D0025E4
:105C50001026002807D0FEF705FB002803D0206E91
:105C6000304320660125A06D002807D0FEF7FAFA20
:105C7000002803D0206E304320660125206841684B
:105C8000890889004160012040346077284670BD52
:105C90007047F8B504000CD0606A002500280AD0CF
:105CA0002561656126464036A562707F002808D0D0
:105CB0000BE00120F8BD6168C81FFD38F2D0E56136
:105CC000F0E73577204600F08DF8022272772068E1
:105CD00001684023994301600723E1681B02994250
:105CE00001D9002001E0012000030F273F02B94243
:105CF00002D0994200D0A562FF23616805331940A4
:105D00002127A368BF023B40194323691340227D2A
:105D10001943D207D20F11430123A2695B021A4033
:105D20001143E26938231A401143226A80231A4042
:105D30001143A26A9B011A40114322681160A169B4
:105D40000422090C1140626A10231A401143626B4D
:105D500008231A4011430F23E2681B021A40114323
:105D60000122120310400143206841602068C1698C
:105D700052109143C1612566012070770020F8BD63
:105D800070B5044600681349134D884211D1134879
:105D90000168821491430160052080210007FEF70D
:105DA000E5FC08212846FEF7E1FC606DFEF7D2FA1B
:105DB00070BD0B498842FBD108484038C16B0122B5
:105DC00092039143C163072149032846FEF7CEFCA5
:105DD00070BD00000030014000040050401002403F
:105DE00000380040F0B587B0064614216846FCF73D
:105DF000EAF93B4A316800243A480225914252D1DF
:105E0000384940310B68821413430B600968114014
:105E10000591416B012739434163416B394005913D
:105E2000416B29434163406B0294284005908020D8
:105E30000090052003946946019504940007FEF73D
:105E400027FD01950820284D00900294039469468F
:105E500004942846FEF71CFD082000900294694631
:105E6000019703942846FEF713FD012208212846D6
:105E7000FEF7C1FD1E4D1D482860112068601020EE
:105E8000EC60A8606C61AC61EC6180202C622861E0
:105E90002846FEF7FFFA002801D0FDF77FFC756564
:105EA000AE6207B0F0BD134A9142FAD1C26B091439
:105EB0000A43C263C26B0A400592416B29434163A6
:105EC000406B029428400590072040030090039403
:105ED0006946019504940448FEF7DAFCE1E7000006
:105EE0000030014000100240000400501C0002403D
:105EF000D807002000380040FFB50546044640356D
:105F0000287F002781B01646012809D00120287774
:105F1000FEF778FD0090687F012804D0022795E005
:105F2000022005B0F0BD0298002872D0002E70D07B
:105F300003206877002020660299A163A687E68780
:105F40002064A880E8802065E0640122A068D20374
:105F50004021904208D1206802688A43026020688C
:105F600002680B021A43026020680268520602D4DB
:105F700002680A4302600721E068090288426068FB
:105F800026D9002801D0012E1ED1A06B21680088DF
:105F9000C86006E020688168890709D5A16B098877
:105FA000C160A06B801CA063E08F401EE0870BE007
:105FB000FEF728FD0099411A0498814202D3401C43
:105FC00002D039E0002837D0E08F0028E2D126E067
:105FD000002801D0012E1FD1A06B21680078087322
:105FE00006E020688168890709D5A16B09780173EB
:105FF000A06B401CA063E08F401EE0870CE0FEF722
:1060000001FD0099411A0498814203D3401C03D03A
:1060100012E01AE000280FD0E08F0028E1D12046DE
:10602000009A049903F020FC002801D0202020666B
:10603000A068002802D005E0032707E02068C168B7
:1060400080680090206E002800D00127012068772A
:1060500000202877384664E7FFB5044683B0012066
:1060600001900020254640350090287F0C9F1E4659
:1060700001280FD001202877FEF7C4FC0290687F2A
:10608000616801280DD0CA1FFD3A08D1A168002916
:1060900005D102E0022007B0F0BD042801D00220A3
:1060A000D1E00498002820D0059800281DD0002EAB
:1060B0001BD0687F042801D0052068770020206667
:1060C00005992164EE80AE800499A163E687A687D6
:1060D000E064206507210120E268090200038A428A
:1060E0002268536803D9834302E00120ABE00343F5
:1060F000536020680268520603D4026840231A43A2
:106100000260E0688842606844D9002801D0012E0E
:1061100039D1A06B21680088C860A06B801CA06387
:10612000E08F401EE0872EE020688168890710D547
:10613000E18F00290DD0019901290AD1A16B0988AD
:10614000C160A06B801CA063E08F401EE087002030
:10615000019020688168C9070DD0E98800290AD01C
:10616000C068216C0880206C801C2064E888401E78
:10617000E88001200190FEF745FC0299401AB842E0
:1061800001D3781C5ED1E08F0028CDD1E8880028AB
:10619000CAD146E0002801D0012E3CD1A06B216875
:1061A00000780873A06B401CA063E08F401EE0875E
:1061B00031E020688168890710D5E18F00290DD072
:1061C000019901290AD1A16B09780173A06B401CC8
:1061D000A063E08F401EE087002001902068816866
:1061E000C9070DD0E98800290AD0007B216C08700E
:1061F000206C401C2064E888401EE880012001904B
:10620000FEF700FC0299401AB84202D3781C02D073
:1062100018E0002F16D0E08F0028CAD1E8880028A7
:10622000C7D139462046029A03F01EFB002803D04E
:106230000120009020202066012068770020287728
:10624000009828E703200090F6E70000F8B505461F
:1062500004464035287F0027012807D001202877F1
:10626000687F0026012803D002276DE00220F8BDD8
:10627000002950D0002A4ED0032068772666A163FB
:10628000A287E28726642665E664AE80EE8001225E
:10629000D203A1685010914208D121680A684023B6
:1062A0009A430A6021680A6802430A60626D2849BD
:1062B0001163626D2749D162626D27495163616D37
:1062C0008E6321684A6882434A600722E1681202AD
:1062D000914210D8616D01228969920291420AD1DE
:1062E000E18FC90721684A6817D002434A60E08FEE
:1062F0004008401CE087E38F2268A16B0C32606D80
:10630000FEF71AF900280DD0206E102108432066F0
:1063100001276F7718E0012716E082434A60E08F7B
:106320004008E7E720680168490603D40168402275
:1063300011430160206841682022114341602068B8
:1063400041680222114341602E773846F8BD0000B3
:10635000F797000801980008D59700087047704724
:1063600003480068C16849084900C16070470000DF
:106370004C0C0020704770477047000070B5034612
:1063800020331A7F012A4BD001221A770325CA68CD
:106390002D02AA438D6800682A430125AD02AA4355
:1063A0004D6800242A430125ED02AA430D682A43C3
:1063B00001252D03AA430D692A4301256D03AA4334
:1063C0004D692A430125AD03AA430D6B2A430F25CE
:1063D0002D04AA430D8B2D042A43124DA84204D14B
:1063E00001263607B243CE693243A84214D10F25A5
:1063F0002D05AA430D8D2D052A4301252D06AA43FF
:106400000D6A2A4301256D06AA434D6AC96A2A43CB
:1064100001256D07AA430A4342641C77002070BD22
:10642000022070BD002C0140F0B5034620331A7FD6
:10643000012A24D001221A7702225A77046862685E
:10644000A568104FBC4205D116460F22120596438F
:106450004A6832437026B2430E681643666000688D
:10646000B84202D0084A904204D1802289689543FC
:10647000294381600120587700201877F0BD022061
:10648000F0BD0000002C01400004004070B505463E
:106490002C4602204034002908D004290BD00829BA
:1064A0000ED0E279012A10D0012070BD2279012A94
:1064B000FAD120710AE06279012AF5D1607105E014
:1064C000A279012AF0D1A07100E0E07104222868CD
:1064D00004F01BF92868416C0122D2031143416486
:1064E0000A4928680122884202D00949884207D116
:1064F0008168084B1940062905D0DB1F994202D05C
:10650000016811430160002070BD0000002C0140B3
:10651000000400400700010070B504460D46006805
:10652000002204F0F2F82068036A1449144A0B426E
:1065300007D1036A134204D1436C0126F603B34327
:1065400043642068036A0B4206D1016A114203D1F9
:10655000016849084900016001204034002D06D03F
:10656000042D06D0082D06D0E071002070BD2071EA
:10657000FBE76071F9E7A071F7E700001111000077
:106580004404000070B5040005D025462035687F1E
:10659000002802D006E0012070BD002028772046A8
:1065A00000F02EF802206877211D206804F064F8BE
:1065B000012240342272AA77EA7722706270A270B8
:1065C000E27022716271A271E2716A77002070BD7F
:1065D000084A01680848914202D10168C21405E0E6
:1065E000064A914204D1016801229204914301605C
:1065F00070470000002C014040100240004801405C
:1066000008B50A4A01680A48914202D10268C114D9
:1066100005E0084A914207D10268012189040A4332
:10662000026000680840009008BD0000002C014096
:106630004010024000480140014620314A7F012AB3
:1066400001D00120704702224A770168CB680122FD
:106650001343CB6000680949884202D00849884248
:1066600007D18168074B1940062905D0DB1F9942E5
:1066700002D001681143016000207047002C0140E6
:106680000004004007000100F8B505460446203527
:10669000287F0026012817D001272F77022068774E
:1066A000226890682F4B1840FF231B02984390608C
:1066B0000868502838D00EDC20284FD006DC00288F
:1066C0004CD010281ED149E00220F8BD302845D01A
:1066D000402817D13AE060282ED0702818D0012227
:1066E0001203801A0FD090420CD1CB684A68896897
:1066F000206804F017F82068816801229203114392
:10670000816000E001266F77002028773046F8BDD1
:10671000CB684A688968206804F004F821688868B2
:10672000772210438860EEE7CA684968206804F061
:106730005FF95021206806E0CA684968206804F0C3
:1067400068F96021206803F0F9FFDCE7CA6849684E
:10675000206804F04DF940212068F4E722680146E2
:106760001046F0E788FFCEFF7047000070B5044682
:10677000006801690025C9438907002915DBC16844
:10678000C943890711D4E91E0161012020772068DF
:1067900080698007204602D0FFF7E6FF04E000F0A2
:1067A00005F9204600F0BEF9257720680169C94344
:1067B000490717D4C168C943490713D40421C94301
:1067C000016102202077206880698005800F2046C3
:1067D00002D0FFF7C9FF04E000F0E8F8204600F01F
:1067E000A1F9257720680169C943090716D4C16852
:1067F000C943090712D40821C94301610420207745
:106800002068C0698007204602D0FFF7ADFF04E092
:1068100000F0CCF8204600F085F925772068016962
:10682000C943C90617D4C168C943C90613D4102186
:10683000C9430161082020772068C0698005800F66
:10684000204602D0FFF790FF04E000F0AFF82046AA
:1068500000F068F9257720680169C943C90708D1A4
:10686000C168C943C90704D1891E0161204600F0EF
:1068700007FA20680169C943090609D4C168C943F8
:10688000090605D48021C94301612046FFF773FD45
:1068900020680169C943C90508D4C168C94309060C
:1068A00004D4124901612046FFF764FD20680169A4
:1068B000C943490609D4C168C943490605D44021E2
:1068C000C9430161204600F0E5F920680169C94328
:1068D000890609D4C168C943890605D42021C94362
:1068E00001612046FFF748FD70BD0000FFFEFFFF7D
:1068F000F0B587B0044614216846FBF764FC264ACD
:106900002168002425480225254E91421ED1416B65
:10691000012739434163416B39400591416B29435C
:106920004163406B0294284005909015009005202B
:1069300001956946049503940007FDF7A9FF4020DF
:10694000029404970195039400901EE0154A914229
:106950001FD1426B08210A434263426B0A400592F1
:10696000416B29434163406B009528400590029498
:1069700001956946049503940B48FDF789FF802033
:106980000294019504950394009069463046FDF702
:106990007FFF07B0F0BD0000002C01400010024056
:1069A0000004005000480140000C00507047F8B54A
:1069B00004460020264620360090307F0D460128F0
:1069C0000CD00120082730770C2A48D008DC002A98
:1069D00010D0042A1ED0082A06D130E00220F8BDCB
:1069E000102A52D0142A60D0012000900020307765
:1069F0000098F8BD206803F0ABFE20688169394338
:106A000081612068816904229143816120688169E4
:106A10002A6911E0206803F0D9FE2068816901220B
:106A2000D2021143816120688169521091438161D2
:106A3000206881692A69120211438161D6E72068C2
:106A400003F002FF2068C1693943C1612068C16950
:106A500004229143C1612068C1692A6912E020685B
:106A600003F030FF2068C1690122D2021143C161E5
:106A70002068C269012189028A43C2612068C16914
:106A80002A6912021143C161B0E7206803F050FF88
:106A90002068416D394341652068426D04218A4375
:106AA00042652068416D2A6912E0206803F06EFF9C
:106AB0002068416D0122D202114341652068426D78
:106AC000012189028A4342652068416D2A691202C8
:106AD000114341658AE770B5040005D0254620358D
:106AE000687F002802D006E0012070BD00202877D2
:106AF000204600F016F802206877211D206803F078
:106B0000BBFD012240342272AA77EA7722706270BC
:106B1000A270E27022716271A271E2716A77002044
:106B200070BD70477047000030B505460223203025
:106B300000290ED0042911D02C464034082912D047
:106B40000C2915D0102918D0E278012A1AD001207A
:106B500030BD827F012AFAD1837714E0C27F012AF7
:106B6000F5D1C3770FE02278012AF0D123700AE033
:106B70006278012AEBD1637005E0A278012AE6D1A0
:106B8000A37000E0E3700122286803F0B1FD114A10
:106B90002868904205D01049884202D00F498842A7
:106BA00004D1416C0123DB031943416428680121AE
:106BB000904202D00A4A904207D18268094B1A409B
:106BC000062A05D0DB1F9A4202D002680A430260FF
:106BD000002030BD002C014000440140004801402D
:106BE000000400400700010070B504460D4600682F
:106BF000002203F07DFD1F491D4B20688A1098423A
:106C000005D01D4B984202D01C4B98420AD1036A12
:106C10000B4207D1036A134204D1436C0126F603E9
:106C2000B34343642068036A0B4206D1016A1142F0
:106C300003D1016849084900016021462031012043
:106C4000002D0BD0042D0BD04034082D0AD00C2D74
:106C50000AD0102D0AD0E070002070BD8877FBE7C5
:106C6000C877F9E72070F7E76070F5E7A070F3E701
:106C7000002C014011110000004401400048014077
:106C800010B500680249884201D1FEF71DFA10BD17
:106C9000000400407047704770477047704730B538
:106CA00002468032916821290BD1EFF31081012334
:106CB00083F3108803689C6880252C439C6081F3D3
:106CC0001088D168222928D102680821116201693F
:106CD00000290CD0EFF31081012282F310880268A2
:106CE0001368FF2401342343136081F31088EFF30A
:106CF0001081012282F3108803689C6814439C6011
:106D000081F31088EFF3108182F3108800688268A5
:106D100040231A43826081F31088002030BDF8B50B
:106D2000054604468035A868EE6821688A68102701
:106D30001206002A1BDA212819D1EFF31080012254
:106D400082F310888A6880239A438A6080F31088CF
:106D5000E06F002808D0FDF785FA002804D0E06F26
:106D6000FDF73AFB202824D0204604F0AFFC216830
:106D7000886840061BD5222E19D1EFF3108001221E
:106D800082F310888A6840239A438A6080F31088CF
:106D90002868002808D0FDF765FA002804D0286884
:106DA000FDF71AFB202804D0204604F05DFC0020EB
:106DB000F8BD2F610320F8BD70470000F8B50368E7
:106DC0000446D96918689A68B44D0E462E40254687
:106DD0008035002E75D0B24EB24F16400740374373
:106DE0006ED0CF0706D0C70504D501271F622B69D7
:106DF0003B432B618B0708D5D30706D027680223B6
:106E00003B622B6904273B432B614B0708D5D30713
:106E100006D0276804233B622B6902273B432B6182
:106E20000B0709D520230340334305D026680823E8
:106E300033622E691E432E610B0509D5430107D528
:106E400001232668DB0233622B69202633432B6142
:106E50002B69002B42D089060AD520210840C9059C
:106E60000A40104304D0616F002901D020468847B2
:106E7000286921688968490602D42821084232D04D
:106E8000204604F0F1FB21688868400627D5EFF31F
:106E90001080012282F310888B68402293438B601C
:106EA00080F310882868002819D07F4981632868FA
:106EB000FDF712FA002811D02868816B0DE000E080
:106EC00017E08E0615D5012720263F0706401740FC
:106ED0003E430ED0616FB5E020468847F8BD20469E
:106EE000FFF76AFFF8BD2046FFF766FF0020286124
:106EF000F8BDE66E012E7DD1CE067BD5C60679D5CE
:106F000010221A62236898682646400640360028F8
:106F100049DA2968086840680004000CE8D0B78B9B
:106F20008742E5D9F08308680068800634D4EFF31F
:106F30001080012181F3108819681701B943196085
:106F400080F31088EFF31080012181F3108821680D
:106F50008B685B085B008B6080F31088EFF3108018
:106F6000012181F3108821688B684027BB438B6027
:106F700080F310882020E8600020E066EFF31080A6
:106F8000012181F3108821680B6893430B6080F323
:106F900010882868FDF766F902202067B08BF18B16
:106FA000401A81B235E0B08BF18B401A81B2F08B80
:106FB00000289DD000299BD0EFF31080012686F396
:106FC00010881E68FF272137BE431E6080F310889B
:106FD000EFF31080012383F3108823689E68304FFD
:106FE000FF433E409E6080F310882020E860002030
:106FF000E06600E011E06067EFF31080012383F3A7
:10700000108823681D6895431D6080F31088022056
:1070100020672046FFF73FFEF8BDCE0208D5560296
:1070200006D50120000518622046FFF737FEF8BD9F
:107030000E060BD501278026FF0506403A40164371
:1070400004D0A16F002900D046E7F8BD4A0614D548
:10705000420612D52046EFF31081012282F31088F8
:107060001A684024A2431A6081F310882021A96085
:107070000021816700F05CF9F8BD0A0205D54200E5
:1070800003D52046FFF709FEF8BDC901FCD500284D
:10709000FADA2046FFF700FEF8BD00000F080000F6
:1070A0000100001020010004F5B4000870B50400D0
:1070B00005D025468035A868002802D006E00120CA
:1070C00070BD00202871204600F046F82420A860FA
:1070D00020680168490849000160204604F014FB5B
:1070E0000128EDD0A06A002802D0204604F06AF9F9
:1070F000206841680922D20291434160206881687A
:107100002A229143816020680168012211430160B5
:10711000204604F0BDF970BD10B5044600680C4966
:10712000884214D10B48C16B012252049143C163C0
:1071300005200C210007FDF719FB80200059FDF701
:1071400009F9E06FFDF706F91C20FEF74BF810BDBA
:107150000044004000100240F0B587B006461421FC
:107160006846FBF730F82C493068884252D12B48EA
:10717000C26B012149040A43C263C26B0A400592F3
:10718000426B01210A434263406B00240840059092
:107190000C200090022001AA13C204910520694628
:1071A0000007FDF775FB1F4D1D482860AC60EC60C3
:1071B0006C61AC618027EC612F6134202C626860C7
:1071C0002846FDF767F9002801D0FCF7E7FA802090
:1071D0008551AE62134D12485C351430286035205D
:1071E000686029461020083191C16C61AC61EC6186
:1071F00028462C62FDF74EF9002801D0FCF7CEFAA4
:10720000F567002203211C20AE62FEF707F81C2060
:10721000FDF7F8FF07B0F0BD004400400010024049
:10722000300002406009002070B58C231B58202BD1
:1072300001D0022070BD00290BD0002A09D0012402
:1072400083682403A34206D10369002B03D1CB0733
:1072500001D0012070BD0023C366046863681B026F
:107260000BD5EFF31083012585F3108825680126DF
:10727000B6063543256083F3108804F0F9FA70BD33
:107280007047704770B5054604468035A8682028C9
:1072900001D0022070BD00290BD0002A09D00123A3
:1072A000A0681B03984206D12069002803D1C807B3
:1072B00001D0012070BD2046403021658282C2820B
:1072C000002028612121A960E16F002918D0154B09
:1072D000CB62E36F14491963E36F14495963E16F9B
:1072E000134688632668216D32462832E06FFDF729
:1072F00023F9002804D0102028612020A860D8E7B6
:10730000216840200862EFF31080012181F310888A
:1073100021688A6880231A438A6080F310880020DD
:1073200070BD000013B600085FB6000809B500087C
:1073300070477047F0B5427A89B09446027AC779AF
:107340009646867945790479C2780378089343781C
:107350000793837801296046714606900591684637
:10736000F4C0079A089904D003A005F007FF09B0FC
:10737000F0BD0CA0F9E700000A0D2052585F4461EF
:1073800074613A25580925580925580925580925B1
:1073900058092558092558092558092558092558F7
:1073A000200A0D000A0D2054585F446174613A258B
:1073B00058092558092558092558092558092558D7
:1073C000092558092558092558092558200A0D006E
:1073D000F8B50027984D00972878002801D0401E66
:1073E00028709648954E807E20368007800F0128B1
:1073F00002D0B07A400776D53D2000F04DF9C007A5
:1074000072D0362000F048F98D4C00200021215424
:10741000401CC0B20A28F9D30A228949322000F060
:1074200015F90020215C401CC919C0B2CFB209284F
:10743000F8D3607AB8427DD1307A0009072803D1A9
:1074400000217F48FFF776FF20785528F3D1607838
:107450000A28F0D1207A6628EDD1A078A228EAD1B6
:10746000A01CFAF7C8FE00BA010A607909020143BC
:107470007448006881425DD17149AA220A310A70BC
:107480000A224A70020E8A70020CCA70020A0A713D
:1074900048716A483C222038007883079B0F012BF3
:1074A00002D0830721D029E0A3796748012B02D0BD
:1074B000022B0DD00AE02B78002B07D12A7082888E
:1074C0001E2A01D2521C0BE01F2016E0007914E0A6
:1074D0002B78002BFAD12A708288012AF4D9521E07
:1074E00082808A710AE0A6E097E0A779E323012F62
:1074F0002BD0022F54D0C006400F88714F4820383F
:10750000C278837F5207520E1A43CA71E2799342BE
:1075100001D1002282776620087200224A7210464A
:107520000C5C4B7A401C1B19C0B24B720928F7D374
:10753000012000E05AE000906A80434806F088FA93
:10754000307A000907284CD050E0184033781F07E4
:107550007F0FBF003843394F203F38702F78002FFE
:107560001CD12A70354AC706203A7F0F032F36D226
:1075700017460522D0410122520780181B22D04114
:1075800038700BE08871F12003402C4820380078D7
:10759000C006400F400003433370AFE7C0061CE055
:1075A000E323184033781F077F0FBF003843234F72
:1075B000203F38702F78002FF0D12A70C206520F6A
:1075C000012A0CD99200121FD206E327D20E3840AE
:1075D00002431A4820380270D006400FD2E71F201D
:1075E000D0E7174801210A30FFF7A4FE80213B2095
:1075F00000F0E2F808213D2000F0DEF80021212013
:1076000000F0DAF80098002807D0022006F0E6FA29
:107610000B480A210A3000F071F868887D210A3091
:1076200080B2C9006880884203D30020688005F0DA
:1076300009FB02F08DF8F8BD08010020CC01002004
:1076400058050020240100201C050020F7B5012664
:107650000F4F14460D46360382B00022314638469D
:10766000FDF7C9F90A23012202A90A48FEF744FCE2
:107670000A20009023462A4602A90648FEF7ECFCA1
:10768000012231463846FDF7B6F905B0F0BD0000DD
:107690000004005074070020F1B50125154E2D039C
:1076A00082B0002229463046FDF7A5F90A230122BF
:1076B00002A91148FEF720FC7D27FF00012301AA43
:1076C00002A90D480097FEF7C7FC6846047901231C
:1076D00001AA02A908480097FEF7BEFC6846007997
:1076E00024020443012229463046FDF784F920464E
:1076F000FEBD0000000400507407002070B50D4668
:107700000646FF2100240131212000F055F8012018
:10771000FCF758FF0121C9033B2000F04DF82A4631
:107720003146322000F022F88121362000F044F862
:107730000021372000F040F80120FCF743FF3D20F6
:10774000FFF7AAFF641CE4B20A2C01D8C007F3D0EB
:107750008021362000F030F808213D2000F02CF880
:107760000021212000F028F870BD0000F7B50124A9
:107770000F4D16460F462403002221462846FDF7EA
:107780003AF96946087880210843694608700A2357
:1077900001220848FEF7B0FB0A2332463946054865
:1077A000FEF7AAFB012221462846FDF724F9FEBD7B
:1077B000000400507407002073B50125144E0C46D8
:1077C0002D0382B0002229463046FDF714F96946A0
:1077D000087A80210843694608720A23012202A917
:1077E0000C48FEF789FB200A694608700A2301222B
:1077F0000848FEF781FB69460C700A230122054800
:10780000FEF77AFB012229463046FDF7F4F87FBDEA
:107810000004005074070020FEE7000010B5044883
:10782000FDF73FF90120FCF7CDFE01F0BFF910BDD7
:107830002C06002001688A69D243920701D40022F5
:107840008A6200688169C943C90703D0816901223E
:1078500011438161704700003EB5009313460A460C
:107860000A25069C0146029501940448FDF716FA84
:10787000040001D0FFF7D2FF20463EBD2C060020B9
:107880003EB5009313460A460A25069C014602951A
:1078900001940448FDF7ACFA040001D0FFF7BEFFE5
:1078A00020463EBD2C060020F7B50446006882B095
:1078B000816900262746C9064037354600920029CF
:1078C00045DA1021C16132E00398401C2FD0FDF74A
:1078D00099F80099411A0398814201D8002826D1CD
:1078E00020684168012292031140BA788369DB4322
:1078F0001B0417D401239B03994213D0202A11D0D3
:10790000416819434160FDF77DF800900AE0FDF7FA
:1079100079F801460098081A192803D92020054350
:10792000012604E020688069C0438006EFD4206807
:107930008069C043800602D5002EC5D004E0002E29
:1079400002D121682020C861042005430126216856
:107950008869C20504D5012215431202CA610126B5
:10796000410508D508210D43CA012168CA610126D5
:10797000800502D40AE0800506D50220054321686F
:107980000002C861012601E0002E0FD02046FFF75B
:1079900051FF20684168074A11404160606C2843EC
:1079A0006064202078700020B8703870304605B0D0
:1079B000F0BD000000E800FEF8B504461646154884
:1079C0001D46DAB20090079F0023204600F054F8CD
:1079D0003A462046069900F0B2F8002818D1284609
:1079E000F5B2012809D02168300A88623A4620465B
:1079F000069900F0A4F800280AD120688562009753
:107A0000002240212046069B00F04CF8002800D0C0
:107A10000120F8BD00200080F8B504461646154840
:107A20001D46DAB2C3020090079F204600F024F8FA
:107A30003A462046069900F082F8002818D12846D8
:107A4000F5B2012809D02168300A88623A462046FA
:107A5000069900F074F800280AD120688562009722
:107A6000002280212046069B00F01CF8002800D050
:107A70000120F8BD00200080890510B5890D120491
:107A80001143029C19430268214349005068490888
:107A9000630D034C234398430843506010BD00001E
:107AA000FF63FF03F8B51D4617460E46044609E07E
:107AB000681C07D0FCF7A6FF0699401AA8420BD80D
:107AC000002D09D020688169304688430FD00020FE
:107AD000B842EDD00020F8BD616C20200143616404
