:1000000002060F75E8E2E4F5C91208398FCA120832
:0E001000658FCB7F007EC27D017C00020574EF
:0F00230002076290800D7401F075D385D2AE2272
:100033000207D7E54E2442F8E6054E22783F300703
:10004300027842E475F00112053E0204C52000EB7C
:100053007F2ED2008018EF540F2490D43440D4FF65
:1000630030040BEF24BFB41A0050032461FFE54FA3
:100073006002154F0552E5527002055130070D78A5
:100083003FE475F00112053EEF02052C020891745E
:1000930003D2078003E4C207F54E8B3F8A408941B0
:1000A300E4F54FF551F552E54F60077F20120071DB
:1000B30080F57550FFC201C200C202C203C205C26D
:1000C30006C20812003FFF700D3007057F001200C3
:1000D30082AF52AE5122B4255FC2D5C20412003F93
:1000E300FF24D0B40A00501A75F00A784F30D505B2
:1000F30008B6FF0106C6A426F620D5047002D20373
:1001030080D924CFB41A00EF5004C2E5D20402020E
:1001130082D20180C6D20080C0D20280BCD2D580F8
:10012300BAD20580B47F201200712002077401B592
:100133004F0040F1120036FF1200710200AAD208EC
:10014300D2068095120036FB120036FA120036F9F9
:100153004A4B700679537A037BFF20022EE54F60EA
:100163002A7E008E827583001204FF60060EEE6500
:100173005070F0C2D5EBC0E0EAC0E0E9C0E0EE1297
:1001830002C9D0E0F9D0E0FAD0E0FB1204C5FF6069
:10019300AAEBC0E0EAC0E0E9C0E0120071D0E024BD
:1001A30001F9D0E03400FAD0E0FBE5500460DCD57F
:1001B30050D980877BFF7A0279C5D202809C79105F
:1001C30080027908C206C2088008D2D5790A800461
:1001D300790AC2D5E550047002F550E4FAFDFEFF3A
:1001E300120036FC7B08200113120036FD7B103011
:1001F300000A120036FE120036FF7B20EC3382D554
:1002030092D55013C3E43000069FFFE49EFEE42022
:1002130001039DFDE49CFCE4CBF8C201EC700CCF20
:10022300CECDCCE824F8F870F38017C3EF33FFEE9C
:1002330033FEED33FDEC33FCEB33FB994002FB0F54
:10024300D8E9EB300105F8D0E0C448B201C0E00AB8
:10025300EC4D4E4F78207B0070C2EAB5500040BC95
:10026300C0E01202CBD0F0D0E0200104C4C0E0C44F
:10027300B201C0F012005AD0F0D5F0EB0200AA127E
:10028300054E01475301C15801184C01144201C5E1
:100293004F01CD4401CD49012D4301D35501B7464B
:1002A30001B74501B747037350011C2D01202E01EF
:1002B300432B012423014120035C2A00DC48000076
:1002C300013B3F3F3F00790AA2D5200314300509C3
:1002D300B910020404B9080104A2D5200602500192
:1002E300042002689202B54F005034C0E07F2030F2
:1002F30003197F30A20272067205500F120322C245
:1003030002C206C205C2087F30800F300503E9C070
:10031300E0120071300503D0E0F9D0E0B54FCC30E6
:1003230005177F30B9100C1200717F583004077F16
:10033300788003B908031200713002057F2D020093
:10034300717F202008F87F2B2006F322920280CFB2
:10035300286E756C6C2900D2011200363001F8C288
:1003630001784F30D50108F60200DC2D504349587F
:100373001200362403B405004001E490036E931287
:100383000062743A120062D203754F040201C1E4A1
:10039300F522F523120003D2AF7BFF7A09793F12CE
:1003A300079D1200269080117402F0A3F0A3F0A31E
:1003B300F0A3F0A3F0A3F090800D7481F0A3F0A359
:1003C300F00509E50970020508E51C640870560587
:1003D30016E51675F00A1204A385F016740C25169B
:1003E300F8A619E4F51CE51664097039E50C650DEA
:1003F3007033E50D650E702DE50E650F7027E50F63
:10040300B51022E510B5111DE511B51218E512B5A9
:100413001313E513B5140EE514B51509750A007524
:100423000B01851118E50B450A6096E518651D60FB
:1004330065E5185480FF3395E04F6004D2A680022F
:10044300C2A6E51830E604D2A78002C2A7E5183099
:10045300E504D2A48002C2A4E51830E404D2A58046
:1004630002C2A5E51830E304D2A28002C2A2E518B5
:1004730030E204D2A18002C2A1E51830E104D2A384
:100483008002C2A37F5A12069B7FA512069BAF1858
:1004930012069B85181DE4F51CF50AF50B0203C42F
:1004A300C2D530F707B2D563F0FF05F030E70CB2E1
:1004B300D5F4048463F0FF05F080018430D502F4A1
:1004C3000422BB010689828A83E0225002E722BB11
:1004D300FE02E32289828A83E49322EB9FF5F0EA0A
:1004E3009E42F0E99D42F0E89C45F022E493FC74BF
:1004F3000193FD740293FE740393FF22BB010CE589
:100503008229F582E5833AF583E0225006E92582C4
:10051300F8E622BBFE06E92582F8E222E58229F508
:1005230082E5833AF583E49322BB010689828A83B9
:10053300F0225002F722BBFE01F322FAE6FB080881
:10054300E6F925F0F618E6CA3AF622D083D082F807
:10055300E4937012740193700DA3A393F874019341
:10056300F5828883E4737402936860EFA3A3A38086
:10057300DF8F278E268D258C24E49000AAF0A3F02C
:10058300900080F0A3F0C209F52AE52A25E025E0D2
:1005930024FFF582E43408F5831204EFAB27AA267F
:1005A300A925A824C31204DE7038E52A25E025E036
:1005B300241FF582E43409F583E493FE740193FF69
:1005C300C3E49FF52974049EF528E52A25E025E078
:1005D3002421F582E43409F5837401934480F5D82A
:1005E3008007052AE52AB408A1E52A6408601C905F
:1005F30080197408F090801804F0E528908069F061
:10060300908068E529F07598D0D2AC22787FE4F623
:10061300D8FD758152020656020392E493A3F8E4CF
:1006230093A34003F68001F208DFF48029E493A347
:10063300F85407240CC8C333C4540F4420C8834060
:1006430004F456800146F6DFE4800B01020408102F
:100653002040809008DDE47E019360BCA3FF543FFB
:1006630030E509541FFEE493A360010ECF54C02567
:10067300E060A840B8E493A3FAE493A3F8E493A357
:10068300C8C582C8CAC583CAF0A3C8C582C8CAC5BB
:1006930083CADFE9DEE780BE9000ABE0FD9000AAED
:1006A300E0FCC39D5006C3ED9CFE800DED2414FEBB
:1006B3009000AAE0FDC3EE9DFEEED3940140D9C2A3
:1006C300AC9000AAE004F0E075F01484E5F0F0E0EB
:1006D3002496F582E43400F583EFF0200920D2ACB0
:1006E3009000ABE004F0E075F01484E5F0F0E02452
:1006F30096F582E43400F583E0F599D20922D2AC71
:1007030022E59830E023E59854FC4401F5989000E5
:1007130080E004F0E075F01484E5F0F0E02482F565
:1007230082E43400F583E599F0E59830E130E5980B
:1007330054FC4402F5989000ABE0FF9000AAE06FF0
:10074300601AA3E004F0E075F01484E5F0F0E0240F
:1007530096F582E43400F583E0F59922C20922C0BC
:10076300E0C0F0C083C082C0D075D000C000C0011B
:10077300C002C003C004C005C006C007120704D0EE
:1007830007D006D005D004D003D002D001D000D0CA
:10079300D0D082D083D0F0D0E0328B248A25892632
:1007A3007536007537007538278B398A3A893B854A
:1007B300363C85373D85383E7B017A007900120847
:1007C3000B7B017A0079001208B875360075370083
:1007D30075380022C0E0C0D0E5D430E22675D404D9
:1007E300750800750900C3E51C648094885014E5FE
:1007F30019A2E713F519309705431980800353199C
:100803007F051CD0D0D0E032853942853A43853B01
:1008130044EBC53CFBEAC53DFAE9C53EF97F0978DF
:10082300451204C5F60809E970010ADFF4AB3CAAD6
:100833003DA93E02009290FC017480F0E490FC0616
:10084300F090FC057408F090FC017481F090FC02B8
:10085300E0FFE0FEE490FC01F0BF4803AF0622AFE7
:10086300CA2290FC017480F0E490FC06F090FC0531
:100873007406F090FC017481F090FC02E0FFE0FE4E
:10088300E490FC01F0BF4603AF0622AFCB22EFB4E6
:100893000A07740D12089C740A309811A899B813AA
:1008A3000CC2983098FDA899C298B811F63099FDFA
:1008B300C299F599228B398A3A893BAB39AA3AA96D
:1008C3003B1204C56013053BE53B7002053A14F97E
:1008D3001204C5FF12069B80E2220116000A0C00D7
:1008E3000000000000000000000118FF011D0002CD
:1008F300080000021A0000020A000000000004B011
:1009030000000960000012C00000258000004B00B9
:10091300000096000000E1000001C20001A0001FDA
:1009230000D0001F0068001F0034001F001A001FC2
:10093300000D001F000A001B0005001B4750494F14
:0C0943002044656D6F20436F64650A005E
:00000001FF
